{
  "contractName": "BetBeeDice",
  "abi": [
    {
      "inputs": [
        {
          "internalType": "address",
          "name": "_adminAddress",
          "type": "address"
        },
        {
          "internalType": "uint256",
          "name": "_minBetAmount",
          "type": "uint256"
        },
        {
          "internalType": "uint256",
          "name": "_maxBetAmount",
          "type": "uint256"
        },
        {
          "internalType": "uint256",
          "name": "_treasuryFee",
          "type": "uint256"
        }
      ],
      "stateMutability": "nonpayable",
      "type": "constructor"
    },
    {
      "anonymous": false,
      "inputs": [
        {
          "indexed": true,
          "internalType": "address",
          "name": "sender",
          "type": "address"
        },
        {
          "indexed": false,
          "internalType": "enum BetBeeDice.BetType",
          "name": "betType",
          "type": "uint8"
        },
        {
          "indexed": false,
          "internalType": "uint256",
          "name": "_amount",
          "type": "uint256"
        }
      ],
      "name": "Bet2To6",
      "type": "event"
    },
    {
      "anonymous": false,
      "inputs": [
        {
          "indexed": true,
          "internalType": "address",
          "name": "sender",
          "type": "address"
        },
        {
          "indexed": false,
          "internalType": "enum BetBeeDice.BetType",
          "name": "betType",
          "type": "uint8"
        },
        {
          "indexed": false,
          "internalType": "uint256",
          "name": "_amount",
          "type": "uint256"
        }
      ],
      "name": "Bet7",
      "type": "event"
    },
    {
      "anonymous": false,
      "inputs": [
        {
          "indexed": true,
          "internalType": "address",
          "name": "sender",
          "type": "address"
        },
        {
          "indexed": false,
          "internalType": "enum BetBeeDice.BetType",
          "name": "betType",
          "type": "uint8"
        },
        {
          "indexed": false,
          "internalType": "uint256",
          "name": "_amount",
          "type": "uint256"
        }
      ],
      "name": "Bet8To12",
      "type": "event"
    },
    {
      "anonymous": false,
      "inputs": [
        {
          "indexed": true,
          "internalType": "address",
          "name": "sender",
          "type": "address"
        },
        {
          "indexed": false,
          "internalType": "enum BetBeeDice.BetType",
          "name": "userBetType",
          "type": "uint8"
        },
        {
          "indexed": false,
          "internalType": "enum BetBeeDice.BetType",
          "name": "winType",
          "type": "uint8"
        }
      ],
      "name": "DiceRolled",
      "type": "event"
    },
    {
      "anonymous": false,
      "inputs": [
        {
          "indexed": true,
          "internalType": "address",
          "name": "sender",
          "type": "address"
        },
        {
          "indexed": false,
          "internalType": "uint256",
          "name": "amount",
          "type": "uint256"
        }
      ],
      "name": "Disperesed",
      "type": "event"
    },
    {
      "anonymous": false,
      "inputs": [
        {
          "indexed": true,
          "internalType": "address",
          "name": "admin",
          "type": "address"
        }
      ],
      "name": "NewAdmin",
      "type": "event"
    },
    {
      "anonymous": false,
      "inputs": [
        {
          "indexed": false,
          "internalType": "uint256",
          "name": "claimableTreasuryPercent",
          "type": "uint256"
        }
      ],
      "name": "NewClaimableTreasuryPercent",
      "type": "event"
    },
    {
      "anonymous": false,
      "inputs": [
        {
          "indexed": false,
          "internalType": "uint256",
          "name": "minBetAmount",
          "type": "uint256"
        }
      ],
      "name": "NewMaxBetAmount",
      "type": "event"
    },
    {
      "anonymous": false,
      "inputs": [
        {
          "indexed": false,
          "internalType": "uint256",
          "name": "minBetAmount",
          "type": "uint256"
        }
      ],
      "name": "NewMinBetAmount",
      "type": "event"
    },
    {
      "anonymous": false,
      "inputs": [
        {
          "indexed": false,
          "internalType": "uint256",
          "name": "treasuryFee",
          "type": "uint256"
        }
      ],
      "name": "NewTreasuryFee",
      "type": "event"
    },
    {
      "anonymous": false,
      "inputs": [
        {
          "indexed": true,
          "internalType": "address",
          "name": "previousOwner",
          "type": "address"
        },
        {
          "indexed": true,
          "internalType": "address",
          "name": "newOwner",
          "type": "address"
        }
      ],
      "name": "OwnershipTransferred",
      "type": "event"
    },
    {
      "anonymous": false,
      "inputs": [
        {
          "indexed": false,
          "internalType": "uint256",
          "name": "timestamp",
          "type": "uint256"
        }
      ],
      "name": "Paused",
      "type": "event"
    },
    {
      "anonymous": false,
      "inputs": [
        {
          "indexed": false,
          "internalType": "address",
          "name": "account",
          "type": "address"
        }
      ],
      "name": "Paused",
      "type": "event"
    },
    {
      "anonymous": false,
      "inputs": [
        {
          "indexed": true,
          "internalType": "address",
          "name": "admin",
          "type": "address"
        },
        {
          "indexed": false,
          "internalType": "uint256",
          "name": "amount",
          "type": "uint256"
        }
      ],
      "name": "TreasuryClaim",
      "type": "event"
    },
    {
      "anonymous": false,
      "inputs": [
        {
          "indexed": false,
          "internalType": "uint256",
          "name": "timestamp",
          "type": "uint256"
        }
      ],
      "name": "UnPaused",
      "type": "event"
    },
    {
      "anonymous": false,
      "inputs": [
        {
          "indexed": false,
          "internalType": "address",
          "name": "account",
          "type": "address"
        }
      ],
      "name": "Unpaused",
      "type": "event"
    },
    {
      "inputs": [],
      "name": "MAX_TREASURY_FEE",
      "outputs": [
        {
          "internalType": "uint256",
          "name": "",
          "type": "uint256"
        }
      ],
      "stateMutability": "view",
      "type": "function"
    },
    {
      "inputs": [],
      "name": "claimTreasury",
      "outputs": [],
      "stateMutability": "nonpayable",
      "type": "function"
    },
    {
      "inputs": [],
      "name": "claimableTreasuryPercent",
      "outputs": [
        {
          "internalType": "uint256",
          "name": "",
          "type": "uint256"
        }
      ],
      "stateMutability": "view",
      "type": "function"
    },
    {
      "inputs": [],
      "name": "getAdmin",
      "outputs": [
        {
          "internalType": "address",
          "name": "",
          "type": "address"
        }
      ],
      "stateMutability": "view",
      "type": "function"
    },
    {
      "inputs": [
        {
          "internalType": "address",
          "name": "",
          "type": "address"
        }
      ],
      "name": "ledger",
      "outputs": [
        {
          "internalType": "uint256",
          "name": "betAmount",
          "type": "uint256"
        },
        {
          "internalType": "enum BetBeeDice.BetType",
          "name": "betType",
          "type": "uint8"
        },
        {
          "internalType": "enum BetBeeDice.BetType",
          "name": "winType",
          "type": "uint8"
        },
        {
          "internalType": "uint256",
          "name": "amountDispersed",
          "type": "uint256"
        },
        {
          "internalType": "bool",
          "name": "dispersed",
          "type": "bool"
        }
      ],
      "stateMutability": "view",
      "type": "function"
    },
    {
      "inputs": [],
      "name": "maxBetAmount",
      "outputs": [
        {
          "internalType": "uint256",
          "name": "",
          "type": "uint256"
        }
      ],
      "stateMutability": "view",
      "type": "function"
    },
    {
      "inputs": [],
      "name": "minBetAmount",
      "outputs": [
        {
          "internalType": "uint256",
          "name": "",
          "type": "uint256"
        }
      ],
      "stateMutability": "view",
      "type": "function"
    },
    {
      "inputs": [],
      "name": "owner",
      "outputs": [
        {
          "internalType": "address",
          "name": "",
          "type": "address"
        }
      ],
      "stateMutability": "view",
      "type": "function"
    },
    {
      "inputs": [],
      "name": "paused",
      "outputs": [
        {
          "internalType": "bool",
          "name": "",
          "type": "bool"
        }
      ],
      "stateMutability": "view",
      "type": "function"
    },
    {
      "inputs": [],
      "name": "renounceOwnership",
      "outputs": [],
      "stateMutability": "nonpayable",
      "type": "function"
    },
    {
      "inputs": [
        {
          "internalType": "address",
          "name": "_admin",
          "type": "address"
        }
      ],
      "name": "setAdmin",
      "outputs": [],
      "stateMutability": "nonpayable",
      "type": "function"
    },
    {
      "inputs": [
        {
          "internalType": "uint256",
          "name": "_claimableTreasuryPercent",
          "type": "uint256"
        }
      ],
      "name": "setClaimableTreasuryPercent",
      "outputs": [],
      "stateMutability": "nonpayable",
      "type": "function"
    },
    {
      "inputs": [
        {
          "internalType": "uint256",
          "name": "_maxBetAmount",
          "type": "uint256"
        }
      ],
      "name": "setMaxBetAmount",
      "outputs": [],
      "stateMutability": "nonpayable",
      "type": "function"
    },
    {
      "inputs": [
        {
          "internalType": "uint256",
          "name": "_minBetAmount",
          "type": "uint256"
        }
      ],
      "name": "setMinBetAmount",
      "outputs": [],
      "stateMutability": "nonpayable",
      "type": "function"
    },
    {
      "inputs": [
        {
          "internalType": "uint256",
          "name": "_treasuryFee",
          "type": "uint256"
        }
      ],
      "name": "setTreasuryFee",
      "outputs": [],
      "stateMutability": "nonpayable",
      "type": "function"
    },
    {
      "inputs": [
        {
          "internalType": "address",
          "name": "newOwner",
          "type": "address"
        }
      ],
      "name": "transferOwnership",
      "outputs": [],
      "stateMutability": "nonpayable",
      "type": "function"
    },
    {
      "inputs": [],
      "name": "treasuryAmount",
      "outputs": [
        {
          "internalType": "uint256",
          "name": "",
          "type": "uint256"
        }
      ],
      "stateMutability": "view",
      "type": "function"
    },
    {
      "inputs": [],
      "name": "treasuryFee",
      "outputs": [
        {
          "internalType": "uint256",
          "name": "",
          "type": "uint256"
        }
      ],
      "stateMutability": "view",
      "type": "function"
    },
    {
      "stateMutability": "payable",
      "type": "receive"
    },
    {
      "inputs": [],
      "name": "pause",
      "outputs": [],
      "stateMutability": "nonpayable",
      "type": "function"
    },
    {
      "inputs": [],
      "name": "unPause",
      "outputs": [],
      "stateMutability": "nonpayable",
      "type": "function"
    },
    {
      "inputs": [],
      "name": "bet2To6",
      "outputs": [],
      "stateMutability": "payable",
      "type": "function"
    },
    {
      "inputs": [],
      "name": "bet8To12",
      "outputs": [],
      "stateMutability": "payable",
      "type": "function"
    },
    {
      "inputs": [],
      "name": "bet7",
      "outputs": [],
      "stateMutability": "payable",
      "type": "function"
    },
    {
      "inputs": [],
      "name": "rollDice",
      "outputs": [],
      "stateMutability": "nonpayable",
      "type": "function"
    }
  ],
  "bytecode": "0x608060405260506007553480156200001657600080fd5b5060405162003d8138038062003d8183398181016040528101906200003c919062000323565b8383838362000060620000546200022960201b60201c565b6200023160201b60201c565b60008060146101000a81548160ff0219169083151502179055506001808190555060008311620000c7576040517f08c379a0000000000000000000000000000000000000000000000000000000008152600401620000be9062000475565b60405180910390fd5b600381106200010d576040517f08c379a0000000000000000000000000000000000000000000000000000000008152600401620001049062000453565b60405180910390fd5b600073ffffffffffffffffffffffffffffffffffffffff168473ffffffffffffffffffffffffffffffffffffffff16141562000180576040517f08c379a0000000000000000000000000000000000000000000000000000000008152600401620001779062000431565b60405180910390fd5b828211620001c5576040517f08c379a0000000000000000000000000000000000000000000000000000000008152600401620001bc9062000497565b60405180910390fd5b83600260006101000a81548173ffffffffffffffffffffffffffffffffffffffff021916908373ffffffffffffffffffffffffffffffffffffffff16021790555082600481905550816005819055508060038190555050505050505050506200060b565b600033905090565b60008060009054906101000a900473ffffffffffffffffffffffffffffffffffffffff169050816000806101000a81548173ffffffffffffffffffffffffffffffffffffffff021916908373ffffffffffffffffffffffffffffffffffffffff1602179055508173ffffffffffffffffffffffffffffffffffffffff168173ffffffffffffffffffffffffffffffffffffffff167f8be0079c531659141344cd1fd0a4f28419497f9722a3daafe3b4186f6b6457e060405160405180910390a35050565b6000815190506200030681620005d7565b92915050565b6000815190506200031d81620005f1565b92915050565b6000806000806080858703121562000340576200033f62000508565b5b60006200035087828801620002f5565b945050602062000363878288016200030c565b935050604062000376878288016200030c565b925050606062000389878288016200030c565b91505092959194509250565b6000620003a4601583620004b9565b9150620003b1826200050d565b602082019050919050565b6000620003cb601883620004b9565b9150620003d88262000536565b602082019050919050565b6000620003f2601683620004b9565b9150620003ff826200055f565b602082019050919050565b600062000419602383620004b9565b9150620004268262000588565b604082019050919050565b600060208201905081810360008301526200044c8162000395565b9050919050565b600060208201905081810360008301526200046e81620003bc565b9050919050565b600060208201905081810360008301526200049081620003e3565b9050919050565b60006020820190508181036000830152620004b2816200040a565b9050919050565b600082825260208201905092915050565b6000620004d782620004de565b9050919050565b600073ffffffffffffffffffffffffffffffffffffffff82169050919050565b6000819050919050565b600080fd5b7f496e76616c69642061646d696e20616464726573730000000000000000000000600082015250565b7f54726561737572792066656520697320746f6f20686967680000000000000000600082015250565b7f496e76616c6964204d696e2062657420616d6f756e7400000000000000000000600082015250565b7f6d61782062657420616d6f756e74206c657373207468616e206d696e20616d6f60008201527f756e740000000000000000000000000000000000000000000000000000000000602082015250565b620005e281620004ca565b8114620005ee57600080fd5b50565b620005fc81620004fe565b81146200060857600080fd5b50565b613766806200061b6000396000f3fe60806040526004361061014d5760003560e01c8063837e7cc6116100b6578063e249d95d1161006f578063e249d95d146103c3578063f2b3c809146103cd578063f2fde38b146103f8578063f7b188a514610421578063fa968eea14610438578063fbfa941f1461046357610154565b8063837e7cc6146102e95780638456cb59146103005780638da5cb5b14610317578063bddaca4314610342578063cab11d5d1461036d578063cc32d1761461039857610154565b80636e9960c3116101085780636e9960c314610222578063704b6c021461024d578063715018a61461027657806377e741c71461028d5780637cfbc7a5146102b6578063831b9da8146102df57610154565b80623bdc7414610159578062a945781461017057806319446cd41461017a578063368acb09146101a35780635c975abb146101ce5780636c188593146101f957610154565b3661015457005b600080fd5b34801561016557600080fd5b5061016e6104a4565b005b6101786107bb565b005b34801561018657600080fd5b506101a1600480360381019061019c9190612aae565b610af9565b005b3480156101af57600080fd5b506101b8610c0f565b6040516101c591906130d0565b60405180910390f35b3480156101da57600080fd5b506101e3610c15565b6040516101f09190612e03565b60405180910390f35b34801561020557600080fd5b50610220600480360381019061021b9190612aae565b610c2b565b005b34801561022e57600080fd5b50610237610d87565b6040516102449190612de8565b60405180910390f35b34801561025957600080fd5b50610274600480360381019061026f9190612a81565b610db1565b005b34801561028257600080fd5b5061028b610f24565b005b34801561029957600080fd5b506102b460048036038101906102af9190612aae565b610fac565b005b3480156102c257600080fd5b506102dd60048036038101906102d89190612aae565b611107565b005b6102e7611263565b005b3480156102f557600080fd5b506102fe6115a1565b005b34801561030c57600080fd5b50610315611b6e565b005b34801561032357600080fd5b5061032c611c87565b6040516103399190612de8565b60405180910390f35b34801561034e57600080fd5b50610357611cb0565b60405161036491906130d0565b60405180910390f35b34801561037957600080fd5b50610382611cb6565b60405161038f91906130d0565b60405180910390f35b3480156103a457600080fd5b506103ad611cbc565b6040516103ba91906130d0565b60405180910390f35b6103cb611cc2565b005b3480156103d957600080fd5b506103e2612000565b6040516103ef91906130d0565b60405180910390f35b34801561040457600080fd5b5061041f600480360381019061041a9190612a81565b612005565b005b34801561042d57600080fd5b506104366120fd565b005b34801561044457600080fd5b5061044d612215565b60405161045a91906130d0565b60405180910390f35b34801561046f57600080fd5b5061048a60048036038101906104859190612a81565b61221b565b60405161049b9594939291906130eb565b60405180910390f35b600260015414156104ea576040517f08c379a00000000000000000000000000000000000000000000000000000000081526004016104e190613070565b60405180910390fd5b6002600181905550600260009054906101000a900473ffffffffffffffffffffffffffffffffffffffff1673ffffffffffffffffffffffffffffffffffffffff163373ffffffffffffffffffffffffffffffffffffffff1614610582576040517f08c379a0000000000000000000000000000000000000000000000000000000008152600401610579906130b0565b60405180910390fd5b61058b33612278565b156105cb576040517f08c379a00000000000000000000000000000000000000000000000000000000081526004016105c290612f10565b60405180910390fd5b3273ffffffffffffffffffffffffffffffffffffffff163373ffffffffffffffffffffffffffffffffffffffff1614610639576040517f08c379a000000000000000000000000000000000000000000000000000000000815260040161063090612fd0565b60405180910390fd5b6000606460075460065461064d91906131e1565b61065791906131b0565b9050806006600082825461066b919061323b565b925050819055506000600260009054906101000a900473ffffffffffffffffffffffffffffffffffffffff1673ffffffffffffffffffffffffffffffffffffffff16826040516106ba90612dd3565b60006040518083038185875af1925050503d80600081146106f7576040519150601f19603f3d011682016040523d82523d6000602084013e6106fc565b606091505b5050905080610740576040517f08c379a000000000000000000000000000000000000000000000000000000000815260040161073790612e90565b60405180910390fd5b600260009054906101000a900473ffffffffffffffffffffffffffffffffffffffff1673ffffffffffffffffffffffffffffffffffffffff167fecd60683965e7a828740c1cd2d719fab1ac61fd7b0e1871f1b38d9ee392ae1a7836040516107a891906130d0565b60405180910390a2505060018081905550565b6107c3610c15565b15610803576040517f08c379a00000000000000000000000000000000000000000000000000000000081526004016107fa90612f90565b60405180910390fd5b60026001541415610849576040517f08c379a000000000000000000000000000000000000000000000000000000000815260040161084090613070565b60405180910390fd5b600260018190555061085a33612278565b1561089a576040517f08c379a000000000000000000000000000000000000000000000000000000000815260040161089190612f10565b60405180910390fd5b3273ffffffffffffffffffffffffffffffffffffffff163373ffffffffffffffffffffffffffffffffffffffff1614610908576040517f08c379a00000000000000000000000000000000000000000000000000000000081526004016108ff90612fd0565b60405180910390fd5b60045434101561094d576040517f08c379a000000000000000000000000000000000000000000000000000000000815260040161094490612f70565b60405180910390fd5b600554341115610992576040517f08c379a000000000000000000000000000000000000000000000000000000000815260040161098990612ff0565b60405180910390fd5b34600860003373ffffffffffffffffffffffffffffffffffffffff1673ffffffffffffffffffffffffffffffffffffffff168152602001908152602001600020600001819055506001600860003373ffffffffffffffffffffffffffffffffffffffff1673ffffffffffffffffffffffffffffffffffffffff16815260200190815260200160002060010160006101000a81548160ff02191690836003811115610a3f57610a3e61333a565b5b02179055506000600860003373ffffffffffffffffffffffffffffffffffffffff1673ffffffffffffffffffffffffffffffffffffffff16815260200190815260200160002060030160006101000a81548160ff0219169083151502179055503373ffffffffffffffffffffffffffffffffffffffff167fc955981b8d3cbf6513b1a984cae6a284b49a165159db500fa4bd39908b159dc4600134604051610ae8929190612e47565b60405180910390a260018081905550565b600260009054906101000a900473ffffffffffffffffffffffffffffffffffffffff1673ffffffffffffffffffffffffffffffffffffffff163373ffffffffffffffffffffffffffffffffffffffff1614610b89576040517f08c379a0000000000000000000000000000000000000000000000000000000008152600401610b80906130b0565b60405180910390fd5b60008111610bcc576040517f08c379a0000000000000000000000000000000000000000000000000000000008152600401610bc390613030565b60405180910390fd5b806007819055507fb3c38e3948eab3b348ca48fc24f958ced2d2611b79865a5468551af855971b8d600754604051610c0491906130d0565b60405180910390a150565b60065481565b60008060149054906101000a900460ff16905090565b610c33610c15565b610c72576040517f08c379a0000000000000000000000000000000000000000000000000000000008152600401610c6990612ed0565b60405180910390fd5b600260009054906101000a900473ffffffffffffffffffffffffffffffffffffffff1673ffffffffffffffffffffffffffffffffffffffff163373ffffffffffffffffffffffffffffffffffffffff1614610d02576040517f08c379a0000000000000000000000000000000000000000000000000000000008152600401610cf9906130b0565b60405180910390fd5b6000811415610d46576040517f08c379a0000000000000000000000000000000000000000000000000000000008152600401610d3d90613050565b60405180910390fd5b806004819055507fbe054849fe210c446a3b3f68394753f210607326b38581dc64bd2e94a87f018281604051610d7c91906130d0565b60405180910390a150565b6000600260009054906101000a900473ffffffffffffffffffffffffffffffffffffffff16905090565b610db961228b565b73ffffffffffffffffffffffffffffffffffffffff16610dd7611c87565b73ffffffffffffffffffffffffffffffffffffffff1614610e2d576040517f08c379a0000000000000000000000000000000000000000000000000000000008152600401610e2490613010565b60405180910390fd5b600073ffffffffffffffffffffffffffffffffffffffff168173ffffffffffffffffffffffffffffffffffffffff161415610e9d576040517f08c379a0000000000000000000000000000000000000000000000000000000008152600401610e9490612fb0565b60405180910390fd5b80600260006101000a81548173ffffffffffffffffffffffffffffffffffffffff021916908373ffffffffffffffffffffffffffffffffffffffff1602179055508073ffffffffffffffffffffffffffffffffffffffff167f71614071b88dee5e0b2ae578a9dd7b2ebbe9ae832ba419dc0242cd065a290b6c60405160405180910390a250565b610f2c61228b565b73ffffffffffffffffffffffffffffffffffffffff16610f4a611c87565b73ffffffffffffffffffffffffffffffffffffffff1614610fa0576040517f08c379a0000000000000000000000000000000000000000000000000000000008152600401610f9790613010565b60405180910390fd5b610faa6000612293565b565b610fb4610c15565b610ff3576040517f08c379a0000000000000000000000000000000000000000000000000000000008152600401610fea90612ed0565b60405180910390fd5b600260009054906101000a900473ffffffffffffffffffffffffffffffffffffffff1673ffffffffffffffffffffffffffffffffffffffff163373ffffffffffffffffffffffffffffffffffffffff1614611083576040517f08c379a000000000000000000000000000000000000000000000000000000000815260040161107a906130b0565b60405180910390fd5b600381106110c6576040517f08c379a00000000000000000000000000000000000000000000000000000000081526004016110bd90612f30565b60405180910390fd5b806003819055507f938d9272b26145999fe14f6124b73f122e1e023fc5de069c74ade1254408a976816040516110fc91906130d0565b60405180910390a150565b61110f610c15565b61114e576040517f08c379a000000000000000000000000000000000000000000000000000000000815260040161114590612ed0565b60405180910390fd5b600260009054906101000a900473ffffffffffffffffffffffffffffffffffffffff1673ffffffffffffffffffffffffffffffffffffffff163373ffffffffffffffffffffffffffffffffffffffff16146111de576040517f08c379a00000000000000000000000000000000000000000000000000000000081526004016111d5906130b0565b60405180910390fd5b6004548111611222576040517f08c379a000000000000000000000000000000000000000000000000000000000815260040161121990613050565b60405180910390fd5b806005819055507ffcaf5a14e40cc15968fda62f9fb1eb32c008347751c62ade935e834cba2e6b0b8160405161125891906130d0565b60405180910390a150565b61126b610c15565b156112ab576040517f08c379a00000000000000000000000000000000000000000000000000000000081526004016112a290612f90565b60405180910390fd5b600260015414156112f1576040517f08c379a00000000000000000000000000000000000000000000000000000000081526004016112e890613070565b60405180910390fd5b600260018190555061130233612278565b15611342576040517f08c379a000000000000000000000000000000000000000000000000000000000815260040161133990612f10565b60405180910390fd5b3273ffffffffffffffffffffffffffffffffffffffff163373ffffffffffffffffffffffffffffffffffffffff16146113b0576040517f08c379a00000000000000000000000000000000000000000000000000000000081526004016113a790612fd0565b60405180910390fd5b6004543410156113f5576040517f08c379a00000000000000000000000000000000000000000000000000000000081526004016113ec90612f70565b60405180910390fd5b60055434111561143a576040517f08c379a000000000000000000000000000000000000000000000000000000000815260040161143190612ff0565b60405180910390fd5b34600860003373ffffffffffffffffffffffffffffffffffffffff1673ffffffffffffffffffffffffffffffffffffffff168152602001908152602001600020600001819055506002600860003373ffffffffffffffffffffffffffffffffffffffff1673ffffffffffffffffffffffffffffffffffffffff16815260200190815260200160002060010160006101000a81548160ff021916908360038111156114e7576114e661333a565b5b02179055506000600860003373ffffffffffffffffffffffffffffffffffffffff1673ffffffffffffffffffffffffffffffffffffffff16815260200190815260200160002060030160006101000a81548160ff0219169083151502179055503373ffffffffffffffffffffffffffffffffffffffff167fc955981b8d3cbf6513b1a984cae6a284b49a165159db500fa4bd39908b159dc4600234604051611590929190612e47565b60405180910390a260018081905550565b6115a9610c15565b156115e9576040517f08c379a00000000000000000000000000000000000000000000000000000000081526004016115e090612f90565b60405180910390fd5b6115f233612278565b15611632576040517f08c379a000000000000000000000000000000000000000000000000000000000815260040161162990612f10565b60405180910390fd5b3273ffffffffffffffffffffffffffffffffffffffff163373ffffffffffffffffffffffffffffffffffffffff16146116a0576040517f08c379a000000000000000000000000000000000000000000000000000000000815260040161169790612fd0565b60405180910390fd5b6000600860003373ffffffffffffffffffffffffffffffffffffffff1673ffffffffffffffffffffffffffffffffffffffff1681526020019081526020016000206000015411611725576040517f08c379a000000000000000000000000000000000000000000000000000000000815260040161171c90612f50565b60405180910390fd5b600860003373ffffffffffffffffffffffffffffffffffffffff1673ffffffffffffffffffffffffffffffffffffffff16815260200190815260200160002060030160009054906101000a900460ff16156117b5576040517f08c379a00000000000000000000000000000000000000000000000000000000081526004016117ac90612e70565b60405180910390fd5b60006117bf612357565b60ff169050600281101580156117d6575060068111155b1561184b576001600860003373ffffffffffffffffffffffffffffffffffffffff1673ffffffffffffffffffffffffffffffffffffffff16815260200190815260200160002060010160016101000a81548160ff021916908360038111156118415761184061333a565b5b0217905550611949565b6008811015801561185d5750600c8111155b156118d2576003600860003373ffffffffffffffffffffffffffffffffffffffff1673ffffffffffffffffffffffffffffffffffffffff16815260200190815260200160002060010160016101000a81548160ff021916908360038111156118c8576118c761333a565b5b0217905550611948565b6007811415611947576002600860003373ffffffffffffffffffffffffffffffffffffffff1673ffffffffffffffffffffffffffffffffffffffff16815260200190815260200160002060010160016101000a81548160ff021916908360038111156119415761194061333a565b5b02179055505b5b5b600860003373ffffffffffffffffffffffffffffffffffffffff1673ffffffffffffffffffffffffffffffffffffffff16815260200190815260200160002060010160019054906101000a900460ff1660038111156119ab576119aa61333a565b5b600860003373ffffffffffffffffffffffffffffffffffffffff1673ffffffffffffffffffffffffffffffffffffffff16815260200190815260200160002060010160009054906101000a900460ff166003811115611a0d57611a0c61333a565b5b1415611a2157611a1c33612361565b611a7d565b600860003373ffffffffffffffffffffffffffffffffffffffff1673ffffffffffffffffffffffffffffffffffffffff1681526020019081526020016000206000015460066000828254611a75919061315a565b925050819055505b3373ffffffffffffffffffffffffffffffffffffffff167fb373a4d4c64328dd6dea54196c14fe4fc132e5002c7248dd8f458a3c629cef0d600860003373ffffffffffffffffffffffffffffffffffffffff1673ffffffffffffffffffffffffffffffffffffffff16815260200190815260200160002060010160009054906101000a900460ff16600860003373ffffffffffffffffffffffffffffffffffffffff1673ffffffffffffffffffffffffffffffffffffffff16815260200190815260200160002060010160019054906101000a900460ff16604051611b63929190612e1e565b60405180910390a250565b611b76610c15565b15611bb6576040517f08c379a0000000000000000000000000000000000000000000000000000000008152600401611bad90612f90565b60405180910390fd5b600260009054906101000a900473ffffffffffffffffffffffffffffffffffffffff1673ffffffffffffffffffffffffffffffffffffffff163373ffffffffffffffffffffffffffffffffffffffff1614611c46576040517f08c379a0000000000000000000000000000000000000000000000000000000008152600401611c3d906130b0565b60405180910390fd5b611c4e612862565b7f32fb7c9891bc4f963c7de9f1186d2a7755c7d6e9f4604dabe1d8bb3027c2f49e42604051611c7d91906130d0565b60405180910390a1565b60008060009054906101000a900473ffffffffffffffffffffffffffffffffffffffff16905090565b60075481565b60055481565b60035481565b611cca610c15565b15611d0a576040517f08c379a0000000000000000000000000000000000000000000000000000000008152600401611d0190612f90565b60405180910390fd5b60026001541415611d50576040517f08c379a0000000000000000000000000000000000000000000000000000000008152600401611d4790613070565b60405180910390fd5b6002600181905550611d6133612278565b15611da1576040517f08c379a0000000000000000000000000000000000000000000000000000000008152600401611d9890612f10565b60405180910390fd5b3273ffffffffffffffffffffffffffffffffffffffff163373ffffffffffffffffffffffffffffffffffffffff1614611e0f576040517f08c379a0000000000000000000000000000000000000000000000000000000008152600401611e0690612fd0565b60405180910390fd5b600454341015611e54576040517f08c379a0000000000000000000000000000000000000000000000000000000008152600401611e4b90612f70565b60405180910390fd5b600554341115611e99576040517f08c379a0000000000000000000000000000000000000000000000000000000008152600401611e9090612ff0565b60405180910390fd5b34600860003373ffffffffffffffffffffffffffffffffffffffff1673ffffffffffffffffffffffffffffffffffffffff168152602001908152602001600020600001819055506003600860003373ffffffffffffffffffffffffffffffffffffffff1673ffffffffffffffffffffffffffffffffffffffff16815260200190815260200160002060010160006101000a81548160ff02191690836003811115611f4657611f4561333a565b5b02179055506000600860003373ffffffffffffffffffffffffffffffffffffffff1673ffffffffffffffffffffffffffffffffffffffff16815260200190815260200160002060030160006101000a81548160ff0219169083151502179055503373ffffffffffffffffffffffffffffffffffffffff167fed61324aac701b9353c6bed8e7d8e58192fde8f423cd9579b9de8045bb721a12600334604051611fef929190612e47565b60405180910390a260018081905550565b600381565b61200d61228b565b73ffffffffffffffffffffffffffffffffffffffff1661202b611c87565b73ffffffffffffffffffffffffffffffffffffffff1614612081576040517f08c379a000000000000000000000000000000000000000000000000000000000815260040161207890613010565b60405180910390fd5b600073ffffffffffffffffffffffffffffffffffffffff168173ffffffffffffffffffffffffffffffffffffffff1614156120f1576040517f08c379a00000000000000000000000000000000000000000000000000000000081526004016120e890612ef0565b60405180910390fd5b6120fa81612293565b50565b612105610c15565b612144576040517f08c379a000000000000000000000000000000000000000000000000000000000815260040161213b90612ed0565b60405180910390fd5b600260009054906101000a900473ffffffffffffffffffffffffffffffffffffffff1673ffffffffffffffffffffffffffffffffffffffff163373ffffffffffffffffffffffffffffffffffffffff16146121d4576040517f08c379a00000000000000000000000000000000000000000000000000000000081526004016121cb906130b0565b60405180910390fd5b6121dc612905565b7f32fb7c9891bc4f963c7de9f1186d2a7755c7d6e9f4604dabe1d8bb3027c2f49e4260405161220b91906130d0565b60405180910390a1565b60045481565b60086020528060005260406000206000915090508060000154908060010160009054906101000a900460ff16908060010160019054906101000a900460ff16908060020154908060030160009054906101000a900460ff16905085565b600080823b905060008111915050919050565b600033905090565b60008060009054906101000a900473ffffffffffffffffffffffffffffffffffffffff169050816000806101000a81548173ffffffffffffffffffffffffffffffffffffffff021916908373ffffffffffffffffffffffffffffffffffffffff1602179055508173ffffffffffffffffffffffffffffffffffffffff168173ffffffffffffffffffffffffffffffffffffffff167f8be0079c531659141344cd1fd0a4f28419497f9722a3daafe3b4186f6b6457e060405160405180910390a35050565b6000808091505090565b600860008273ffffffffffffffffffffffffffffffffffffffff1673ffffffffffffffffffffffffffffffffffffffff16815260200190815260200160002060010160019054906101000a900460ff1660038111156123c3576123c261333a565b5b600860008373ffffffffffffffffffffffffffffffffffffffff1673ffffffffffffffffffffffffffffffffffffffff16815260200190815260200160002060010160009054906101000a900460ff1660038111156124255761242461333a565b5b14612465576040517f08c379a000000000000000000000000000000000000000000000000000000000815260040161245c90613090565b60405180910390fd5b600860008273ffffffffffffffffffffffffffffffffffffffff1673ffffffffffffffffffffffffffffffffffffffff16815260200190815260200160002060030160009054906101000a900460ff16156124f5576040517f08c379a00000000000000000000000000000000000000000000000000000000081526004016124ec90612eb0565b60405180910390fd5b60008060006064600354600860008773ffffffffffffffffffffffffffffffffffffffff1673ffffffffffffffffffffffffffffffffffffffff1681526020019081526020016000206000015461254c91906131e1565b61255691906131b0565b9050806006600082825461256a919061315a565b92505081905550600081600860008773ffffffffffffffffffffffffffffffffffffffff1673ffffffffffffffffffffffffffffffffffffffff168152602001908152602001600020600001546125c1919061323b565b9050600160038111156125d7576125d661333a565b5b600860008773ffffffffffffffffffffffffffffffffffffffff1673ffffffffffffffffffffffffffffffffffffffff16815260200190815260200160002060010160019054906101000a900460ff1660038111156126395761263861333a565b5b14806126b757506003808111156126535761265261333a565b5b600860008773ffffffffffffffffffffffffffffffffffffffff1673ffffffffffffffffffffffffffffffffffffffff16815260200190815260200160002060010160019054906101000a900460ff1660038111156126b5576126b461333a565b5b145b156126c55760969350612747565b600260038111156126d9576126d861333a565b5b600860008773ffffffffffffffffffffffffffffffffffffffff1673ffffffffffffffffffffffffffffffffffffffff16815260200190815260200160002060010160019054906101000a900460ff16600381111561273b5761273a61333a565b5b14156127465760c893505b5b6064848261275591906131e1565b61275f91906131b0565b925082600860008773ffffffffffffffffffffffffffffffffffffffff1673ffffffffffffffffffffffffffffffffffffffff168152602001908152602001600020600201819055506001600860008773ffffffffffffffffffffffffffffffffffffffff1673ffffffffffffffffffffffffffffffffffffffff16815260200190815260200160002060030160006101000a81548160ff02191690831515021790555061280d85846129a6565b8473ffffffffffffffffffffffffffffffffffffffff167f17da7437bf2a4cf17d9010f1970076a62c4dd5b275d836780398303dee056dfc8460405161285391906130d0565b60405180910390a25050505050565b61286a610c15565b156128aa576040517f08c379a00000000000000000000000000000000000000000000000000000000081526004016128a190612f90565b60405180910390fd5b6001600060146101000a81548160ff0219169083151502179055507f62e78cea01bee320cd4e420270b5ea74000d11b0c9f74754ebdbfc544b05a2586128ee61228b565b6040516128fb9190612de8565b60405180910390a1565b61290d610c15565b61294c576040517f08c379a000000000000000000000000000000000000000000000000000000000815260040161294390612ed0565b60405180910390fd5b60008060146101000a81548160ff0219169083151502179055507f5db9ee0a495bf2e6ff9c91a7834c1ba4fdd244a5e8aa4e537bd38aeae4b073aa61298f61228b565b60405161299c9190612de8565b60405180910390a1565b60008273ffffffffffffffffffffffffffffffffffffffff16826040516129cc90612dd3565b60006040518083038185875af1925050503d8060008114612a09576040519150601f19603f3d011682016040523d82523d6000602084013e612a0e565b606091505b5050905080612a52576040517f08c379a0000000000000000000000000000000000000000000000000000000008152600401612a4990612e90565b60405180910390fd5b505050565b600081359050612a6681613702565b92915050565b600081359050612a7b81613719565b92915050565b600060208284031215612a9757612a96613369565b5b6000612aa584828501612a57565b91505092915050565b600060208284031215612ac457612ac3613369565b5b6000612ad284828501612a6c565b91505092915050565b612ae48161326f565b82525050565b612af381613281565b82525050565b612b02816132ca565b82525050565b6000612b15600d83613149565b9150612b208261336e565b602082019050919050565b6000612b38601f83613149565b9150612b4382613397565b602082019050919050565b6000612b5b601183613149565b9150612b66826133c0565b602082019050919050565b6000612b7e601483613149565b9150612b89826133e9565b602082019050919050565b6000612ba1602683613149565b9150612bac82613412565b604082019050919050565b6000612bc4601483613149565b9150612bcf82613461565b602082019050919050565b6000612be7601883613149565b9150612bf28261348a565b602082019050919050565b6000612c0a601d83613149565b9150612c15826134b3565b602082019050919050565b6000612c2d602c83613149565b9150612c38826134dc565b604082019050919050565b6000612c50601083613149565b9150612c5b8261352b565b602082019050919050565b6000612c73601683613149565b9150612c7e82613554565b602082019050919050565b6000612c96601a83613149565b9150612ca18261357d565b602082019050919050565b6000612cb9602b83613149565b9150612cc4826135a6565b604082019050919050565b6000612cdc602083613149565b9150612ce7826135f5565b602082019050919050565b6000612cff601d83613149565b9150612d0a8261361e565b602082019050919050565b6000612d22601583613149565b9150612d2d82613647565b602082019050919050565b6000612d4560008361313e565b9150612d5082613670565b600082019050919050565b6000612d68601f83613149565b9150612d7382613673565b602082019050919050565b6000612d8b600683613149565b9150612d968261369c565b602082019050919050565b6000612dae600983613149565b9150612db9826136c5565b602082019050919050565b612dcd816132c0565b82525050565b6000612dde82612d38565b9150819050919050565b6000602082019050612dfd6000830184612adb565b92915050565b6000602082019050612e186000830184612aea565b92915050565b6000604082019050612e336000830185612af9565b612e406020830184612af9565b9392505050565b6000604082019050612e5c6000830185612af9565b612e696020830184612dc4565b9392505050565b60006020820190508181036000830152612e8981612b08565b9050919050565b60006020820190508181036000830152612ea981612b2b565b9050919050565b60006020820190508181036000830152612ec981612b4e565b9050919050565b60006020820190508181036000830152612ee981612b71565b9050919050565b60006020820190508181036000830152612f0981612b94565b9050919050565b60006020820190508181036000830152612f2981612bb7565b9050919050565b60006020820190508181036000830152612f4981612bda565b9050919050565b60006020820190508181036000830152612f6981612bfd565b9050919050565b60006020820190508181036000830152612f8981612c20565b9050919050565b60006020820190508181036000830152612fa981612c43565b9050919050565b60006020820190508181036000830152612fc981612c66565b9050919050565b60006020820190508181036000830152612fe981612c89565b9050919050565b6000602082019050818103600083015261300981612cac565b9050919050565b6000602082019050818103600083015261302981612ccf565b9050919050565b6000602082019050818103600083015261304981612cf2565b9050919050565b6000602082019050818103600083015261306981612d15565b9050919050565b6000602082019050818103600083015261308981612d5b565b9050919050565b600060208201905081810360008301526130a981612d7e565b9050919050565b600060208201905081810360008301526130c981612da1565b9050919050565b60006020820190506130e56000830184612dc4565b92915050565b600060a0820190506131006000830188612dc4565b61310d6020830187612af9565b61311a6040830186612af9565b6131276060830185612dc4565b6131346080830184612aea565b9695505050505050565b600081905092915050565b600082825260208201905092915050565b6000613165826132c0565b9150613170836132c0565b9250827fffffffffffffffffffffffffffffffffffffffffffffffffffffffffffffffff038211156131a5576131a46132dc565b5b828201905092915050565b60006131bb826132c0565b91506131c6836132c0565b9250826131d6576131d561330b565b5b828204905092915050565b60006131ec826132c0565b91506131f7836132c0565b9250817fffffffffffffffffffffffffffffffffffffffffffffffffffffffffffffffff04831182151516156132305761322f6132dc565b5b828202905092915050565b6000613246826132c0565b9150613251836132c0565b925082821015613264576132636132dc565b5b828203905092915050565b600061327a826132a0565b9050919050565b60008115159050919050565b600081905061329b826136ee565b919050565b600073ffffffffffffffffffffffffffffffffffffffff82169050919050565b6000819050919050565b60006132d58261328d565b9050919050565b7f4e487b7100000000000000000000000000000000000000000000000000000000600052601160045260246000fd5b7f4e487b7100000000000000000000000000000000000000000000000000000000600052601260045260246000fd5b7f4e487b7100000000000000000000000000000000000000000000000000000000600052602160045260246000fd5b600080fd5b7f416c726561647920656e64656400000000000000000000000000000000000000600082015250565b7f5472616e7366657248656c7065723a205452414e534645525f4641494c454400600082015250565b7f416c726561647920646973706572736564000000000000000000000000000000600082015250565b7f5061757361626c653a206e6f7420706175736564000000000000000000000000600082015250565b7f4f776e61626c653a206e6577206f776e657220697320746865207a65726f206160008201527f6464726573730000000000000000000000000000000000000000000000000000602082015250565b7f436f6e7472616374206e6f7420616c6c6f776564000000000000000000000000600082015250565b7f54726561737572792066656520697320746f6f20686967680000000000000000600082015250565b7f4265742066697273742c20726f6c6c207468652064696365206e657874000000600082015250565b7f42657420616d6f756e74206d7573742062652067726561746572207468616e2060008201527f6d696e426574416d6f756e740000000000000000000000000000000000000000602082015250565b7f5061757361626c653a2070617573656400000000000000000000000000000000600082015250565b7f43616e6e6f74206265207a65726f206164647265737300000000000000000000600082015250565b7f50726f787920636f6e7472616374206e6f7420616c6c6f776564000000000000600082015250565b7f42657420616d6f756e74206d757374206265206c6573736572207468616e206d60008201527f6178426574416d6f756e74000000000000000000000000000000000000000000602082015250565b7f4f776e61626c653a2063616c6c6572206973206e6f7420746865206f776e6572600082015250565b7f416d6f756e742063616e6e6f74206265207a65726f206f72206c657373000000600082015250565b7f4d757374206265207375706572696f7220746f20300000000000000000000000600082015250565b50565b7f5265656e7472616e637947756172643a207265656e7472616e742063616c6c00600082015250565b7f4e6f2077696e0000000000000000000000000000000000000000000000000000600082015250565b7f4e6f742061646d696e0000000000000000000000000000000000000000000000600082015250565b600481106136ff576136fe61333a565b5b50565b61370b8161326f565b811461371657600080fd5b50565b613722816132c0565b811461372d57600080fd5b5056fea26469706673582212209e4e18e7878235a5c7da1112bf3fe8bfeb1136a238c8586f6937a96203944a3c64736f6c63430008070033",
  "immutableReferences": {},
  "source": "// SPDX-License-Identifier: MIT\n\npragma solidity ^0.8.7;\n\nimport \"./DiceAdministrator.sol\";\n\n/**\n * @title BetBeeDice\n */\ncontract BetBeeDice is DiceAdministrator {\n\n    enum BetType {UNKNOWN, TWOTOSIX, SEVEN, EIGHTTOTWELVE}\n\n    struct BetInfo {\n        uint256 betAmount;\n        BetType betType;\n        BetType winType;\n        uint256 amountDispersed;\n        bool dispersed;\n    }\n\n    mapping(address => BetInfo) public ledger;\n\n    event Paused(uint256 timestamp);\n    event UnPaused(uint256 timestamp);\n\n    event Bet2To6(address indexed sender, BetType betType, uint256 _amount);\n    event Bet8To12(address indexed sender, BetType betType, uint256 _amount);\n    event Bet7(address indexed sender, BetType betType, uint256 _amount);\n    event DiceRolled(address indexed sender, BetType userBetType, BetType winType);\n    event Disperesed(address indexed sender, uint256 amount);\n\n    /**\n     * @notice Constructor\n     * @param _adminAddress: admin address\n     * @param _minBetAmount: minimum bet amounts (in wei)\n     * @param _maxBetAmount: maximum bet amounts (in wei)\n     * @param _treasuryFee: treasury fee 3 (3%)\n     */\n    constructor(address _adminAddress, uint256 _minBetAmount, uint256 _maxBetAmount, uint256 _treasuryFee) \n    DiceAdministrator(_adminAddress, _minBetAmount, _maxBetAmount, _treasuryFee) {\n\n    }\n\n    /**\n     * @notice Pause the contract\n     * @dev Callable by admin\n     */\n    function pause() external whenNotPaused onlyAdmin {\n        _pause();\n\n        emit Paused(block.timestamp);\n    }\n\n    /**\n     * @notice Unpuase the contract\n     * @dev Callable by admin\n     */\n    function unPause() external whenPaused onlyAdmin {\n        _unpause();\n\n        emit Paused(block.timestamp);\n    }\n\n    /**\n    * @notice Transfer \n    * @param to: recipient address\n    * @param value: value \n    */\n    function _safeTransfer(address to, uint256 value) internal {\n        (bool success, ) = to.call{value: value}(\"\");\n        require(success, \"TransferHelper: TRANSFER_FAILED\");\n    }\n\n    function _getRandomNumber() internal pure returns(uint8) {\n        uint8 random;\n        return random;\n    }\n\n    function _disperseUser(address user) internal {\n        require(ledger[user].betType == ledger[user].winType, \"No win\");\n        require(!ledger[user].dispersed, \"Already dispersed\");\n        uint256 reward = 0;\n        uint256 finalAmount=0;\n        uint256 userTreasuryAmount = (ledger[user].betAmount * treasuryFee)/100;\n        treasuryAmount += userTreasuryAmount;\n        uint256 amount = ledger[user].betAmount - userTreasuryAmount;\n        \n        //1.5x for 2TO6 and 8TO12 win\n        if(ledger[user].winType == BetType.TWOTOSIX || ledger[user].winType == BetType.EIGHTTOTWELVE) {\n            reward = 150;\n        }\n        //2x for 7 wins\n        else if(ledger[user].winType == BetType.SEVEN) {\n            reward = 200;\n        }\n\n        finalAmount = (amount * reward)/100;\n        ledger[user].amountDispersed = finalAmount;\n        ledger[user].dispersed = true;\n        _safeTransfer(user, finalAmount);\n\n        emit Disperesed(user, finalAmount);\n    }\n\n    function bet2To6() external payable whenNotPaused nonReentrant notContract {\n        require(msg.value >= minBetAmount, \"Bet amount must be greater than minBetAmount\");\n        require(msg.value <= maxBetAmount, \"Bet amount must be lesser than maxBetAmount\");\n\n        ledger[msg.sender].betAmount = msg.value;\n        ledger[msg.sender].betType = BetType.TWOTOSIX;\n        ledger[msg.sender].dispersed = false;\n\n        emit Bet2To6(msg.sender, BetType.TWOTOSIX, msg.value);\n    }\n\n    function bet8To12() external payable whenNotPaused nonReentrant notContract {\n        require(msg.value >= minBetAmount, \"Bet amount must be greater than minBetAmount\");\n        require(msg.value <= maxBetAmount, \"Bet amount must be lesser than maxBetAmount\");\n\n        ledger[msg.sender].betAmount = msg.value;\n        ledger[msg.sender].betType = BetType.EIGHTTOTWELVE;\n        ledger[msg.sender].dispersed = false;\n\n        emit Bet8To12(msg.sender, BetType.EIGHTTOTWELVE, msg.value);\n    }\n\n    function bet7() external payable whenNotPaused nonReentrant notContract {\n        require(msg.value >= minBetAmount, \"Bet amount must be greater than minBetAmount\");\n        require(msg.value <= maxBetAmount, \"Bet amount must be lesser than maxBetAmount\");\n\n        ledger[msg.sender].betAmount = msg.value;\n        ledger[msg.sender].betType = BetType.SEVEN;\n        ledger[msg.sender].dispersed = false;\n\n        emit Bet2To6(msg.sender, BetType.SEVEN, msg.value);\n    }\n\n    function rollDice() external whenNotPaused notContract {\n        require(ledger[msg.sender].betAmount > 0, \"Bet first, roll the dice next\");\n        require(!ledger[msg.sender].dispersed, \"Already ended\");\n        \n        uint256 random = _getRandomNumber();\n        if(random >= 2 && random <= 6) {\n            ledger[msg.sender].winType = BetType.TWOTOSIX;\n        }\n        else if(random >= 8 && random <= 12) {\n            ledger[msg.sender].winType = BetType.EIGHTTOTWELVE;\n        }\n        else if(random == 7) {\n            ledger[msg.sender].winType = BetType.SEVEN;\n        }\n\n        //user wins\n        if(ledger[msg.sender].betType == ledger[msg.sender].winType) {\n            _disperseUser(msg.sender);\n        }\n        //house wins\n        else {\n            treasuryAmount += ledger[msg.sender].betAmount;\n        }\n\n        emit DiceRolled(msg.sender, ledger[msg.sender].betType, ledger[msg.sender].winType);\n    }\n}\n",
  "sourcePath": "/Users/rangs/betbee/betbee-monorepo/contracts/dice/BetBeeDice.sol",
  "compiler": {
    "name": "solc",
    "version": "0.8.7+commit.e28d00a7.Emscripten.clang"
  },
  "schemaVersion": "3.4.3",
  "updatedAt": "2021-11-03T09:14:48.765Z",
  "devdoc": {
    "kind": "dev",
    "methods": {
      "claimTreasury()": {
        "details": "Callable by admin"
      },
      "constructor": {
        "params": {
          "_adminAddress": ": admin address",
          "_maxBetAmount": ": maximum bet amounts (in wei)",
          "_minBetAmount": ": minimum bet amounts (in wei)",
          "_treasuryFee": ": treasury fee 3 (3%)"
        }
      },
      "getAdmin()": {
        "returns": {
          "_0": "admin address"
        }
      },
      "owner()": {
        "details": "Returns the address of the current owner."
      },
      "pause()": {
        "details": "Callable by admin"
      },
      "paused()": {
        "details": "Returns true if the contract is paused, and false otherwise."
      },
      "renounceOwnership()": {
        "details": "Leaves the contract without owner. It will not be possible to call `onlyOwner` functions anymore. Can only be called by the current owner. NOTE: Renouncing ownership will leave the contract without an owner, thereby removing any functionality that is only available to the owner."
      },
      "setAdmin(address)": {
        "details": "callable by Owner of the contract",
        "params": {
          "_admin": ": new admin address"
        }
      },
      "setClaimableTreasuryPercent(uint256)": {
        "details": "callable by Admin",
        "params": {
          "_claimableTreasuryPercent": ": claimable percent"
        }
      },
      "setMaxBetAmount(uint256)": {
        "details": "Callable by admin",
        "params": {
          "_maxBetAmount": ": maximum bet amount to be set"
        }
      },
      "setMinBetAmount(uint256)": {
        "details": "Callable by admin",
        "params": {
          "_minBetAmount": ": minimum bet amount to be set"
        }
      },
      "setTreasuryFee(uint256)": {
        "details": "Callable by admin",
        "params": {
          "_treasuryFee": ": new treasury fee"
        }
      },
      "transferOwnership(address)": {
        "details": "Transfers ownership of the contract to a new account (`newOwner`). Can only be called by the current owner."
      },
      "unPause()": {
        "details": "Callable by admin"
      }
    },
    "title": "BetBeeDice",
    "version": 1
  },
  "userdoc": {
    "kind": "user",
    "methods": {
      "claimTreasury()": {
        "notice": "Claim 80% of treasury fund - collected as fee"
      },
      "constructor": {
        "notice": "Constructor"
      },
      "getAdmin()": {
        "notice": "get admin address"
      },
      "pause()": {
        "notice": "Pause the contract"
      },
      "setAdmin(address)": {
        "notice": "Set admin"
      },
      "setClaimableTreasuryPercent(uint256)": {
        "notice": "Set Claimabble Treasury Percent"
      },
      "setMaxBetAmount(uint256)": {
        "notice": "Set maxBetAmount"
      },
      "setMinBetAmount(uint256)": {
        "notice": "Set minBetAmount"
      },
      "setTreasuryFee(uint256)": {
        "notice": "Set Treasury Fee"
      },
      "unPause()": {
        "notice": "Unpuase the contract"
      }
    },
    "version": 1
  }
}