{
  "contractName": "BetBeePrediction",
  "abi": [
    {
      "inputs": [
        {
          "internalType": "address",
          "name": "_adminAddress",
          "type": "address"
        },
        {
          "internalType": "uint256",
          "name": "_minBetAmount",
          "type": "uint256"
        },
        {
          "internalType": "uint256",
          "name": "_treasuryFee",
          "type": "uint256"
        },
        {
          "internalType": "address",
          "name": "_oracleAddress",
          "type": "address"
        },
        {
          "internalType": "string",
          "name": "_assetPair",
          "type": "string"
        }
      ],
      "stateMutability": "nonpayable",
      "type": "constructor"
    },
    {
      "anonymous": false,
      "inputs": [
        {
          "indexed": true,
          "internalType": "address",
          "name": "sender",
          "type": "address"
        },
        {
          "indexed": true,
          "internalType": "uint256",
          "name": "roundId",
          "type": "uint256"
        },
        {
          "indexed": false,
          "internalType": "uint256",
          "name": "amount",
          "type": "uint256"
        }
      ],
      "name": "BetBear",
      "type": "event"
    },
    {
      "anonymous": false,
      "inputs": [
        {
          "indexed": true,
          "internalType": "address",
          "name": "sender",
          "type": "address"
        },
        {
          "indexed": true,
          "internalType": "uint256",
          "name": "roundId",
          "type": "uint256"
        },
        {
          "indexed": false,
          "internalType": "uint256",
          "name": "amount",
          "type": "uint256"
        }
      ],
      "name": "BetBull",
      "type": "event"
    },
    {
      "anonymous": false,
      "inputs": [
        {
          "indexed": true,
          "internalType": "uint256",
          "name": "roundId",
          "type": "uint256"
        }
      ],
      "name": "CreateRound",
      "type": "event"
    },
    {
      "anonymous": false,
      "inputs": [
        {
          "indexed": true,
          "internalType": "uint256",
          "name": "roundId",
          "type": "uint256"
        }
      ],
      "name": "Disperse",
      "type": "event"
    },
    {
      "anonymous": false,
      "inputs": [
        {
          "indexed": true,
          "internalType": "uint256",
          "name": "roundId",
          "type": "uint256"
        },
        {
          "indexed": true,
          "internalType": "address",
          "name": "recipient",
          "type": "address"
        },
        {
          "indexed": false,
          "internalType": "uint256",
          "name": "amountDispersed",
          "type": "uint256"
        },
        {
          "indexed": false,
          "internalType": "uint256",
          "name": "timestamp",
          "type": "uint256"
        }
      ],
      "name": "DisperseUser",
      "type": "event"
    },
    {
      "anonymous": false,
      "inputs": [
        {
          "indexed": true,
          "internalType": "uint256",
          "name": "roundId",
          "type": "uint256"
        }
      ],
      "name": "EndRound",
      "type": "event"
    },
    {
      "anonymous": false,
      "inputs": [
        {
          "indexed": true,
          "internalType": "address",
          "name": "admin",
          "type": "address"
        }
      ],
      "name": "NewAdmin",
      "type": "event"
    },
    {
      "anonymous": false,
      "inputs": [
        {
          "indexed": false,
          "internalType": "uint256",
          "name": "claimableTreasuryPercent",
          "type": "uint256"
        }
      ],
      "name": "NewClaimableTreasuryPercent",
      "type": "event"
    },
    {
      "anonymous": false,
      "inputs": [
        {
          "indexed": false,
          "internalType": "uint256",
          "name": "minBetAmount",
          "type": "uint256"
        }
      ],
      "name": "NewMinBetAmount",
      "type": "event"
    },
    {
      "anonymous": false,
      "inputs": [
        {
          "indexed": true,
          "internalType": "address",
          "name": "operator",
          "type": "address"
        }
      ],
      "name": "NewOperator",
      "type": "event"
    },
    {
      "anonymous": false,
      "inputs": [
        {
          "indexed": false,
          "internalType": "uint256",
          "name": "treasuryFee",
          "type": "uint256"
        }
      ],
      "name": "NewTreasuryFee",
      "type": "event"
    },
    {
      "anonymous": false,
      "inputs": [
        {
          "indexed": true,
          "internalType": "address",
          "name": "previousOwner",
          "type": "address"
        },
        {
          "indexed": true,
          "internalType": "address",
          "name": "newOwner",
          "type": "address"
        }
      ],
      "name": "OwnershipTransferred",
      "type": "event"
    },
    {
      "anonymous": false,
      "inputs": [
        {
          "indexed": false,
          "internalType": "uint256",
          "name": "currentRoundId",
          "type": "uint256"
        }
      ],
      "name": "Paused",
      "type": "event"
    },
    {
      "anonymous": false,
      "inputs": [
        {
          "indexed": false,
          "internalType": "address",
          "name": "account",
          "type": "address"
        }
      ],
      "name": "Paused",
      "type": "event"
    },
    {
      "anonymous": false,
      "inputs": [
        {
          "indexed": true,
          "internalType": "uint256",
          "name": "roundId",
          "type": "uint256"
        },
        {
          "indexed": true,
          "internalType": "address",
          "name": "recipient",
          "type": "address"
        },
        {
          "indexed": false,
          "internalType": "uint256",
          "name": "refundDispersed",
          "type": "uint256"
        },
        {
          "indexed": false,
          "internalType": "uint256",
          "name": "timestamp",
          "type": "uint256"
        }
      ],
      "name": "Refund",
      "type": "event"
    },
    {
      "anonymous": false,
      "inputs": [
        {
          "indexed": true,
          "internalType": "uint256",
          "name": "roundId",
          "type": "uint256"
        },
        {
          "indexed": false,
          "internalType": "uint256",
          "name": "rewardBaseCalAmount",
          "type": "uint256"
        },
        {
          "indexed": false,
          "internalType": "uint256",
          "name": "rewardAmount",
          "type": "uint256"
        },
        {
          "indexed": false,
          "internalType": "uint256",
          "name": "treasuryAmount",
          "type": "uint256"
        }
      ],
      "name": "RewardsCalculated",
      "type": "event"
    },
    {
      "anonymous": false,
      "inputs": [
        {
          "indexed": true,
          "internalType": "uint256",
          "name": "roundId",
          "type": "uint256"
        }
      ],
      "name": "StartRound",
      "type": "event"
    },
    {
      "anonymous": false,
      "inputs": [
        {
          "indexed": true,
          "internalType": "address",
          "name": "admin",
          "type": "address"
        },
        {
          "indexed": false,
          "internalType": "uint256",
          "name": "amount",
          "type": "uint256"
        }
      ],
      "name": "TreasuryClaim",
      "type": "event"
    },
    {
      "anonymous": false,
      "inputs": [
        {
          "indexed": false,
          "internalType": "uint256",
          "name": "currentRoundId",
          "type": "uint256"
        }
      ],
      "name": "UnPaused",
      "type": "event"
    },
    {
      "anonymous": false,
      "inputs": [
        {
          "indexed": false,
          "internalType": "address",
          "name": "account",
          "type": "address"
        }
      ],
      "name": "Unpaused",
      "type": "event"
    },
    {
      "inputs": [],
      "name": "MAX_TREASURY_FEE",
      "outputs": [
        {
          "internalType": "uint256",
          "name": "",
          "type": "uint256"
        }
      ],
      "stateMutability": "view",
      "type": "function"
    },
    {
      "inputs": [],
      "name": "assetPair",
      "outputs": [
        {
          "internalType": "string",
          "name": "",
          "type": "string"
        }
      ],
      "stateMutability": "view",
      "type": "function"
    },
    {
      "inputs": [],
      "name": "claimTreasury",
      "outputs": [],
      "stateMutability": "nonpayable",
      "type": "function"
    },
    {
      "inputs": [],
      "name": "claimableTreasuryPercent",
      "outputs": [
        {
          "internalType": "uint256",
          "name": "",
          "type": "uint256"
        }
      ],
      "stateMutability": "view",
      "type": "function"
    },
    {
      "inputs": [],
      "name": "currentRoundId",
      "outputs": [
        {
          "internalType": "uint256",
          "name": "",
          "type": "uint256"
        }
      ],
      "stateMutability": "view",
      "type": "function"
    },
    {
      "inputs": [],
      "name": "genesisCreateOnce",
      "outputs": [
        {
          "internalType": "bool",
          "name": "",
          "type": "bool"
        }
      ],
      "stateMutability": "view",
      "type": "function"
    },
    {
      "inputs": [],
      "name": "genesisStartOnce",
      "outputs": [
        {
          "internalType": "bool",
          "name": "",
          "type": "bool"
        }
      ],
      "stateMutability": "view",
      "type": "function"
    },
    {
      "inputs": [],
      "name": "genesisStartTimestamp",
      "outputs": [
        {
          "internalType": "uint256",
          "name": "",
          "type": "uint256"
        }
      ],
      "stateMutability": "view",
      "type": "function"
    },
    {
      "inputs": [],
      "name": "getAdmin",
      "outputs": [
        {
          "internalType": "address",
          "name": "",
          "type": "address"
        }
      ],
      "stateMutability": "view",
      "type": "function"
    },
    {
      "inputs": [
        {
          "internalType": "uint256",
          "name": "",
          "type": "uint256"
        },
        {
          "internalType": "address",
          "name": "",
          "type": "address"
        }
      ],
      "name": "ledger",
      "outputs": [
        {
          "internalType": "uint256",
          "name": "bullAmount",
          "type": "uint256"
        },
        {
          "internalType": "uint256",
          "name": "bearAmount",
          "type": "uint256"
        },
        {
          "internalType": "uint256",
          "name": "amountDispersed",
          "type": "uint256"
        }
      ],
      "stateMutability": "view",
      "type": "function"
    },
    {
      "inputs": [],
      "name": "minBetAmount",
      "outputs": [
        {
          "internalType": "uint256",
          "name": "",
          "type": "uint256"
        }
      ],
      "stateMutability": "view",
      "type": "function"
    },
    {
      "inputs": [],
      "name": "operator",
      "outputs": [
        {
          "internalType": "address",
          "name": "",
          "type": "address"
        }
      ],
      "stateMutability": "view",
      "type": "function"
    },
    {
      "inputs": [],
      "name": "oracle",
      "outputs": [
        {
          "internalType": "contract AggregatorV3Interface",
          "name": "",
          "type": "address"
        }
      ],
      "stateMutability": "view",
      "type": "function"
    },
    {
      "inputs": [],
      "name": "oracleLatestRoundId",
      "outputs": [
        {
          "internalType": "uint256",
          "name": "",
          "type": "uint256"
        }
      ],
      "stateMutability": "view",
      "type": "function"
    },
    {
      "inputs": [],
      "name": "owner",
      "outputs": [
        {
          "internalType": "address",
          "name": "",
          "type": "address"
        }
      ],
      "stateMutability": "view",
      "type": "function"
    },
    {
      "inputs": [],
      "name": "paused",
      "outputs": [
        {
          "internalType": "bool",
          "name": "",
          "type": "bool"
        }
      ],
      "stateMutability": "view",
      "type": "function"
    },
    {
      "inputs": [],
      "name": "renounceOwnership",
      "outputs": [],
      "stateMutability": "nonpayable",
      "type": "function"
    },
    {
      "inputs": [],
      "name": "roundTime",
      "outputs": [
        {
          "internalType": "uint256",
          "name": "",
          "type": "uint256"
        }
      ],
      "stateMutability": "view",
      "type": "function"
    },
    {
      "inputs": [
        {
          "internalType": "address",
          "name": "_admin",
          "type": "address"
        }
      ],
      "name": "setAdmin",
      "outputs": [],
      "stateMutability": "nonpayable",
      "type": "function"
    },
    {
      "inputs": [
        {
          "internalType": "uint256",
          "name": "_claimableTreasuryPercent",
          "type": "uint256"
        }
      ],
      "name": "setClaimableTreasuryPercent",
      "outputs": [],
      "stateMutability": "nonpayable",
      "type": "function"
    },
    {
      "inputs": [
        {
          "internalType": "uint256",
          "name": "_minBetAmount",
          "type": "uint256"
        }
      ],
      "name": "setMinBetAmount",
      "outputs": [],
      "stateMutability": "nonpayable",
      "type": "function"
    },
    {
      "inputs": [
        {
          "internalType": "address",
          "name": "_operator",
          "type": "address"
        }
      ],
      "name": "setOperator",
      "outputs": [],
      "stateMutability": "nonpayable",
      "type": "function"
    },
    {
      "inputs": [
        {
          "internalType": "uint256",
          "name": "_treasuryFee",
          "type": "uint256"
        }
      ],
      "name": "setTreasuryFee",
      "outputs": [],
      "stateMutability": "nonpayable",
      "type": "function"
    },
    {
      "inputs": [
        {
          "internalType": "address",
          "name": "newOwner",
          "type": "address"
        }
      ],
      "name": "transferOwnership",
      "outputs": [],
      "stateMutability": "nonpayable",
      "type": "function"
    },
    {
      "inputs": [],
      "name": "treasuryAmount",
      "outputs": [
        {
          "internalType": "uint256",
          "name": "",
          "type": "uint256"
        }
      ],
      "stateMutability": "view",
      "type": "function"
    },
    {
      "inputs": [],
      "name": "treasuryFee",
      "outputs": [
        {
          "internalType": "uint256",
          "name": "",
          "type": "uint256"
        }
      ],
      "stateMutability": "view",
      "type": "function"
    },
    {
      "inputs": [
        {
          "internalType": "address",
          "name": "",
          "type": "address"
        },
        {
          "internalType": "uint256",
          "name": "",
          "type": "uint256"
        }
      ],
      "name": "userRounds",
      "outputs": [
        {
          "internalType": "uint256",
          "name": "",
          "type": "uint256"
        }
      ],
      "stateMutability": "view",
      "type": "function"
    },
    {
      "inputs": [
        {
          "internalType": "uint256",
          "name": "",
          "type": "uint256"
        },
        {
          "internalType": "uint256",
          "name": "",
          "type": "uint256"
        }
      ],
      "name": "usersInRounds",
      "outputs": [
        {
          "internalType": "address",
          "name": "",
          "type": "address"
        }
      ],
      "stateMutability": "view",
      "type": "function"
    },
    {
      "stateMutability": "payable",
      "type": "receive"
    },
    {
      "inputs": [],
      "name": "pause",
      "outputs": [],
      "stateMutability": "nonpayable",
      "type": "function"
    },
    {
      "inputs": [],
      "name": "unPause",
      "outputs": [],
      "stateMutability": "nonpayable",
      "type": "function"
    },
    {
      "inputs": [
        {
          "internalType": "uint256",
          "name": "roundId",
          "type": "uint256"
        }
      ],
      "name": "betBull",
      "outputs": [],
      "stateMutability": "payable",
      "type": "function"
    },
    {
      "inputs": [
        {
          "internalType": "uint256",
          "name": "roundId",
          "type": "uint256"
        }
      ],
      "name": "betBear",
      "outputs": [],
      "stateMutability": "payable",
      "type": "function"
    },
    {
      "inputs": [
        {
          "internalType": "uint256",
          "name": "_genesisStartTimestamp",
          "type": "uint256"
        }
      ],
      "name": "genesisCreateRound",
      "outputs": [],
      "stateMutability": "nonpayable",
      "type": "function"
    },
    {
      "inputs": [],
      "name": "genesisStartRound",
      "outputs": [],
      "stateMutability": "nonpayable",
      "type": "function"
    },
    {
      "inputs": [],
      "name": "executeRound",
      "outputs": [],
      "stateMutability": "nonpayable",
      "type": "function"
    }
  ],
  "bytecode": "0x6080604052605060075561012c60095561012c600d556000600f60006101000a81548160ff0219169083151502179055506000600f60016101000a81548160ff0219169083151502179055503480156200005857600080fd5b5060405162005d0638038062005d0683398181016040528101906200007e919062000559565b8181868686620000a3620000976200033160201b60201c565b6200033960201b60201c565b60008060146101000a81548160ff02191690831515021790555060018081905550600082116200010a576040517f08c379a0000000000000000000000000000000000000000000000000000000008152600401620001019062000702565b60405180910390fd5b600581111562000151576040517f08c379a00000000000000000000000000000000000000000000000000000000081526004016200014890620006be565b60405180910390fd5b600073ffffffffffffffffffffffffffffffffffffffff168373ffffffffffffffffffffffffffffffffffffffff161415620001c4576040517f08c379a0000000000000000000000000000000000000000000000000000000008152600401620001bb906200069c565b60405180910390fd5b82600260006101000a81548173ffffffffffffffffffffffffffffffffffffffff021916908373ffffffffffffffffffffffffffffffffffffffff16021790555082600360006101000a81548173ffffffffffffffffffffffffffffffffffffffff021916908373ffffffffffffffffffffffffffffffffffffffff1602179055508160058190555080600481905550505050600073ffffffffffffffffffffffffffffffffffffffff168273ffffffffffffffffffffffffffffffffffffffff161415620002ca576040517f08c379a0000000000000000000000000000000000000000000000000000000008152600401620002c190620006e0565b60405180910390fd5b81600860006101000a81548173ffffffffffffffffffffffffffffffffffffffff021916908373ffffffffffffffffffffffffffffffffffffffff16021790555080600a908051906020019062000323929190620003fd565b5050505050505050620009cf565b600033905090565b60008060009054906101000a900473ffffffffffffffffffffffffffffffffffffffff169050816000806101000a81548173ffffffffffffffffffffffffffffffffffffffff021916908373ffffffffffffffffffffffffffffffffffffffff1602179055508173ffffffffffffffffffffffffffffffffffffffff168173ffffffffffffffffffffffffffffffffffffffff167f8be0079c531659141344cd1fd0a4f28419497f9722a3daafe3b4186f6b6457e060405160405180910390a35050565b8280546200040b9062000808565b90600052602060002090601f0160209004810192826200042f57600085556200047b565b82601f106200044a57805160ff19168380011785556200047b565b828001600101855582156200047b579182015b828111156200047a5782518255916020019190600101906200045d565b5b5090506200048a91906200048e565b5090565b5b80821115620004a95760008160009055506001016200048f565b5090565b6000620004c4620004be846200074d565b62000724565b905082815260208101848484011115620004e357620004e2620008d7565b5b620004f0848285620007d2565b509392505050565b60008151905062000509816200099b565b92915050565b600082601f830112620005275762000526620008d2565b5b815162000539848260208601620004ad565b91505092915050565b6000815190506200055381620009b5565b92915050565b600080600080600060a08688031215620005785762000577620008e1565b5b60006200058888828901620004f8565b95505060206200059b8882890162000542565b9450506040620005ae8882890162000542565b9350506060620005c188828901620004f8565b925050608086015167ffffffffffffffff811115620005e557620005e4620008dc565b5b620005f3888289016200050f565b9150509295509295909350565b60006200060f60158362000783565b91506200061c82620008f7565b602082019050919050565b60006200063660188362000783565b9150620006438262000920565b602082019050919050565b60006200065d60168362000783565b91506200066a8262000949565b602082019050919050565b60006200068460168362000783565b9150620006918262000972565b602082019050919050565b60006020820190508181036000830152620006b78162000600565b9050919050565b60006020820190508181036000830152620006d98162000627565b9050919050565b60006020820190508181036000830152620006fb816200064e565b9050919050565b600060208201905081810360008301526200071d8162000675565b9050919050565b60006200073062000743565b90506200073e82826200083e565b919050565b6000604051905090565b600067ffffffffffffffff8211156200076b576200076a620008a3565b5b6200077682620008e6565b9050602081019050919050565b600082825260208201905092915050565b6000620007a182620007a8565b9050919050565b600073ffffffffffffffffffffffffffffffffffffffff82169050919050565b6000819050919050565b60005b83811015620007f2578082015181840152602081019050620007d5565b8381111562000802576000848401525b50505050565b600060028204905060018216806200082157607f821691505b6020821081141562000838576200083762000874565b5b50919050565b6200084982620008e6565b810181811067ffffffffffffffff821117156200086b576200086a620008a3565b5b80604052505050565b7f4e487b7100000000000000000000000000000000000000000000000000000000600052602260045260246000fd5b7f4e487b7100000000000000000000000000000000000000000000000000000000600052604160045260246000fd5b600080fd5b600080fd5b600080fd5b600080fd5b6000601f19601f8301169050919050565b7f496e76616c69642061646d696e20616464726573730000000000000000000000600082015250565b7f54726561737572792066656520697320746f6f20686967680000000000000000600082015250565b7f496e76616c6964206f7261636c65206164647265737300000000000000000000600082015250565b7f496e76616c6964204d696e2062657420616d6f756e7400000000000000000000600082015250565b620009a68162000794565b8114620009b257600080fd5b50565b620009c081620007c8565b8114620009cc57600080fd5b50565b61532780620009df6000396000f3fe6080604052600436106102075760003560e01c80637dc0d1d011610118578063ce916bc0116100a0578063f2b3c8091161006f578063f2b3c809146106c7578063f2fde38b146106f2578063f7b188a51461071b578063f7fdec2814610732578063fa968eea1461075d5761020e565b8063ce916bc014610609578063dd1f759614610634578063ec32470314610671578063ee5f8c8f1461069c5761020e565b8063aa6b873a116100e7578063aa6b873a14610545578063b3ab15fb14610561578063bddaca431461058a578063c2a88eba146105b5578063cc32d176146105de5761020e565b80637dc0d1d0146104ad5780638456cb59146104d85780638da5cb5b146104ef5780639cbe5efd1461051a5761020e565b806357fb096f1161019b578063704b6c021161016a578063704b6c02146103ee578063715018a6146104175780637285c58b1461042e57806377e741c71461046d5780637b3205f5146104965761020e565b806357fb096f146103535780635c975abb1461036f5780636c1885931461039a5780636e9960c3146103c35761020e565b8063259f27bf116101d7578063259f27bf146102a9578063368acb09146102e6578063452fd75a14610311578063570ca735146103285761020e565b80623bdc741461021357806302cbb9ed1461022a57806310082c751461025557806319446cd4146102805761020e565b3661020e57005b600080fd5b34801561021f57600080fd5b50610228610788565b005b34801561023657600080fd5b5061023f610a9f565b60405161024c919061444f565b60405180910390f35b34801561026157600080fd5b5061026a610ab2565b6040516102779190614485565b60405180910390f35b34801561028c57600080fd5b506102a760048036038101906102a29190613e68565b610b40565b005b3480156102b557600080fd5b506102d060048036038101906102cb9190613ed5565b610c56565b6040516102dd9190614434565b60405180910390f35b3480156102f257600080fd5b506102fb610ca4565b6040516103089190614847565b60405180910390f35b34801561031d57600080fd5b50610326610caa565b005b34801561033457600080fd5b5061033d610f54565b60405161034a9190614434565b60405180910390f35b61036d60048036038101906103689190613e68565b610f7a565b005b34801561037b57600080fd5b50610384611440565b604051610391919061444f565b60405180910390f35b3480156103a657600080fd5b506103c160048036038101906103bc9190613e68565b611456565b005b3480156103cf57600080fd5b506103d86115b2565b6040516103e59190614434565b60405180910390f35b3480156103fa57600080fd5b5061041560048036038101906104109190613dfb565b6115dc565b005b34801561042357600080fd5b5061042c61174f565b005b34801561043a57600080fd5b5061045560048036038101906104509190613e95565b6117d7565b6040516104649392919061488b565b60405180910390f35b34801561047957600080fd5b50610494600480360381019061048f9190613e68565b61180e565b005b3480156104a257600080fd5b506104ab611969565b005b3480156104b957600080fd5b506104c2611bd4565b6040516104cf919061446a565b60405180910390f35b3480156104e457600080fd5b506104ed611bfa565b005b3480156104fb57600080fd5b50610504611d15565b6040516105119190614434565b60405180910390f35b34801561052657600080fd5b5061052f611d3e565b60405161053c9190614847565b60405180910390f35b61055f600480360381019061055a9190613e68565b611d44565b005b34801561056d57600080fd5b5061058860048036038101906105839190613dfb565b61220a565b005b34801561059657600080fd5b5061059f61237d565b6040516105ac9190614847565b60405180910390f35b3480156105c157600080fd5b506105dc60048036038101906105d79190613e68565b612383565b005b3480156105ea57600080fd5b506105f361259a565b6040516106009190614847565b60405180910390f35b34801561061557600080fd5b5061061e6125a0565b60405161062b9190614847565b60405180910390f35b34801561064057600080fd5b5061065b60048036038101906106569190613e28565b6125a6565b6040516106689190614847565b60405180910390f35b34801561067d57600080fd5b506106866125d7565b6040516106939190614847565b60405180910390f35b3480156106a857600080fd5b506106b16125dd565b6040516106be9190614847565b60405180910390f35b3480156106d357600080fd5b506106dc6125e3565b6040516106e99190614847565b60405180910390f35b3480156106fe57600080fd5b5061071960048036038101906107149190613dfb565b6125e8565b005b34801561072757600080fd5b506107306126e0565b005b34801561073e57600080fd5b50610747612830565b604051610754919061444f565b60405180910390f35b34801561076957600080fd5b50610772612843565b60405161077f9190614847565b60405180910390f35b600260015414156107ce576040517f08c379a00000000000000000000000000000000000000000000000000000000081526004016107c5906147a7565b60405180910390fd5b6002600181905550600260009054906101000a900473ffffffffffffffffffffffffffffffffffffffff1673ffffffffffffffffffffffffffffffffffffffff163373ffffffffffffffffffffffffffffffffffffffff1614610866576040517f08c379a000000000000000000000000000000000000000000000000000000000815260040161085d90614827565b60405180910390fd5b61086f33612849565b156108af576040517f08c379a00000000000000000000000000000000000000000000000000000000081526004016108a690614567565b60405180910390fd5b3273ffffffffffffffffffffffffffffffffffffffff163373ffffffffffffffffffffffffffffffffffffffff161461091d576040517f08c379a000000000000000000000000000000000000000000000000000000000815260040161091490614687565b60405180910390fd5b600060646007546006546109319190614970565b61093b919061493f565b9050806006600082825461094f91906149ca565b925050819055506000600260009054906101000a900473ffffffffffffffffffffffffffffffffffffffff1673ffffffffffffffffffffffffffffffffffffffff168260405161099e9061441f565b60006040518083038185875af1925050503d80600081146109db576040519150601f19603f3d011682016040523d82523d6000602084013e6109e0565b606091505b5050905080610a24576040517f08c379a0000000000000000000000000000000000000000000000000000000008152600401610a1b906144a7565b60405180910390fd5b600260009054906101000a900473ffffffffffffffffffffffffffffffffffffffff1673ffffffffffffffffffffffffffffffffffffffff167fecd60683965e7a828740c1cd2d719fab1ac61fd7b0e1871f1b38d9ee392ae1a783604051610a8c9190614847565b60405180910390a2505060018081905550565b600f60019054906101000a900460ff1681565b600a8054610abf90614acf565b80601f0160208091040260200160405190810160405280929190818152602001828054610aeb90614acf565b8015610b385780601f10610b0d57610100808354040283529160200191610b38565b820191906000526020600020905b815481529060010190602001808311610b1b57829003601f168201915b505050505081565b600260009054906101000a900473ffffffffffffffffffffffffffffffffffffffff1673ffffffffffffffffffffffffffffffffffffffff163373ffffffffffffffffffffffffffffffffffffffff1614610bd0576040517f08c379a0000000000000000000000000000000000000000000000000000000008152600401610bc790614827565b60405180910390fd5b60008111610c13576040517f08c379a0000000000000000000000000000000000000000000000000000000008152600401610c0a906146e7565b60405180910390fd5b806007819055507fb3c38e3948eab3b348ca48fc24f958ced2d2611b79865a5468551af855971b8d600754604051610c4b9190614847565b60405180910390a150565b60136020528160005260406000208181548110610c7257600080fd5b906000526020600020016000915091509054906101000a900473ffffffffffffffffffffffffffffffffffffffff1681565b60065481565b610cb2611440565b15610cf2576040517f08c379a0000000000000000000000000000000000000000000000000000000008152600401610ce990614627565b60405180910390fd5b600360009054906101000a900473ffffffffffffffffffffffffffffffffffffffff1673ffffffffffffffffffffffffffffffffffffffff163373ffffffffffffffffffffffffffffffffffffffff1614610d82576040517f08c379a0000000000000000000000000000000000000000000000000000000008152600401610d7990614807565b60405180910390fd5b610d8b33612849565b15610dcb576040517f08c379a0000000000000000000000000000000000000000000000000000000008152600401610dc290614567565b60405180910390fd5b3273ffffffffffffffffffffffffffffffffffffffff163373ffffffffffffffffffffffffffffffffffffffff1614610e39576040517f08c379a0000000000000000000000000000000000000000000000000000000008152600401610e3090614687565b60405180910390fd5b600f60019054906101000a900460ff16610e88576040517f08c379a0000000000000000000000000000000000000000000000000000000008152600401610e7f90614507565b60405180910390fd5b600f60009054906101000a900460ff1615610ed8576040517f08c379a0000000000000000000000000000000000000000000000000000000008152600401610ecf90614707565b60405180910390fd5b6000610ee261285c565b915050610ef1600c54826129ce565b610f086001600c54610f0391906148e9565b612b30565b610f1f6002600c54610f1a91906148e9565b612b30565b610f366003600c54610f3191906148e9565b612b30565b6001600f60006101000a81548160ff02191690831515021790555050565b600360009054906101000a900473ffffffffffffffffffffffffffffffffffffffff1681565b610f82611440565b15610fc2576040517f08c379a0000000000000000000000000000000000000000000000000000000008152600401610fb990614627565b60405180910390fd5b60026001541415611008576040517f08c379a0000000000000000000000000000000000000000000000000000000008152600401610fff906147a7565b60405180910390fd5b600260018190555061101933612849565b15611059576040517f08c379a000000000000000000000000000000000000000000000000000000000815260040161105090614567565b60405180910390fd5b3273ffffffffffffffffffffffffffffffffffffffff163373ffffffffffffffffffffffffffffffffffffffff16146110c7576040517f08c379a00000000000000000000000000000000000000000000000000000000081526004016110be90614687565b60405180910390fd5b600160048111156110db576110da614ba8565b5b6010600083815260200190815260200160002060010160009054906101000a900460ff16600481111561111157611110614ba8565b5b14611151576040517f08c379a0000000000000000000000000000000000000000000000000000000008152600401611148906147c7565b60405180910390fd5b600554341015611196576040517f08c379a000000000000000000000000000000000000000000000000000000000815260040161118d90614607565b60405180910390fd5b6000349050600060106000848152602001908152602001600020905060006011600085815260200190815260200160002060003373ffffffffffffffffffffffffffffffffffffffff1673ffffffffffffffffffffffffffffffffffffffff168152602001908152602001600020905082826004015461121691906148e9565b826004018190555082826002015461122e91906148e9565b826002018190555060006011600086815260200190815260200160002060003373ffffffffffffffffffffffffffffffffffffffff1673ffffffffffffffffffffffffffffffffffffffff168152602001908152602001600020600001541480156112ec575060006011600086815260200190815260200160002060003373ffffffffffffffffffffffffffffffffffffffff1673ffffffffffffffffffffffffffffffffffffffff16815260200190815260200160002060010154145b156113cc57601260003373ffffffffffffffffffffffffffffffffffffffff1673ffffffffffffffffffffffffffffffffffffffff16815260200190815260200160002084908060018154018082558091505060019003906000526020600020016000909190919091505560136000858152602001908152602001600020339080600181540180825580915050600190039060005260206000200160009091909190916101000a81548173ffffffffffffffffffffffffffffffffffffffff021916908373ffffffffffffffffffffffffffffffffffffffff1602179055505b8281600001546113dc91906148e9565b8160000181905550833373ffffffffffffffffffffffffffffffffffffffff167f438122d8cff518d18388099a5181f0d17a12b4f1b55faedf6e4a6acee0060c123460405161142b9190614847565b60405180910390a35050506001808190555050565b60008060149054906101000a900460ff16905090565b61145e611440565b61149d576040517f08c379a0000000000000000000000000000000000000000000000000000000008152600401611494906144c7565b60405180910390fd5b600260009054906101000a900473ffffffffffffffffffffffffffffffffffffffff1673ffffffffffffffffffffffffffffffffffffffff163373ffffffffffffffffffffffffffffffffffffffff161461152d576040517f08c379a000000000000000000000000000000000000000000000000000000000815260040161152490614827565b60405180910390fd5b6000811415611571576040517f08c379a000000000000000000000000000000000000000000000000000000000815260040161156890614727565b60405180910390fd5b806005819055507fbe054849fe210c446a3b3f68394753f210607326b38581dc64bd2e94a87f0182816040516115a79190614847565b60405180910390a150565b6000600260009054906101000a900473ffffffffffffffffffffffffffffffffffffffff16905090565b6115e4612c44565b73ffffffffffffffffffffffffffffffffffffffff16611602611d15565b73ffffffffffffffffffffffffffffffffffffffff1614611658576040517f08c379a000000000000000000000000000000000000000000000000000000000815260040161164f906146c7565b60405180910390fd5b600073ffffffffffffffffffffffffffffffffffffffff168173ffffffffffffffffffffffffffffffffffffffff1614156116c8576040517f08c379a00000000000000000000000000000000000000000000000000000000081526004016116bf90614647565b60405180910390fd5b80600260006101000a81548173ffffffffffffffffffffffffffffffffffffffff021916908373ffffffffffffffffffffffffffffffffffffffff1602179055508073ffffffffffffffffffffffffffffffffffffffff167f71614071b88dee5e0b2ae578a9dd7b2ebbe9ae832ba419dc0242cd065a290b6c60405160405180910390a250565b611757612c44565b73ffffffffffffffffffffffffffffffffffffffff16611775611d15565b73ffffffffffffffffffffffffffffffffffffffff16146117cb576040517f08c379a00000000000000000000000000000000000000000000000000000000081526004016117c2906146c7565b60405180910390fd5b6117d56000612c4c565b565b6011602052816000526040600020602052806000526040600020600091509150508060000154908060010154908060020154905083565b611816611440565b611855576040517f08c379a000000000000000000000000000000000000000000000000000000000815260040161184c906144c7565b60405180910390fd5b600260009054906101000a900473ffffffffffffffffffffffffffffffffffffffff1673ffffffffffffffffffffffffffffffffffffffff163373ffffffffffffffffffffffffffffffffffffffff16146118e5576040517f08c379a00000000000000000000000000000000000000000000000000000000081526004016118dc90614827565b60405180910390fd5b60058110611928576040517f08c379a000000000000000000000000000000000000000000000000000000000815260040161191f906145c7565b60405180910390fd5b806004819055507f938d9272b26145999fe14f6124b73f122e1e023fc5de069c74ade1254408a9768160405161195e9190614847565b60405180910390a150565b611971611440565b156119b1576040517f08c379a00000000000000000000000000000000000000000000000000000000081526004016119a890614627565b60405180910390fd5b600360009054906101000a900473ffffffffffffffffffffffffffffffffffffffff1673ffffffffffffffffffffffffffffffffffffffff163373ffffffffffffffffffffffffffffffffffffffff1614611a41576040517f08c379a0000000000000000000000000000000000000000000000000000000008152600401611a3890614807565b60405180910390fd5b611a4a33612849565b15611a8a576040517f08c379a0000000000000000000000000000000000000000000000000000000008152600401611a8190614567565b60405180910390fd5b3273ffffffffffffffffffffffffffffffffffffffff163373ffffffffffffffffffffffffffffffffffffffff1614611af8576040517f08c379a0000000000000000000000000000000000000000000000000000000008152600401611aef90614687565b60405180910390fd5b600f60019054906101000a900460ff168015611b205750600f60009054906101000a900460ff165b611b5f576040517f08c379a0000000000000000000000000000000000000000000000000000000008152600401611b5690614747565b60405180910390fd5b600080611b6a61285c565b9150915081600b81905550611b8d6001600c54611b8791906148e9565b826129ce565b611b99600c5482612d10565b611ba4600c54612e72565b611bbb6004600c54611bb691906148e9565b612b30565b6001600c54611bca91906148e9565b600c819055505050565b600860009054906101000a900473ffffffffffffffffffffffffffffffffffffffff1681565b611c02611440565b15611c42576040517f08c379a0000000000000000000000000000000000000000000000000000000008152600401611c3990614627565b60405180910390fd5b600260009054906101000a900473ffffffffffffffffffffffffffffffffffffffff1673ffffffffffffffffffffffffffffffffffffffff163373ffffffffffffffffffffffffffffffffffffffff1614611cd2576040517f08c379a0000000000000000000000000000000000000000000000000000000008152600401611cc990614827565b60405180910390fd5b611cda613954565b7f32fb7c9891bc4f963c7de9f1186d2a7755c7d6e9f4604dabe1d8bb3027c2f49e600c54604051611d0b9190614847565b60405180910390a1565b60008060009054906101000a900473ffffffffffffffffffffffffffffffffffffffff16905090565b600c5481565b611d4c611440565b15611d8c576040517f08c379a0000000000000000000000000000000000000000000000000000000008152600401611d8390614627565b60405180910390fd5b60026001541415611dd2576040517f08c379a0000000000000000000000000000000000000000000000000000000008152600401611dc9906147a7565b60405180910390fd5b6002600181905550611de333612849565b15611e23576040517f08c379a0000000000000000000000000000000000000000000000000000000008152600401611e1a90614567565b60405180910390fd5b3273ffffffffffffffffffffffffffffffffffffffff163373ffffffffffffffffffffffffffffffffffffffff1614611e91576040517f08c379a0000000000000000000000000000000000000000000000000000000008152600401611e8890614687565b60405180910390fd5b60016004811115611ea557611ea4614ba8565b5b6010600083815260200190815260200160002060010160009054906101000a900460ff166004811115611edb57611eda614ba8565b5b14611f1b576040517f08c379a0000000000000000000000000000000000000000000000000000000008152600401611f12906147c7565b60405180910390fd5b600554341015611f60576040517f08c379a0000000000000000000000000000000000000000000000000000000008152600401611f5790614607565b60405180910390fd5b60003490506000601060008481526020019081526020016000209050818160040154611f8c91906148e9565b8160040181905550818160030154611fa491906148e9565b816003018190555060006011600085815260200190815260200160002060003373ffffffffffffffffffffffffffffffffffffffff1673ffffffffffffffffffffffffffffffffffffffff168152602001908152602001600020905060006011600086815260200190815260200160002060003373ffffffffffffffffffffffffffffffffffffffff1673ffffffffffffffffffffffffffffffffffffffff168152602001908152602001600020600001541480156120b6575060006011600086815260200190815260200160002060003373ffffffffffffffffffffffffffffffffffffffff1673ffffffffffffffffffffffffffffffffffffffff16815260200190815260200160002060010154145b1561219657601260003373ffffffffffffffffffffffffffffffffffffffff1673ffffffffffffffffffffffffffffffffffffffff16815260200190815260200160002084908060018154018082558091505060019003906000526020600020016000909190919091505560136000858152602001908152602001600020339080600181540180825580915050600190039060005260206000200160009091909190916101000a81548173ffffffffffffffffffffffffffffffffffffffff021916908373ffffffffffffffffffffffffffffffffffffffff1602179055505b8281600101546121a691906148e9565b8160010181905550833373ffffffffffffffffffffffffffffffffffffffff167f0d8c1fe3e67ab767116a81f122b83c2557a8c2564019cb7c4f83de1aeb1f1f0d346040516121f59190614847565b60405180910390a35050506001808190555050565b612212612c44565b73ffffffffffffffffffffffffffffffffffffffff16612230611d15565b73ffffffffffffffffffffffffffffffffffffffff1614612286576040517f08c379a000000000000000000000000000000000000000000000000000000000815260040161227d906146c7565b60405180910390fd5b600073ffffffffffffffffffffffffffffffffffffffff168173ffffffffffffffffffffffffffffffffffffffff1614156122f6576040517f08c379a00000000000000000000000000000000000000000000000000000000081526004016122ed90614647565b60405180910390fd5b80600360006101000a81548173ffffffffffffffffffffffffffffffffffffffff021916908373ffffffffffffffffffffffffffffffffffffffff1602179055508073ffffffffffffffffffffffffffffffffffffffff167fda12ee837e6978172aaf54b16145ffe08414fd8710092ef033c71b8eb6ec189a60405160405180910390a250565b60075481565b61238b611440565b156123cb576040517f08c379a00000000000000000000000000000000000000000000000000000000081526004016123c290614627565b60405180910390fd5b600360009054906101000a900473ffffffffffffffffffffffffffffffffffffffff1673ffffffffffffffffffffffffffffffffffffffff163373ffffffffffffffffffffffffffffffffffffffff161461245b576040517f08c379a000000000000000000000000000000000000000000000000000000000815260040161245290614807565b60405180910390fd5b61246433612849565b156124a4576040517f08c379a000000000000000000000000000000000000000000000000000000000815260040161249b90614567565b60405180910390fd5b3273ffffffffffffffffffffffffffffffffffffffff163373ffffffffffffffffffffffffffffffffffffffff1614612512576040517f08c379a000000000000000000000000000000000000000000000000000000000815260040161250990614687565b60405180910390fd5b600f60019054906101000a900460ff1615612562576040517f08c379a0000000000000000000000000000000000000000000000000000000008152600401612559906145a7565b60405180910390fd5b6000600c8190555080600e8190555061257c600c54612b30565b6001600f60016101000a81548160ff02191690831515021790555050565b60045481565b600e5481565b601260205281600052604060002081815481106125c257600080fd5b90600052602060002001600091509150505481565b600b5481565b600d5481565b600581565b6125f0612c44565b73ffffffffffffffffffffffffffffffffffffffff1661260e611d15565b73ffffffffffffffffffffffffffffffffffffffff1614612664576040517f08c379a000000000000000000000000000000000000000000000000000000000815260040161265b906146c7565b60405180910390fd5b600073ffffffffffffffffffffffffffffffffffffffff168173ffffffffffffffffffffffffffffffffffffffff1614156126d4576040517f08c379a00000000000000000000000000000000000000000000000000000000081526004016126cb90614527565b60405180910390fd5b6126dd81612c4c565b50565b6126e8611440565b612727576040517f08c379a000000000000000000000000000000000000000000000000000000000815260040161271e906144c7565b60405180910390fd5b600260009054906101000a900473ffffffffffffffffffffffffffffffffffffffff1673ffffffffffffffffffffffffffffffffffffffff163373ffffffffffffffffffffffffffffffffffffffff16146127b7576040517f08c379a00000000000000000000000000000000000000000000000000000000081526004016127ae90614827565b60405180910390fd5b6000600f60016101000a81548160ff0219169083151502179055506000600f60006101000a81548160ff0219169083151502179055506127f56139f7565b7f32fb7c9891bc4f963c7de9f1186d2a7755c7d6e9f4604dabe1d8bb3027c2f49e600c546040516128269190614847565b60405180910390a1565b600f60009054906101000a900460ff1681565b60055481565b600080823b905060008111915050919050565b60008060006009544261286f91906148e9565b90506000806000600860009054906101000a900473ffffffffffffffffffffffffffffffffffffffff1673ffffffffffffffffffffffffffffffffffffffff1663feaf968c6040518163ffffffff1660e01b815260040160a06040518083038186803b1580156128de57600080fd5b505afa1580156128f2573d6000803e3d6000fd5b505050506040513d601f19601f820116820180604052508101906129169190613f15565b509350509250925083811115612961576040517f08c379a0000000000000000000000000000000000000000000000000000000008152600401612958906147e7565b60405180910390fd5b600b548369ffffffffffffffffffff16116129b1576040517f08c379a00000000000000000000000000000000000000000000000000000000081526004016129a8906146a7565b60405180910390fd5b82828169ffffffffffffffffffff16915095509550505050509091565b600160048111156129e2576129e1614ba8565b5b6010600084815260200190815260200160002060010160009054906101000a900460ff166004811115612a1857612a17614ba8565b5b14612a58576040517f08c379a0000000000000000000000000000000000000000000000000000000008152600401612a4f90614587565b60405180910390fd5b4260106000848152602001908152602001600020600901541015612ab1576040517f08c379a0000000000000000000000000000000000000000000000000000000008152600401612aa890614667565b60405180910390fd5b600060106000848152602001908152602001600020905081816007018190555060028160010160006101000a81548160ff02191690836004811115612af957612af8614ba8565b5b0217905550827f939f42374aa9bf1d8d8cd56d8a9110cb040cd8dfeae44080c6fcf2645e51b45260405160405180910390a2505050565b6000601060008381526020019081526020016000206000015414612b89576040517f08c379a0000000000000000000000000000000000000000000000000000000008152600401612b80906145e7565b60405180910390fd5b600060106000838152602001908152602001600020905081816000018190555081600d54612bb79190614970565b600e54612bc491906148e9565b8160090181905550600d548160090154612bde91906148e9565b81600a018190555060018160010160006101000a81548160ff02191690836004811115612c0e57612c0d614ba8565b5b0217905550817f257b6e0c207001c05b4f0f88a5bc913e2c47513ab9989881a48ceea263b2a72160405160405180910390a25050565b600033905090565b60008060009054906101000a900473ffffffffffffffffffffffffffffffffffffffff169050816000806101000a81548173ffffffffffffffffffffffffffffffffffffffff021916908373ffffffffffffffffffffffffffffffffffffffff1602179055508173ffffffffffffffffffffffffffffffffffffffff168173ffffffffffffffffffffffffffffffffffffffff167f8be0079c531659141344cd1fd0a4f28419497f9722a3daafe3b4186f6b6457e060405160405180910390a35050565b60026004811115612d2457612d23614ba8565b5b6010600084815260200190815260200160002060010160009054906101000a900460ff166004811115612d5a57612d59614ba8565b5b14612d9a576040517f08c379a0000000000000000000000000000000000000000000000000000000008152600401612d91906144e7565b60405180910390fd5b4260106000848152602001908152602001600020600a01541115612df3576040517f08c379a0000000000000000000000000000000000000000000000000000000008152600401612dea90614547565b60405180910390fd5b600060106000848152602001908152602001600020905081816008018190555060038160010160006101000a81548160ff02191690836004811115612e3b57612e3a614ba8565b5b0217905550827f2c46d8d5cabadbc3b7c8644a09e45c97988bd5ee29b298d282a7ef8c1833d91260405160405180910390a2505050565b612e7a611440565b15612eba576040517f08c379a0000000000000000000000000000000000000000000000000000000008152600401612eb190614627565b60405180910390fd5b60036004811115612ece57612ecd614ba8565b5b6010600083815260200190815260200160002060010160009054906101000a900460ff166004811115612f0457612f03614ba8565b5b14612f44576040517f08c379a0000000000000000000000000000000000000000000000000000000008152600401612f3b90614787565b60405180910390fd5b6000601060008381526020019081526020016000206004015411612f9d576040517f08c379a0000000000000000000000000000000000000000000000000000000008152600401612f9490614767565b60405180910390fd5b612fa681613a98565b60006013600083815260200190815260200160002090506000601060008481526020019081526020016000209050600060048260010160006101000a81548160ff02191690836004811115612ffe57612ffd614ba8565b5b02179055508160020154826005015414801561301e575060008260050154115b156133005760005b83805490508110156132fa57600060116000878152602001908152602001600020600086848154811061305c5761305b614c06565b5b9060005260206000200160009054906101000a900473ffffffffffffffffffffffffffffffffffffffff1673ffffffffffffffffffffffffffffffffffffffff1673ffffffffffffffffffffffffffffffffffffffff1681526020019081526020016000206000015411156132e757826005015483600601546011600088815260200190815260200160002060008785815481106130fd576130fc614c06565b5b9060005260206000200160009054906101000a900473ffffffffffffffffffffffffffffffffffffffff1673ffffffffffffffffffffffffffffffffffffffff1673ffffffffffffffffffffffffffffffffffffffff168152602001908152602001600020600001546131709190614970565b61317a919061493f565b9150816011600087815260200190815260200160002060008684815481106131a5576131a4614c06565b5b9060005260206000200160009054906101000a900473ffffffffffffffffffffffffffffffffffffffff1673ffffffffffffffffffffffffffffffffffffffff1673ffffffffffffffffffffffffffffffffffffffff1681526020019081526020016000206002018190555061325884828154811061322757613226614c06565b5b9060005260206000200160009054906101000a900473ffffffffffffffffffffffffffffffffffffffff1683613c66565b83818154811061326b5761326a614c06565b5b9060005260206000200160009054906101000a900473ffffffffffffffffffffffffffffffffffffffff1673ffffffffffffffffffffffffffffffffffffffff16857f8454e3c8276bd8eeb282eee28eb4faff9ab6f0a109f616c74cf2c6e41fa72b8584426040516132de929190614862565b60405180910390a35b80806132f290614b01565b915050613026565b50613921565b8160030154826005015414801561331b575060008260050154115b156135fd5760005b83805490508110156135f757600060116000878152602001908152602001600020600086848154811061335957613358614c06565b5b9060005260206000200160009054906101000a900473ffffffffffffffffffffffffffffffffffffffff1673ffffffffffffffffffffffffffffffffffffffff1673ffffffffffffffffffffffffffffffffffffffff1681526020019081526020016000206001015411156135e457826005015483600601546011600088815260200190815260200160002060008785815481106133fa576133f9614c06565b5b9060005260206000200160009054906101000a900473ffffffffffffffffffffffffffffffffffffffff1673ffffffffffffffffffffffffffffffffffffffff1673ffffffffffffffffffffffffffffffffffffffff1681526020019081526020016000206001015461346d9190614970565b613477919061493f565b9150816011600087815260200190815260200160002060008684815481106134a2576134a1614c06565b5b9060005260206000200160009054906101000a900473ffffffffffffffffffffffffffffffffffffffff1673ffffffffffffffffffffffffffffffffffffffff1673ffffffffffffffffffffffffffffffffffffffff1681526020019081526020016000206002018190555061355584828154811061352457613523614c06565b5b9060005260206000200160009054906101000a900473ffffffffffffffffffffffffffffffffffffffff1683613c66565b83818154811061356857613567614c06565b5b9060005260206000200160009054906101000a900473ffffffffffffffffffffffffffffffffffffffff1673ffffffffffffffffffffffffffffffffffffffff16857f8454e3c8276bd8eeb282eee28eb4faff9ab6f0a109f616c74cf2c6e41fa72b8584426040516135db929190614862565b60405180910390a35b80806135ef90614b01565b915050613323565b50613920565b61360684613d17565b156139015760008060005b85805490508110156138f95760116000888152602001908152602001600020600087838154811061364557613644614c06565b5b9060005260206000200160009054906101000a900473ffffffffffffffffffffffffffffffffffffffff1673ffffffffffffffffffffffffffffffffffffffff1673ffffffffffffffffffffffffffffffffffffffff168152602001908152602001600020600101546011600089815260200190815260200160002060008884815481106136d6576136d5614c06565b5b9060005260206000200160009054906101000a900473ffffffffffffffffffffffffffffffffffffffff1673ffffffffffffffffffffffffffffffffffffffff1673ffffffffffffffffffffffffffffffffffffffff1681526020019081526020016000206000015461374991906148e9565b925060008311156138e6576064600454846137649190614970565b61376e919061493f565b8361377991906149ca565b9150816011600089815260200190815260200160002060008884815481106137a4576137a3614c06565b5b9060005260206000200160009054906101000a900473ffffffffffffffffffffffffffffffffffffffff1673ffffffffffffffffffffffffffffffffffffffff1673ffffffffffffffffffffffffffffffffffffffff1681526020019081526020016000206002018190555061385786828154811061382657613825614c06565b5b9060005260206000200160009054906101000a900473ffffffffffffffffffffffffffffffffffffffff1683613c66565b85818154811061386a57613869614c06565b5b9060005260206000200160009054906101000a900473ffffffffffffffffffffffffffffffffffffffff1673ffffffffffffffffffffffffffffffffffffffff16877faba4210cad11f1112f31ba136a61cdc0f6ab4c2b478da8c93eec1d9769e97a8984426040516138dd929190614862565b60405180910390a35b80806138f190614b01565b915050613611565b50505061391f565b81600601546006600082825461391791906148e9565b925050819055505b5b5b837ff00b58aac0bbbb25b6a610d2355d2105a8d9213b11fc46702d7583b44e8e513960405160405180910390a250505050565b61395c611440565b1561399c576040517f08c379a000000000000000000000000000000000000000000000000000000000815260040161399390614627565b60405180910390fd5b6001600060146101000a81548160ff0219169083151502179055507f62e78cea01bee320cd4e420270b5ea74000d11b0c9f74754ebdbfc544b05a2586139e0612c44565b6040516139ed9190614434565b60405180910390a1565b6139ff611440565b613a3e576040517f08c379a0000000000000000000000000000000000000000000000000000000008152600401613a35906144c7565b60405180910390fd5b60008060146101000a81548160ff0219169083151502179055507f5db9ee0a495bf2e6ff9c91a7834c1ba4fdd244a5e8aa4e537bd38aeae4b073aa613a81612c44565b604051613a8e9190614434565b60405180910390a1565b60036004811115613aac57613aab614ba8565b5b6010600083815260200190815260200160002060010160009054906101000a900460ff166004811115613ae257613ae1614ba8565b5b14613b22576040517f08c379a0000000000000000000000000000000000000000000000000000000008152600401613b1990614787565b60405180910390fd5b6000601060008381526020019081526020016000209050600080600060646004548560040154613b529190614970565b613b5c919061493f565b9150836007015484600801541315613ba55783600201549250818460040154613b8591906149ca565b90508160066000828254613b9991906148e9565b92505081905550613c0f565b836007015484600801541215613bec5783600301549250818460040154613bcc91906149ca565b90508160066000828254613be091906148e9565b92505081905550613c0e565b60009250600090508160066000828254613c0691906148e9565b925050819055505b5b808460060181905550828460050181905550847f6dfdfcb09c8804d0058826cd2539f1acfbe3cb887c9be03d928035bce0f1a58d8483600654604051613c579392919061488b565b60405180910390a25050505050565b60008273ffffffffffffffffffffffffffffffffffffffff1682604051613c8c9061441f565b60006040518083038185875af1925050503d8060008114613cc9576040519150601f19603f3d011682016040523d82523d6000602084013e613cce565b606091505b5050905080613d12576040517f08c379a0000000000000000000000000000000000000000000000000000000008152600401613d09906144a7565b60405180910390fd5b505050565b6000806010600084815260200190815260200160002060050154148015613d54575060006010600084815260200190815260200160002060060154145b8015613d8b575060106000838152602001908152602001600020600801546010600084815260200190815260200160002060070154145b9050919050565b600081359050613da181615295565b92915050565b600081519050613db6816152ac565b92915050565b600081359050613dcb816152c3565b92915050565b600081519050613de0816152c3565b92915050565b600081519050613df5816152da565b92915050565b600060208284031215613e1157613e10614c35565b5b6000613e1f84828501613d92565b91505092915050565b60008060408385031215613e3f57613e3e614c35565b5b6000613e4d85828601613d92565b9250506020613e5e85828601613dbc565b9150509250929050565b600060208284031215613e7e57613e7d614c35565b5b6000613e8c84828501613dbc565b91505092915050565b60008060408385031215613eac57613eab614c35565b5b6000613eba85828601613dbc565b9250506020613ecb85828601613d92565b9150509250929050565b60008060408385031215613eec57613eeb614c35565b5b6000613efa85828601613dbc565b9250506020613f0b85828601613dbc565b9150509250929050565b600080600080600060a08688031215613f3157613f30614c35565b5b6000613f3f88828901613de6565b9550506020613f5088828901613da7565b9450506040613f6188828901613dd1565b9350506060613f7288828901613dd1565b9250506080613f8388828901613de6565b9150509295509295909350565b613f99816149fe565b82525050565b613fa881614a10565b82525050565b613fb781614a66565b82525050565b6000613fc8826148c2565b613fd281856148d8565b9350613fe2818560208601614a9c565b613feb81614c3a565b840191505092915050565b6000614003601f836148d8565b915061400e82614c4b565b602082019050919050565b60006140266014836148d8565b915061403182614c74565b602082019050919050565b60006140496025836148d8565b915061405482614c9d565b604082019050919050565b600061406c6032836148d8565b915061407782614cec565b604082019050919050565b600061408f6026836148d8565b915061409a82614d3b565b604082019050919050565b60006140b2601a836148d8565b91506140bd82614d8a565b602082019050919050565b60006140d56014836148d8565b91506140e082614db3565b602082019050919050565b60006140f86017836148d8565b915061410382614ddc565b602082019050919050565b600061411b6024836148d8565b915061412682614e05565b604082019050919050565b600061413e6018836148d8565b915061414982614e54565b602082019050919050565b60006141616014836148d8565b915061416c82614e7d565b602082019050919050565b6000614184602c836148d8565b915061418f82614ea6565b604082019050919050565b60006141a76010836148d8565b91506141b282614ef5565b602082019050919050565b60006141ca6016836148d8565b91506141d582614f1e565b602082019050919050565b60006141ed601b836148d8565b91506141f882614f47565b602082019050919050565b6000614210601a836148d8565b915061421b82614f70565b602082019050919050565b60006142336036836148d8565b915061423e82614f99565b604082019050919050565b60006142566020836148d8565b915061426182614fe8565b602082019050919050565b6000614279601d836148d8565b915061428482615011565b602082019050919050565b600061429c6023836148d8565b91506142a78261503a565b604082019050919050565b60006142bf6015836148d8565b91506142ca82615089565b602082019050919050565b60006142e26046836148d8565b91506142ed826150b2565b606082019050919050565b60006143056000836148cd565b915061431082615127565b600082019050919050565b60006143286014836148d8565b91506143338261512a565b602082019050919050565b600061434b6027836148d8565b915061435682615153565b604082019050919050565b600061436e601f836148d8565b9150614379826151a2565b602082019050919050565b60006143916015836148d8565b915061439c826151cb565b602082019050919050565b60006143b4602e836148d8565b91506143bf826151f4565b604082019050919050565b60006143d7600c836148d8565b91506143e282615243565b602082019050919050565b60006143fa6009836148d8565b91506144058261526c565b602082019050919050565b61441981614a46565b82525050565b600061442a826142f8565b9150819050919050565b60006020820190506144496000830184613f90565b92915050565b60006020820190506144646000830184613f9f565b92915050565b600060208201905061447f6000830184613fae565b92915050565b6000602082019050818103600083015261449f8184613fbd565b905092915050565b600060208201905081810360008301526144c081613ff6565b9050919050565b600060208201905081810360008301526144e081614019565b9050919050565b600060208201905081810360008301526145008161403c565b9050919050565b600060208201905081810360008301526145208161405f565b9050919050565b6000602082019050818103600083015261454081614082565b9050919050565b60006020820190508181036000830152614560816140a5565b9050919050565b60006020820190508181036000830152614580816140c8565b9050919050565b600060208201905081810360008301526145a0816140eb565b9050919050565b600060208201905081810360008301526145c08161410e565b9050919050565b600060208201905081810360008301526145e081614131565b9050919050565b6000602082019050818103600083015261460081614154565b9050919050565b6000602082019050818103600083015261462081614177565b9050919050565b600060208201905081810360008301526146408161419a565b9050919050565b60006020820190508181036000830152614660816141bd565b9050919050565b60006020820190508181036000830152614680816141e0565b9050919050565b600060208201905081810360008301526146a081614203565b9050919050565b600060208201905081810360008301526146c081614226565b9050919050565b600060208201905081810360008301526146e081614249565b9050919050565b600060208201905081810360008301526147008161426c565b9050919050565b600060208201905081810360008301526147208161428f565b9050919050565b60006020820190508181036000830152614740816142b2565b9050919050565b60006020820190508181036000830152614760816142d5565b9050919050565b600060208201905081810360008301526147808161431b565b9050919050565b600060208201905081810360008301526147a08161433e565b9050919050565b600060208201905081810360008301526147c081614361565b9050919050565b600060208201905081810360008301526147e081614384565b9050919050565b60006020820190508181036000830152614800816143a7565b9050919050565b60006020820190508181036000830152614820816143ca565b9050919050565b60006020820190508181036000830152614840816143ed565b9050919050565b600060208201905061485c6000830184614410565b92915050565b60006040820190506148776000830185614410565b6148846020830184614410565b9392505050565b60006060820190506148a06000830186614410565b6148ad6020830185614410565b6148ba6040830184614410565b949350505050565b600081519050919050565b600081905092915050565b600082825260208201905092915050565b60006148f482614a46565b91506148ff83614a46565b9250827fffffffffffffffffffffffffffffffffffffffffffffffffffffffffffffffff0382111561493457614933614b4a565b5b828201905092915050565b600061494a82614a46565b915061495583614a46565b92508261496557614964614b79565b5b828204905092915050565b600061497b82614a46565b915061498683614a46565b9250817fffffffffffffffffffffffffffffffffffffffffffffffffffffffffffffffff04831182151516156149bf576149be614b4a565b5b828202905092915050565b60006149d582614a46565b91506149e083614a46565b9250828210156149f3576149f2614b4a565b5b828203905092915050565b6000614a0982614a26565b9050919050565b60008115159050919050565b6000819050919050565b600073ffffffffffffffffffffffffffffffffffffffff82169050919050565b6000819050919050565b600069ffffffffffffffffffff82169050919050565b6000614a7182614a78565b9050919050565b6000614a8382614a8a565b9050919050565b6000614a9582614a26565b9050919050565b60005b83811015614aba578082015181840152602081019050614a9f565b83811115614ac9576000848401525b50505050565b60006002820490506001821680614ae757607f821691505b60208210811415614afb57614afa614bd7565b5b50919050565b6000614b0c82614a46565b91507fffffffffffffffffffffffffffffffffffffffffffffffffffffffffffffffff821415614b3f57614b3e614b4a565b5b600182019050919050565b7f4e487b7100000000000000000000000000000000000000000000000000000000600052601160045260246000fd5b7f4e487b7100000000000000000000000000000000000000000000000000000000600052601260045260246000fd5b7f4e487b7100000000000000000000000000000000000000000000000000000000600052602160045260246000fd5b7f4e487b7100000000000000000000000000000000000000000000000000000000600052602260045260246000fd5b7f4e487b7100000000000000000000000000000000000000000000000000000000600052603260045260246000fd5b600080fd5b6000601f19601f8301169050919050565b7f5472616e7366657248656c7065723a205452414e534645525f4641494c454400600082015250565b7f5061757361626c653a206e6f7420706175736564000000000000000000000000600082015250565b7f526f756e64206973206e6f742073746172746564206f7220656e64656420616c60008201527f7265616479000000000000000000000000000000000000000000000000000000602082015250565b7f43616e206f6e6c792072756e2061667465722067656e6573697343726561746560008201527f526f756e64206973207472696767657265640000000000000000000000000000602082015250565b7f4f776e61626c653a206e6577206f776e657220697320746865207a65726f206160008201527f6464726573730000000000000000000000000000000000000000000000000000602082015250565b7f546f6f206561726c7920746f20656e642074686520726f756e64000000000000600082015250565b7f436f6e7472616374206e6f7420616c6c6f776564000000000000000000000000600082015250565b7f526f756e642073686f756c642062652063726561746564000000000000000000600082015250565b7f43616e206f6e6c792072756e2067656e65736973437265617465526f756e642060008201527f6f6e636500000000000000000000000000000000000000000000000000000000602082015250565b7f54726561737572792066656520697320746f6f20686967680000000000000000600082015250565b7f526f756e6420616c726561647920657869737473000000000000000000000000600082015250565b7f42657420616d6f756e74206d7573742062652067726561746572207468616e2060008201527f6d696e426574416d6f756e740000000000000000000000000000000000000000602082015250565b7f5061757361626c653a2070617573656400000000000000000000000000000000600082015250565b7f43616e6e6f74206265207a65726f206164647265737300000000000000000000600082015250565b7f546f6f206c61746520746f2073746172742074686520726f756e640000000000600082015250565b7f50726f787920636f6e7472616374206e6f7420616c6c6f776564000000000000600082015250565b7f4f7261636c6520726f756e644964206d757374206265206c617267657220746860008201527f616e206f7261636c654c6174657374526f756e64496400000000000000000000602082015250565b7f4f776e61626c653a2063616c6c6572206973206e6f7420746865206f776e6572600082015250565b7f416d6f756e742063616e6e6f74206265207a65726f206f72206c657373000000600082015250565b7f43616e206f6e6c792072756e2067656e657369735374617274526f756e64206f60008201527f6e63650000000000000000000000000000000000000000000000000000000000602082015250565b7f4d757374206265207375706572696f7220746f20300000000000000000000000600082015250565b7f43616e206f6e6c792072756e2061667465722067656e6573697353746172745260008201527f6f756e6420616e642067656e657369734c6f636b526f756e642069732074726960208201527f6767657265640000000000000000000000000000000000000000000000000000604082015250565b50565b7f4e6f206265747320696e2074686520726f756e64000000000000000000000000600082015250565b7f526f756e64206973206e6f7420656e646564206f7220616c726561647920646960008201527f7370657273656400000000000000000000000000000000000000000000000000602082015250565b7f5265656e7472616e637947756172643a207265656e7472616e742063616c6c00600082015250565b7f42657420697320746f6f206561726c792f6c6174650000000000000000000000600082015250565b7f4f7261636c6520757064617465206578636565646564206d61782074696d657360008201527f74616d7020616c6c6f77616e6365000000000000000000000000000000000000602082015250565b7f4e6f74206f70657261746f720000000000000000000000000000000000000000600082015250565b7f4e6f742061646d696e0000000000000000000000000000000000000000000000600082015250565b61529e816149fe565b81146152a957600080fd5b50565b6152b581614a1c565b81146152c057600080fd5b50565b6152cc81614a46565b81146152d757600080fd5b50565b6152e381614a50565b81146152ee57600080fd5b5056fea26469706673582212202dd80375fd47d278459c7d7aca181c39641376906a320c70c43ac2c9991e323764736f6c63430008070033",
  "immutableReferences": {},
  "source": "// SPDX-License-Identifier: MIT\n\npragma solidity ^0.8.7;\n\nimport \"./PredictionAdministrator.sol\";\nimport \"./PriceManager.sol\";\n\n/**\n * @title BetBeePrediction\n */\ncontract BetBeePrediction is PredictionAdministrator, PriceManager {\n\n    uint256 public currentRoundId;\n    uint256 public roundTime = 300; //5 mintues of round\n    uint256 public genesisStartTimestamp;\n    //string public assetPair;\n\n    bool public genesisStartOnce = false;\n    bool public genesisCreateOnce = false;\n\n    enum RoundState {UNKNOWN, CREATED, STARTED, ENDED, DISPERSED}\n\n    struct Round \n    {\n        uint256 roundId;\n        RoundState roundState;\n        uint256 bullAmount;\n        uint256 bearAmount;\n        uint256 totalAmount;\n        uint256 rewardBaseCalAmount;\n        uint256 rewardAmount;\n        int256 startPrice;\n        int256 endPrice;\n        uint256 startTimestamp;\n        uint256 endTimestamp;\n    }\n\n    struct BetInfo {\n        uint256 bullAmount;\n        uint256 bearAmount;\n        uint256 amountDispersed;\n    }\n\n    mapping(uint256 => Round) rounds;\n    mapping(uint256 => mapping(address => BetInfo)) public ledger;\n    mapping(address => uint256[]) public userRounds;\n    mapping(uint256 => address[]) public usersInRounds;\n\n    event Paused(uint256 currentRoundId);\n    event UnPaused(uint256 currentRoundId);\n\n    event CreateRound(uint256 indexed roundId);\n    event StartRound(uint256 indexed roundId);\n    event EndRound(uint256 indexed roundId);\n    event DisperseUser(uint256 indexed roundId, address indexed recipient, uint256 amountDispersed, uint256 timestamp);\n    event Disperse(uint256 indexed roundId);\n    event BetBull(address indexed sender, uint256 indexed roundId, uint256 amount);\n    event BetBear(address indexed sender, uint256 indexed roundId, uint256 amount);\n    event RewardsCalculated(uint256 indexed roundId, uint256 rewardBaseCalAmount, uint256 rewardAmount, uint256 treasuryAmount);\n    event Refund(uint256 indexed roundId, address indexed recipient, uint256 refundDispersed, uint256 timestamp);\n\n    /**\n     * @notice Constructor\n     * @param _adminAddress: admin address\n     * @param _minBetAmount: minimum bet amounts (in wei)\n     * @param _treasuryFee: treasury fee 3 (3%)\n     * @param _assetPair: asset pair\n     */\n    constructor(address _adminAddress, uint256 _minBetAmount, uint256 _treasuryFee, address _oracleAddress, string memory _assetPair) \n    PredictionAdministrator(_adminAddress, _minBetAmount, _treasuryFee) \n    PriceManager(_oracleAddress, _assetPair) {\n    }\n\n    /**\n     * @notice Pause the contract\n     * @dev Callable by admin\n     */\n    function pause() external whenNotPaused onlyAdmin {\n        _pause();\n\n        emit Paused(currentRoundId);\n    }\n\n    /**\n     * @notice Unpuase the contract\n     * @dev Callable by admin\n     */\n    function unPause() external whenPaused onlyAdmin {\n        genesisCreateOnce = false;\n        genesisStartOnce = false;\n        _unpause();\n\n        emit Paused(currentRoundId);\n    }\n\n    /**\n    * @notice Create Round\n    * @param roundId: round Id \n    */\n    function _createRound(uint256 roundId) internal {\n        require(rounds[roundId].roundId == 0, \"Round already exists\");\n        Round storage round = rounds[roundId];\n        round.roundId = roundId;\n        round.startTimestamp = (genesisStartTimestamp + (roundTime * roundId));\n        round.endTimestamp = round.startTimestamp + roundTime;\n        round.roundState = RoundState.CREATED;\n\n        emit CreateRound(roundId);\n    }\n\n    /**\n    * @notice Start Round\n    * @param roundId: round Id \n    */\n   function _startRound(uint256 roundId, int256 price) internal {\n       require(rounds[roundId].roundState == RoundState.CREATED, \"Round should be created\");\n       require(rounds[roundId].startTimestamp >= block.timestamp, \"Too late to start the round\");\n       Round storage round = rounds[roundId];\n       round.startPrice = price;\n       round.roundState = RoundState.STARTED;\n\n       emit StartRound(roundId);\n    }\n\n    /**\n    * @notice End Round\n    * @param roundId: round Id \n    */\n    function _endRound(uint256 roundId, int256 price) internal {\n        require(rounds[roundId].roundState == RoundState.STARTED, \"Round is not started or ended already\");\n        require(rounds[roundId].endTimestamp <= block.timestamp, \"Too early to end the round\");\n        Round storage round = rounds[roundId];\n        round.endPrice = price;\n        round.roundState = RoundState.ENDED;\n\n        emit EndRound(roundId);\n    }\n\n    /**\n    * @notice Calculate Rewards for the round\n    * @param roundId: round Id \n    */\n    function _calculateRewards(uint256 roundId) internal {\n        require(rounds[roundId].roundState == RoundState.ENDED, \"Round is not ended or already dispersed\");\n        Round storage round = rounds[roundId];\n        uint256 rewardBaseCalAmount;\n        uint256 treasuryAmt;\n        uint256 rewardAmount;\n\n        treasuryAmt = (round.totalAmount * treasuryFee) / 100;\n\n        // Bull wins\n        if (round.endPrice > round.startPrice) {\n            rewardBaseCalAmount = round.bullAmount;\n            rewardAmount = round.totalAmount - treasuryAmt;\n            treasuryAmount += treasuryAmt;\n        }\n        // Bear wins\n        else if (round.endPrice < round.startPrice) {\n            rewardBaseCalAmount = round.bearAmount;\n            rewardAmount = round.totalAmount - treasuryAmt;\n            treasuryAmount += treasuryAmt;\n        }\n        // draw or tie\n        else {\n            rewardBaseCalAmount = 0;\n            rewardAmount = 0;\n            treasuryAmount += treasuryAmt;\n        }\n        \n        round.rewardAmount = rewardAmount;\n        round.rewardBaseCalAmount = rewardBaseCalAmount;\n\n        emit RewardsCalculated(roundId, rewardBaseCalAmount, rewardAmount, treasuryAmount);\n    }\n\n    /**\n    * @notice Transfer \n    * @param to: recipient address\n    * @param value: value \n    */\n    function _safeTransfer(address to, uint256 value) internal {\n        (bool success, ) = to.call{value: value}(\"\");\n        require(success, \"TransferHelper: TRANSFER_FAILED\");\n    }\n\n    /**\n    * @notice Check whether the round is refundable\n    * @param roundId: round Id \n    */\n    function _refundable(uint256 roundId) internal view returns(bool) {\n        return rounds[roundId].rewardBaseCalAmount == 0 &&\n               rounds[roundId].rewardAmount == 0 &&\n               rounds[roundId].startPrice == rounds[roundId].endPrice;\n    }\n\n    /**\n    * @notice Disperse Rewards for the round\n    * @param roundId: round Id \n    */\n    function _disperse(uint256 roundId) internal whenNotPaused {\n        require(rounds[roundId].roundState == RoundState.ENDED, \"Round is not ended or already dispersed\");\n        require(rounds[roundId].totalAmount > 0, \"No bets in the round\");\n        \n        //calculate rewards before disperse\n        _calculateRewards(roundId);\n\n        address[] storage usersInRound = usersInRounds[roundId];\n        Round storage round = rounds[roundId];\n        uint256 reward = 0;\n\n        round.roundState = RoundState.DISPERSED;\n\n        //bull disperse\n        if(round.rewardBaseCalAmount == round.bullAmount && round.rewardBaseCalAmount > 0) {\n            for (uint256 i =0; i < usersInRound.length; i++) {\n                if(ledger[roundId][usersInRound[i]].bullAmount > 0) {\n                    reward = (ledger[roundId][usersInRound[i]].bullAmount * round.rewardAmount) / round.rewardBaseCalAmount;\n                    ledger[roundId][usersInRound[i]].amountDispersed = reward;\n                    _safeTransfer(usersInRound[i], reward);\n\n                    emit DisperseUser(roundId, usersInRound[i], reward, block.timestamp);\n                }\n            }\n        }\n\n        //bear disperse\n        else if(round.rewardBaseCalAmount == round.bearAmount && round.rewardBaseCalAmount > 0) {\n            for (uint256 i =0; i < usersInRound.length; i++) {\n                if(ledger[roundId][usersInRound[i]].bearAmount > 0) {\n                    reward = (ledger[roundId][usersInRound[i]].bearAmount * round.rewardAmount) / round.rewardBaseCalAmount;\n                    ledger[roundId][usersInRound[i]].amountDispersed = reward;\n                    _safeTransfer(usersInRound[i], reward);\n\n                    emit DisperseUser(roundId, usersInRound[i], reward, block.timestamp);\n                }\n            }\n        }\n\n        //refund if tied round\n        else if(_refundable(roundId)) {\n            uint256 userTotalBetAmount = 0;\n            uint256 userTotalRefund = 0;\n            for (uint256 i =0; i < usersInRound.length; i++) {\n                userTotalBetAmount = ledger[roundId][usersInRound[i]].bullAmount + ledger[roundId][usersInRound[i]].bearAmount;\n\n                if(userTotalBetAmount > 0) {\n                    userTotalRefund = userTotalBetAmount - ((userTotalBetAmount * treasuryFee) / 100);\n                    ledger[roundId][usersInRound[i]].amountDispersed = userTotalRefund;\n                    _safeTransfer(usersInRound[i], userTotalRefund);\n\n                    emit Refund(roundId, usersInRound[i], userTotalRefund, block.timestamp);\n                }\n            }\n        }\n\n        //house wins\n        else {\n            treasuryAmount += round.rewardAmount;\n        }\n\n        emit Disperse(roundId);\n    }\n\n    /**\n    * @notice Bet Bull position\n    * @param roundId: Round Id \n    */\n    function betBull(uint256 roundId) external payable whenNotPaused nonReentrant notContract {\n        require(rounds[roundId].roundState == RoundState.CREATED, \"Bet is too early/late\");\n        require(msg.value >= minBetAmount, \"Bet amount must be greater than minBetAmount\");\n\n        // Update round data\n        uint256 amount = msg.value;\n        Round storage round = rounds[roundId];\n        BetInfo storage betInfo = ledger[roundId][msg.sender];\n\n        round.totalAmount = round.totalAmount + amount;\n        round.bullAmount = round.bullAmount + amount;\n\n        // Update user data\n        if(ledger[roundId][msg.sender].bullAmount == 0 && ledger[roundId][msg.sender].bearAmount == 0) {\n            userRounds[msg.sender].push(roundId);\n            usersInRounds[roundId].push(msg.sender);\n        }\n\n        betInfo.bullAmount = betInfo.bullAmount + amount;\n\n        emit BetBull(msg.sender, roundId, msg.value);\n    }\n\n    /**\n    * @notice Bet Bear position\n    * @param roundId: Round Id \n    */\n    function betBear(uint256 roundId) external payable whenNotPaused nonReentrant notContract {\n        require(rounds[roundId].roundState == RoundState.CREATED, \"Bet is too early/late\");\n        require(msg.value >= minBetAmount, \"Bet amount must be greater than minBetAmount\");\n\n        // Update round data\n        uint256 amount = msg.value;\n        Round storage round = rounds[roundId];\n        round.totalAmount = round.totalAmount + amount;\n        round.bearAmount = round.bearAmount + amount;\n\n        // Update user data\n        BetInfo storage betInfo = ledger[roundId][msg.sender];\n        if(ledger[roundId][msg.sender].bullAmount == 0 && ledger[roundId][msg.sender].bearAmount == 0) {\n            userRounds[msg.sender].push(roundId);\n            usersInRounds[roundId].push(msg.sender);\n        }\n\n        betInfo.bearAmount = betInfo.bearAmount + amount;\n\n        emit BetBear(msg.sender, roundId, msg.value);\n    }\n\n    /**\n    * @notice Create Genesis round\n    * @dev callable by Operator\n    * @param _genesisStartTimestamp: genesis round start timestamp\n    */\n    function genesisCreateRound(uint256 _genesisStartTimestamp) external whenNotPaused onlyOperator notContract {\n        require(!genesisCreateOnce, \"Can only run genesisCreateRound once\");\n        currentRoundId = 0;\n        genesisStartTimestamp = _genesisStartTimestamp;\n        _createRound(currentRoundId);\n        genesisCreateOnce = true;\n    }\n\n    /**\n    * @notice Start Genesis round\n    * @dev callable by Operator\n    */\n    function genesisStartRound() external whenNotPaused onlyOperator notContract {\n        require(genesisCreateOnce, \"Can only run after genesisCreateRound is triggered\");\n        require(!genesisStartOnce, \"Can only run genesisStartRound once\");\n        (,int256 price) = _getLatestPrice();\n        _startRound(currentRoundId, price);\n\n        //create next 3 rounds to be able to bet by users\n        _createRound(currentRoundId+1);\n        _createRound(currentRoundId+2);\n        _createRound(currentRoundId+3);\n\n        genesisStartOnce = true;\n    }\n\n    /**\n    * @notice Execute round\n    * @dev Callable by Operator\n    */\n    function executeRound() external whenNotPaused onlyOperator notContract {\n        require(genesisCreateOnce && genesisStartOnce, \"Can only run after genesisStartRound and genesisLockRound is triggered\");\n\n        // currentRoundId refers to current round n\n        //get price\n        (uint256 currentOracleRoundId,int256 price) = _getLatestPrice();\n\n        PriceManager.oracleLatestRoundId = uint256(currentOracleRoundId);\n\n        // Start next round\n        _startRound(currentRoundId+1, price);\n        \n        // End and Disperse current round\n        _endRound(currentRoundId, price);\n        _disperse(currentRoundId);\n\n        // Create a new round n+4\n        _createRound(currentRoundId+4);\n\n        // Point currentRoundId to next round\n        currentRoundId = currentRoundId + 1;\n    }\n}\n",
  "sourcePath": "/Users/rangs/betbee/betbee-monorepo/contracts/prediction/BetBeePrediction.sol",
  "compiler": {
    "name": "solc",
    "version": "0.8.7+commit.e28d00a7.Emscripten.clang"
  },
  "schemaVersion": "3.4.3",
  "updatedAt": "2021-11-03T09:14:48.778Z",
  "devdoc": {
    "kind": "dev",
    "methods": {
      "betBear(uint256)": {
        "params": {
          "roundId": ": Round Id "
        }
      },
      "betBull(uint256)": {
        "params": {
          "roundId": ": Round Id "
        }
      },
      "claimTreasury()": {
        "details": "Callable by admin"
      },
      "constructor": {
        "params": {
          "_adminAddress": ": admin address",
          "_assetPair": ": asset pair",
          "_minBetAmount": ": minimum bet amounts (in wei)",
          "_treasuryFee": ": treasury fee 3 (3%)"
        }
      },
      "executeRound()": {
        "details": "Callable by Operator"
      },
      "genesisCreateRound(uint256)": {
        "details": "callable by Operator",
        "params": {
          "_genesisStartTimestamp": ": genesis round start timestamp"
        }
      },
      "genesisStartRound()": {
        "details": "callable by Operator"
      },
      "getAdmin()": {
        "returns": {
          "_0": "admin address"
        }
      },
      "owner()": {
        "details": "Returns the address of the current owner."
      },
      "pause()": {
        "details": "Callable by admin"
      },
      "paused()": {
        "details": "Returns true if the contract is paused, and false otherwise."
      },
      "renounceOwnership()": {
        "details": "Leaves the contract without owner. It will not be possible to call `onlyOwner` functions anymore. Can only be called by the current owner. NOTE: Renouncing ownership will leave the contract without an owner, thereby removing any functionality that is only available to the owner."
      },
      "setAdmin(address)": {
        "details": "callable by Owner of the contract",
        "params": {
          "_admin": ": new admin address"
        }
      },
      "setClaimableTreasuryPercent(uint256)": {
        "details": "callable by Admin",
        "params": {
          "_claimableTreasuryPercent": ": claimable percent"
        }
      },
      "setMinBetAmount(uint256)": {
        "details": "Callable by admin",
        "params": {
          "_minBetAmount": ": minimum bet amount to be set"
        }
      },
      "setOperator(address)": {
        "details": "callable by Owner of the contract",
        "params": {
          "_operator": ": new operator address"
        }
      },
      "setTreasuryFee(uint256)": {
        "details": "Callable by admin",
        "params": {
          "_treasuryFee": ": new treasury fee"
        }
      },
      "transferOwnership(address)": {
        "details": "Transfers ownership of the contract to a new account (`newOwner`). Can only be called by the current owner."
      },
      "unPause()": {
        "details": "Callable by admin"
      }
    },
    "title": "BetBeePrediction",
    "version": 1
  },
  "userdoc": {
    "kind": "user",
    "methods": {
      "betBear(uint256)": {
        "notice": "Bet Bear position"
      },
      "betBull(uint256)": {
        "notice": "Bet Bull position"
      },
      "claimTreasury()": {
        "notice": "Claim 80% of treasury fund - collected as fee"
      },
      "constructor": {
        "notice": "Constructor"
      },
      "executeRound()": {
        "notice": "Execute round"
      },
      "genesisCreateRound(uint256)": {
        "notice": "Create Genesis round"
      },
      "genesisStartRound()": {
        "notice": "Start Genesis round"
      },
      "getAdmin()": {
        "notice": "get admin address"
      },
      "pause()": {
        "notice": "Pause the contract"
      },
      "setAdmin(address)": {
        "notice": "Set admin"
      },
      "setClaimableTreasuryPercent(uint256)": {
        "notice": "Set Claimabble Treasury Percent"
      },
      "setMinBetAmount(uint256)": {
        "notice": "Set minBetAmount"
      },
      "setOperator(address)": {
        "notice": "Set operator"
      },
      "setTreasuryFee(uint256)": {
        "notice": "Set Treasury Fee"
      },
      "unPause()": {
        "notice": "Unpuase the contract"
      }
    },
    "version": 1
  }
}