{
  "contractName": "BetBeeDice",
  "abi": [
    {
      "inputs": [
        {
          "internalType": "address",
          "name": "_adminAddress",
          "type": "address"
        },
        {
          "internalType": "uint256",
          "name": "_minBetAmount",
          "type": "uint256"
        },
        {
          "internalType": "uint256",
          "name": "_maxBetAmount",
          "type": "uint256"
        },
        {
          "internalType": "uint256",
          "name": "_minVRFBetAmount",
          "type": "uint256"
        },
        {
          "internalType": "uint256",
          "name": "_treasuryFee",
          "type": "uint256"
        }
      ],
      "stateMutability": "nonpayable",
      "type": "constructor"
    },
    {
      "anonymous": false,
      "inputs": [
        {
          "indexed": true,
          "internalType": "address",
          "name": "sender",
          "type": "address"
        },
        {
          "indexed": false,
          "internalType": "enum BetBeeDice.BetType",
          "name": "betType",
          "type": "uint8"
        },
        {
          "indexed": false,
          "internalType": "uint256",
          "name": "_amount",
          "type": "uint256"
        }
      ],
      "name": "Bet",
      "type": "event"
    },
    {
      "anonymous": false,
      "inputs": [
        {
          "indexed": true,
          "internalType": "address",
          "name": "sender",
          "type": "address"
        },
        {
          "indexed": false,
          "internalType": "enum BetBeeDice.BetType",
          "name": "userBetType",
          "type": "uint8"
        },
        {
          "indexed": false,
          "internalType": "enum BetBeeDice.BetType",
          "name": "winType",
          "type": "uint8"
        }
      ],
      "name": "DiceRolled",
      "type": "event"
    },
    {
      "anonymous": false,
      "inputs": [
        {
          "indexed": true,
          "internalType": "address",
          "name": "sender",
          "type": "address"
        },
        {
          "indexed": false,
          "internalType": "uint256",
          "name": "amount",
          "type": "uint256"
        }
      ],
      "name": "Disperesed",
      "type": "event"
    },
    {
      "anonymous": false,
      "inputs": [
        {
          "indexed": true,
          "internalType": "address",
          "name": "admin",
          "type": "address"
        }
      ],
      "name": "NewAdmin",
      "type": "event"
    },
    {
      "anonymous": false,
      "inputs": [
        {
          "indexed": false,
          "internalType": "uint256",
          "name": "claimableTreasuryPercent",
          "type": "uint256"
        }
      ],
      "name": "NewClaimableTreasuryPercent",
      "type": "event"
    },
    {
      "anonymous": false,
      "inputs": [
        {
          "indexed": false,
          "internalType": "uint256",
          "name": "minBetAmount",
          "type": "uint256"
        }
      ],
      "name": "NewMaxBetAmount",
      "type": "event"
    },
    {
      "anonymous": false,
      "inputs": [
        {
          "indexed": false,
          "internalType": "uint256",
          "name": "minBetAmount",
          "type": "uint256"
        }
      ],
      "name": "NewMinBetAmount",
      "type": "event"
    },
    {
      "anonymous": false,
      "inputs": [
        {
          "indexed": false,
          "internalType": "uint256",
          "name": "minBetAmount",
          "type": "uint256"
        }
      ],
      "name": "NewMinVRFBetAmount",
      "type": "event"
    },
    {
      "anonymous": false,
      "inputs": [
        {
          "indexed": false,
          "internalType": "uint256",
          "name": "treasuryFee",
          "type": "uint256"
        }
      ],
      "name": "NewTreasuryFee",
      "type": "event"
    },
    {
      "anonymous": false,
      "inputs": [
        {
          "indexed": true,
          "internalType": "address",
          "name": "previousOwner",
          "type": "address"
        },
        {
          "indexed": true,
          "internalType": "address",
          "name": "newOwner",
          "type": "address"
        }
      ],
      "name": "OwnershipTransferred",
      "type": "event"
    },
    {
      "anonymous": false,
      "inputs": [
        {
          "indexed": false,
          "internalType": "uint256",
          "name": "timestamp",
          "type": "uint256"
        }
      ],
      "name": "Paused",
      "type": "event"
    },
    {
      "anonymous": false,
      "inputs": [
        {
          "indexed": false,
          "internalType": "address",
          "name": "account",
          "type": "address"
        }
      ],
      "name": "Paused",
      "type": "event"
    },
    {
      "anonymous": false,
      "inputs": [
        {
          "indexed": true,
          "internalType": "address",
          "name": "admin",
          "type": "address"
        },
        {
          "indexed": false,
          "internalType": "uint256",
          "name": "amount",
          "type": "uint256"
        }
      ],
      "name": "TreasuryClaim",
      "type": "event"
    },
    {
      "anonymous": false,
      "inputs": [
        {
          "indexed": false,
          "internalType": "uint256",
          "name": "timestamp",
          "type": "uint256"
        }
      ],
      "name": "UnPaused",
      "type": "event"
    },
    {
      "anonymous": false,
      "inputs": [
        {
          "indexed": false,
          "internalType": "address",
          "name": "account",
          "type": "address"
        }
      ],
      "name": "Unpaused",
      "type": "event"
    },
    {
      "inputs": [],
      "name": "MAX_TREASURY_FEE",
      "outputs": [
        {
          "internalType": "uint256",
          "name": "",
          "type": "uint256"
        }
      ],
      "stateMutability": "view",
      "type": "function"
    },
    {
      "inputs": [
        {
          "internalType": "uint256",
          "name": "",
          "type": "uint256"
        }
      ],
      "name": "bets",
      "outputs": [
        {
          "internalType": "uint256",
          "name": "betId",
          "type": "uint256"
        },
        {
          "internalType": "address",
          "name": "user",
          "type": "address"
        },
        {
          "internalType": "uint256",
          "name": "betAmount",
          "type": "uint256"
        },
        {
          "internalType": "enum BetBeeDice.BetType",
          "name": "betType",
          "type": "uint8"
        },
        {
          "internalType": "enum BetBeeDice.BetType",
          "name": "winType",
          "type": "uint8"
        },
        {
          "internalType": "uint256",
          "name": "disperesedAmount",
          "type": "uint256"
        },
        {
          "internalType": "enum BetBeeDice.BetStatus",
          "name": "status",
          "type": "uint8"
        }
      ],
      "stateMutability": "view",
      "type": "function"
    },
    {
      "inputs": [],
      "name": "claimTreasury",
      "outputs": [],
      "stateMutability": "nonpayable",
      "type": "function"
    },
    {
      "inputs": [],
      "name": "claimableTreasuryPercent",
      "outputs": [
        {
          "internalType": "uint256",
          "name": "",
          "type": "uint256"
        }
      ],
      "stateMutability": "view",
      "type": "function"
    },
    {
      "inputs": [],
      "name": "currentBetId",
      "outputs": [
        {
          "internalType": "uint256",
          "name": "",
          "type": "uint256"
        }
      ],
      "stateMutability": "view",
      "type": "function"
    },
    {
      "inputs": [],
      "name": "getAdmin",
      "outputs": [
        {
          "internalType": "address",
          "name": "",
          "type": "address"
        }
      ],
      "stateMutability": "view",
      "type": "function"
    },
    {
      "inputs": [],
      "name": "maxBetAmount",
      "outputs": [
        {
          "internalType": "uint256",
          "name": "",
          "type": "uint256"
        }
      ],
      "stateMutability": "view",
      "type": "function"
    },
    {
      "inputs": [],
      "name": "minBetAmount",
      "outputs": [
        {
          "internalType": "uint256",
          "name": "",
          "type": "uint256"
        }
      ],
      "stateMutability": "view",
      "type": "function"
    },
    {
      "inputs": [],
      "name": "minVRFBetAmount",
      "outputs": [
        {
          "internalType": "uint256",
          "name": "",
          "type": "uint256"
        }
      ],
      "stateMutability": "view",
      "type": "function"
    },
    {
      "inputs": [],
      "name": "owner",
      "outputs": [
        {
          "internalType": "address",
          "name": "",
          "type": "address"
        }
      ],
      "stateMutability": "view",
      "type": "function"
    },
    {
      "inputs": [],
      "name": "paused",
      "outputs": [
        {
          "internalType": "bool",
          "name": "",
          "type": "bool"
        }
      ],
      "stateMutability": "view",
      "type": "function"
    },
    {
      "inputs": [],
      "name": "renounceOwnership",
      "outputs": [],
      "stateMutability": "nonpayable",
      "type": "function"
    },
    {
      "inputs": [
        {
          "internalType": "address",
          "name": "_admin",
          "type": "address"
        }
      ],
      "name": "setAdmin",
      "outputs": [],
      "stateMutability": "nonpayable",
      "type": "function"
    },
    {
      "inputs": [
        {
          "internalType": "uint256",
          "name": "_claimableTreasuryPercent",
          "type": "uint256"
        }
      ],
      "name": "setClaimableTreasuryPercent",
      "outputs": [],
      "stateMutability": "nonpayable",
      "type": "function"
    },
    {
      "inputs": [
        {
          "internalType": "uint256",
          "name": "_maxBetAmount",
          "type": "uint256"
        }
      ],
      "name": "setMaxBetAmount",
      "outputs": [],
      "stateMutability": "nonpayable",
      "type": "function"
    },
    {
      "inputs": [
        {
          "internalType": "uint256",
          "name": "_minBetAmount",
          "type": "uint256"
        }
      ],
      "name": "setMinBetAmount",
      "outputs": [],
      "stateMutability": "nonpayable",
      "type": "function"
    },
    {
      "inputs": [
        {
          "internalType": "uint256",
          "name": "_minVRFBetAmount",
          "type": "uint256"
        }
      ],
      "name": "setMinVRFBetAmount",
      "outputs": [],
      "stateMutability": "nonpayable",
      "type": "function"
    },
    {
      "inputs": [
        {
          "internalType": "uint256",
          "name": "_treasuryFee",
          "type": "uint256"
        }
      ],
      "name": "setTreasuryFee",
      "outputs": [],
      "stateMutability": "nonpayable",
      "type": "function"
    },
    {
      "inputs": [
        {
          "internalType": "address",
          "name": "newOwner",
          "type": "address"
        }
      ],
      "name": "transferOwnership",
      "outputs": [],
      "stateMutability": "nonpayable",
      "type": "function"
    },
    {
      "inputs": [],
      "name": "treasuryAmount",
      "outputs": [
        {
          "internalType": "uint256",
          "name": "",
          "type": "uint256"
        }
      ],
      "stateMutability": "view",
      "type": "function"
    },
    {
      "inputs": [],
      "name": "treasuryFee",
      "outputs": [
        {
          "internalType": "uint256",
          "name": "",
          "type": "uint256"
        }
      ],
      "stateMutability": "view",
      "type": "function"
    },
    {
      "inputs": [
        {
          "internalType": "address",
          "name": "",
          "type": "address"
        },
        {
          "internalType": "uint256",
          "name": "",
          "type": "uint256"
        }
      ],
      "name": "userBets",
      "outputs": [
        {
          "internalType": "uint256",
          "name": "",
          "type": "uint256"
        }
      ],
      "stateMutability": "view",
      "type": "function"
    },
    {
      "stateMutability": "payable",
      "type": "receive"
    },
    {
      "inputs": [],
      "name": "pause",
      "outputs": [],
      "stateMutability": "nonpayable",
      "type": "function"
    },
    {
      "inputs": [],
      "name": "unPause",
      "outputs": [],
      "stateMutability": "nonpayable",
      "type": "function"
    },
    {
      "inputs": [
        {
          "internalType": "uint256",
          "name": "position",
          "type": "uint256"
        },
        {
          "internalType": "bool",
          "name": "useVRF",
          "type": "bool"
        }
      ],
      "name": "betAndRoll",
      "outputs": [],
      "stateMutability": "payable",
      "type": "function"
    }
  ],
  "bytecode": "0x6080604052605060085560006009553480156200001b57600080fd5b5060405162003ae438038062003ae4833981810160405281019062000041919062000332565b8484848484620000666200005a6200023860201b60201c565b6200024060201b60201c565b60008060146101000a81548160ff0219169083151502179055506001808190555060008411620000cd576040517f08c379a0000000000000000000000000000000000000000000000000000000008152600401620000c4906200049a565b60405180910390fd5b6003811062000113576040517f08c379a00000000000000000000000000000000000000000000000000000000081526004016200010a9062000478565b60405180910390fd5b600073ffffffffffffffffffffffffffffffffffffffff168573ffffffffffffffffffffffffffffffffffffffff16141562000186576040517f08c379a00000000000000000000000000000000000000000000000000000000081526004016200017d9062000456565b60405180910390fd5b838311620001cb576040517f08c379a0000000000000000000000000000000000000000000000000000000008152600401620001c290620004bc565b60405180910390fd5b84600260006101000a81548173ffffffffffffffffffffffffffffffffffffffff021916908373ffffffffffffffffffffffffffffffffffffffff160217905550836004819055508260068190555081600581905550806003819055505050505050505050505062000630565b600033905090565b60008060009054906101000a900473ffffffffffffffffffffffffffffffffffffffff169050816000806101000a81548173ffffffffffffffffffffffffffffffffffffffff021916908373ffffffffffffffffffffffffffffffffffffffff1602179055508173ffffffffffffffffffffffffffffffffffffffff168173ffffffffffffffffffffffffffffffffffffffff167f8be0079c531659141344cd1fd0a4f28419497f9722a3daafe3b4186f6b6457e060405160405180910390a35050565b6000815190506200031581620005fc565b92915050565b6000815190506200032c8162000616565b92915050565b600080600080600060a086880312156200035157620003506200052d565b5b6000620003618882890162000304565b955050602062000374888289016200031b565b945050604062000387888289016200031b565b93505060606200039a888289016200031b565b9250506080620003ad888289016200031b565b9150509295509295909350565b6000620003c9601583620004de565b9150620003d68262000532565b602082019050919050565b6000620003f0601883620004de565b9150620003fd826200055b565b602082019050919050565b600062000417601683620004de565b9150620004248262000584565b602082019050919050565b60006200043e602383620004de565b91506200044b82620005ad565b604082019050919050565b600060208201905081810360008301526200047181620003ba565b9050919050565b600060208201905081810360008301526200049381620003e1565b9050919050565b60006020820190508181036000830152620004b58162000408565b9050919050565b60006020820190508181036000830152620004d7816200042f565b9050919050565b600082825260208201905092915050565b6000620004fc8262000503565b9050919050565b600073ffffffffffffffffffffffffffffffffffffffff82169050919050565b6000819050919050565b600080fd5b7f496e76616c69642061646d696e20616464726573730000000000000000000000600082015250565b7f54726561737572792066656520697320746f6f20686967680000000000000000600082015250565b7f496e76616c6964204d696e2062657420616d6f756e7400000000000000000000600082015250565b7f6d61782062657420616d6f756e74206c657373207468616e206d696e20616d6f60008201527f756e740000000000000000000000000000000000000000000000000000000000602082015250565b6200060781620004ef565b81146200061357600080fd5b50565b620006218162000523565b81146200062d57600080fd5b50565b6134a480620006406000396000f3fe6080604052600436106101695760003560e01c80638068aa68116100d1578063cab11d5d1161008a578063f2fde38b11610064578063f2fde38b146104de578063f7b188a514610507578063fa968eea1461051e578063fafcde451461054957610170565b8063cab11d5d1461045d578063cc32d17614610488578063f2b3c809146104b357610170565b80638068aa681461035f57806383e90ec41461039c5780638456cb59146103c55780638da5cb5b146103dc5780638e87a5a614610407578063bddaca431461043257610170565b80636c188593116101235780636c188593146102795780636e9960c3146102a2578063704b6c02146102cd578063715018a6146102f657806377e741c71461030d5780637cfbc7a51461033657610170565b80623bdc741461017557806319446cd41461018c57806322af00fa146101b5578063368acb09146101f85780635b4a9b51146102235780635c975abb1461024e57610170565b3661017057005b600080fd5b34801561018157600080fd5b5061018a610565565b005b34801561019857600080fd5b506101b360048036038101906101ae919061255b565b61087c565b005b3480156101c157600080fd5b506101dc60048036038101906101d7919061255b565b610992565b6040516101ef9796959493929190612cf3565b60405180910390f35b34801561020457600080fd5b5061020d610a1b565b60405161021a9190612cd8565b60405180910390f35b34801561022f57600080fd5b50610238610a21565b6040516102459190612cd8565b60405180910390f35b34801561025a57600080fd5b50610263610a27565b604051610270919061298b565b60405180910390f35b34801561028557600080fd5b506102a0600480360381019061029b919061255b565b610a3d565b005b3480156102ae57600080fd5b506102b7610b99565b6040516102c49190612970565b60405180910390f35b3480156102d957600080fd5b506102f460048036038101906102ef91906124ee565b610bc3565b005b34801561030257600080fd5b5061030b610d36565b005b34801561031957600080fd5b50610334600480360381019061032f919061255b565b610dbe565b005b34801561034257600080fd5b5061035d6004803603810190610358919061255b565b610f19565b005b34801561036b57600080fd5b506103866004803603810190610381919061251b565b611075565b6040516103939190612cd8565b60405180910390f35b3480156103a857600080fd5b506103c360048036038101906103be919061255b565b6110a6565b005b3480156103d157600080fd5b506103da611202565b005b3480156103e857600080fd5b506103f161131b565b6040516103fe9190612970565b60405180910390f35b34801561041357600080fd5b5061041c611344565b6040516104299190612cd8565b60405180910390f35b34801561043e57600080fd5b5061044761134a565b6040516104549190612cd8565b60405180910390f35b34801561046957600080fd5b50610472611350565b60405161047f9190612cd8565b60405180910390f35b34801561049457600080fd5b5061049d611356565b6040516104aa9190612cd8565b60405180910390f35b3480156104bf57600080fd5b506104c861135c565b6040516104d59190612cd8565b60405180910390f35b3480156104ea57600080fd5b50610505600480360381019061050091906124ee565b611361565b005b34801561051357600080fd5b5061051c611459565b005b34801561052a57600080fd5b50610533611571565b6040516105409190612cd8565b60405180910390f35b610563600480360381019061055e9190612588565b611577565b005b600260015414156105ab576040517f08c379a00000000000000000000000000000000000000000000000000000000081526004016105a290612c58565b60405180910390fd5b6002600181905550600260009054906101000a900473ffffffffffffffffffffffffffffffffffffffff1673ffffffffffffffffffffffffffffffffffffffff163373ffffffffffffffffffffffffffffffffffffffff1614610643576040517f08c379a000000000000000000000000000000000000000000000000000000000815260040161063a90612cb8565b60405180910390fd5b61064c33611a0e565b1561068c576040517f08c379a000000000000000000000000000000000000000000000000000000000815260040161068390612a78565b60405180910390fd5b3273ffffffffffffffffffffffffffffffffffffffff163373ffffffffffffffffffffffffffffffffffffffff16146106fa576040517f08c379a00000000000000000000000000000000000000000000000000000000081526004016106f190612bb8565b60405180910390fd5b6000606460085460075461070e9190612e05565b6107189190612dd4565b9050806007600082825461072c9190612e5f565b925050819055506000600260009054906101000a900473ffffffffffffffffffffffffffffffffffffffff1673ffffffffffffffffffffffffffffffffffffffff168260405161077b9061295b565b60006040518083038185875af1925050503d80600081146107b8576040519150601f19603f3d011682016040523d82523d6000602084013e6107bd565b606091505b5050905080610801576040517f08c379a00000000000000000000000000000000000000000000000000000000081526004016107f8906129f8565b60405180910390fd5b600260009054906101000a900473ffffffffffffffffffffffffffffffffffffffff1673ffffffffffffffffffffffffffffffffffffffff167fecd60683965e7a828740c1cd2d719fab1ac61fd7b0e1871f1b38d9ee392ae1a7836040516108699190612cd8565b60405180910390a2505060018081905550565b600260009054906101000a900473ffffffffffffffffffffffffffffffffffffffff1673ffffffffffffffffffffffffffffffffffffffff163373ffffffffffffffffffffffffffffffffffffffff161461090c576040517f08c379a000000000000000000000000000000000000000000000000000000000815260040161090390612cb8565b60405180910390fd5b6000811161094f576040517f08c379a000000000000000000000000000000000000000000000000000000000815260040161094690612c18565b60405180910390fd5b806008819055507fb3c38e3948eab3b348ca48fc24f958ced2d2611b79865a5468551af855971b8d6008546040516109879190612cd8565b60405180910390a150565b600a6020528060005260406000206000915090508060000154908060010160009054906101000a900473ffffffffffffffffffffffffffffffffffffffff16908060020154908060030160009054906101000a900460ff16908060030160019054906101000a900460ff16908060040154908060050160009054906101000a900460ff16905087565b60075481565b60095481565b60008060149054906101000a900460ff16905090565b610a45610a27565b610a84576040517f08c379a0000000000000000000000000000000000000000000000000000000008152600401610a7b90612a38565b60405180910390fd5b600260009054906101000a900473ffffffffffffffffffffffffffffffffffffffff1673ffffffffffffffffffffffffffffffffffffffff163373ffffffffffffffffffffffffffffffffffffffff1614610b14576040517f08c379a0000000000000000000000000000000000000000000000000000000008152600401610b0b90612cb8565b60405180910390fd5b6000811415610b58576040517f08c379a0000000000000000000000000000000000000000000000000000000008152600401610b4f90612c38565b60405180910390fd5b806004819055507fbe054849fe210c446a3b3f68394753f210607326b38581dc64bd2e94a87f018281604051610b8e9190612cd8565b60405180910390a150565b6000600260009054906101000a900473ffffffffffffffffffffffffffffffffffffffff16905090565b610bcb611a21565b73ffffffffffffffffffffffffffffffffffffffff16610be961131b565b73ffffffffffffffffffffffffffffffffffffffff1614610c3f576040517f08c379a0000000000000000000000000000000000000000000000000000000008152600401610c3690612bf8565b60405180910390fd5b600073ffffffffffffffffffffffffffffffffffffffff168173ffffffffffffffffffffffffffffffffffffffff161415610caf576040517f08c379a0000000000000000000000000000000000000000000000000000000008152600401610ca690612b58565b60405180910390fd5b80600260006101000a81548173ffffffffffffffffffffffffffffffffffffffff021916908373ffffffffffffffffffffffffffffffffffffffff1602179055508073ffffffffffffffffffffffffffffffffffffffff167f71614071b88dee5e0b2ae578a9dd7b2ebbe9ae832ba419dc0242cd065a290b6c60405160405180910390a250565b610d3e611a21565b73ffffffffffffffffffffffffffffffffffffffff16610d5c61131b565b73ffffffffffffffffffffffffffffffffffffffff1614610db2576040517f08c379a0000000000000000000000000000000000000000000000000000000008152600401610da990612bf8565b60405180910390fd5b610dbc6000611a29565b565b610dc6610a27565b610e05576040517f08c379a0000000000000000000000000000000000000000000000000000000008152600401610dfc90612a38565b60405180910390fd5b600260009054906101000a900473ffffffffffffffffffffffffffffffffffffffff1673ffffffffffffffffffffffffffffffffffffffff163373ffffffffffffffffffffffffffffffffffffffff1614610e95576040517f08c379a0000000000000000000000000000000000000000000000000000000008152600401610e8c90612cb8565b60405180910390fd5b60038110610ed8576040517f08c379a0000000000000000000000000000000000000000000000000000000008152600401610ecf90612ab8565b60405180910390fd5b806003819055507f938d9272b26145999fe14f6124b73f122e1e023fc5de069c74ade1254408a97681604051610f0e9190612cd8565b60405180910390a150565b610f21610a27565b610f60576040517f08c379a0000000000000000000000000000000000000000000000000000000008152600401610f5790612a38565b60405180910390fd5b600260009054906101000a900473ffffffffffffffffffffffffffffffffffffffff1673ffffffffffffffffffffffffffffffffffffffff163373ffffffffffffffffffffffffffffffffffffffff1614610ff0576040517f08c379a0000000000000000000000000000000000000000000000000000000008152600401610fe790612cb8565b60405180910390fd5b6004548111611034576040517f08c379a000000000000000000000000000000000000000000000000000000000815260040161102b90612c38565b60405180910390fd5b806006819055507ffcaf5a14e40cc15968fda62f9fb1eb32c008347751c62ade935e834cba2e6b0b8160405161106a9190612cd8565b60405180910390a150565b600b602052816000526040600020818154811061109157600080fd5b90600052602060002001600091509150505481565b6110ae610a27565b6110ed576040517f08c379a00000000000000000000000000000000000000000000000000000000081526004016110e490612a38565b60405180910390fd5b600260009054906101000a900473ffffffffffffffffffffffffffffffffffffffff1673ffffffffffffffffffffffffffffffffffffffff163373ffffffffffffffffffffffffffffffffffffffff161461117d576040517f08c379a000000000000000000000000000000000000000000000000000000000815260040161117490612cb8565b60405180910390fd5b60008114156111c1576040517f08c379a00000000000000000000000000000000000000000000000000000000081526004016111b890612c38565b60405180910390fd5b806005819055507f946e0fcc7b9994728e101150e6061fe9fcebe594736fcdadbb54b09a4026045c816040516111f79190612cd8565b60405180910390a150565b61120a610a27565b1561124a576040517f08c379a000000000000000000000000000000000000000000000000000000000815260040161124190612b38565b60405180910390fd5b600260009054906101000a900473ffffffffffffffffffffffffffffffffffffffff1673ffffffffffffffffffffffffffffffffffffffff163373ffffffffffffffffffffffffffffffffffffffff16146112da576040517f08c379a00000000000000000000000000000000000000000000000000000000081526004016112d190612cb8565b60405180910390fd5b6112e2611aed565b7f32fb7c9891bc4f963c7de9f1186d2a7755c7d6e9f4604dabe1d8bb3027c2f49e426040516113119190612cd8565b60405180910390a1565b60008060009054906101000a900473ffffffffffffffffffffffffffffffffffffffff16905090565b60055481565b60085481565b60065481565b60035481565b600381565b611369611a21565b73ffffffffffffffffffffffffffffffffffffffff1661138761131b565b73ffffffffffffffffffffffffffffffffffffffff16146113dd576040517f08c379a00000000000000000000000000000000000000000000000000000000081526004016113d490612bf8565b60405180910390fd5b600073ffffffffffffffffffffffffffffffffffffffff168173ffffffffffffffffffffffffffffffffffffffff16141561144d576040517f08c379a000000000000000000000000000000000000000000000000000000000815260040161144490612a58565b60405180910390fd5b61145681611a29565b50565b611461610a27565b6114a0576040517f08c379a000000000000000000000000000000000000000000000000000000000815260040161149790612a38565b60405180910390fd5b600260009054906101000a900473ffffffffffffffffffffffffffffffffffffffff1673ffffffffffffffffffffffffffffffffffffffff163373ffffffffffffffffffffffffffffffffffffffff1614611530576040517f08c379a000000000000000000000000000000000000000000000000000000000815260040161152790612cb8565b60405180910390fd5b611538611b90565b7f32fb7c9891bc4f963c7de9f1186d2a7755c7d6e9f4604dabe1d8bb3027c2f49e426040516115679190612cd8565b60405180910390a1565b60045481565b61157f610a27565b156115bf576040517f08c379a00000000000000000000000000000000000000000000000000000000081526004016115b690612b38565b60405180910390fd5b60026001541415611605576040517f08c379a00000000000000000000000000000000000000000000000000000000081526004016115fc90612c58565b60405180910390fd5b600260018190555061161633611a0e565b15611656576040517f08c379a000000000000000000000000000000000000000000000000000000000815260040161164d90612a78565b60405180910390fd5b3273ffffffffffffffffffffffffffffffffffffffff163373ffffffffffffffffffffffffffffffffffffffff16146116c4576040517f08c379a00000000000000000000000000000000000000000000000000000000081526004016116bb90612bb8565b60405180910390fd5b80156117145760055434101561170f576040517f08c379a000000000000000000000000000000000000000000000000000000000815260040161170690612af8565b60405180910390fd5b61175a565b600454341015611759576040517f08c379a000000000000000000000000000000000000000000000000000000000815260040161175090612b18565b60405180910390fd5b5b60065434111561179f576040517f08c379a000000000000000000000000000000000000000000000000000000000815260040161179690612bd8565b60405180910390fd5b60028214806117ae5750600782145b806117b95750600882145b6117f8576040517f08c379a00000000000000000000000000000000000000000000000000000000081526004016117ef90612b98565b60405180910390fd5b6000600a6000600954815260200190815260200160002090506009548160000181905550338160010160006101000a81548173ffffffffffffffffffffffffffffffffffffffff021916908373ffffffffffffffffffffffffffffffffffffffff160217905550348160020181905550600b60003373ffffffffffffffffffffffffffffffffffffffff1673ffffffffffffffffffffffffffffffffffffffff1681526020019081526020016000206009549080600181540180825580915050600190039060005260206000200160009091909190915055600283141561190b5760018160030160006101000a81548160ff0219169083600381111561190157611900612f83565b5b0217905550611975565b60078314156119465760028160030160006101000a81548160ff0219169083600381111561193c5761193b612f83565b5b0217905550611974565b60038160030160006101000a81548160ff0219169083600381111561196e5761196d612f83565b5b02179055505b5b3373ffffffffffffffffffffffffffffffffffffffff167fb4f5f2ed7ba256671b209e2db48139923ef8f21339106cc653b58eff5058dda48260030160009054906101000a900460ff16346040516119ce9291906129cf565b60405180910390a26119e260095483611c31565b6119ed600954611f7c565b60016009546119fc9190612d7e565b60098190555050600180819055505050565b600080823b905060008111915050919050565b600033905090565b60008060009054906101000a900473ffffffffffffffffffffffffffffffffffffffff169050816000806101000a81548173ffffffffffffffffffffffffffffffffffffffff021916908373ffffffffffffffffffffffffffffffffffffffff1602179055508173ffffffffffffffffffffffffffffffffffffffff168173ffffffffffffffffffffffffffffffffffffffff167f8be0079c531659141344cd1fd0a4f28419497f9722a3daafe3b4186f6b6457e060405160405180910390a35050565b611af5610a27565b15611b35576040517f08c379a0000000000000000000000000000000000000000000000000000000008152600401611b2c90612b38565b60405180910390fd5b6001600060146101000a81548160ff0219169083151502179055507f62e78cea01bee320cd4e420270b5ea74000d11b0c9f74754ebdbfc544b05a258611b79611a21565b604051611b869190612970565b60405180910390a1565b611b98610a27565b611bd7576040517f08c379a0000000000000000000000000000000000000000000000000000000008152600401611bce90612a38565b60405180910390fd5b60008060146101000a81548160ff0219169083151502179055507f5db9ee0a495bf2e6ff9c91a7834c1ba4fdd244a5e8aa4e537bd38aeae4b073aa611c1a611a21565b604051611c279190612970565b60405180910390a1565b6000600a60008481526020019081526020016000206002015411611c8a576040517f08c379a0000000000000000000000000000000000000000000000000000000008152600401611c8190612ad8565b60405180910390fd5b60006002811115611c9e57611c9d612f83565b5b600a600084815260200190815260200160002060050160009054906101000a900460ff166002811115611cd457611cd3612f83565b5b14611d14576040517f08c379a0000000000000000000000000000000000000000000000000000000008152600401611d0b90612c98565b60405180910390fd5b6000611d1f826123f2565b60ff16905060028110158015611d365750600c8111155b611d75576040517f08c379a0000000000000000000000000000000000000000000000000000000008152600401611d6c90612b78565b60405180910390fd5b60028110158015611d87575060068111155b15611dd0576001600a600085815260200190815260200160002060030160016101000a81548160ff02191690836003811115611dc657611dc5612f83565b5b0217905550611e6c565b60088110158015611de25750600c8111155b15611e2b576003600a600085815260200190815260200160002060030160016101000a81548160ff02191690836003811115611e2157611e20612f83565b5b0217905550611e6b565b6002600a600085815260200190815260200160002060030160016101000a81548160ff02191690836003811115611e6557611e64612f83565b5b02179055505b5b6001600a600085815260200190815260200160002060050160006101000a81548160ff02191690836002811115611ea657611ea5612f83565b5b0217905550600a600084815260200190815260200160002060010160009054906101000a900473ffffffffffffffffffffffffffffffffffffffff1673ffffffffffffffffffffffffffffffffffffffff167fb373a4d4c64328dd6dea54196c14fe4fc132e5002c7248dd8f458a3c629cef0d600a600086815260200190815260200160002060030160009054906101000a900460ff16600a600087815260200190815260200160002060030160019054906101000a900460ff16604051611f6f9291906129a6565b60405180910390a2505050565b60016002811115611f9057611f8f612f83565b5b600a600083815260200190815260200160002060050160009054906101000a900460ff166002811115611fc657611fc5612f83565b5b14612006576040517f08c379a0000000000000000000000000000000000000000000000000000000008152600401611ffd90612a98565b60405180910390fd5b60028081111561201957612018612f83565b5b600a600083815260200190815260200160002060050160009054906101000a900460ff16600281111561204f5761204e612f83565b5b1415612090576040517f08c379a000000000000000000000000000000000000000000000000000000000815260040161208790612a18565b60405180910390fd5b600a600082815260200190815260200160002060030160019054906101000a900460ff1660038111156120c6576120c5612f83565b5b600a600083815260200190815260200160002060030160009054906101000a900460ff1660038111156120fc576120fb612f83565b5b1461213c576040517f08c379a000000000000000000000000000000000000000000000000000000000815260040161213390612c78565b60405180910390fd5b60008060006064600354600a6000878152602001908152602001600020600201546121679190612e05565b6121719190612dd4565b905080600760008282546121859190612d7e565b92505081905550600081600a6000878152602001908152602001600020600201546121b09190612e5f565b9050600160038111156121c6576121c5612f83565b5b600a600087815260200190815260200160002060030160019054906101000a900460ff1660038111156121fc576121fb612f83565b5b148061224e575060038081111561221657612215612f83565b5b600a600087815260200190815260200160002060030160019054906101000a900460ff16600381111561224c5761224b612f83565b5b145b1561225c5760c893506122b3565b600260038111156122705761226f612f83565b5b600a600087815260200190815260200160002060030160019054906101000a900460ff1660038111156122a6576122a5612f83565b5b14156122b25761019093505b5b606484826122c19190612e05565b6122cb9190612dd4565b925082600a6000878152602001908152602001600020600401819055506002600a600087815260200190815260200160002060050160006101000a81548160ff0219169083600281111561232257612321612f83565b5b0217905550612367600a600087815260200190815260200160002060010160009054906101000a900473ffffffffffffffffffffffffffffffffffffffff16846123fe565b600a600086815260200190815260200160002060010160009054906101000a900473ffffffffffffffffffffffffffffffffffffffff1673ffffffffffffffffffffffffffffffffffffffff167f17da7437bf2a4cf17d9010f1970076a62c4dd5b275d836780398303dee056dfc846040516123e39190612cd8565b60405180910390a25050505050565b60008080915050919050565b60008273ffffffffffffffffffffffffffffffffffffffff16826040516124249061295b565b60006040518083038185875af1925050503d8060008114612461576040519150601f19603f3d011682016040523d82523d6000602084013e612466565b606091505b50509050806124aa576040517f08c379a00000000000000000000000000000000000000000000000000000000081526004016124a1906129f8565b60405180910390fd5b505050565b6000813590506124be81613429565b92915050565b6000813590506124d381613440565b92915050565b6000813590506124e881613457565b92915050565b60006020828403121561250457612503612fb2565b5b6000612512848285016124af565b91505092915050565b6000806040838503121561253257612531612fb2565b5b6000612540858286016124af565b9250506020612551858286016124d9565b9150509250929050565b60006020828403121561257157612570612fb2565b5b600061257f848285016124d9565b91505092915050565b6000806040838503121561259f5761259e612fb2565b5b60006125ad858286016124d9565b92505060206125be858286016124c4565b9150509250929050565b6125d181612e93565b82525050565b6125e081612ea5565b82525050565b6125ef81612f01565b82525050565b6125fe81612f13565b82525050565b6000612611601f83612d6d565b915061261c82612fb7565b602082019050919050565b6000612634601183612d6d565b915061263f82612fe0565b602082019050919050565b6000612657601483612d6d565b915061266282613009565b602082019050919050565b600061267a602683612d6d565b915061268582613032565b604082019050919050565b600061269d601483612d6d565b91506126a882613081565b602082019050919050565b60006126c0600b83612d6d565b91506126cb826130aa565b602082019050919050565b60006126e3601883612d6d565b91506126ee826130d3565b602082019050919050565b6000612706601d83612d6d565b9150612711826130fc565b602082019050919050565b6000612729602f83612d6d565b915061273482613125565b604082019050919050565b600061274c602c83612d6d565b915061275782613174565b604082019050919050565b600061276f601083612d6d565b915061277a826131c3565b602082019050919050565b6000612792601683612d6d565b915061279d826131ec565b602082019050919050565b60006127b5601783612d6d565b91506127c082613215565b602082019050919050565b60006127d8601083612d6d565b91506127e38261323e565b602082019050919050565b60006127fb601a83612d6d565b915061280682613267565b602082019050919050565b600061281e602b83612d6d565b915061282982613290565b604082019050919050565b6000612841602083612d6d565b915061284c826132df565b602082019050919050565b6000612864601d83612d6d565b915061286f82613308565b602082019050919050565b6000612887601583612d6d565b915061289282613331565b602082019050919050565b60006128aa600083612d62565b91506128b58261335a565b600082019050919050565b60006128cd601f83612d6d565b91506128d88261335d565b602082019050919050565b60006128f0600683612d6d565b91506128fb82613386565b602082019050919050565b6000612913600e83612d6d565b915061291e826133af565b602082019050919050565b6000612936600983612d6d565b9150612941826133d8565b602082019050919050565b61295581612ef7565b82525050565b60006129668261289d565b9150819050919050565b600060208201905061298560008301846125c8565b92915050565b60006020820190506129a060008301846125d7565b92915050565b60006040820190506129bb60008301856125f5565b6129c860208301846125f5565b9392505050565b60006040820190506129e460008301856125f5565b6129f1602083018461294c565b9392505050565b60006020820190508181036000830152612a1181612604565b9050919050565b60006020820190508181036000830152612a3181612627565b9050919050565b60006020820190508181036000830152612a518161264a565b9050919050565b60006020820190508181036000830152612a718161266d565b9050919050565b60006020820190508181036000830152612a9181612690565b9050919050565b60006020820190508181036000830152612ab1816126b3565b9050919050565b60006020820190508181036000830152612ad1816126d6565b9050919050565b60006020820190508181036000830152612af1816126f9565b9050919050565b60006020820190508181036000830152612b118161271c565b9050919050565b60006020820190508181036000830152612b318161273f565b9050919050565b60006020820190508181036000830152612b5181612762565b9050919050565b60006020820190508181036000830152612b7181612785565b9050919050565b60006020820190508181036000830152612b91816127a8565b9050919050565b60006020820190508181036000830152612bb1816127cb565b9050919050565b60006020820190508181036000830152612bd1816127ee565b9050919050565b60006020820190508181036000830152612bf181612811565b9050919050565b60006020820190508181036000830152612c1181612834565b9050919050565b60006020820190508181036000830152612c3181612857565b9050919050565b60006020820190508181036000830152612c518161287a565b9050919050565b60006020820190508181036000830152612c71816128c0565b9050919050565b60006020820190508181036000830152612c91816128e3565b9050919050565b60006020820190508181036000830152612cb181612906565b9050919050565b60006020820190508181036000830152612cd181612929565b9050919050565b6000602082019050612ced600083018461294c565b92915050565b600060e082019050612d08600083018a61294c565b612d1560208301896125c8565b612d22604083018861294c565b612d2f60608301876125f5565b612d3c60808301866125f5565b612d4960a083018561294c565b612d5660c08301846125e6565b98975050505050505050565b600081905092915050565b600082825260208201905092915050565b6000612d8982612ef7565b9150612d9483612ef7565b9250827fffffffffffffffffffffffffffffffffffffffffffffffffffffffffffffffff03821115612dc957612dc8612f25565b5b828201905092915050565b6000612ddf82612ef7565b9150612dea83612ef7565b925082612dfa57612df9612f54565b5b828204905092915050565b6000612e1082612ef7565b9150612e1b83612ef7565b9250817fffffffffffffffffffffffffffffffffffffffffffffffffffffffffffffffff0483118215151615612e5457612e53612f25565b5b828202905092915050565b6000612e6a82612ef7565b9150612e7583612ef7565b925082821015612e8857612e87612f25565b5b828203905092915050565b6000612e9e82612ed7565b9050919050565b60008115159050919050565b6000819050612ebf82613401565b919050565b6000819050612ed282613415565b919050565b600073ffffffffffffffffffffffffffffffffffffffff82169050919050565b6000819050919050565b6000612f0c82612eb1565b9050919050565b6000612f1e82612ec4565b9050919050565b7f4e487b7100000000000000000000000000000000000000000000000000000000600052601160045260246000fd5b7f4e487b7100000000000000000000000000000000000000000000000000000000600052601260045260246000fd5b7f4e487b7100000000000000000000000000000000000000000000000000000000600052602160045260246000fd5b600080fd5b7f5472616e7366657248656c7065723a205452414e534645525f4641494c454400600082015250565b7f416c726561647920646973706572736564000000000000000000000000000000600082015250565b7f5061757361626c653a206e6f7420706175736564000000000000000000000000600082015250565b7f4f776e61626c653a206e6577206f776e657220697320746865207a65726f206160008201527f6464726573730000000000000000000000000000000000000000000000000000602082015250565b7f436f6e7472616374206e6f7420616c6c6f776564000000000000000000000000600082015250565b7f79657420746f20726f6c6c000000000000000000000000000000000000000000600082015250565b7f54726561737572792066656520697320746f6f20686967680000000000000000600082015250565b7f4265742066697273742c20726f6c6c207468652064696365206e657874000000600082015250565b7f42657420616d6f756e74206d7573742062652067726561746572207468616e2060008201527f6d696e565246426574416d6f756e740000000000000000000000000000000000602082015250565b7f42657420616d6f756e74206d7573742062652067726561746572207468616e2060008201527f6d696e426574416d6f756e740000000000000000000000000000000000000000602082015250565b7f5061757361626c653a2070617573656400000000000000000000000000000000600082015250565b7f43616e6e6f74206265207a65726f206164647265737300000000000000000000600082015250565b7f496e636f72726563742072616e646f6d206e756d626572000000000000000000600082015250565b7f496e76616c696420626574207479706500000000000000000000000000000000600082015250565b7f50726f787920636f6e7472616374206e6f7420616c6c6f776564000000000000600082015250565b7f42657420616d6f756e74206d757374206265206c6573736572207468616e206d60008201527f6178426574416d6f756e74000000000000000000000000000000000000000000602082015250565b7f4f776e61626c653a2063616c6c6572206973206e6f7420746865206f776e6572600082015250565b7f416d6f756e742063616e6e6f74206265207a65726f206f72206c657373000000600082015250565b7f4d757374206265207375706572696f7220746f20300000000000000000000000600082015250565b50565b7f5265656e7472616e637947756172643a207265656e7472616e742063616c6c00600082015250565b7f4e6f2077696e0000000000000000000000000000000000000000000000000000600082015250565b7f416c726561647920726f6c6c6564000000000000000000000000000000000000600082015250565b7f4e6f742061646d696e0000000000000000000000000000000000000000000000600082015250565b6003811061341257613411612f83565b5b50565b6004811061342657613425612f83565b5b50565b61343281612e93565b811461343d57600080fd5b50565b61344981612ea5565b811461345457600080fd5b50565b61346081612ef7565b811461346b57600080fd5b5056fea26469706673582212203c6dcf45f64f61f41b51b586212c6783648e2ad9ca1725d1d7c6ad8908e47c9b64736f6c63430008070033",
  "immutableReferences": {},
  "source": "// SPDX-License-Identifier: MIT\n\npragma solidity ^0.8.7;\n\nimport \"./DiceAdministrator.sol\";\n\n/**\n * @title BetBeeDice\n */\ncontract BetBeeDice is DiceAdministrator {\n\n    enum BetType {UNKNOWN, TWOTOSIX, SEVEN, EIGHTTOTWELVE}\n    enum BetStatus {UNKNOWN, ROLLED, DISPERSED}\n    uint256 public currentBetId=0;\n\n    struct BetInfo {\n        uint256 betId;\n        address user;\n        uint256 betAmount;\n        BetType betType;\n        BetType winType;\n        uint256 disperesedAmount;\n        BetStatus status;\n    }\n\n    mapping(uint256 => BetInfo) public bets;\n    mapping(address => uint256[]) public userBets;\n\n    event Paused(uint256 timestamp);\n    event UnPaused(uint256 timestamp);\n\n    event Bet(address indexed sender, BetType betType, uint256 _amount);\n    event DiceRolled(address indexed sender, BetType userBetType, BetType winType);\n    event Disperesed(address indexed sender, uint256 amount);\n\n    /**\n     * @notice Constructor\n     * @param _adminAddress: admin address\n     * @param _minBetAmount: minimum bet amounts (in wei)\n     * @param _maxBetAmount: maximum bet amounts (in wei)\n     * @param _minVRFBetAmount: minimum bet VRF amounts (in wei)\n     * @param _treasuryFee: treasury fee 3 (3%)\n     */\n    constructor(address _adminAddress, uint256 _minBetAmount, uint256 _maxBetAmount, uint256 _minVRFBetAmount, uint256 _treasuryFee) \n    DiceAdministrator(_adminAddress, _minBetAmount, _maxBetAmount, _minVRFBetAmount, _treasuryFee) {\n\n    }\n\n    /**\n     * @notice Pause the contract\n     * @dev Callable by admin\n     */\n    function pause() external whenNotPaused onlyAdmin {\n        _pause();\n\n        emit Paused(block.timestamp);\n    }\n\n    /**\n     * @notice Unpuase the contract\n     * @dev Callable by admin\n     */\n    function unPause() external whenPaused onlyAdmin {\n        _unpause();\n\n        emit Paused(block.timestamp);\n    }\n\n    /**\n    * @notice Transfer \n    * @param to: recipient address\n    * @param value: value \n    */\n    function _safeTransfer(address to, uint256 value) internal {\n        (bool success, ) = to.call{value: value}(\"\");\n        require(success, \"TransferHelper: TRANSFER_FAILED\");\n    }\n\n    function _getRandomNumber(bool useVRF) internal pure returns(uint8) {\n        uint8 random;\n        return random;\n    }\n\n    function _disperseUser(uint256 betId) internal {\n        require(bets[betId].status == BetStatus.ROLLED, \"yet to roll\");\n        require(bets[betId].status != BetStatus.DISPERSED, \"Already dispersed\");\n        require(bets[betId].betType == bets[betId].winType, \"No win\");\n        uint256 reward = 0;\n        uint256 finalAmount=0;\n        uint256 userTreasuryAmount = (bets[betId].betAmount * treasuryFee)/100;\n        treasuryAmount += userTreasuryAmount;\n        uint256 amount = bets[betId].betAmount - userTreasuryAmount;\n        \n        //2x for 2TO6 and 8TO12 win\n        if(bets[betId].winType == BetType.TWOTOSIX || bets[betId].winType == BetType.EIGHTTOTWELVE) {\n            reward = 200;\n        }\n        //4x for 7 wins\n        else if(bets[betId].winType == BetType.SEVEN) {\n            reward = 400;\n        }\n\n        finalAmount = (amount * reward)/100;\n        bets[betId].disperesedAmount = finalAmount;\n        bets[betId].status = BetStatus.DISPERSED;\n        _safeTransfer(bets[betId].user, finalAmount);\n\n        emit Disperesed(bets[betId].user, finalAmount);\n    }\n\n    function betAndRoll(uint256 position, bool useVRF) external payable whenNotPaused nonReentrant notContract {\n        if(useVRF) {\n            require(msg.value >= minVRFBetAmount, \"Bet amount must be greater than minVRFBetAmount\");\n        }\n        else {\n            require(msg.value >= minBetAmount, \"Bet amount must be greater than minBetAmount\");\n        }\n        require(msg.value <= maxBetAmount, \"Bet amount must be lesser than maxBetAmount\");\n        // 2 means 2 to 6, 7 means 7, 8 means 8 to 12\n        require(position == 2 || position == 7 || position == 8, \"Invalid bet type\");\n\n        BetInfo storage bet = bets[currentBetId];\n\n        bet.betId = currentBetId;\n        bet.user = msg.sender;\n        bet.betAmount = msg.value;\n        userBets[msg.sender].push(currentBetId);\n\n        if(position == 2) {\n            bet.betType = BetType.TWOTOSIX;\n        }\n        else if(position == 7) {\n            bet.betType = BetType.SEVEN;\n        } \n        else {\n            bet.betType = BetType.EIGHTTOTWELVE;\n        }\n\n        emit Bet(msg.sender, bet.betType, msg.value);\n\n        //roll the dice\n        _rollDice(currentBetId, useVRF);\n\n        //disperse user\n        _disperseUser(currentBetId);\n\n        //increase currentBetId\n        currentBetId = currentBetId + 1;\n    }\n\n    function _rollDice(uint256 betId, bool useVRF) internal {\n        require(bets[betId].betAmount > 0, \"Bet first, roll the dice next\");\n        require(bets[betId].status == BetStatus.UNKNOWN, \"Already rolled\");\n        \n        uint256 random = _getRandomNumber(useVRF);\n        require(random >= 2 && random <= 12, \"Incorrect random number\");\n\n        if(random >= 2 && random <= 6) {\n            bets[betId].winType = BetType.TWOTOSIX;\n        }\n        else if(random >= 8 && random <= 12) {\n            bets[betId].winType = BetType.EIGHTTOTWELVE;\n        }\n        else {\n            bets[betId].winType = BetType.SEVEN;\n        }\n\n        bets[betId].status = BetStatus.ROLLED;\n\n        emit DiceRolled(bets[betId].user, bets[betId].betType, bets[betId].winType);\n    }\n}\n",
  "sourcePath": "/Users/rangs/betbee/betbee-monorepo/contracts/dice/BetBeeDice.sol",
  "compiler": {
    "name": "solc",
    "version": "0.8.7+commit.e28d00a7.Emscripten.clang"
  },
  "schemaVersion": "3.4.3",
  "updatedAt": "2021-11-16T13:48:21.629Z",
  "devdoc": {
    "kind": "dev",
    "methods": {
      "claimTreasury()": {
        "details": "Callable by admin"
      },
      "constructor": {
        "params": {
          "_adminAddress": ": admin address",
          "_maxBetAmount": ": maximum bet amounts (in wei)",
          "_minBetAmount": ": minimum bet amounts (in wei)",
          "_minVRFBetAmount": ": minimum bet VRF amounts (in wei)",
          "_treasuryFee": ": treasury fee 3 (3%)"
        }
      },
      "getAdmin()": {
        "returns": {
          "_0": "admin address"
        }
      },
      "owner()": {
        "details": "Returns the address of the current owner."
      },
      "pause()": {
        "details": "Callable by admin"
      },
      "paused()": {
        "details": "Returns true if the contract is paused, and false otherwise."
      },
      "renounceOwnership()": {
        "details": "Leaves the contract without owner. It will not be possible to call `onlyOwner` functions anymore. Can only be called by the current owner. NOTE: Renouncing ownership will leave the contract without an owner, thereby removing any functionality that is only available to the owner."
      },
      "setAdmin(address)": {
        "details": "callable by Owner of the contract",
        "params": {
          "_admin": ": new admin address"
        }
      },
      "setClaimableTreasuryPercent(uint256)": {
        "details": "callable by Admin",
        "params": {
          "_claimableTreasuryPercent": ": claimable percent"
        }
      },
      "setMaxBetAmount(uint256)": {
        "details": "Callable by admin",
        "params": {
          "_maxBetAmount": ": maximum bet amount to be set"
        }
      },
      "setMinBetAmount(uint256)": {
        "details": "Callable by admin",
        "params": {
          "_minBetAmount": ": minimum bet amount to be set"
        }
      },
      "setMinVRFBetAmount(uint256)": {
        "details": "Callable by admin",
        "params": {
          "_minVRFBetAmount": ": minimum bet amount to be set"
        }
      },
      "setTreasuryFee(uint256)": {
        "details": "Callable by admin",
        "params": {
          "_treasuryFee": ": new treasury fee"
        }
      },
      "transferOwnership(address)": {
        "details": "Transfers ownership of the contract to a new account (`newOwner`). Can only be called by the current owner."
      },
      "unPause()": {
        "details": "Callable by admin"
      }
    },
    "title": "BetBeeDice",
    "version": 1
  },
  "userdoc": {
    "kind": "user",
    "methods": {
      "claimTreasury()": {
        "notice": "Claim 80% of treasury fund - collected as fee"
      },
      "constructor": {
        "notice": "Constructor"
      },
      "getAdmin()": {
        "notice": "get admin address"
      },
      "pause()": {
        "notice": "Pause the contract"
      },
      "setAdmin(address)": {
        "notice": "Set admin"
      },
      "setClaimableTreasuryPercent(uint256)": {
        "notice": "Set Claimabble Treasury Percent"
      },
      "setMaxBetAmount(uint256)": {
        "notice": "Set maxBetAmount"
      },
      "setMinBetAmount(uint256)": {
        "notice": "Set minBetAmount"
      },
      "setMinVRFBetAmount(uint256)": {
        "notice": "Set minBetAmount"
      },
      "setTreasuryFee(uint256)": {
        "notice": "Set Treasury Fee"
      },
      "unPause()": {
        "notice": "Unpuase the contract"
      }
    },
    "version": 1
  }
}