{
  "contractName": "BetBeePrediction",
  "abi": [
    {
      "anonymous": false,
      "inputs": [
        {
          "indexed": true,
          "internalType": "address",
          "name": "sender",
          "type": "address"
        },
        {
          "indexed": true,
          "internalType": "uint256",
          "name": "roundId",
          "type": "uint256"
        },
        {
          "indexed": false,
          "internalType": "uint256",
          "name": "amount",
          "type": "uint256"
        }
      ],
      "name": "BetBear",
      "type": "event"
    },
    {
      "anonymous": false,
      "inputs": [
        {
          "indexed": true,
          "internalType": "address",
          "name": "sender",
          "type": "address"
        },
        {
          "indexed": true,
          "internalType": "uint256",
          "name": "roundId",
          "type": "uint256"
        },
        {
          "indexed": false,
          "internalType": "uint256",
          "name": "amount",
          "type": "uint256"
        }
      ],
      "name": "BetBull",
      "type": "event"
    },
    {
      "anonymous": false,
      "inputs": [
        {
          "indexed": true,
          "internalType": "uint256",
          "name": "roundId",
          "type": "uint256"
        }
      ],
      "name": "CancelRound",
      "type": "event"
    },
    {
      "anonymous": false,
      "inputs": [
        {
          "indexed": true,
          "internalType": "uint256",
          "name": "roundId",
          "type": "uint256"
        }
      ],
      "name": "CreateRound",
      "type": "event"
    },
    {
      "anonymous": false,
      "inputs": [
        {
          "indexed": true,
          "internalType": "uint256",
          "name": "roundId",
          "type": "uint256"
        }
      ],
      "name": "Disperse",
      "type": "event"
    },
    {
      "anonymous": false,
      "inputs": [
        {
          "indexed": true,
          "internalType": "uint256",
          "name": "roundId",
          "type": "uint256"
        },
        {
          "indexed": true,
          "internalType": "address",
          "name": "recipient",
          "type": "address"
        },
        {
          "indexed": false,
          "internalType": "uint256",
          "name": "amountDispersed",
          "type": "uint256"
        },
        {
          "indexed": false,
          "internalType": "uint256",
          "name": "timestamp",
          "type": "uint256"
        }
      ],
      "name": "DisperseUser",
      "type": "event"
    },
    {
      "anonymous": false,
      "inputs": [
        {
          "indexed": true,
          "internalType": "uint256",
          "name": "roundId",
          "type": "uint256"
        },
        {
          "indexed": false,
          "internalType": "int256",
          "name": "endPrice",
          "type": "int256"
        }
      ],
      "name": "EndRound",
      "type": "event"
    },
    {
      "anonymous": false,
      "inputs": [
        {
          "indexed": true,
          "internalType": "address",
          "name": "admin",
          "type": "address"
        }
      ],
      "name": "NewAdmin",
      "type": "event"
    },
    {
      "anonymous": false,
      "inputs": [
        {
          "indexed": false,
          "internalType": "uint256",
          "name": "claimableTreasuryPercent",
          "type": "uint256"
        }
      ],
      "name": "NewClaimableTreasuryPercent",
      "type": "event"
    },
    {
      "anonymous": false,
      "inputs": [
        {
          "indexed": false,
          "internalType": "uint256",
          "name": "minBetAmount",
          "type": "uint256"
        }
      ],
      "name": "NewMinBetAmount",
      "type": "event"
    },
    {
      "anonymous": false,
      "inputs": [
        {
          "indexed": true,
          "internalType": "address",
          "name": "operator",
          "type": "address"
        }
      ],
      "name": "NewOperator",
      "type": "event"
    },
    {
      "anonymous": false,
      "inputs": [
        {
          "indexed": false,
          "internalType": "uint256",
          "name": "treasuryFee",
          "type": "uint256"
        }
      ],
      "name": "NewTreasuryFee",
      "type": "event"
    },
    {
      "anonymous": false,
      "inputs": [
        {
          "indexed": true,
          "internalType": "address",
          "name": "previousOwner",
          "type": "address"
        },
        {
          "indexed": true,
          "internalType": "address",
          "name": "newOwner",
          "type": "address"
        }
      ],
      "name": "OwnershipTransferred",
      "type": "event"
    },
    {
      "anonymous": false,
      "inputs": [
        {
          "indexed": false,
          "internalType": "uint256",
          "name": "currentRoundId",
          "type": "uint256"
        }
      ],
      "name": "Paused",
      "type": "event"
    },
    {
      "anonymous": false,
      "inputs": [
        {
          "indexed": false,
          "internalType": "address",
          "name": "account",
          "type": "address"
        }
      ],
      "name": "Paused",
      "type": "event"
    },
    {
      "anonymous": false,
      "inputs": [
        {
          "indexed": true,
          "internalType": "uint256",
          "name": "roundId",
          "type": "uint256"
        },
        {
          "indexed": true,
          "internalType": "address",
          "name": "recipient",
          "type": "address"
        },
        {
          "indexed": false,
          "internalType": "uint256",
          "name": "refundDispersed",
          "type": "uint256"
        },
        {
          "indexed": false,
          "internalType": "uint256",
          "name": "timestamp",
          "type": "uint256"
        }
      ],
      "name": "Refund",
      "type": "event"
    },
    {
      "anonymous": false,
      "inputs": [
        {
          "indexed": true,
          "internalType": "uint256",
          "name": "roundId",
          "type": "uint256"
        },
        {
          "indexed": false,
          "internalType": "uint256",
          "name": "rewardBaseCalAmount",
          "type": "uint256"
        },
        {
          "indexed": false,
          "internalType": "uint256",
          "name": "rewardAmount",
          "type": "uint256"
        },
        {
          "indexed": false,
          "internalType": "uint256",
          "name": "treasuryAmount",
          "type": "uint256"
        }
      ],
      "name": "RewardsCalculated",
      "type": "event"
    },
    {
      "anonymous": false,
      "inputs": [
        {
          "indexed": true,
          "internalType": "uint256",
          "name": "roundId",
          "type": "uint256"
        },
        {
          "indexed": false,
          "internalType": "int256",
          "name": "startPrice",
          "type": "int256"
        }
      ],
      "name": "StartRound",
      "type": "event"
    },
    {
      "anonymous": false,
      "inputs": [
        {
          "indexed": true,
          "internalType": "address",
          "name": "admin",
          "type": "address"
        },
        {
          "indexed": false,
          "internalType": "uint256",
          "name": "amount",
          "type": "uint256"
        }
      ],
      "name": "TreasuryClaim",
      "type": "event"
    },
    {
      "anonymous": false,
      "inputs": [
        {
          "indexed": false,
          "internalType": "uint256",
          "name": "currentRoundId",
          "type": "uint256"
        }
      ],
      "name": "UnPaused",
      "type": "event"
    },
    {
      "anonymous": false,
      "inputs": [
        {
          "indexed": false,
          "internalType": "address",
          "name": "account",
          "type": "address"
        }
      ],
      "name": "Unpaused",
      "type": "event"
    },
    {
      "inputs": [],
      "name": "MAX_TREASURY_FEE",
      "outputs": [
        {
          "internalType": "uint256",
          "name": "",
          "type": "uint256"
        }
      ],
      "stateMutability": "view",
      "type": "function",
      "constant": true
    },
    {
      "inputs": [],
      "name": "admin",
      "outputs": [
        {
          "internalType": "address",
          "name": "",
          "type": "address"
        }
      ],
      "stateMutability": "view",
      "type": "function",
      "constant": true
    },
    {
      "inputs": [],
      "name": "bufferSeconds",
      "outputs": [
        {
          "internalType": "uint256",
          "name": "",
          "type": "uint256"
        }
      ],
      "stateMutability": "view",
      "type": "function",
      "constant": true
    },
    {
      "inputs": [],
      "name": "claimTreasury",
      "outputs": [],
      "stateMutability": "nonpayable",
      "type": "function"
    },
    {
      "inputs": [],
      "name": "claimableTreasuryPercent",
      "outputs": [
        {
          "internalType": "uint256",
          "name": "",
          "type": "uint256"
        }
      ],
      "stateMutability": "view",
      "type": "function",
      "constant": true
    },
    {
      "inputs": [],
      "name": "currentRoundId",
      "outputs": [
        {
          "internalType": "uint256",
          "name": "",
          "type": "uint256"
        }
      ],
      "stateMutability": "view",
      "type": "function",
      "constant": true
    },
    {
      "inputs": [],
      "name": "genesisCreateOnce",
      "outputs": [
        {
          "internalType": "bool",
          "name": "",
          "type": "bool"
        }
      ],
      "stateMutability": "view",
      "type": "function",
      "constant": true
    },
    {
      "inputs": [],
      "name": "genesisStartOnce",
      "outputs": [
        {
          "internalType": "bool",
          "name": "",
          "type": "bool"
        }
      ],
      "stateMutability": "view",
      "type": "function",
      "constant": true
    },
    {
      "inputs": [],
      "name": "genesisStartTimestamp",
      "outputs": [
        {
          "internalType": "uint256",
          "name": "",
          "type": "uint256"
        }
      ],
      "stateMutability": "view",
      "type": "function",
      "constant": true
    },
    {
      "inputs": [
        {
          "internalType": "uint256",
          "name": "",
          "type": "uint256"
        },
        {
          "internalType": "address",
          "name": "",
          "type": "address"
        }
      ],
      "name": "ledger",
      "outputs": [
        {
          "internalType": "uint256",
          "name": "bullAmount",
          "type": "uint256"
        },
        {
          "internalType": "uint256",
          "name": "bearAmount",
          "type": "uint256"
        },
        {
          "internalType": "uint256",
          "name": "amountDispersed",
          "type": "uint256"
        }
      ],
      "stateMutability": "view",
      "type": "function",
      "constant": true
    },
    {
      "inputs": [],
      "name": "minBetAmount",
      "outputs": [
        {
          "internalType": "uint256",
          "name": "",
          "type": "uint256"
        }
      ],
      "stateMutability": "view",
      "type": "function",
      "constant": true
    },
    {
      "inputs": [],
      "name": "operator",
      "outputs": [
        {
          "internalType": "address",
          "name": "",
          "type": "address"
        }
      ],
      "stateMutability": "view",
      "type": "function",
      "constant": true
    },
    {
      "inputs": [],
      "name": "owner",
      "outputs": [
        {
          "internalType": "address",
          "name": "",
          "type": "address"
        }
      ],
      "stateMutability": "view",
      "type": "function",
      "constant": true
    },
    {
      "inputs": [],
      "name": "paused",
      "outputs": [
        {
          "internalType": "bool",
          "name": "",
          "type": "bool"
        }
      ],
      "stateMutability": "view",
      "type": "function",
      "constant": true
    },
    {
      "inputs": [
        {
          "internalType": "address",
          "name": "_token",
          "type": "address"
        },
        {
          "internalType": "uint256",
          "name": "_amount",
          "type": "uint256"
        }
      ],
      "name": "recoverToken",
      "outputs": [],
      "stateMutability": "nonpayable",
      "type": "function"
    },
    {
      "inputs": [],
      "name": "renounceOwnership",
      "outputs": [],
      "stateMutability": "nonpayable",
      "type": "function"
    },
    {
      "inputs": [],
      "name": "roundTime",
      "outputs": [
        {
          "internalType": "uint256",
          "name": "",
          "type": "uint256"
        }
      ],
      "stateMutability": "view",
      "type": "function",
      "constant": true
    },
    {
      "inputs": [
        {
          "internalType": "uint256",
          "name": "",
          "type": "uint256"
        }
      ],
      "name": "rounds",
      "outputs": [
        {
          "internalType": "uint256",
          "name": "roundId",
          "type": "uint256"
        },
        {
          "internalType": "enum BetBeePrediction.RoundState",
          "name": "roundState",
          "type": "uint8"
        },
        {
          "internalType": "uint256",
          "name": "bullAmount",
          "type": "uint256"
        },
        {
          "internalType": "uint256",
          "name": "bearAmount",
          "type": "uint256"
        },
        {
          "internalType": "uint256",
          "name": "totalAmount",
          "type": "uint256"
        },
        {
          "internalType": "uint256",
          "name": "rewardBaseCalAmount",
          "type": "uint256"
        },
        {
          "internalType": "uint256",
          "name": "rewardAmount",
          "type": "uint256"
        },
        {
          "internalType": "int256",
          "name": "startPrice",
          "type": "int256"
        },
        {
          "internalType": "int256",
          "name": "endPrice",
          "type": "int256"
        },
        {
          "internalType": "uint256",
          "name": "startTimestamp",
          "type": "uint256"
        },
        {
          "internalType": "uint256",
          "name": "endTimestamp",
          "type": "uint256"
        }
      ],
      "stateMutability": "view",
      "type": "function",
      "constant": true
    },
    {
      "inputs": [
        {
          "internalType": "address",
          "name": "_admin",
          "type": "address"
        }
      ],
      "name": "setAdmin",
      "outputs": [],
      "stateMutability": "nonpayable",
      "type": "function"
    },
    {
      "inputs": [
        {
          "internalType": "uint256",
          "name": "_claimableTreasuryPercent",
          "type": "uint256"
        }
      ],
      "name": "setClaimableTreasuryPercent",
      "outputs": [],
      "stateMutability": "nonpayable",
      "type": "function"
    },
    {
      "inputs": [
        {
          "internalType": "uint256",
          "name": "_minBetAmount",
          "type": "uint256"
        }
      ],
      "name": "setMinBetAmount",
      "outputs": [],
      "stateMutability": "nonpayable",
      "type": "function"
    },
    {
      "inputs": [
        {
          "internalType": "address",
          "name": "_operator",
          "type": "address"
        }
      ],
      "name": "setOperator",
      "outputs": [],
      "stateMutability": "nonpayable",
      "type": "function"
    },
    {
      "inputs": [
        {
          "internalType": "uint256",
          "name": "_treasuryFee",
          "type": "uint256"
        }
      ],
      "name": "setTreasuryFee",
      "outputs": [],
      "stateMutability": "nonpayable",
      "type": "function"
    },
    {
      "inputs": [
        {
          "internalType": "address",
          "name": "newOwner",
          "type": "address"
        }
      ],
      "name": "transferOwnership",
      "outputs": [],
      "stateMutability": "nonpayable",
      "type": "function"
    },
    {
      "inputs": [],
      "name": "treasuryAmount",
      "outputs": [
        {
          "internalType": "uint256",
          "name": "",
          "type": "uint256"
        }
      ],
      "stateMutability": "view",
      "type": "function",
      "constant": true
    },
    {
      "inputs": [],
      "name": "treasuryFee",
      "outputs": [
        {
          "internalType": "uint256",
          "name": "",
          "type": "uint256"
        }
      ],
      "stateMutability": "view",
      "type": "function",
      "constant": true
    },
    {
      "inputs": [
        {
          "internalType": "address",
          "name": "",
          "type": "address"
        },
        {
          "internalType": "uint256",
          "name": "",
          "type": "uint256"
        }
      ],
      "name": "userRounds",
      "outputs": [
        {
          "internalType": "uint256",
          "name": "",
          "type": "uint256"
        }
      ],
      "stateMutability": "view",
      "type": "function",
      "constant": true
    },
    {
      "inputs": [
        {
          "internalType": "uint256",
          "name": "",
          "type": "uint256"
        },
        {
          "internalType": "uint256",
          "name": "",
          "type": "uint256"
        }
      ],
      "name": "usersInRounds",
      "outputs": [
        {
          "internalType": "address",
          "name": "",
          "type": "address"
        }
      ],
      "stateMutability": "view",
      "type": "function",
      "constant": true
    },
    {
      "stateMutability": "payable",
      "type": "receive",
      "payable": true
    },
    {
      "inputs": [],
      "name": "pause",
      "outputs": [],
      "stateMutability": "nonpayable",
      "type": "function"
    },
    {
      "inputs": [],
      "name": "unPause",
      "outputs": [],
      "stateMutability": "nonpayable",
      "type": "function"
    },
    {
      "inputs": [
        {
          "internalType": "uint256",
          "name": "_bufferSeconds",
          "type": "uint256"
        }
      ],
      "name": "setBufferSeconds",
      "outputs": [],
      "stateMutability": "nonpayable",
      "type": "function"
    },
    {
      "inputs": [
        {
          "internalType": "uint256",
          "name": "_roundId",
          "type": "uint256"
        }
      ],
      "name": "cancelAndRefundRound",
      "outputs": [],
      "stateMutability": "nonpayable",
      "type": "function"
    },
    {
      "inputs": [
        {
          "internalType": "uint256",
          "name": "_roundId",
          "type": "uint256"
        }
      ],
      "name": "betBull",
      "outputs": [],
      "stateMutability": "payable",
      "type": "function",
      "payable": true
    },
    {
      "inputs": [
        {
          "internalType": "uint256",
          "name": "_roundId",
          "type": "uint256"
        }
      ],
      "name": "betBear",
      "outputs": [],
      "stateMutability": "payable",
      "type": "function",
      "payable": true
    },
    {
      "inputs": [
        {
          "internalType": "uint256",
          "name": "_genesisStartTimestamp",
          "type": "uint256"
        }
      ],
      "name": "genesisCreateRound",
      "outputs": [],
      "stateMutability": "nonpayable",
      "type": "function"
    },
    {
      "inputs": [
        {
          "internalType": "int256",
          "name": "_price",
          "type": "int256"
        }
      ],
      "name": "genesisStartRound",
      "outputs": [],
      "stateMutability": "nonpayable",
      "type": "function"
    },
    {
      "inputs": [
        {
          "internalType": "int256",
          "name": "_price",
          "type": "int256"
        }
      ],
      "name": "executeRound",
      "outputs": [],
      "stateMutability": "nonpayable",
      "type": "function"
    },
    {
      "inputs": [
        {
          "internalType": "uint256",
          "name": "_roundId",
          "type": "uint256"
        }
      ],
      "name": "getRound",
      "outputs": [
        {
          "internalType": "uint256",
          "name": "",
          "type": "uint256"
        },
        {
          "internalType": "uint256",
          "name": "",
          "type": "uint256"
        },
        {
          "internalType": "uint256",
          "name": "",
          "type": "uint256"
        },
        {
          "internalType": "int256",
          "name": "",
          "type": "int256"
        },
        {
          "internalType": "int256",
          "name": "",
          "type": "int256"
        }
      ],
      "stateMutability": "view",
      "type": "function",
      "constant": true
    },
    {
      "inputs": [
        {
          "internalType": "uint256",
          "name": "_roundId",
          "type": "uint256"
        },
        {
          "internalType": "address",
          "name": "_userAddress",
          "type": "address"
        }
      ],
      "name": "getUserBetAmount",
      "outputs": [
        {
          "internalType": "uint256",
          "name": "",
          "type": "uint256"
        },
        {
          "internalType": "uint256",
          "name": "",
          "type": "uint256"
        }
      ],
      "stateMutability": "view",
      "type": "function",
      "constant": true
    },
    {
      "inputs": [],
      "name": "getCurrentRoundEndTime",
      "outputs": [
        {
          "internalType": "uint256",
          "name": "",
          "type": "uint256"
        }
      ],
      "stateMutability": "view",
      "type": "function",
      "constant": true
    }
  ],
  "bytecode": "0x60806040526003600455662386f26fc10000600555605060075561012c600955601e600b556000600c60006101000a81548160ff0219169083151502179055506000600c60016101000a81548160ff0219169083151502179055503480156200006757600080fd5b50620000886200007c6200016260201b60201c565b6200016a60201b60201c565b60008060146101000a81548160ff02191690831515021790555060018081905550620000b96200022e60201b60201c565b600260006101000a81548173ffffffffffffffffffffffffffffffffffffffff021916908373ffffffffffffffffffffffffffffffffffffffff160217905550600260009054906101000a900473ffffffffffffffffffffffffffffffffffffffff16600360006101000a81548173ffffffffffffffffffffffffffffffffffffffff021916908373ffffffffffffffffffffffffffffffffffffffff16021790555062000257565b600033905090565b60008060009054906101000a900473ffffffffffffffffffffffffffffffffffffffff169050816000806101000a81548173ffffffffffffffffffffffffffffffffffffffff021916908373ffffffffffffffffffffffffffffffffffffffff1602179055508173ffffffffffffffffffffffffffffffffffffffff168173ffffffffffffffffffffffffffffffffffffffff167f8be0079c531659141344cd1fd0a4f28419497f9722a3daafe3b4186f6b6457e060405160405180910390a35050565b60008060009054906101000a900473ffffffffffffffffffffffffffffffffffffffff16905090565b615faa80620002676000396000f3fe60806040526004361061023e5760003560e01c80639cbe5efd1161012e578063ce916bc0116100ab578063f2fde38b1161006f578063f2fde38b14610838578063f7b188a514610861578063f7fdec2814610878578063f851a440146108a3578063fa968eea146108ce57610245565b8063ce916bc01461074f578063dd1f75961461077a578063eaba2361146107b7578063ee5f8c8f146107e2578063f2b3c8091461080d57610245565b8063bddaca43116100f2578063bddaca431461067e578063c2a88eba146106a9578063c4dec6ed146106d2578063cc32d176146106fb578063cdf091581461072657610245565b80639cbe5efd146105a7578063a0814761146105d2578063aa6b873a14610610578063b29a81401461062c578063b3ab15fb1461065557610245565b80636c188593116101bc5780638456cb59116101805780638456cb59146104b25780638aaaa197146104c95780638c65c81f146104f45780638da5cb5b1461053b5780638f1327c01461056657610245565b80636c188593146103e1578063704b6c021461040a578063715018a6146104335780637285c58b1461044a57806377e741c71461048957610245565b8063570ca73511610203578063570ca7351461031d57806357fb096f146103485780635c975abb1461036457806365ed32011461038f5780636bd50cf0146103b857610245565b80623bdc741461024a57806302cbb9ed1461026157806319446cd41461028c578063259f27bf146102b5578063368acb09146102f257610245565b3661024557005b600080fd5b34801561025657600080fd5b5061025f6108f9565b005b34801561026d57600080fd5b50610276610bf5565b6040516102839190614f85565b60405180910390f35b34801561029857600080fd5b506102b360048036038101906102ae9190614953565b610c08565b005b3480156102c157600080fd5b506102dc60048036038101906102d791906149c0565b610d1e565b6040516102e99190614f41565b60405180910390f35b3480156102fe57600080fd5b50610307610d6c565b60405161031491906153bd565b60405180910390f35b34801561032957600080fd5b50610332610d72565b60405161033f9190614f41565b60405180910390f35b610362600480360381019061035d9190614953565b610d98565b005b34801561037057600080fd5b5061037961125e565b6040516103869190614f85565b60405180910390f35b34801561039b57600080fd5b506103b660048036038101906103b19190614953565b611274565b005b3480156103c457600080fd5b506103df60048036038101906103da9190614926565b61157f565b005b3480156103ed57600080fd5b5061040860048036038101906104039190614953565b611805565b005b34801561041657600080fd5b50610431600480360381019061042c919061488c565b611961565b005b34801561043f57600080fd5b50610448611ad4565b005b34801561045657600080fd5b50610471600480360381019061046c9190614980565b611b5c565b604051610480939291906154ac565b60405180910390f35b34801561049557600080fd5b506104b060048036038101906104ab9190614953565b611b93565b005b3480156104be57600080fd5b506104c7611cee565b005b3480156104d557600080fd5b506104de611e09565b6040516104eb91906153bd565b60405180910390f35b34801561050057600080fd5b5061051b60048036038101906105169190614953565b611e29565b6040516105329b9a999897969594939291906153d8565b60405180910390f35b34801561054757600080fd5b50610550611e90565b60405161055d9190614f41565b60405180910390f35b34801561057257600080fd5b5061058d60048036038101906105889190614953565b611eb9565b60405161059e9594939291906154e3565b60405180910390f35b3480156105b357600080fd5b506105bc611f23565b6040516105c991906153bd565b60405180910390f35b3480156105de57600080fd5b506105f960048036038101906105f49190614980565b611f29565b604051610607929190615483565b60405180910390f35b61062a60048036038101906106259190614953565b611fdf565b005b34801561063857600080fd5b50610653600480360381019061064e91906148b9565b6124a5565b005b34801561066157600080fd5b5061067c6004803603810190610677919061488c565b612670565b005b34801561068a57600080fd5b506106936127e3565b6040516106a091906153bd565b60405180910390f35b3480156106b557600080fd5b506106d060048036038101906106cb9190614953565b6127e9565b005b3480156106de57600080fd5b506106f960048036038101906106f49190614953565b612a00565b005b34801561070757600080fd5b50610710612bdb565b60405161071d91906153bd565b60405180910390f35b34801561073257600080fd5b5061074d60048036038101906107489190614926565b612be1565b005b34801561075b57600080fd5b50610764612e57565b60405161077191906153bd565b60405180910390f35b34801561078657600080fd5b506107a1600480360381019061079c91906148b9565b612e5d565b6040516107ae91906153bd565b60405180910390f35b3480156107c357600080fd5b506107cc612e8e565b6040516107d991906153bd565b60405180910390f35b3480156107ee57600080fd5b506107f7612e94565b60405161080491906153bd565b60405180910390f35b34801561081957600080fd5b50610822612e9a565b60405161082f91906153bd565b60405180910390f35b34801561084457600080fd5b5061085f600480360381019061085a919061488c565b612e9f565b005b34801561086d57600080fd5b50610876612f97565b005b34801561088457600080fd5b5061088d6130e7565b60405161089a9190614f85565b60405180910390f35b3480156108af57600080fd5b506108b86130fa565b6040516108c59190614f41565b60405180910390f35b3480156108da57600080fd5b506108e3613120565b6040516108f091906153bd565b60405180910390f35b6002600154141561093f576040517f08c379a00000000000000000000000000000000000000000000000000000000081526004016109369061533d565b60405180910390fd5b6002600181905550600260009054906101000a900473ffffffffffffffffffffffffffffffffffffffff1673ffffffffffffffffffffffffffffffffffffffff163373ffffffffffffffffffffffffffffffffffffffff16146109d7576040517f08c379a00000000000000000000000000000000000000000000000000000000081526004016109ce9061539d565b60405180910390fd5b6109e033613126565b15610a20576040517f08c379a0000000000000000000000000000000000000000000000000000000008152600401610a179061509d565b60405180910390fd5b3273ffffffffffffffffffffffffffffffffffffffff163373ffffffffffffffffffffffffffffffffffffffff1614610a8e576040517f08c379a0000000000000000000000000000000000000000000000000000000008152600401610a85906151fd565b60405180910390fd5b6000606460075447610aa091906155ef565b610aaa91906155be565b90506000600260009054906101000a900473ffffffffffffffffffffffffffffffffffffffff1673ffffffffffffffffffffffffffffffffffffffff1682604051610af490614f2c565b60006040518083038185875af1925050503d8060008114610b31576040519150601f19603f3d011682016040523d82523d6000602084013e610b36565b606091505b5050905080610b7a576040517f08c379a0000000000000000000000000000000000000000000000000000000008152600401610b7190614fdd565b60405180910390fd5b600260009054906101000a900473ffffffffffffffffffffffffffffffffffffffff1673ffffffffffffffffffffffffffffffffffffffff167fecd60683965e7a828740c1cd2d719fab1ac61fd7b0e1871f1b38d9ee392ae1a783604051610be291906153bd565b60405180910390a2505060018081905550565b600c60019054906101000a900460ff1681565b600260009054906101000a900473ffffffffffffffffffffffffffffffffffffffff1673ffffffffffffffffffffffffffffffffffffffff163373ffffffffffffffffffffffffffffffffffffffff1614610c98576040517f08c379a0000000000000000000000000000000000000000000000000000000008152600401610c8f9061539d565b60405180910390fd5b60008111610cdb576040517f08c379a0000000000000000000000000000000000000000000000000000000008152600401610cd29061523d565b60405180910390fd5b806007819055507fb3c38e3948eab3b348ca48fc24f958ced2d2611b79865a5468551af855971b8d600754604051610d1391906153bd565b60405180910390a150565b60106020528160005260406000208181548110610d3a57600080fd5b906000526020600020016000915091509054906101000a900473ffffffffffffffffffffffffffffffffffffffff1681565b60065481565b600360009054906101000a900473ffffffffffffffffffffffffffffffffffffffff1681565b610da061125e565b15610de0576040517f08c379a0000000000000000000000000000000000000000000000000000000008152600401610dd79061517d565b60405180910390fd5b60026001541415610e26576040517f08c379a0000000000000000000000000000000000000000000000000000000008152600401610e1d9061533d565b60405180910390fd5b6002600181905550610e3733613126565b15610e77576040517f08c379a0000000000000000000000000000000000000000000000000000000008152600401610e6e9061509d565b60405180910390fd5b3273ffffffffffffffffffffffffffffffffffffffff163373ffffffffffffffffffffffffffffffffffffffff1614610ee5576040517f08c379a0000000000000000000000000000000000000000000000000000000008152600401610edc906151fd565b60405180910390fd5b60016005811115610ef957610ef86157ce565b5b600d600083815260200190815260200160002060010160009054906101000a900460ff166005811115610f2f57610f2e6157ce565b5b14610f6f576040517f08c379a0000000000000000000000000000000000000000000000000000000008152600401610f669061535d565b60405180910390fd5b600554341015610fb4576040517f08c379a0000000000000000000000000000000000000000000000000000000008152600401610fab9061515d565b60405180910390fd5b60003490506000600d600084815260200190815260200160002090506000600e600085815260200190815260200160002060003373ffffffffffffffffffffffffffffffffffffffff1673ffffffffffffffffffffffffffffffffffffffff16815260200190815260200160002090508282600401546110349190615568565b826004018190555082826002015461104c9190615568565b82600201819055506000600e600086815260200190815260200160002060003373ffffffffffffffffffffffffffffffffffffffff1673ffffffffffffffffffffffffffffffffffffffff1681526020019081526020016000206000015414801561110a57506000600e600086815260200190815260200160002060003373ffffffffffffffffffffffffffffffffffffffff1673ffffffffffffffffffffffffffffffffffffffff16815260200190815260200160002060010154145b156111ea57600f60003373ffffffffffffffffffffffffffffffffffffffff1673ffffffffffffffffffffffffffffffffffffffff16815260200190815260200160002084908060018154018082558091505060019003906000526020600020016000909190919091505560106000858152602001908152602001600020339080600181540180825580915050600190039060005260206000200160009091909190916101000a81548173ffffffffffffffffffffffffffffffffffffffff021916908373ffffffffffffffffffffffffffffffffffffffff1602179055505b8281600001546111fa9190615568565b8160000181905550833373ffffffffffffffffffffffffffffffffffffffff167f438122d8cff518d18388099a5181f0d17a12b4f1b55faedf6e4a6acee0060c123460405161124991906153bd565b60405180910390a35050506001808190555050565b60008060149054906101000a900460ff16905090565b600360009054906101000a900473ffffffffffffffffffffffffffffffffffffffff1673ffffffffffffffffffffffffffffffffffffffff163373ffffffffffffffffffffffffffffffffffffffff1614611304576040517f08c379a00000000000000000000000000000000000000000000000000000000081526004016112fb9061537d565b60405180910390fd5b61130d33613126565b1561134d576040517f08c379a00000000000000000000000000000000000000000000000000000000081526004016113449061509d565b60405180910390fd5b3273ffffffffffffffffffffffffffffffffffffffff163373ffffffffffffffffffffffffffffffffffffffff16146113bb576040517f08c379a00000000000000000000000000000000000000000000000000000000081526004016113b2906151fd565b60405180910390fd5b600160058111156113cf576113ce6157ce565b5b600d600083815260200190815260200160002060010160009054906101000a900460ff166005811115611405576114046157ce565b5b14806114585750600260058111156114205761141f6157ce565b5b600d600083815260200190815260200160002060010160009054906101000a900460ff166005811115611456576114556157ce565b5b145b611497576040517f08c379a000000000000000000000000000000000000000000000000000000000815260040161148e906152bd565b60405180910390fd5b6000600d6000838152602001908152602001600020600701819055506000600d6000838152602001908152602001600020600801819055506000600d6000838152602001908152602001600020600501819055506000600d6000838152602001908152602001600020600601819055506005600d600083815260200190815260200160002060010160006101000a81548160ff02191690836005811115611541576115406157ce565b5b021790555061154f81613139565b807f1316afc2a7dc68d55247ceedbef28ffd97f61bafc159c949278f4b934d448c7b60405160405180910390a250565b61158761125e565b156115c7576040517f08c379a00000000000000000000000000000000000000000000000000000000081526004016115be9061517d565b60405180910390fd5b600360009054906101000a900473ffffffffffffffffffffffffffffffffffffffff1673ffffffffffffffffffffffffffffffffffffffff163373ffffffffffffffffffffffffffffffffffffffff1614611657576040517f08c379a000000000000000000000000000000000000000000000000000000000815260040161164e9061537d565b60405180910390fd5b61166033613126565b156116a0576040517f08c379a00000000000000000000000000000000000000000000000000000000081526004016116979061509d565b60405180910390fd5b3273ffffffffffffffffffffffffffffffffffffffff163373ffffffffffffffffffffffffffffffffffffffff161461170e576040517f08c379a0000000000000000000000000000000000000000000000000000000008152600401611705906151fd565b60405180910390fd5b600c60019054906101000a900460ff1661175d576040517f08c379a00000000000000000000000000000000000000000000000000000000081526004016117549061503d565b60405180910390fd5b600c60009054906101000a900460ff16156117ad576040517f08c379a00000000000000000000000000000000000000000000000000000000081526004016117a49061525d565b60405180910390fd5b6117b960085482613445565b6117d060016008546117cb9190615568565b6135cb565b6117e760026008546117e29190615568565b6135cb565b6001600c60006101000a81548160ff02191690831515021790555050565b61180d61125e565b61184c576040517f08c379a000000000000000000000000000000000000000000000000000000000815260040161184390614ffd565b60405180910390fd5b600260009054906101000a900473ffffffffffffffffffffffffffffffffffffffff1673ffffffffffffffffffffffffffffffffffffffff163373ffffffffffffffffffffffffffffffffffffffff16146118dc576040517f08c379a00000000000000000000000000000000000000000000000000000000081526004016118d39061539d565b60405180910390fd5b6000811415611920576040517f08c379a00000000000000000000000000000000000000000000000000000000081526004016119179061527d565b60405180910390fd5b806005819055507fbe054849fe210c446a3b3f68394753f210607326b38581dc64bd2e94a87f01828160405161195691906153bd565b60405180910390a150565b611969613721565b73ffffffffffffffffffffffffffffffffffffffff16611987611e90565b73ffffffffffffffffffffffffffffffffffffffff16146119dd576040517f08c379a00000000000000000000000000000000000000000000000000000000081526004016119d49061521d565b60405180910390fd5b600073ffffffffffffffffffffffffffffffffffffffff168173ffffffffffffffffffffffffffffffffffffffff161415611a4d576040517f08c379a0000000000000000000000000000000000000000000000000000000008152600401611a449061519d565b60405180910390fd5b80600260006101000a81548173ffffffffffffffffffffffffffffffffffffffff021916908373ffffffffffffffffffffffffffffffffffffffff1602179055508073ffffffffffffffffffffffffffffffffffffffff167f71614071b88dee5e0b2ae578a9dd7b2ebbe9ae832ba419dc0242cd065a290b6c60405160405180910390a250565b611adc613721565b73ffffffffffffffffffffffffffffffffffffffff16611afa611e90565b73ffffffffffffffffffffffffffffffffffffffff1614611b50576040517f08c379a0000000000000000000000000000000000000000000000000000000008152600401611b479061521d565b60405180910390fd5b611b5a6000613729565b565b600e602052816000526040600020602052806000526040600020600091509150508060000154908060010154908060020154905083565b611b9b61125e565b611bda576040517f08c379a0000000000000000000000000000000000000000000000000000000008152600401611bd190614ffd565b60405180910390fd5b600260009054906101000a900473ffffffffffffffffffffffffffffffffffffffff1673ffffffffffffffffffffffffffffffffffffffff163373ffffffffffffffffffffffffffffffffffffffff1614611c6a576040517f08c379a0000000000000000000000000000000000000000000000000000000008152600401611c619061539d565b60405180910390fd5b60058110611cad576040517f08c379a0000000000000000000000000000000000000000000000000000000008152600401611ca4906150fd565b60405180910390fd5b806004819055507f938d9272b26145999fe14f6124b73f122e1e023fc5de069c74ade1254408a97681604051611ce391906153bd565b60405180910390a150565b611cf661125e565b15611d36576040517f08c379a0000000000000000000000000000000000000000000000000000000008152600401611d2d9061517d565b60405180910390fd5b600260009054906101000a900473ffffffffffffffffffffffffffffffffffffffff1673ffffffffffffffffffffffffffffffffffffffff163373ffffffffffffffffffffffffffffffffffffffff1614611dc6576040517f08c379a0000000000000000000000000000000000000000000000000000000008152600401611dbd9061539d565b60405180910390fd5b611dce6137ed565b7f32fb7c9891bc4f963c7de9f1186d2a7755c7d6e9f4604dabe1d8bb3027c2f49e600854604051611dff91906153bd565b60405180910390a1565b6000600d60006008548152602001908152602001600020600a0154905090565b600d6020528060005260406000206000915090508060000154908060010160009054906101000a900460ff169080600201549080600301549080600401549080600501549080600601549080600701549080600801549080600901549080600a015490508b565b60008060009054906101000a900473ffffffffffffffffffffffffffffffffffffffff16905090565b600080600080600080600d600088815260200190815260200160002090508060010160009054906101000a900460ff166005811115611efb57611efa6157ce565b5b8160020154826003015483600701548460080154955095509550955095505091939590929450565b60085481565b600080600e600085815260200190815260200160002060008473ffffffffffffffffffffffffffffffffffffffff1673ffffffffffffffffffffffffffffffffffffffff16815260200190815260200160002060000154600e600086815260200190815260200160002060008573ffffffffffffffffffffffffffffffffffffffff1673ffffffffffffffffffffffffffffffffffffffff16815260200190815260200160002060010154915091509250929050565b611fe761125e565b15612027576040517f08c379a000000000000000000000000000000000000000000000000000000000815260040161201e9061517d565b60405180910390fd5b6002600154141561206d576040517f08c379a00000000000000000000000000000000000000000000000000000000081526004016120649061533d565b60405180910390fd5b600260018190555061207e33613126565b156120be576040517f08c379a00000000000000000000000000000000000000000000000000000000081526004016120b59061509d565b60405180910390fd5b3273ffffffffffffffffffffffffffffffffffffffff163373ffffffffffffffffffffffffffffffffffffffff161461212c576040517f08c379a0000000000000000000000000000000000000000000000000000000008152600401612123906151fd565b60405180910390fd5b600160058111156121405761213f6157ce565b5b600d600083815260200190815260200160002060010160009054906101000a900460ff166005811115612176576121756157ce565b5b146121b6576040517f08c379a00000000000000000000000000000000000000000000000000000000081526004016121ad9061535d565b60405180910390fd5b6005543410156121fb576040517f08c379a00000000000000000000000000000000000000000000000000000000081526004016121f29061515d565b60405180910390fd5b60003490506000600d600084815260200190815260200160002090508181600401546122279190615568565b816004018190555081816003015461223f9190615568565b81600301819055506000600e600085815260200190815260200160002060003373ffffffffffffffffffffffffffffffffffffffff1673ffffffffffffffffffffffffffffffffffffffff16815260200190815260200160002090506000600e600086815260200190815260200160002060003373ffffffffffffffffffffffffffffffffffffffff1673ffffffffffffffffffffffffffffffffffffffff1681526020019081526020016000206000015414801561235157506000600e600086815260200190815260200160002060003373ffffffffffffffffffffffffffffffffffffffff1673ffffffffffffffffffffffffffffffffffffffff16815260200190815260200160002060010154145b1561243157600f60003373ffffffffffffffffffffffffffffffffffffffff1673ffffffffffffffffffffffffffffffffffffffff16815260200190815260200160002084908060018154018082558091505060019003906000526020600020016000909190919091505560106000858152602001908152602001600020339080600181540180825580915050600190039060005260206000200160009091909190916101000a81548173ffffffffffffffffffffffffffffffffffffffff021916908373ffffffffffffffffffffffffffffffffffffffff1602179055505b8281600101546124419190615568565b8160010181905550833373ffffffffffffffffffffffffffffffffffffffff167f0d8c1fe3e67ab767116a81f122b83c2557a8c2564019cb7c4f83de1aeb1f1f0d3460405161249091906153bd565b60405180910390a35050506001808190555050565b600260015414156124eb576040517f08c379a00000000000000000000000000000000000000000000000000000000081526004016124e29061533d565b60405180910390fd5b6002600181905550600260009054906101000a900473ffffffffffffffffffffffffffffffffffffffff1673ffffffffffffffffffffffffffffffffffffffff163373ffffffffffffffffffffffffffffffffffffffff1614612583576040517f08c379a000000000000000000000000000000000000000000000000000000000815260040161257a9061539d565b60405180910390fd5b61258c33613126565b156125cc576040517f08c379a00000000000000000000000000000000000000000000000000000000081526004016125c39061509d565b60405180910390fd5b3273ffffffffffffffffffffffffffffffffffffffff163373ffffffffffffffffffffffffffffffffffffffff161461263a576040517f08c379a0000000000000000000000000000000000000000000000000000000008152600401612631906151fd565b60405180910390fd5b61266533828473ffffffffffffffffffffffffffffffffffffffff166138909092919063ffffffff16565b600180819055505050565b612678613721565b73ffffffffffffffffffffffffffffffffffffffff16612696611e90565b73ffffffffffffffffffffffffffffffffffffffff16146126ec576040517f08c379a00000000000000000000000000000000000000000000000000000000081526004016126e39061521d565b60405180910390fd5b600073ffffffffffffffffffffffffffffffffffffffff168173ffffffffffffffffffffffffffffffffffffffff16141561275c576040517f08c379a00000000000000000000000000000000000000000000000000000000081526004016127539061519d565b60405180910390fd5b80600360006101000a81548173ffffffffffffffffffffffffffffffffffffffff021916908373ffffffffffffffffffffffffffffffffffffffff1602179055508073ffffffffffffffffffffffffffffffffffffffff167fda12ee837e6978172aaf54b16145ffe08414fd8710092ef033c71b8eb6ec189a60405160405180910390a250565b60075481565b6127f161125e565b15612831576040517f08c379a00000000000000000000000000000000000000000000000000000000081526004016128289061517d565b60405180910390fd5b600360009054906101000a900473ffffffffffffffffffffffffffffffffffffffff1673ffffffffffffffffffffffffffffffffffffffff163373ffffffffffffffffffffffffffffffffffffffff16146128c1576040517f08c379a00000000000000000000000000000000000000000000000000000000081526004016128b89061537d565b60405180910390fd5b6128ca33613126565b1561290a576040517f08c379a00000000000000000000000000000000000000000000000000000000081526004016129019061509d565b60405180910390fd5b3273ffffffffffffffffffffffffffffffffffffffff163373ffffffffffffffffffffffffffffffffffffffff1614612978576040517f08c379a000000000000000000000000000000000000000000000000000000000815260040161296f906151fd565b60405180910390fd5b600c60019054906101000a900460ff16156129c8576040517f08c379a00000000000000000000000000000000000000000000000000000000081526004016129bf906150dd565b60405180910390fd5b600060088190555080600a819055506129e26008546135cb565b6001600c60016101000a81548160ff02191690831515021790555050565b612a0861125e565b612a47576040517f08c379a0000000000000000000000000000000000000000000000000000000008152600401612a3e90614ffd565b60405180910390fd5b600260009054906101000a900473ffffffffffffffffffffffffffffffffffffffff1673ffffffffffffffffffffffffffffffffffffffff163373ffffffffffffffffffffffffffffffffffffffff1614612ad7576040517f08c379a0000000000000000000000000000000000000000000000000000000008152600401612ace9061539d565b60405180910390fd5b612ae033613126565b15612b20576040517f08c379a0000000000000000000000000000000000000000000000000000000008152600401612b179061509d565b60405180910390fd5b3273ffffffffffffffffffffffffffffffffffffffff163373ffffffffffffffffffffffffffffffffffffffff1614612b8e576040517f08c379a0000000000000000000000000000000000000000000000000000000008152600401612b85906151fd565b60405180910390fd5b60008111612bd1576040517f08c379a0000000000000000000000000000000000000000000000000000000008152600401612bc8906151dd565b60405180910390fd5b80600b8190555050565b60045481565b612be961125e565b15612c29576040517f08c379a0000000000000000000000000000000000000000000000000000000008152600401612c209061517d565b60405180910390fd5b600360009054906101000a900473ffffffffffffffffffffffffffffffffffffffff1673ffffffffffffffffffffffffffffffffffffffff163373ffffffffffffffffffffffffffffffffffffffff1614612cb9576040517f08c379a0000000000000000000000000000000000000000000000000000000008152600401612cb09061537d565b60405180910390fd5b612cc233613126565b15612d02576040517f08c379a0000000000000000000000000000000000000000000000000000000008152600401612cf99061509d565b60405180910390fd5b3273ffffffffffffffffffffffffffffffffffffffff163373ffffffffffffffffffffffffffffffffffffffff1614612d70576040517f08c379a0000000000000000000000000000000000000000000000000000000008152600401612d67906151fd565b60405180910390fd5b600c60019054906101000a900460ff168015612d985750600c60009054906101000a900460ff165b612dd7576040517f08c379a0000000000000000000000000000000000000000000000000000000008152600401612dce9061529d565b60405180910390fd5b612def6001600854612de99190615568565b82613445565b612dfb60085482613916565b612e126003600854612e0d9190615568565b6135cb565b6000600d60006008548152602001908152602001600020600401541115612e3f57612e3e600854613a8f565b5b6001600854612e4e9190615568565b60088190555050565b600a5481565b600f6020528160005260406000208181548110612e7957600080fd5b90600052602060002001600091509150505481565b600b5481565b60095481565b600581565b612ea7613721565b73ffffffffffffffffffffffffffffffffffffffff16612ec5611e90565b73ffffffffffffffffffffffffffffffffffffffff1614612f1b576040517f08c379a0000000000000000000000000000000000000000000000000000000008152600401612f129061521d565b60405180910390fd5b600073ffffffffffffffffffffffffffffffffffffffff168173ffffffffffffffffffffffffffffffffffffffff161415612f8b576040517f08c379a0000000000000000000000000000000000000000000000000000000008152600401612f829061505d565b60405180910390fd5b612f9481613729565b50565b612f9f61125e565b612fde576040517f08c379a0000000000000000000000000000000000000000000000000000000008152600401612fd590614ffd565b60405180910390fd5b600260009054906101000a900473ffffffffffffffffffffffffffffffffffffffff1673ffffffffffffffffffffffffffffffffffffffff163373ffffffffffffffffffffffffffffffffffffffff161461306e576040517f08c379a00000000000000000000000000000000000000000000000000000000081526004016130659061539d565b60405180910390fd5b6000600c60016101000a81548160ff0219169083151502179055506000600c60006101000a81548160ff0219169083151502179055506130ac614230565b7f32fb7c9891bc4f963c7de9f1186d2a7755c7d6e9f4604dabe1d8bb3027c2f49e6008546040516130dd91906153bd565b60405180910390a1565b600c60009054906101000a900460ff1681565b600260009054906101000a900473ffffffffffffffffffffffffffffffffffffffff1681565b60055481565b600080823b905060008111915050919050565b600080600060106000858152602001908152602001600020905060005b818054905081101561343e57600e6000868152602001908152602001600020600083838154811061318a576131896157fd565b5b9060005260206000200160009054906101000a900473ffffffffffffffffffffffffffffffffffffffff1673ffffffffffffffffffffffffffffffffffffffff1673ffffffffffffffffffffffffffffffffffffffff16815260200190815260200160002060010154600e6000878152602001908152602001600020600084848154811061321b5761321a6157fd565b5b9060005260206000200160009054906101000a900473ffffffffffffffffffffffffffffffffffffffff1673ffffffffffffffffffffffffffffffffffffffff1673ffffffffffffffffffffffffffffffffffffffff1681526020019081526020016000206000015461328e9190615568565b9350600084111561342b576064600454856132a991906155ef565b6132b391906155be565b846132be9190615649565b925082600e600087815260200190815260200160002060008484815481106132e9576132e86157fd565b5b9060005260206000200160009054906101000a900473ffffffffffffffffffffffffffffffffffffffff1673ffffffffffffffffffffffffffffffffffffffff1673ffffffffffffffffffffffffffffffffffffffff1681526020019081526020016000206002018190555061339c82828154811061336b5761336a6157fd565b5b9060005260206000200160009054906101000a900473ffffffffffffffffffffffffffffffffffffffff16846142d1565b8181815481106133af576133ae6157fd565b5b9060005260206000200160009054906101000a900473ffffffffffffffffffffffffffffffffffffffff1673ffffffffffffffffffffffffffffffffffffffff16857faba4210cad11f1112f31ba136a61cdc0f6ab4c2b478da8c93eec1d9769e97a898542604051613422929190615483565b60405180910390a35b808061343690615727565b915050613156565b5050505050565b60016005811115613459576134586157ce565b5b600d600084815260200190815260200160002060010160009054906101000a900460ff16600581111561348f5761348e6157ce565b5b146134cf576040517f08c379a00000000000000000000000000000000000000000000000000000000081526004016134c6906150bd565b60405180910390fd5b600b54426134dd9190615649565b600d6000848152602001908152602001600020600901541015613535576040517f08c379a000000000000000000000000000000000000000000000000000000000815260040161352c906151bd565b60405180910390fd5b80600d6000848152602001908152602001600020600701819055506002600d600084815260200190815260200160002060010160006101000a81548160ff0219169083600581111561358a576135896157ce565b5b0217905550817f66cd2a038fc7d4023a2b1835cb7cb5d039bcbe0d2b93d95a7709363a23eba1c0826040516135bf9190614fa0565b60405180910390a25050565b6000600d60008381526020019081526020016000206000015414613624576040517f08c379a000000000000000000000000000000000000000000000000000000000815260040161361b9061511d565b60405180910390fd5b80600d6000838152602001908152602001600020600001819055508060095461364d91906155ef565b600a5461365a9190615568565b600d600083815260200190815260200160002060090181905550600954600d6000838152602001908152602001600020600901546136989190615568565b600d6000838152602001908152602001600020600a01819055506001600d600083815260200190815260200160002060010160006101000a81548160ff021916908360058111156136ec576136eb6157ce565b5b0217905550807f257b6e0c207001c05b4f0f88a5bc913e2c47513ab9989881a48ceea263b2a72160405160405180910390a250565b600033905090565b60008060009054906101000a900473ffffffffffffffffffffffffffffffffffffffff169050816000806101000a81548173ffffffffffffffffffffffffffffffffffffffff021916908373ffffffffffffffffffffffffffffffffffffffff1602179055508173ffffffffffffffffffffffffffffffffffffffff168173ffffffffffffffffffffffffffffffffffffffff167f8be0079c531659141344cd1fd0a4f28419497f9722a3daafe3b4186f6b6457e060405160405180910390a35050565b6137f561125e565b15613835576040517f08c379a000000000000000000000000000000000000000000000000000000000815260040161382c9061517d565b60405180910390fd5b6001600060146101000a81548160ff0219169083151502179055507f62e78cea01bee320cd4e420270b5ea74000d11b0c9f74754ebdbfc544b05a258613879613721565b6040516138869190614f41565b60405180910390a1565b6139118363a9059cbb60e01b84846040516024016138af929190614f5c565b604051602081830303815290604052907bffffffffffffffffffffffffffffffffffffffffffffffffffffffff19166020820180517bffffffffffffffffffffffffffffffffffffffffffffffffffffffff8381831617835250505050614382565b505050565b6002600581111561392a576139296157ce565b5b600d600084815260200190815260200160002060010160009054906101000a900460ff1660058111156139605761395f6157ce565b5b146139a0576040517f08c379a00000000000000000000000000000000000000000000000000000000081526004016139979061501d565b60405180910390fd5b42600d6000848152602001908152602001600020600a015411156139f9576040517f08c379a00000000000000000000000000000000000000000000000000000000081526004016139f09061507d565b60405180910390fd5b80600d6000848152602001908152602001600020600801819055506003600d600084815260200190815260200160002060010160006101000a81548160ff02191690836005811115613a4e57613a4d6157ce565b5b0217905550817fcee1a52460a80134ed9fbda5e300b8aecaf44ba60b7fe91a80a3fef96d5c5b7a82604051613a839190614fa0565b60405180910390a25050565b613a9761125e565b15613ad7576040517f08c379a0000000000000000000000000000000000000000000000000000000008152600401613ace9061517d565b60405180910390fd5b60036005811115613aeb57613aea6157ce565b5b600d600083815260200190815260200160002060010160009054906101000a900460ff166005811115613b2157613b206157ce565b5b14613b61576040517f08c379a0000000000000000000000000000000000000000000000000000000008152600401613b58906152fd565b60405180910390fd5b613b6a81614449565b60006010600083815260200190815260200160002090506000600d60008481526020019081526020016000209050600060048260010160006101000a81548160ff02191690836005811115613bc257613bc16157ce565b5b021790555081600201548260050154148015613be2575060008260050154115b15613ec45760005b8380549050811015613ebe576000600e60008781526020019081526020016000206000868481548110613c2057613c1f6157fd565b5b9060005260206000200160009054906101000a900473ffffffffffffffffffffffffffffffffffffffff1673ffffffffffffffffffffffffffffffffffffffff1673ffffffffffffffffffffffffffffffffffffffff168152602001908152602001600020600001541115613eab5782600501548360060154600e60008881526020019081526020016000206000878581548110613cc157613cc06157fd565b5b9060005260206000200160009054906101000a900473ffffffffffffffffffffffffffffffffffffffff1673ffffffffffffffffffffffffffffffffffffffff1673ffffffffffffffffffffffffffffffffffffffff16815260200190815260200160002060000154613d3491906155ef565b613d3e91906155be565b915081600e60008781526020019081526020016000206000868481548110613d6957613d686157fd565b5b9060005260206000200160009054906101000a900473ffffffffffffffffffffffffffffffffffffffff1673ffffffffffffffffffffffffffffffffffffffff1673ffffffffffffffffffffffffffffffffffffffff16815260200190815260200160002060020181905550613e1c848281548110613deb57613dea6157fd565b5b9060005260206000200160009054906101000a900473ffffffffffffffffffffffffffffffffffffffff16836142d1565b838181548110613e2f57613e2e6157fd565b5b9060005260206000200160009054906101000a900473ffffffffffffffffffffffffffffffffffffffff1673ffffffffffffffffffffffffffffffffffffffff16857f8454e3c8276bd8eeb282eee28eb4faff9ab6f0a109f616c74cf2c6e41fa72b858442604051613ea2929190615483565b60405180910390a35b8080613eb690615727565b915050613bea565b506141fd565b81600301548260050154148015613edf575060008260050154115b156141c15760005b83805490508110156141bb576000600e60008781526020019081526020016000206000868481548110613f1d57613f1c6157fd565b5b9060005260206000200160009054906101000a900473ffffffffffffffffffffffffffffffffffffffff1673ffffffffffffffffffffffffffffffffffffffff1673ffffffffffffffffffffffffffffffffffffffff1681526020019081526020016000206001015411156141a85782600501548360060154600e60008881526020019081526020016000206000878581548110613fbe57613fbd6157fd565b5b9060005260206000200160009054906101000a900473ffffffffffffffffffffffffffffffffffffffff1673ffffffffffffffffffffffffffffffffffffffff1673ffffffffffffffffffffffffffffffffffffffff1681526020019081526020016000206001015461403191906155ef565b61403b91906155be565b915081600e60008781526020019081526020016000206000868481548110614066576140656157fd565b5b9060005260206000200160009054906101000a900473ffffffffffffffffffffffffffffffffffffffff1673ffffffffffffffffffffffffffffffffffffffff1673ffffffffffffffffffffffffffffffffffffffff168152602001908152602001600020600201819055506141198482815481106140e8576140e76157fd565b5b9060005260206000200160009054906101000a900473ffffffffffffffffffffffffffffffffffffffff16836142d1565b83818154811061412c5761412b6157fd565b5b9060005260206000200160009054906101000a900473ffffffffffffffffffffffffffffffffffffffff1673ffffffffffffffffffffffffffffffffffffffff16857f8454e3c8276bd8eeb282eee28eb4faff9ab6f0a109f616c74cf2c6e41fa72b85844260405161419f929190615483565b60405180910390a35b80806141b390615727565b915050613ee7565b506141fc565b6141ca84614617565b156141dd576141d884613139565b6141fb565b8160060154600660008282546141f39190615568565b925050819055505b5b5b837ff00b58aac0bbbb25b6a610d2355d2105a8d9213b11fc46702d7583b44e8e513960405160405180910390a250505050565b61423861125e565b614277576040517f08c379a000000000000000000000000000000000000000000000000000000000815260040161426e90614ffd565b60405180910390fd5b60008060146101000a81548160ff0219169083151502179055507f5db9ee0a495bf2e6ff9c91a7834c1ba4fdd244a5e8aa4e537bd38aeae4b073aa6142ba613721565b6040516142c79190614f41565b60405180910390a1565b60008273ffffffffffffffffffffffffffffffffffffffff16826040516142f790614f2c565b60006040518083038185875af1925050503d8060008114614334576040519150601f19603f3d011682016040523d82523d6000602084013e614339565b606091505b505090508061437d576040517f08c379a000000000000000000000000000000000000000000000000000000000815260040161437490614fdd565b60405180910390fd5b505050565b60006143e4826040518060400160405280602081526020017f5361666545524332303a206c6f772d6c6576656c2063616c6c206661696c65648152508573ffffffffffffffffffffffffffffffffffffffff166146929092919063ffffffff16565b9050600081511115614444578080602001905181019061440491906148f9565b614443576040517f08c379a000000000000000000000000000000000000000000000000000000000815260040161443a9061531d565b60405180910390fd5b5b505050565b6003600581111561445d5761445c6157ce565b5b600d600083815260200190815260200160002060010160009054906101000a900460ff166005811115614493576144926157ce565b5b146144d3576040517f08c379a00000000000000000000000000000000000000000000000000000000081526004016144ca906152fd565b60405180910390fd5b6000600d6000838152602001908152602001600020905060008060006064600454856004015461450391906155ef565b61450d91906155be565b915083600701548460080154131561455657836002015492508184600401546145369190615649565b9050816006600082825461454a9190615568565b925050819055506145c0565b83600701548460080154121561459d578360030154925081846004015461457d9190615649565b905081600660008282546145919190615568565b925050819055506145bf565b600092506000905081600660008282546145b79190615568565b925050819055505b5b808460060181905550828460050181905550847f6dfdfcb09c8804d0058826cd2539f1acfbe3cb887c9be03d928035bce0f1a58d8483600654604051614608939291906154ac565b60405180910390a25050505050565b600080600d60008481526020019081526020016000206005015414801561465457506000600d600084815260200190815260200160002060060154145b801561468b5750600d600083815260200190815260200160002060080154600d600084815260200190815260200160002060070154145b9050919050565b60606146a184846000856146aa565b90509392505050565b6060824710156146ef576040517f08c379a00000000000000000000000000000000000000000000000000000000081526004016146e69061513d565b60405180910390fd5b6146f8856147be565b614737576040517f08c379a000000000000000000000000000000000000000000000000000000000815260040161472e906152dd565b60405180910390fd5b6000808673ffffffffffffffffffffffffffffffffffffffff1685876040516147609190614f15565b60006040518083038185875af1925050503d806000811461479d576040519150601f19603f3d011682016040523d82523d6000602084013e6147a2565b606091505b50915091506147b28282866147d1565b92505050949350505050565b600080823b905060008111915050919050565b606083156147e157829050614831565b6000835111156147f45782518084602001fd5b816040517f08c379a00000000000000000000000000000000000000000000000000000000081526004016148289190614fbb565b60405180910390fd5b9392505050565b60008135905061484781615f18565b92915050565b60008151905061485c81615f2f565b92915050565b60008135905061487181615f46565b92915050565b60008135905061488681615f5d565b92915050565b6000602082840312156148a2576148a161582c565b5b60006148b084828501614838565b91505092915050565b600080604083850312156148d0576148cf61582c565b5b60006148de85828601614838565b92505060206148ef85828601614877565b9150509250929050565b60006020828403121561490f5761490e61582c565b5b600061491d8482850161484d565b91505092915050565b60006020828403121561493c5761493b61582c565b5b600061494a84828501614862565b91505092915050565b6000602082840312156149695761496861582c565b5b600061497784828501614877565b91505092915050565b600080604083850312156149975761499661582c565b5b60006149a585828601614877565b92505060206149b685828601614838565b9150509250929050565b600080604083850312156149d7576149d661582c565b5b60006149e585828601614877565b92505060206149f685828601614877565b9150509250929050565b614a098161567d565b82525050565b614a188161568f565b82525050565b6000614a2982615536565b614a33818561554c565b9350614a438185602086016156f4565b80840191505092915050565b614a58816156e2565b82525050565b614a67816156ae565b82525050565b6000614a7882615541565b614a828185615557565b9350614a928185602086016156f4565b614a9b81615831565b840191505092915050565b6000614ab3601f83615557565b9150614abe82615842565b602082019050919050565b6000614ad6601483615557565b9150614ae18261586b565b602082019050919050565b6000614af9602583615557565b9150614b0482615894565b604082019050919050565b6000614b1c603283615557565b9150614b27826158e3565b604082019050919050565b6000614b3f602683615557565b9150614b4a82615932565b604082019050919050565b6000614b62601a83615557565b9150614b6d82615981565b602082019050919050565b6000614b85601483615557565b9150614b90826159aa565b602082019050919050565b6000614ba8601783615557565b9150614bb3826159d3565b602082019050919050565b6000614bcb602483615557565b9150614bd6826159fc565b604082019050919050565b6000614bee601883615557565b9150614bf982615a4b565b602082019050919050565b6000614c11601483615557565b9150614c1c82615a74565b602082019050919050565b6000614c34602683615557565b9150614c3f82615a9d565b604082019050919050565b6000614c57602c83615557565b9150614c6282615aec565b604082019050919050565b6000614c7a601083615557565b9150614c8582615b3b565b602082019050919050565b6000614c9d601683615557565b9150614ca882615b64565b602082019050919050565b6000614cc0601b83615557565b9150614ccb82615b8d565b602082019050919050565b6000614ce3601c83615557565b9150614cee82615bb6565b602082019050919050565b6000614d06601a83615557565b9150614d1182615bdf565b602082019050919050565b6000614d29602083615557565b9150614d3482615c08565b602082019050919050565b6000614d4c601d83615557565b9150614d5782615c31565b602082019050919050565b6000614d6f602383615557565b9150614d7a82615c5a565b604082019050919050565b6000614d92601583615557565b9150614d9d82615ca9565b602082019050919050565b6000614db5604683615557565b9150614dc082615cd2565b606082019050919050565b6000614dd8602d83615557565b9150614de382615d47565b604082019050919050565b6000614dfb60008361554c565b9150614e0682615d96565b600082019050919050565b6000614e1e601d83615557565b9150614e2982615d99565b602082019050919050565b6000614e41602783615557565b9150614e4c82615dc2565b604082019050919050565b6000614e64602a83615557565b9150614e6f82615e11565b604082019050919050565b6000614e87601f83615557565b9150614e9282615e60565b602082019050919050565b6000614eaa601583615557565b9150614eb582615e89565b602082019050919050565b6000614ecd600c83615557565b9150614ed882615eb2565b602082019050919050565b6000614ef0600983615557565b9150614efb82615edb565b602082019050919050565b614f0f816156d8565b82525050565b6000614f218284614a1e565b915081905092915050565b6000614f3782614dee565b9150819050919050565b6000602082019050614f566000830184614a00565b92915050565b6000604082019050614f716000830185614a00565b614f7e6020830184614f06565b9392505050565b6000602082019050614f9a6000830184614a0f565b92915050565b6000602082019050614fb56000830184614a5e565b92915050565b60006020820190508181036000830152614fd58184614a6d565b905092915050565b60006020820190508181036000830152614ff681614aa6565b9050919050565b6000602082019050818103600083015261501681614ac9565b9050919050565b6000602082019050818103600083015261503681614aec565b9050919050565b6000602082019050818103600083015261505681614b0f565b9050919050565b6000602082019050818103600083015261507681614b32565b9050919050565b6000602082019050818103600083015261509681614b55565b9050919050565b600060208201905081810360008301526150b681614b78565b9050919050565b600060208201905081810360008301526150d681614b9b565b9050919050565b600060208201905081810360008301526150f681614bbe565b9050919050565b6000602082019050818103600083015261511681614be1565b9050919050565b6000602082019050818103600083015261513681614c04565b9050919050565b6000602082019050818103600083015261515681614c27565b9050919050565b6000602082019050818103600083015261517681614c4a565b9050919050565b6000602082019050818103600083015261519681614c6d565b9050919050565b600060208201905081810360008301526151b681614c90565b9050919050565b600060208201905081810360008301526151d681614cb3565b9050919050565b600060208201905081810360008301526151f681614cd6565b9050919050565b6000602082019050818103600083015261521681614cf9565b9050919050565b6000602082019050818103600083015261523681614d1c565b9050919050565b6000602082019050818103600083015261525681614d3f565b9050919050565b6000602082019050818103600083015261527681614d62565b9050919050565b6000602082019050818103600083015261529681614d85565b9050919050565b600060208201905081810360008301526152b681614da8565b9050919050565b600060208201905081810360008301526152d681614dcb565b9050919050565b600060208201905081810360008301526152f681614e11565b9050919050565b6000602082019050818103600083015261531681614e34565b9050919050565b6000602082019050818103600083015261533681614e57565b9050919050565b6000602082019050818103600083015261535681614e7a565b9050919050565b6000602082019050818103600083015261537681614e9d565b9050919050565b6000602082019050818103600083015261539681614ec0565b9050919050565b600060208201905081810360008301526153b681614ee3565b9050919050565b60006020820190506153d26000830184614f06565b92915050565b6000610160820190506153ee600083018e614f06565b6153fb602083018d614a4f565b615408604083018c614f06565b615415606083018b614f06565b615422608083018a614f06565b61542f60a0830189614f06565b61543c60c0830188614f06565b61544960e0830187614a5e565b615457610100830186614a5e565b615465610120830185614f06565b615473610140830184614f06565b9c9b505050505050505050505050565b60006040820190506154986000830185614f06565b6154a56020830184614f06565b9392505050565b60006060820190506154c16000830186614f06565b6154ce6020830185614f06565b6154db6040830184614f06565b949350505050565b600060a0820190506154f86000830188614f06565b6155056020830187614f06565b6155126040830186614f06565b61551f6060830185614a5e565b61552c6080830184614a5e565b9695505050505050565b600081519050919050565b600081519050919050565b600081905092915050565b600082825260208201905092915050565b6000615573826156d8565b915061557e836156d8565b9250827fffffffffffffffffffffffffffffffffffffffffffffffffffffffffffffffff038211156155b3576155b2615770565b5b828201905092915050565b60006155c9826156d8565b91506155d4836156d8565b9250826155e4576155e361579f565b5b828204905092915050565b60006155fa826156d8565b9150615605836156d8565b9250817fffffffffffffffffffffffffffffffffffffffffffffffffffffffffffffffff048311821515161561563e5761563d615770565b5b828202905092915050565b6000615654826156d8565b915061565f836156d8565b92508282101561567257615671615770565b5b828203905092915050565b6000615688826156b8565b9050919050565b60008115159050919050565b60008190506156a982615f04565b919050565b6000819050919050565b600073ffffffffffffffffffffffffffffffffffffffff82169050919050565b6000819050919050565b60006156ed8261569b565b9050919050565b60005b838110156157125780820151818401526020810190506156f7565b83811115615721576000848401525b50505050565b6000615732826156d8565b91507fffffffffffffffffffffffffffffffffffffffffffffffffffffffffffffffff82141561576557615764615770565b5b600182019050919050565b7f4e487b7100000000000000000000000000000000000000000000000000000000600052601160045260246000fd5b7f4e487b7100000000000000000000000000000000000000000000000000000000600052601260045260246000fd5b7f4e487b7100000000000000000000000000000000000000000000000000000000600052602160045260246000fd5b7f4e487b7100000000000000000000000000000000000000000000000000000000600052603260045260246000fd5b600080fd5b6000601f19601f8301169050919050565b7f5472616e7366657248656c7065723a205452414e534645525f4641494c454400600082015250565b7f5061757361626c653a206e6f7420706175736564000000000000000000000000600082015250565b7f526f756e64206973206e6f742073746172746564206f7220656e64656420616c60008201527f7265616479000000000000000000000000000000000000000000000000000000602082015250565b7f43616e206f6e6c792072756e2061667465722067656e6573697343726561746560008201527f526f756e64206973207472696767657265640000000000000000000000000000602082015250565b7f4f776e61626c653a206e6577206f776e657220697320746865207a65726f206160008201527f6464726573730000000000000000000000000000000000000000000000000000602082015250565b7f546f6f206561726c7920746f20656e642074686520726f756e64000000000000600082015250565b7f436f6e7472616374206e6f7420616c6c6f776564000000000000000000000000600082015250565b7f526f756e642073686f756c642062652063726561746564000000000000000000600082015250565b7f43616e206f6e6c792072756e2067656e65736973437265617465526f756e642060008201527f6f6e636500000000000000000000000000000000000000000000000000000000602082015250565b7f54726561737572792066656520697320746f6f20686967680000000000000000600082015250565b7f526f756e6420616c726561647920657869737473000000000000000000000000600082015250565b7f416464726573733a20696e73756666696369656e742062616c616e636520666f60008201527f722063616c6c0000000000000000000000000000000000000000000000000000602082015250565b7f42657420616d6f756e74206d7573742062652067726561746572207468616e2060008201527f6d696e426574416d6f756e740000000000000000000000000000000000000000602082015250565b7f5061757361626c653a2070617573656400000000000000000000000000000000600082015250565b7f43616e6e6f74206265207a65726f206164647265737300000000000000000000600082015250565b7f546f6f206c61746520746f2073746172742074686520726f756e640000000000600082015250565b7f4275666665725365636f6e64732063616e6e6f74206265207a65726f00000000600082015250565b7f50726f787920636f6e7472616374206e6f7420616c6c6f776564000000000000600082015250565b7f4f776e61626c653a2063616c6c6572206973206e6f7420746865206f776e6572600082015250565b7f416d6f756e742063616e6e6f74206265207a65726f206f72206c657373000000600082015250565b7f43616e206f6e6c792072756e2067656e657369735374617274526f756e64206f60008201527f6e63650000000000000000000000000000000000000000000000000000000000602082015250565b7f4d757374206265207375706572696f7220746f20300000000000000000000000600082015250565b7f43616e206f6e6c792072756e2061667465722067656e6573697353746172745260008201527f6f756e6420616e642067656e657369734c6f636b526f756e642069732074726960208201527f6767657265640000000000000000000000000000000000000000000000000000604082015250565b7f526f756e64206973206e6f7420637265617465642f73746172746564206f722060008201527f656e64656420616c726561647900000000000000000000000000000000000000602082015250565b50565b7f416464726573733a2063616c6c20746f206e6f6e2d636f6e7472616374000000600082015250565b7f526f756e64206973206e6f7420656e646564206f7220616c726561647920646960008201527f7370657273656400000000000000000000000000000000000000000000000000602082015250565b7f5361666545524332303a204552433230206f7065726174696f6e20646964206e60008201527f6f74207375636365656400000000000000000000000000000000000000000000602082015250565b7f5265656e7472616e637947756172643a207265656e7472616e742063616c6c00600082015250565b7f42657420697320746f6f206561726c792f6c6174650000000000000000000000600082015250565b7f4e6f74206f70657261746f720000000000000000000000000000000000000000600082015250565b7f4e6f742061646d696e0000000000000000000000000000000000000000000000600082015250565b60068110615f1557615f146157ce565b5b50565b615f218161567d565b8114615f2c57600080fd5b50565b615f388161568f565b8114615f4357600080fd5b50565b615f4f816156ae565b8114615f5a57600080fd5b50565b615f66816156d8565b8114615f7157600080fd5b5056fea26469706673582212205be6c1e64eae4ef1973c925e86d3b96dd4d41798be14d2d9af86a681ce23ca0d64736f6c63430008070033",
  "immutableReferences": {},
  "source": "// SPDX-License-Identifier: MIT\n\npragma solidity ^0.8.7;\n\nimport \"./PredictionAdministrator.sol\";\n\n/**\n * @title BetBeePrediction\n */\ncontract BetBeePrediction is PredictionAdministrator {\n\n    uint256 public currentRoundId;\n    uint256 public roundTime = 300; //5 mintues of round\n    uint256 public genesisStartTimestamp;\n    uint256 public bufferSeconds = 30; // buffer in seconds. default 30 seconds\n\n    bool public genesisStartOnce = false;\n    bool public genesisCreateOnce = false;\n\n    enum RoundState {UNKNOWN, CREATED, STARTED, ENDED, DISPERSED, CANCELLED}\n\n    struct Round \n    {\n        uint256 roundId;\n        RoundState roundState;\n        uint256 bullAmount;\n        uint256 bearAmount;\n        uint256 totalAmount;\n        uint256 rewardBaseCalAmount;\n        uint256 rewardAmount;\n        int256 startPrice;\n        int256 endPrice;\n        uint256 startTimestamp;\n        uint256 endTimestamp;\n    }\n\n    struct BetInfo {\n        uint256 bullAmount;\n        uint256 bearAmount;\n        uint256 amountDispersed;\n    }\n\n    mapping(uint256 => Round) public rounds;\n    mapping(uint256 => mapping(address => BetInfo)) public ledger;\n    mapping(address => uint256[]) public userRounds;\n    mapping(uint256 => address[]) public usersInRounds;\n\n    event Paused(uint256 currentRoundId);\n    event UnPaused(uint256 currentRoundId);\n\n    event CreateRound(uint256 indexed roundId);\n    event StartRound(uint256 indexed roundId, int256 startPrice);\n    event EndRound(uint256 indexed roundId, int256 endPrice);\n    event CancelRound(uint256 indexed roundId);\n    event DisperseUser(uint256 indexed roundId, address indexed recipient, uint256 amountDispersed, uint256 timestamp);\n    event Disperse(uint256 indexed roundId);\n    event BetBull(address indexed sender, uint256 indexed roundId, uint256 amount);\n    event BetBear(address indexed sender, uint256 indexed roundId, uint256 amount);\n    event RewardsCalculated(uint256 indexed roundId, uint256 rewardBaseCalAmount, uint256 rewardAmount, uint256 treasuryAmount);\n    event Refund(uint256 indexed roundId, address indexed recipient, uint256 refundDispersed, uint256 timestamp);\n\n    /**\n     * @notice Pause the contract\n     * @dev Callable by admin\n     */\n    function pause() external whenNotPaused onlyAdmin {\n        _pause();\n\n        emit Paused(currentRoundId);\n    }\n\n    /**\n     * @notice Unpuase the contract\n     * @dev Callable by admin\n     */\n    function unPause() external whenPaused onlyAdmin {\n        genesisCreateOnce = false;\n        genesisStartOnce = false;\n        _unpause();\n\n        emit Paused(currentRoundId);\n    }\n\n    /**\n    * @notice Set Buffer Seconds\n    * @param _bufferSeconds: buffer in seconds\n    */\n    function setBufferSeconds(uint256 _bufferSeconds) external whenPaused onlyAdmin notContract {\n        require(_bufferSeconds > 0, \"BufferSeconds cannot be zero\");\n        bufferSeconds = _bufferSeconds;\n    }\n\n    /**\n    * @notice Create Round\n    * @param roundId: round Id \n    */\n    function _createRound(uint256 roundId) internal {\n        require(rounds[roundId].roundId == 0, \"Round already exists\");\n        rounds[roundId].roundId = roundId;\n        rounds[roundId].startTimestamp = (genesisStartTimestamp + (roundTime * roundId));\n        rounds[roundId].endTimestamp = rounds[roundId].startTimestamp + roundTime;\n        rounds[roundId].roundState = RoundState.CREATED;\n\n        emit CreateRound(roundId);\n    }\n\n    /**\n    * @notice Start Round\n    * @param roundId: round Id \n    * @param startPrice: startPrice\n    */\n   function _startRound(uint256 roundId, int256 startPrice) internal {\n       require(rounds[roundId].roundState == RoundState.CREATED, \"Round should be created\");\n       require(rounds[roundId].startTimestamp >= (block.timestamp - bufferSeconds), \"Too late to start the round\");\n       rounds[roundId].startPrice = startPrice;\n       rounds[roundId].roundState = RoundState.STARTED;\n\n       emit StartRound(roundId, startPrice);\n    }\n\n    /**\n    * @notice End Round\n    * @param roundId: round Id \n    * @param endPrice: endPrice\n    */\n    function _endRound(uint256 roundId, int256 endPrice) internal {\n        require(rounds[roundId].roundState == RoundState.STARTED, \"Round is not started or ended already\");\n        require(rounds[roundId].endTimestamp <= block.timestamp, \"Too early to end the round\");\n        rounds[roundId].endPrice = endPrice;\n        rounds[roundId].roundState = RoundState.ENDED;\n\n        emit EndRound(roundId, endPrice);\n    }\n\n    /**\n    * @notice Cancel and Refund Round\n    * @param _roundId: round Id\n    */\n    function cancelAndRefundRound(uint256 _roundId) external onlyOperator notContract {\n        require(rounds[_roundId].roundState == RoundState.CREATED || rounds[_roundId].roundState == RoundState.STARTED, \"Round is not created/started or ended already\");\n        rounds[_roundId].startPrice = 0;\n        rounds[_roundId].endPrice = 0;\n        rounds[_roundId].rewardBaseCalAmount = 0;\n        rounds[_roundId].rewardAmount = 0;\n        rounds[_roundId].roundState = RoundState.CANCELLED;\n\n        _refund(_roundId);\n\n        emit CancelRound(_roundId);\n    }\n\n    /**\n    * @notice Calculate Rewards for the round\n    * @param roundId: round Id \n    */\n    function _calculateRewards(uint256 roundId) internal {\n        require(rounds[roundId].roundState == RoundState.ENDED, \"Round is not ended or already dispersed\");\n        Round storage round = rounds[roundId];\n        uint256 rewardBaseCalAmount;\n        uint256 treasuryAmt;\n        uint256 rewardAmount;\n\n        treasuryAmt = (round.totalAmount * treasuryFee) / 100;\n\n        // Bull wins\n        if (round.endPrice > round.startPrice) {\n            rewardBaseCalAmount = round.bullAmount;\n            rewardAmount = round.totalAmount - treasuryAmt;\n            treasuryAmount += treasuryAmt;\n        }\n        // Bear wins\n        else if (round.endPrice < round.startPrice) {\n            rewardBaseCalAmount = round.bearAmount;\n            rewardAmount = round.totalAmount - treasuryAmt;\n            treasuryAmount += treasuryAmt;\n        }\n        // draw or tie\n        else {\n            rewardBaseCalAmount = 0;\n            rewardAmount = 0;\n            treasuryAmount += treasuryAmt;\n        }\n        \n        round.rewardAmount = rewardAmount;\n        round.rewardBaseCalAmount = rewardBaseCalAmount;\n\n        emit RewardsCalculated(roundId, rewardBaseCalAmount, rewardAmount, treasuryAmount);\n    }\n\n    /**\n    * @notice Transfer \n    * @param to: recipient address\n    * @param value: value \n    */\n    function _safeTransfer(address to, uint256 value) internal {\n        (bool success, ) = to.call{value: value}(\"\");\n        require(success, \"TransferHelper: TRANSFER_FAILED\");\n    }\n\n    /**\n    * @notice Check whether the round is refundable\n    * @param roundId: round Id \n    */\n    function _refundable(uint256 roundId) internal view returns(bool) {\n        return rounds[roundId].rewardBaseCalAmount == 0 &&\n               rounds[roundId].rewardAmount == 0 &&\n               rounds[roundId].startPrice == rounds[roundId].endPrice;\n    }\n\n    /**\n    * @notice Refund the round\n    * @param roundId: round Id\n    */\n    function _refund(uint256 roundId) internal {\n            uint256 userTotalBetAmount = 0;\n            uint256 userTotalRefund = 0;\n            address[] storage usersInRound = usersInRounds[roundId];\n            for (uint256 i =0; i < usersInRound.length; i++) {\n                userTotalBetAmount = ledger[roundId][usersInRound[i]].bullAmount + ledger[roundId][usersInRound[i]].bearAmount;\n\n                if(userTotalBetAmount > 0) {\n                    userTotalRefund = userTotalBetAmount - ((userTotalBetAmount * treasuryFee) / 100);\n                    ledger[roundId][usersInRound[i]].amountDispersed = userTotalRefund;\n                    _safeTransfer(usersInRound[i], userTotalRefund);\n                    emit Refund(roundId, usersInRound[i], userTotalRefund, block.timestamp);\n                }\n            }\n    }\n\n    /**\n    * @notice Disperse Rewards for the round\n    * @param roundId: round Id \n    */\n    function _disperse(uint256 roundId) internal whenNotPaused {\n        require(rounds[roundId].roundState == RoundState.ENDED, \"Round is not ended or already dispersed\");\n        \n        //calculate rewards before disperse\n        _calculateRewards(roundId);\n\n        address[] storage usersInRound = usersInRounds[roundId];\n        Round storage round = rounds[roundId];\n        uint256 reward = 0;\n\n        round.roundState = RoundState.DISPERSED;\n\n        //bull disperse\n        if(round.rewardBaseCalAmount == round.bullAmount && round.rewardBaseCalAmount > 0) {\n            for (uint256 i =0; i < usersInRound.length; i++) {\n                if(ledger[roundId][usersInRound[i]].bullAmount > 0) {\n                    reward = (ledger[roundId][usersInRound[i]].bullAmount * round.rewardAmount) / round.rewardBaseCalAmount;\n                    ledger[roundId][usersInRound[i]].amountDispersed = reward;\n                    _safeTransfer(usersInRound[i], reward);\n\n                    emit DisperseUser(roundId, usersInRound[i], reward, block.timestamp);\n                }\n            }\n        }\n\n        //bear disperse\n        else if(round.rewardBaseCalAmount == round.bearAmount && round.rewardBaseCalAmount > 0) {\n            for (uint256 i =0; i < usersInRound.length; i++) {\n                if(ledger[roundId][usersInRound[i]].bearAmount > 0) {\n                    reward = (ledger[roundId][usersInRound[i]].bearAmount * round.rewardAmount) / round.rewardBaseCalAmount;\n                    ledger[roundId][usersInRound[i]].amountDispersed = reward;\n                    _safeTransfer(usersInRound[i], reward);\n\n                    emit DisperseUser(roundId, usersInRound[i], reward, block.timestamp);\n                }\n            }\n        }\n\n        //refund if tied round\n        else if(_refundable(roundId)) {\n            _refund(roundId);\n        }\n\n        //house wins\n        else {\n            treasuryAmount += round.rewardAmount;\n        }\n\n        emit Disperse(roundId);\n    }\n\n    /**\n    * @notice Bet Bull position\n    * @param _roundId: Round Id \n    */\n    function betBull(uint256 _roundId) external payable whenNotPaused nonReentrant notContract {\n        require(rounds[_roundId].roundState == RoundState.CREATED, \"Bet is too early/late\");\n        require(msg.value >= minBetAmount, \"Bet amount must be greater than minBetAmount\");\n\n        // Update round data\n        uint256 amount = msg.value;\n        Round storage round = rounds[_roundId];\n        BetInfo storage betInfo = ledger[_roundId][msg.sender];\n\n        round.totalAmount = round.totalAmount + amount;\n        round.bullAmount = round.bullAmount + amount;\n\n        // Update user data\n        if(ledger[_roundId][msg.sender].bullAmount == 0 && ledger[_roundId][msg.sender].bearAmount == 0) {\n            userRounds[msg.sender].push(_roundId);\n            usersInRounds[_roundId].push(msg.sender);\n        }\n\n        betInfo.bullAmount = betInfo.bullAmount + amount;\n\n        emit BetBull(msg.sender, _roundId, msg.value);\n    }\n\n    /**\n    * @notice Bet Bear position\n    * @param _roundId: Round Id \n    */\n    function betBear(uint256 _roundId) external payable whenNotPaused nonReentrant notContract {\n        require(rounds[_roundId].roundState == RoundState.CREATED, \"Bet is too early/late\");\n        require(msg.value >= minBetAmount, \"Bet amount must be greater than minBetAmount\");\n\n        // Update round data\n        uint256 amount = msg.value;\n        Round storage round = rounds[_roundId];\n        round.totalAmount = round.totalAmount + amount;\n        round.bearAmount = round.bearAmount + amount;\n\n        // Update user data\n        BetInfo storage betInfo = ledger[_roundId][msg.sender];\n        if(ledger[_roundId][msg.sender].bullAmount == 0 && ledger[_roundId][msg.sender].bearAmount == 0) {\n            userRounds[msg.sender].push(_roundId);\n            usersInRounds[_roundId].push(msg.sender);\n        }\n\n        betInfo.bearAmount = betInfo.bearAmount + amount;\n\n        emit BetBear(msg.sender, _roundId, msg.value);\n    }\n\n    /**\n    * @notice Create Genesis round\n    * @dev callable by Operator\n    * @param _genesisStartTimestamp: genesis round start timestamp\n    */\n    function genesisCreateRound(uint256 _genesisStartTimestamp) external whenNotPaused onlyOperator notContract {\n        require(!genesisCreateOnce, \"Can only run genesisCreateRound once\");\n        currentRoundId = 0;\n        genesisStartTimestamp = _genesisStartTimestamp;\n        _createRound(currentRoundId);\n        genesisCreateOnce = true;\n    }\n\n    /**\n    * @notice Start Genesis round\n    * @dev callable by Operator\n    */\n    function genesisStartRound(int256 _price) external whenNotPaused onlyOperator notContract {\n        require(genesisCreateOnce, \"Can only run after genesisCreateRound is triggered\");\n        require(!genesisStartOnce, \"Can only run genesisStartRound once\");\n        //(,int256 price) = _getLatestPrice();\n        _startRound(currentRoundId, _price);\n\n        //create next 2 rounds to be able to bet by users\n        _createRound(currentRoundId+1);\n        _createRound(currentRoundId+2);\n\n        genesisStartOnce = true;\n    }\n\n    /**\n    * @notice Execute round\n    * @dev Callable by Operator\n    * @param _price: price\n    */\n    function executeRound(int256 _price) external whenNotPaused onlyOperator notContract {\n        require(genesisCreateOnce && genesisStartOnce, \"Can only run after genesisStartRound and genesisLockRound is triggered\");\n\n        // currentRoundId refers to current round n\n\n        // Start next round\n        _startRound(currentRoundId+1, _price);\n\n        // End and Disperse current round\n        _endRound(currentRoundId, _price);\n\n        // Create a new round n+3\n        _createRound(currentRoundId+3);\n\n        // disperse the current round\n        if(rounds[currentRoundId].totalAmount > 0) {\n            _disperse(currentRoundId);\n        }\n\n        // Point currentRoundId to next round\n        currentRoundId = currentRoundId + 1;\n    }\n\n    /**\n    * @notice get round data\n    * @param _roundId: round Id\n    * @return roundState\n    * @return bullAmount\n    * @return bearAmount\n    * @return startPrice\n    * @return EndPrice\n    */\n    function getRound(uint256 _roundId) view external returns(uint256, uint256, uint256, int256, int256) {\n        Round storage round = rounds[_roundId];\n        return(uint256(round.roundState), round.bullAmount, round.bearAmount, round.startPrice, round.endPrice);\n    }\n\n    /** \n    * @notice get User bets\n    * @param _roundId: round Id\n    * @param _userAddress: user address\n    * @return userBullAmount\n    * @return userBearAmount\n    */\n    function getUserBetAmount(uint256 _roundId, address _userAddress) view external returns(uint256, uint256) {\n        return(ledger[_roundId][_userAddress].bullAmount, ledger[_roundId][_userAddress].bearAmount);\n    }\n\n    /**\n    * @notice get endtime of current round\n    * @return endTimestamp\n    */\n    function getCurrentRoundEndTime() view external returns(uint256) {\n        return(rounds[currentRoundId].endTimestamp);\n    }\n\n}\n",
  "sourcePath": "/Users/rangs/betbee/betbee-monorepo/contracts/prediction/BetBeePrediction.sol",
  "compiler": {
    "name": "solc",
    "version": "0.8.7+commit.e28d00a7.Emscripten.clang"
  },
  "schemaVersion": "3.4.3",
  "updatedAt": "2022-01-31T18:19:51.968Z",
  "networkType": "ethereum",
  "devdoc": {
    "kind": "dev",
    "methods": {
      "betBear(uint256)": {
        "params": {
          "_roundId": ": Round Id "
        }
      },
      "betBull(uint256)": {
        "params": {
          "_roundId": ": Round Id "
        }
      },
      "cancelAndRefundRound(uint256)": {
        "params": {
          "_roundId": ": round Id"
        }
      },
      "claimTreasury()": {
        "details": "Callable by admin"
      },
      "executeRound(int256)": {
        "details": "Callable by Operator",
        "params": {
          "_price": ": price"
        }
      },
      "genesisCreateRound(uint256)": {
        "details": "callable by Operator",
        "params": {
          "_genesisStartTimestamp": ": genesis round start timestamp"
        }
      },
      "genesisStartRound(int256)": {
        "details": "callable by Operator"
      },
      "getCurrentRoundEndTime()": {
        "returns": {
          "_0": "endTimestamp"
        }
      },
      "getRound(uint256)": {
        "params": {
          "_roundId": ": round Id"
        },
        "returns": {
          "_0": "roundState",
          "_1": "bullAmount",
          "_2": "bearAmount",
          "_3": "startPrice",
          "_4": "EndPrice"
        }
      },
      "getUserBetAmount(uint256,address)": {
        "params": {
          "_roundId": ": round Id",
          "_userAddress": ": user address"
        },
        "returns": {
          "_0": "userBullAmount",
          "_1": "userBearAmount"
        }
      },
      "owner()": {
        "details": "Returns the address of the current owner."
      },
      "pause()": {
        "details": "Callable by admin"
      },
      "paused()": {
        "details": "Returns true if the contract is paused, and false otherwise."
      },
      "recoverToken(address,uint256)": {
        "details": "Callable by owner",
        "params": {
          "_amount": ": token amount",
          "_token": ": token address"
        }
      },
      "renounceOwnership()": {
        "details": "Leaves the contract without owner. It will not be possible to call `onlyOwner` functions anymore. Can only be called by the current owner. NOTE: Renouncing ownership will leave the contract without an owner, thereby removing any functionality that is only available to the owner."
      },
      "setAdmin(address)": {
        "details": "callable by Owner of the contract",
        "params": {
          "_admin": ": new admin address"
        }
      },
      "setBufferSeconds(uint256)": {
        "params": {
          "_bufferSeconds": ": buffer in seconds"
        }
      },
      "setClaimableTreasuryPercent(uint256)": {
        "details": "callable by Admin",
        "params": {
          "_claimableTreasuryPercent": ": claimable percent"
        }
      },
      "setMinBetAmount(uint256)": {
        "details": "Callable by admin",
        "params": {
          "_minBetAmount": ": minimum bet amount to be set"
        }
      },
      "setOperator(address)": {
        "details": "callable by Owner of the contract",
        "params": {
          "_operator": ": new operator address"
        }
      },
      "setTreasuryFee(uint256)": {
        "details": "Callable by admin",
        "params": {
          "_treasuryFee": ": new treasury fee"
        }
      },
      "transferOwnership(address)": {
        "details": "Transfers ownership of the contract to a new account (`newOwner`). Can only be called by the current owner."
      },
      "unPause()": {
        "details": "Callable by admin"
      }
    },
    "title": "BetBeePrediction",
    "version": 1
  },
  "userdoc": {
    "kind": "user",
    "methods": {
      "betBear(uint256)": {
        "notice": "Bet Bear position"
      },
      "betBull(uint256)": {
        "notice": "Bet Bull position"
      },
      "cancelAndRefundRound(uint256)": {
        "notice": "Cancel and Refund Round"
      },
      "claimTreasury()": {
        "notice": "Claim 80% of treasury fund - collected as fee"
      },
      "executeRound(int256)": {
        "notice": "Execute round"
      },
      "genesisCreateRound(uint256)": {
        "notice": "Create Genesis round"
      },
      "genesisStartRound(int256)": {
        "notice": "Start Genesis round"
      },
      "getCurrentRoundEndTime()": {
        "notice": "get endtime of current round"
      },
      "getRound(uint256)": {
        "notice": "get round data"
      },
      "getUserBetAmount(uint256,address)": {
        "notice": "get User bets"
      },
      "pause()": {
        "notice": "Pause the contract"
      },
      "recoverToken(address,uint256)": {
        "notice": "Recover tokens sent by mistake"
      },
      "setAdmin(address)": {
        "notice": "Set admin"
      },
      "setBufferSeconds(uint256)": {
        "notice": "Set Buffer Seconds"
      },
      "setClaimableTreasuryPercent(uint256)": {
        "notice": "Set Claimabble Treasury Percent"
      },
      "setMinBetAmount(uint256)": {
        "notice": "Set minBetAmount"
      },
      "setOperator(address)": {
        "notice": "Set operator"
      },
      "setTreasuryFee(uint256)": {
        "notice": "Set Treasury Fee"
      },
      "unPause()": {
        "notice": "Unpuase the contract"
      }
    },
    "version": 1
  }
}