{
  "contractName": "DiceAdministrator",
  "abi": [
    {
      "inputs": [
        {
          "internalType": "address",
          "name": "_adminAddress",
          "type": "address"
        },
        {
          "internalType": "uint256",
          "name": "_minBetAmount",
          "type": "uint256"
        },
        {
          "internalType": "uint256",
          "name": "_maxBetAmount",
          "type": "uint256"
        },
        {
          "internalType": "uint256",
          "name": "_minVRFBetAmount",
          "type": "uint256"
        },
        {
          "internalType": "uint256",
          "name": "_treasuryFee",
          "type": "uint256"
        }
      ],
      "stateMutability": "nonpayable",
      "type": "constructor"
    },
    {
      "anonymous": false,
      "inputs": [
        {
          "indexed": true,
          "internalType": "address",
          "name": "admin",
          "type": "address"
        }
      ],
      "name": "NewAdmin",
      "type": "event"
    },
    {
      "anonymous": false,
      "inputs": [
        {
          "indexed": false,
          "internalType": "uint256",
          "name": "claimableTreasuryPercent",
          "type": "uint256"
        }
      ],
      "name": "NewClaimableTreasuryPercent",
      "type": "event"
    },
    {
      "anonymous": false,
      "inputs": [
        {
          "indexed": false,
          "internalType": "uint256",
          "name": "minBetAmount",
          "type": "uint256"
        }
      ],
      "name": "NewMaxBetAmount",
      "type": "event"
    },
    {
      "anonymous": false,
      "inputs": [
        {
          "indexed": false,
          "internalType": "uint256",
          "name": "minBetAmount",
          "type": "uint256"
        }
      ],
      "name": "NewMinBetAmount",
      "type": "event"
    },
    {
      "anonymous": false,
      "inputs": [
        {
          "indexed": false,
          "internalType": "uint256",
          "name": "minBetAmount",
          "type": "uint256"
        }
      ],
      "name": "NewMinVRFBetAmount",
      "type": "event"
    },
    {
      "anonymous": false,
      "inputs": [
        {
          "indexed": false,
          "internalType": "uint256",
          "name": "treasuryFee",
          "type": "uint256"
        }
      ],
      "name": "NewTreasuryFee",
      "type": "event"
    },
    {
      "anonymous": false,
      "inputs": [
        {
          "indexed": true,
          "internalType": "address",
          "name": "previousOwner",
          "type": "address"
        },
        {
          "indexed": true,
          "internalType": "address",
          "name": "newOwner",
          "type": "address"
        }
      ],
      "name": "OwnershipTransferred",
      "type": "event"
    },
    {
      "anonymous": false,
      "inputs": [
        {
          "indexed": false,
          "internalType": "address",
          "name": "account",
          "type": "address"
        }
      ],
      "name": "Paused",
      "type": "event"
    },
    {
      "anonymous": false,
      "inputs": [
        {
          "indexed": true,
          "internalType": "address",
          "name": "admin",
          "type": "address"
        },
        {
          "indexed": false,
          "internalType": "uint256",
          "name": "amount",
          "type": "uint256"
        }
      ],
      "name": "TreasuryClaim",
      "type": "event"
    },
    {
      "anonymous": false,
      "inputs": [
        {
          "indexed": false,
          "internalType": "address",
          "name": "account",
          "type": "address"
        }
      ],
      "name": "Unpaused",
      "type": "event"
    },
    {
      "inputs": [],
      "name": "MAX_TREASURY_FEE",
      "outputs": [
        {
          "internalType": "uint256",
          "name": "",
          "type": "uint256"
        }
      ],
      "stateMutability": "view",
      "type": "function"
    },
    {
      "inputs": [],
      "name": "claimableTreasuryPercent",
      "outputs": [
        {
          "internalType": "uint256",
          "name": "",
          "type": "uint256"
        }
      ],
      "stateMutability": "view",
      "type": "function"
    },
    {
      "inputs": [],
      "name": "maxBetAmount",
      "outputs": [
        {
          "internalType": "uint256",
          "name": "",
          "type": "uint256"
        }
      ],
      "stateMutability": "view",
      "type": "function"
    },
    {
      "inputs": [],
      "name": "minBetAmount",
      "outputs": [
        {
          "internalType": "uint256",
          "name": "",
          "type": "uint256"
        }
      ],
      "stateMutability": "view",
      "type": "function"
    },
    {
      "inputs": [],
      "name": "minVRFBetAmount",
      "outputs": [
        {
          "internalType": "uint256",
          "name": "",
          "type": "uint256"
        }
      ],
      "stateMutability": "view",
      "type": "function"
    },
    {
      "inputs": [],
      "name": "owner",
      "outputs": [
        {
          "internalType": "address",
          "name": "",
          "type": "address"
        }
      ],
      "stateMutability": "view",
      "type": "function"
    },
    {
      "inputs": [],
      "name": "paused",
      "outputs": [
        {
          "internalType": "bool",
          "name": "",
          "type": "bool"
        }
      ],
      "stateMutability": "view",
      "type": "function"
    },
    {
      "inputs": [],
      "name": "renounceOwnership",
      "outputs": [],
      "stateMutability": "nonpayable",
      "type": "function"
    },
    {
      "inputs": [
        {
          "internalType": "address",
          "name": "newOwner",
          "type": "address"
        }
      ],
      "name": "transferOwnership",
      "outputs": [],
      "stateMutability": "nonpayable",
      "type": "function"
    },
    {
      "inputs": [],
      "name": "treasuryAmount",
      "outputs": [
        {
          "internalType": "uint256",
          "name": "",
          "type": "uint256"
        }
      ],
      "stateMutability": "view",
      "type": "function"
    },
    {
      "inputs": [],
      "name": "treasuryFee",
      "outputs": [
        {
          "internalType": "uint256",
          "name": "",
          "type": "uint256"
        }
      ],
      "stateMutability": "view",
      "type": "function"
    },
    {
      "stateMutability": "payable",
      "type": "receive"
    },
    {
      "inputs": [
        {
          "internalType": "uint256",
          "name": "_minVRFBetAmount",
          "type": "uint256"
        }
      ],
      "name": "setMinVRFBetAmount",
      "outputs": [],
      "stateMutability": "nonpayable",
      "type": "function"
    },
    {
      "inputs": [
        {
          "internalType": "uint256",
          "name": "_minBetAmount",
          "type": "uint256"
        }
      ],
      "name": "setMinBetAmount",
      "outputs": [],
      "stateMutability": "nonpayable",
      "type": "function"
    },
    {
      "inputs": [
        {
          "internalType": "uint256",
          "name": "_maxBetAmount",
          "type": "uint256"
        }
      ],
      "name": "setMaxBetAmount",
      "outputs": [],
      "stateMutability": "nonpayable",
      "type": "function"
    },
    {
      "inputs": [
        {
          "internalType": "uint256",
          "name": "_treasuryFee",
          "type": "uint256"
        }
      ],
      "name": "setTreasuryFee",
      "outputs": [],
      "stateMutability": "nonpayable",
      "type": "function"
    },
    {
      "inputs": [
        {
          "internalType": "address",
          "name": "_admin",
          "type": "address"
        }
      ],
      "name": "setAdmin",
      "outputs": [],
      "stateMutability": "nonpayable",
      "type": "function"
    },
    {
      "inputs": [
        {
          "internalType": "uint256",
          "name": "_claimableTreasuryPercent",
          "type": "uint256"
        }
      ],
      "name": "setClaimableTreasuryPercent",
      "outputs": [],
      "stateMutability": "nonpayable",
      "type": "function"
    },
    {
      "inputs": [],
      "name": "claimTreasury",
      "outputs": [],
      "stateMutability": "nonpayable",
      "type": "function"
    },
    {
      "inputs": [],
      "name": "getAdmin",
      "outputs": [
        {
          "internalType": "address",
          "name": "",
          "type": "address"
        }
      ],
      "stateMutability": "view",
      "type": "function"
    }
  ],
  "bytecode": "0x608060405260506008553480156200001657600080fd5b50604051620020ac380380620020ac83398181016040528101906200003c919062000323565b6200005c620000506200022960201b60201c565b6200023160201b60201c565b60008060146101000a81548160ff0219169083151502179055506001808190555060008411620000c3576040517f08c379a0000000000000000000000000000000000000000000000000000000008152600401620000ba906200048b565b60405180910390fd5b6003811062000109576040517f08c379a0000000000000000000000000000000000000000000000000000000008152600401620001009062000469565b60405180910390fd5b600073ffffffffffffffffffffffffffffffffffffffff168573ffffffffffffffffffffffffffffffffffffffff1614156200017c576040517f08c379a0000000000000000000000000000000000000000000000000000000008152600401620001739062000447565b60405180910390fd5b838311620001c1576040517f08c379a0000000000000000000000000000000000000000000000000000000008152600401620001b890620004ad565b60405180910390fd5b84600260006101000a81548173ffffffffffffffffffffffffffffffffffffffff021916908373ffffffffffffffffffffffffffffffffffffffff16021790555083600481905550826006819055508160058190555080600381905550505050505062000621565b600033905090565b60008060009054906101000a900473ffffffffffffffffffffffffffffffffffffffff169050816000806101000a81548173ffffffffffffffffffffffffffffffffffffffff021916908373ffffffffffffffffffffffffffffffffffffffff1602179055508173ffffffffffffffffffffffffffffffffffffffff168173ffffffffffffffffffffffffffffffffffffffff167f8be0079c531659141344cd1fd0a4f28419497f9722a3daafe3b4186f6b6457e060405160405180910390a35050565b6000815190506200030681620005ed565b92915050565b6000815190506200031d8162000607565b92915050565b600080600080600060a086880312156200034257620003416200051e565b5b60006200035288828901620002f5565b955050602062000365888289016200030c565b945050604062000378888289016200030c565b93505060606200038b888289016200030c565b92505060806200039e888289016200030c565b9150509295509295909350565b6000620003ba601583620004cf565b9150620003c78262000523565b602082019050919050565b6000620003e1601883620004cf565b9150620003ee826200054c565b602082019050919050565b600062000408601683620004cf565b9150620004158262000575565b602082019050919050565b60006200042f602383620004cf565b91506200043c826200059e565b604082019050919050565b600060208201905081810360008301526200046281620003ab565b9050919050565b600060208201905081810360008301526200048481620003d2565b9050919050565b60006020820190508181036000830152620004a681620003f9565b9050919050565b60006020820190508181036000830152620004c88162000420565b9050919050565b600082825260208201905092915050565b6000620004ed82620004f4565b9050919050565b600073ffffffffffffffffffffffffffffffffffffffff82169050919050565b6000819050919050565b600080fd5b7f496e76616c69642061646d696e20616464726573730000000000000000000000600082015250565b7f54726561737572792066656520697320746f6f20686967680000000000000000600082015250565b7f496e76616c6964204d696e2062657420616d6f756e7400000000000000000000600082015250565b7f6d61782062657420616d6f756e74206c657373207468616e206d696e20616d6f60008201527f756e740000000000000000000000000000000000000000000000000000000000602082015250565b620005f881620004e0565b81146200060457600080fd5b50565b620006128162000514565b81146200061e57600080fd5b50565b611a7b80620006316000396000f3fe6080604052600436106101175760003560e01c80637cfbc7a5116100a0578063cab11d5d11610064578063cab11d5d14610349578063cc32d17614610374578063f2b3c8091461039f578063f2fde38b146103ca578063fa968eea146103f35761011e565b80637cfbc7a51461027657806383e90ec41461029f5780638da5cb5b146102c85780638e87a5a6146102f3578063bddaca431461031e5761011e565b80636c188593116100e75780636c188593146101b95780636e9960c3146101e2578063704b6c021461020d578063715018a61461023657806377e741c71461024d5761011e565b80623bdc741461012357806319446cd41461013a578063368acb09146101635780635c975abb1461018e5761011e565b3661011e57005b600080fd5b34801561012f57600080fd5b5061013861041e565b005b34801561014657600080fd5b50610161600480360381019061015c9190611275565b610735565b005b34801561016f57600080fd5b5061017861084b565b6040516101859190611661565b60405180910390f35b34801561019a57600080fd5b506101a3610851565b6040516101b091906114c6565b60405180910390f35b3480156101c557600080fd5b506101e060048036038101906101db9190611275565b610867565b005b3480156101ee57600080fd5b506101f76109c3565b60405161020491906114ab565b60405180910390f35b34801561021957600080fd5b50610234600480360381019061022f9190611248565b6109ed565b005b34801561024257600080fd5b5061024b610b60565b005b34801561025957600080fd5b50610274600480360381019061026f9190611275565b610be8565b005b34801561028257600080fd5b5061029d60048036038101906102989190611275565b610d43565b005b3480156102ab57600080fd5b506102c660048036038101906102c19190611275565b610e9f565b005b3480156102d457600080fd5b506102dd610ffb565b6040516102ea91906114ab565b60405180910390f35b3480156102ff57600080fd5b50610308611024565b6040516103159190611661565b60405180910390f35b34801561032a57600080fd5b5061033361102a565b6040516103409190611661565b60405180910390f35b34801561035557600080fd5b5061035e611030565b60405161036b9190611661565b60405180910390f35b34801561038057600080fd5b50610389611036565b6040516103969190611661565b60405180910390f35b3480156103ab57600080fd5b506103b461103c565b6040516103c19190611661565b60405180910390f35b3480156103d657600080fd5b506103f160048036038101906103ec9190611248565b611041565b005b3480156103ff57600080fd5b50610408611139565b6040516104159190611661565b60405180910390f35b60026001541415610464576040517f08c379a000000000000000000000000000000000000000000000000000000000815260040161045b90611621565b60405180910390fd5b6002600181905550600260009054906101000a900473ffffffffffffffffffffffffffffffffffffffff1673ffffffffffffffffffffffffffffffffffffffff163373ffffffffffffffffffffffffffffffffffffffff16146104fc576040517f08c379a00000000000000000000000000000000000000000000000000000000081526004016104f390611641565b60405180910390fd5b6105053361113f565b15610545576040517f08c379a000000000000000000000000000000000000000000000000000000000815260040161053c90611541565b60405180910390fd5b3273ffffffffffffffffffffffffffffffffffffffff163373ffffffffffffffffffffffffffffffffffffffff16146105b3576040517f08c379a00000000000000000000000000000000000000000000000000000000081526004016105aa906115a1565b60405180910390fd5b600060646008546007546105c791906116c9565b6105d19190611698565b905080600760008282546105e59190611723565b925050819055506000600260009054906101000a900473ffffffffffffffffffffffffffffffffffffffff1673ffffffffffffffffffffffffffffffffffffffff168260405161063490611496565b60006040518083038185875af1925050503d8060008114610671576040519150601f19603f3d011682016040523d82523d6000602084013e610676565b606091505b50509050806106ba576040517f08c379a00000000000000000000000000000000000000000000000000000000081526004016106b1906114e1565b60405180910390fd5b600260009054906101000a900473ffffffffffffffffffffffffffffffffffffffff1673ffffffffffffffffffffffffffffffffffffffff167fecd60683965e7a828740c1cd2d719fab1ac61fd7b0e1871f1b38d9ee392ae1a7836040516107229190611661565b60405180910390a2505060018081905550565b600260009054906101000a900473ffffffffffffffffffffffffffffffffffffffff1673ffffffffffffffffffffffffffffffffffffffff163373ffffffffffffffffffffffffffffffffffffffff16146107c5576040517f08c379a00000000000000000000000000000000000000000000000000000000081526004016107bc90611641565b60405180910390fd5b60008111610808576040517f08c379a00000000000000000000000000000000000000000000000000000000081526004016107ff906115e1565b60405180910390fd5b806008819055507fb3c38e3948eab3b348ca48fc24f958ced2d2611b79865a5468551af855971b8d6008546040516108409190611661565b60405180910390a150565b60075481565b60008060149054906101000a900460ff16905090565b61086f610851565b6108ae576040517f08c379a00000000000000000000000000000000000000000000000000000000081526004016108a590611501565b60405180910390fd5b600260009054906101000a900473ffffffffffffffffffffffffffffffffffffffff1673ffffffffffffffffffffffffffffffffffffffff163373ffffffffffffffffffffffffffffffffffffffff161461093e576040517f08c379a000000000000000000000000000000000000000000000000000000000815260040161093590611641565b60405180910390fd5b6000811415610982576040517f08c379a000000000000000000000000000000000000000000000000000000000815260040161097990611601565b60405180910390fd5b806004819055507fbe054849fe210c446a3b3f68394753f210607326b38581dc64bd2e94a87f0182816040516109b89190611661565b60405180910390a150565b6000600260009054906101000a900473ffffffffffffffffffffffffffffffffffffffff16905090565b6109f5611152565b73ffffffffffffffffffffffffffffffffffffffff16610a13610ffb565b73ffffffffffffffffffffffffffffffffffffffff1614610a69576040517f08c379a0000000000000000000000000000000000000000000000000000000008152600401610a60906115c1565b60405180910390fd5b600073ffffffffffffffffffffffffffffffffffffffff168173ffffffffffffffffffffffffffffffffffffffff161415610ad9576040517f08c379a0000000000000000000000000000000000000000000000000000000008152600401610ad090611581565b60405180910390fd5b80600260006101000a81548173ffffffffffffffffffffffffffffffffffffffff021916908373ffffffffffffffffffffffffffffffffffffffff1602179055508073ffffffffffffffffffffffffffffffffffffffff167f71614071b88dee5e0b2ae578a9dd7b2ebbe9ae832ba419dc0242cd065a290b6c60405160405180910390a250565b610b68611152565b73ffffffffffffffffffffffffffffffffffffffff16610b86610ffb565b73ffffffffffffffffffffffffffffffffffffffff1614610bdc576040517f08c379a0000000000000000000000000000000000000000000000000000000008152600401610bd3906115c1565b60405180910390fd5b610be6600061115a565b565b610bf0610851565b610c2f576040517f08c379a0000000000000000000000000000000000000000000000000000000008152600401610c2690611501565b60405180910390fd5b600260009054906101000a900473ffffffffffffffffffffffffffffffffffffffff1673ffffffffffffffffffffffffffffffffffffffff163373ffffffffffffffffffffffffffffffffffffffff1614610cbf576040517f08c379a0000000000000000000000000000000000000000000000000000000008152600401610cb690611641565b60405180910390fd5b60038110610d02576040517f08c379a0000000000000000000000000000000000000000000000000000000008152600401610cf990611561565b60405180910390fd5b806003819055507f938d9272b26145999fe14f6124b73f122e1e023fc5de069c74ade1254408a97681604051610d389190611661565b60405180910390a150565b610d4b610851565b610d8a576040517f08c379a0000000000000000000000000000000000000000000000000000000008152600401610d8190611501565b60405180910390fd5b600260009054906101000a900473ffffffffffffffffffffffffffffffffffffffff1673ffffffffffffffffffffffffffffffffffffffff163373ffffffffffffffffffffffffffffffffffffffff1614610e1a576040517f08c379a0000000000000000000000000000000000000000000000000000000008152600401610e1190611641565b60405180910390fd5b6004548111610e5e576040517f08c379a0000000000000000000000000000000000000000000000000000000008152600401610e5590611601565b60405180910390fd5b806006819055507ffcaf5a14e40cc15968fda62f9fb1eb32c008347751c62ade935e834cba2e6b0b81604051610e949190611661565b60405180910390a150565b610ea7610851565b610ee6576040517f08c379a0000000000000000000000000000000000000000000000000000000008152600401610edd90611501565b60405180910390fd5b600260009054906101000a900473ffffffffffffffffffffffffffffffffffffffff1673ffffffffffffffffffffffffffffffffffffffff163373ffffffffffffffffffffffffffffffffffffffff1614610f76576040517f08c379a0000000000000000000000000000000000000000000000000000000008152600401610f6d90611641565b60405180910390fd5b6000811415610fba576040517f08c379a0000000000000000000000000000000000000000000000000000000008152600401610fb190611601565b60405180910390fd5b806005819055507f946e0fcc7b9994728e101150e6061fe9fcebe594736fcdadbb54b09a4026045c81604051610ff09190611661565b60405180910390a150565b60008060009054906101000a900473ffffffffffffffffffffffffffffffffffffffff16905090565b60055481565b60085481565b60065481565b60035481565b600381565b611049611152565b73ffffffffffffffffffffffffffffffffffffffff16611067610ffb565b73ffffffffffffffffffffffffffffffffffffffff16146110bd576040517f08c379a00000000000000000000000000000000000000000000000000000000081526004016110b4906115c1565b60405180910390fd5b600073ffffffffffffffffffffffffffffffffffffffff168173ffffffffffffffffffffffffffffffffffffffff16141561112d576040517f08c379a000000000000000000000000000000000000000000000000000000000815260040161112490611521565b60405180910390fd5b6111368161115a565b50565b60045481565b600080823b905060008111915050919050565b600033905090565b60008060009054906101000a900473ffffffffffffffffffffffffffffffffffffffff169050816000806101000a81548173ffffffffffffffffffffffffffffffffffffffff021916908373ffffffffffffffffffffffffffffffffffffffff1602179055508173ffffffffffffffffffffffffffffffffffffffff168173ffffffffffffffffffffffffffffffffffffffff167f8be0079c531659141344cd1fd0a4f28419497f9722a3daafe3b4186f6b6457e060405160405180910390a35050565b60008135905061122d81611a17565b92915050565b60008135905061124281611a2e565b92915050565b60006020828403121561125e5761125d6117fd565b5b600061126c8482850161121e565b91505092915050565b60006020828403121561128b5761128a6117fd565b5b600061129984828501611233565b91505092915050565b6112ab81611757565b82525050565b6112ba81611769565b82525050565b60006112cd601f83611687565b91506112d882611802565b602082019050919050565b60006112f0601483611687565b91506112fb8261182b565b602082019050919050565b6000611313602683611687565b915061131e82611854565b604082019050919050565b6000611336601483611687565b9150611341826118a3565b602082019050919050565b6000611359601883611687565b9150611364826118cc565b602082019050919050565b600061137c601683611687565b9150611387826118f5565b602082019050919050565b600061139f601a83611687565b91506113aa8261191e565b602082019050919050565b60006113c2602083611687565b91506113cd82611947565b602082019050919050565b60006113e5601d83611687565b91506113f082611970565b602082019050919050565b6000611408601583611687565b915061141382611999565b602082019050919050565b600061142b60008361167c565b9150611436826119c2565b600082019050919050565b600061144e601f83611687565b9150611459826119c5565b602082019050919050565b6000611471600983611687565b915061147c826119ee565b602082019050919050565b61149081611795565b82525050565b60006114a18261141e565b9150819050919050565b60006020820190506114c060008301846112a2565b92915050565b60006020820190506114db60008301846112b1565b92915050565b600060208201905081810360008301526114fa816112c0565b9050919050565b6000602082019050818103600083015261151a816112e3565b9050919050565b6000602082019050818103600083015261153a81611306565b9050919050565b6000602082019050818103600083015261155a81611329565b9050919050565b6000602082019050818103600083015261157a8161134c565b9050919050565b6000602082019050818103600083015261159a8161136f565b9050919050565b600060208201905081810360008301526115ba81611392565b9050919050565b600060208201905081810360008301526115da816113b5565b9050919050565b600060208201905081810360008301526115fa816113d8565b9050919050565b6000602082019050818103600083015261161a816113fb565b9050919050565b6000602082019050818103600083015261163a81611441565b9050919050565b6000602082019050818103600083015261165a81611464565b9050919050565b60006020820190506116766000830184611487565b92915050565b600081905092915050565b600082825260208201905092915050565b60006116a382611795565b91506116ae83611795565b9250826116be576116bd6117ce565b5b828204905092915050565b60006116d482611795565b91506116df83611795565b9250817fffffffffffffffffffffffffffffffffffffffffffffffffffffffffffffffff04831182151516156117185761171761179f565b5b828202905092915050565b600061172e82611795565b915061173983611795565b92508282101561174c5761174b61179f565b5b828203905092915050565b600061176282611775565b9050919050565b60008115159050919050565b600073ffffffffffffffffffffffffffffffffffffffff82169050919050565b6000819050919050565b7f4e487b7100000000000000000000000000000000000000000000000000000000600052601160045260246000fd5b7f4e487b7100000000000000000000000000000000000000000000000000000000600052601260045260246000fd5b600080fd5b7f5472616e7366657248656c7065723a205452414e534645525f4641494c454400600082015250565b7f5061757361626c653a206e6f7420706175736564000000000000000000000000600082015250565b7f4f776e61626c653a206e6577206f776e657220697320746865207a65726f206160008201527f6464726573730000000000000000000000000000000000000000000000000000602082015250565b7f436f6e7472616374206e6f7420616c6c6f776564000000000000000000000000600082015250565b7f54726561737572792066656520697320746f6f20686967680000000000000000600082015250565b7f43616e6e6f74206265207a65726f206164647265737300000000000000000000600082015250565b7f50726f787920636f6e7472616374206e6f7420616c6c6f776564000000000000600082015250565b7f4f776e61626c653a2063616c6c6572206973206e6f7420746865206f776e6572600082015250565b7f416d6f756e742063616e6e6f74206265207a65726f206f72206c657373000000600082015250565b7f4d757374206265207375706572696f7220746f20300000000000000000000000600082015250565b50565b7f5265656e7472616e637947756172643a207265656e7472616e742063616c6c00600082015250565b7f4e6f742061646d696e0000000000000000000000000000000000000000000000600082015250565b611a2081611757565b8114611a2b57600080fd5b50565b611a3781611795565b8114611a4257600080fd5b5056fea2646970667358221220a4ca2e0a604b85e6c38f642774d59549481c77848639a39761ea8c6151aea81964736f6c63430008070033",
  "immutableReferences": {},
  "source": "// SPDX-License-Identifier: MIT\n\npragma solidity ^0.8.7;\n\nimport \"@openzeppelin/contracts/security/Pausable.sol\";\nimport \"@openzeppelin/contracts/access/Ownable.sol\";\nimport \"@openzeppelin/contracts/security/ReentrancyGuard.sol\";\n\n/**\n * @title DiceAdministrator\n */\ncontract DiceAdministrator is Ownable, Pausable, ReentrancyGuard {\n\n    address private admin;\n    uint256 public treasuryFee;\n    uint256 public constant MAX_TREASURY_FEE = 3; // 3%\n    uint256 public minBetAmount; // minimum betting amount (denominated in wei)\n    uint256 public minVRFBetAmount; // minimum betting amount when VRF selected(denominated in wei)\n    uint256 public maxBetAmount; // maximum betting amount (denominated in wei)\n    uint256 public treasuryAmount; // funds in treasury collected from fee\n    uint256 public claimableTreasuryPercent = 80; //80%\n\n    event NewMinBetAmount(uint256 minBetAmount);\n    event NewMinVRFBetAmount(uint256 minBetAmount);\n    event NewMaxBetAmount(uint256 minBetAmount);\n    event NewTreasuryFee(uint256 treasuryFee);\n    event NewAdmin(address indexed admin);\n    event NewClaimableTreasuryPercent(uint256 claimableTreasuryPercent);\n    event TreasuryClaim(address indexed admin, uint256 amount);\n\n    constructor(address _adminAddress, uint256 _minBetAmount, uint256 _maxBetAmount, uint256 _minVRFBetAmount, uint256 _treasuryFee) {\n        require(_minBetAmount > 0, \"Invalid Min bet amount\");\n        require(_treasuryFee < MAX_TREASURY_FEE, \"Treasury fee is too high\");\n        require(_adminAddress != address(0), \"Invalid admin address\");\n        require(_maxBetAmount > _minBetAmount, \"max bet amount less than min amount\");\n        admin = _adminAddress;\n        minBetAmount = _minBetAmount;\n        maxBetAmount = _maxBetAmount;\n        minVRFBetAmount = _minVRFBetAmount;\n        treasuryFee = _treasuryFee;\n    }\n\n    modifier onlyAdmin() {\n        require(msg.sender == admin, \"Not admin\");\n        _;\n    }\n\n    modifier notContract() {\n        require(!_isContract(msg.sender), \"Contract not allowed\");\n        require(msg.sender == tx.origin, \"Proxy contract not allowed\");\n        _;\n    }\n\n    /**\n     * @notice Returns true if `account` is a contract.\n     * @param account: account address\n     */\n    function _isContract(address account) internal view returns (bool) {\n        uint256 size;\n        assembly {\n            size := extcodesize(account)\n        }\n        return size > 0;\n    }\n\n    /**\n     * @notice Set minBetAmount\n     * @dev Callable by admin\n     * @param _minVRFBetAmount: minimum bet amount to be set\n     */\n    function setMinVRFBetAmount(uint256 _minVRFBetAmount) external whenPaused onlyAdmin {\n        require(_minVRFBetAmount != 0, \"Must be superior to 0\");\n        minVRFBetAmount = _minVRFBetAmount;\n \n        emit NewMinVRFBetAmount(_minVRFBetAmount);\n    }\n\n    /**\n     * @notice Set minBetAmount\n     * @dev Callable by admin\n     * @param _minBetAmount: minimum bet amount to be set\n     */\n    function setMinBetAmount(uint256 _minBetAmount) external whenPaused onlyAdmin {\n        require(_minBetAmount != 0, \"Must be superior to 0\");\n        minBetAmount = _minBetAmount;\n \n        emit NewMinBetAmount(_minBetAmount);\n    }\n\n    /**\n     * @notice Set maxBetAmount\n     * @dev Callable by admin\n     * @param _maxBetAmount: maximum bet amount to be set\n     */\n    function setMaxBetAmount(uint256 _maxBetAmount) external whenPaused onlyAdmin {\n        require(_maxBetAmount > minBetAmount, \"Must be superior to 0\");\n        maxBetAmount = _maxBetAmount;\n\n        emit NewMaxBetAmount(_maxBetAmount);\n    }\n\n    /**\n     * @notice Set Treasury Fee\n     * @dev Callable by admin\n     * @param _treasuryFee: new treasury fee\n     */\n    function setTreasuryFee(uint256 _treasuryFee) external whenPaused onlyAdmin {\n        require(_treasuryFee < MAX_TREASURY_FEE, \"Treasury fee is too high\");\n        treasuryFee = _treasuryFee;\n\n        emit NewTreasuryFee(_treasuryFee);\n    }\n\n    /**\n     * @notice Set admin\n     * @dev callable by Owner of the contract\n     * @param _admin: new admin address\n     */\n    function setAdmin(address _admin) external onlyOwner {\n        require(_admin != address(0), \"Cannot be zero address\");\n        admin = _admin;\n\n        emit NewAdmin(_admin);\n    }\n    \n    /**\n    * @notice Add funds\n    */\n    receive() external payable {\n    }\n\n    /**\n    * @notice Set Claimabble Treasury Percent\n    * @dev callable by Admin\n    * @param _claimableTreasuryPercent: claimable percent\n    */\n    function setClaimableTreasuryPercent(uint256 _claimableTreasuryPercent)  external onlyAdmin {\n        require(_claimableTreasuryPercent > 0, \"Amount cannot be zero or less\");\n        claimableTreasuryPercent = _claimableTreasuryPercent;\n\n        emit NewClaimableTreasuryPercent(claimableTreasuryPercent);\n    }\n\n    /**\n     * @notice Claim 80% of treasury fund - collected as fee\n     * @dev Callable by admin\n     */\n    function claimTreasury() external nonReentrant onlyAdmin notContract {\n        uint256 claimableTreasuryAmount = ((treasuryAmount * claimableTreasuryPercent) / 100);\n        treasuryAmount -= claimableTreasuryAmount;\n        (bool success, ) = admin.call{value: claimableTreasuryAmount}(\"\");\n        require(success, \"TransferHelper: TRANSFER_FAILED\");\n\n        emit TreasuryClaim(admin, claimableTreasuryAmount);\n    }\n\n    /**\n    * @notice get admin address\n    * @return admin address\n    */\n    function getAdmin() public view returns(address) {\n        return admin;\n    }\n}\n",
  "sourcePath": "/Users/rangs/betbee/betbee-monorepo/contracts/dice/DiceAdministrator.sol",
  "compiler": {
    "name": "solc",
    "version": "0.8.7+commit.e28d00a7.Emscripten.clang"
  },
  "schemaVersion": "3.4.3",
  "updatedAt": "2021-11-16T13:48:21.648Z",
  "devdoc": {
    "kind": "dev",
    "methods": {
      "claimTreasury()": {
        "details": "Callable by admin"
      },
      "getAdmin()": {
        "returns": {
          "_0": "admin address"
        }
      },
      "owner()": {
        "details": "Returns the address of the current owner."
      },
      "paused()": {
        "details": "Returns true if the contract is paused, and false otherwise."
      },
      "renounceOwnership()": {
        "details": "Leaves the contract without owner. It will not be possible to call `onlyOwner` functions anymore. Can only be called by the current owner. NOTE: Renouncing ownership will leave the contract without an owner, thereby removing any functionality that is only available to the owner."
      },
      "setAdmin(address)": {
        "details": "callable by Owner of the contract",
        "params": {
          "_admin": ": new admin address"
        }
      },
      "setClaimableTreasuryPercent(uint256)": {
        "details": "callable by Admin",
        "params": {
          "_claimableTreasuryPercent": ": claimable percent"
        }
      },
      "setMaxBetAmount(uint256)": {
        "details": "Callable by admin",
        "params": {
          "_maxBetAmount": ": maximum bet amount to be set"
        }
      },
      "setMinBetAmount(uint256)": {
        "details": "Callable by admin",
        "params": {
          "_minBetAmount": ": minimum bet amount to be set"
        }
      },
      "setMinVRFBetAmount(uint256)": {
        "details": "Callable by admin",
        "params": {
          "_minVRFBetAmount": ": minimum bet amount to be set"
        }
      },
      "setTreasuryFee(uint256)": {
        "details": "Callable by admin",
        "params": {
          "_treasuryFee": ": new treasury fee"
        }
      },
      "transferOwnership(address)": {
        "details": "Transfers ownership of the contract to a new account (`newOwner`). Can only be called by the current owner."
      }
    },
    "title": "DiceAdministrator",
    "version": 1
  },
  "userdoc": {
    "kind": "user",
    "methods": {
      "claimTreasury()": {
        "notice": "Claim 80% of treasury fund - collected as fee"
      },
      "getAdmin()": {
        "notice": "get admin address"
      },
      "setAdmin(address)": {
        "notice": "Set admin"
      },
      "setClaimableTreasuryPercent(uint256)": {
        "notice": "Set Claimabble Treasury Percent"
      },
      "setMaxBetAmount(uint256)": {
        "notice": "Set maxBetAmount"
      },
      "setMinBetAmount(uint256)": {
        "notice": "Set minBetAmount"
      },
      "setMinVRFBetAmount(uint256)": {
        "notice": "Set minBetAmount"
      },
      "setTreasuryFee(uint256)": {
        "notice": "Set Treasury Fee"
      }
    },
    "version": 1
  }
}