{
  "contractName": "DiceAdministrator",
  "abi": [
    {
      "inputs": [
        {
          "internalType": "address",
          "name": "_adminAddress",
          "type": "address"
        },
        {
          "internalType": "uint256",
          "name": "_minBetAmount",
          "type": "uint256"
        },
        {
          "internalType": "uint256",
          "name": "_maxBetAmount",
          "type": "uint256"
        },
        {
          "internalType": "uint256",
          "name": "_treasuryFee",
          "type": "uint256"
        }
      ],
      "stateMutability": "nonpayable",
      "type": "constructor"
    },
    {
      "anonymous": false,
      "inputs": [
        {
          "indexed": true,
          "internalType": "address",
          "name": "admin",
          "type": "address"
        }
      ],
      "name": "NewAdmin",
      "type": "event"
    },
    {
      "anonymous": false,
      "inputs": [
        {
          "indexed": false,
          "internalType": "uint256",
          "name": "claimableTreasuryPercent",
          "type": "uint256"
        }
      ],
      "name": "NewClaimableTreasuryPercent",
      "type": "event"
    },
    {
      "anonymous": false,
      "inputs": [
        {
          "indexed": false,
          "internalType": "uint256",
          "name": "minBetAmount",
          "type": "uint256"
        }
      ],
      "name": "NewMaxBetAmount",
      "type": "event"
    },
    {
      "anonymous": false,
      "inputs": [
        {
          "indexed": false,
          "internalType": "uint256",
          "name": "minBetAmount",
          "type": "uint256"
        }
      ],
      "name": "NewMinBetAmount",
      "type": "event"
    },
    {
      "anonymous": false,
      "inputs": [
        {
          "indexed": false,
          "internalType": "uint256",
          "name": "treasuryFee",
          "type": "uint256"
        }
      ],
      "name": "NewTreasuryFee",
      "type": "event"
    },
    {
      "anonymous": false,
      "inputs": [
        {
          "indexed": true,
          "internalType": "address",
          "name": "previousOwner",
          "type": "address"
        },
        {
          "indexed": true,
          "internalType": "address",
          "name": "newOwner",
          "type": "address"
        }
      ],
      "name": "OwnershipTransferred",
      "type": "event"
    },
    {
      "anonymous": false,
      "inputs": [
        {
          "indexed": false,
          "internalType": "address",
          "name": "account",
          "type": "address"
        }
      ],
      "name": "Paused",
      "type": "event"
    },
    {
      "anonymous": false,
      "inputs": [
        {
          "indexed": true,
          "internalType": "address",
          "name": "admin",
          "type": "address"
        },
        {
          "indexed": false,
          "internalType": "uint256",
          "name": "amount",
          "type": "uint256"
        }
      ],
      "name": "TreasuryClaim",
      "type": "event"
    },
    {
      "anonymous": false,
      "inputs": [
        {
          "indexed": false,
          "internalType": "address",
          "name": "account",
          "type": "address"
        }
      ],
      "name": "Unpaused",
      "type": "event"
    },
    {
      "inputs": [],
      "name": "MAX_TREASURY_FEE",
      "outputs": [
        {
          "internalType": "uint256",
          "name": "",
          "type": "uint256"
        }
      ],
      "stateMutability": "view",
      "type": "function"
    },
    {
      "inputs": [],
      "name": "claimableTreasuryPercent",
      "outputs": [
        {
          "internalType": "uint256",
          "name": "",
          "type": "uint256"
        }
      ],
      "stateMutability": "view",
      "type": "function"
    },
    {
      "inputs": [],
      "name": "maxBetAmount",
      "outputs": [
        {
          "internalType": "uint256",
          "name": "",
          "type": "uint256"
        }
      ],
      "stateMutability": "view",
      "type": "function"
    },
    {
      "inputs": [],
      "name": "minBetAmount",
      "outputs": [
        {
          "internalType": "uint256",
          "name": "",
          "type": "uint256"
        }
      ],
      "stateMutability": "view",
      "type": "function"
    },
    {
      "inputs": [],
      "name": "owner",
      "outputs": [
        {
          "internalType": "address",
          "name": "",
          "type": "address"
        }
      ],
      "stateMutability": "view",
      "type": "function"
    },
    {
      "inputs": [],
      "name": "paused",
      "outputs": [
        {
          "internalType": "bool",
          "name": "",
          "type": "bool"
        }
      ],
      "stateMutability": "view",
      "type": "function"
    },
    {
      "inputs": [],
      "name": "renounceOwnership",
      "outputs": [],
      "stateMutability": "nonpayable",
      "type": "function"
    },
    {
      "inputs": [
        {
          "internalType": "address",
          "name": "newOwner",
          "type": "address"
        }
      ],
      "name": "transferOwnership",
      "outputs": [],
      "stateMutability": "nonpayable",
      "type": "function"
    },
    {
      "inputs": [],
      "name": "treasuryAmount",
      "outputs": [
        {
          "internalType": "uint256",
          "name": "",
          "type": "uint256"
        }
      ],
      "stateMutability": "view",
      "type": "function"
    },
    {
      "inputs": [],
      "name": "treasuryFee",
      "outputs": [
        {
          "internalType": "uint256",
          "name": "",
          "type": "uint256"
        }
      ],
      "stateMutability": "view",
      "type": "function"
    },
    {
      "stateMutability": "payable",
      "type": "receive"
    },
    {
      "inputs": [
        {
          "internalType": "uint256",
          "name": "_minBetAmount",
          "type": "uint256"
        }
      ],
      "name": "setMinBetAmount",
      "outputs": [],
      "stateMutability": "nonpayable",
      "type": "function"
    },
    {
      "inputs": [
        {
          "internalType": "uint256",
          "name": "_maxBetAmount",
          "type": "uint256"
        }
      ],
      "name": "setMaxBetAmount",
      "outputs": [],
      "stateMutability": "nonpayable",
      "type": "function"
    },
    {
      "inputs": [
        {
          "internalType": "uint256",
          "name": "_treasuryFee",
          "type": "uint256"
        }
      ],
      "name": "setTreasuryFee",
      "outputs": [],
      "stateMutability": "nonpayable",
      "type": "function"
    },
    {
      "inputs": [
        {
          "internalType": "address",
          "name": "_admin",
          "type": "address"
        }
      ],
      "name": "setAdmin",
      "outputs": [],
      "stateMutability": "nonpayable",
      "type": "function"
    },
    {
      "inputs": [
        {
          "internalType": "uint256",
          "name": "_claimableTreasuryPercent",
          "type": "uint256"
        }
      ],
      "name": "setClaimableTreasuryPercent",
      "outputs": [],
      "stateMutability": "nonpayable",
      "type": "function"
    },
    {
      "inputs": [],
      "name": "claimTreasury",
      "outputs": [],
      "stateMutability": "nonpayable",
      "type": "function"
    },
    {
      "inputs": [],
      "name": "getAdmin",
      "outputs": [
        {
          "internalType": "address",
          "name": "",
          "type": "address"
        }
      ],
      "stateMutability": "view",
      "type": "function"
    }
  ],
  "bytecode": "0x608060405260506007553480156200001657600080fd5b5060405162001ec238038062001ec283398181016040528101906200003c91906200031b565b6200005c620000506200022160201b60201c565b6200022960201b60201c565b60008060146101000a81548160ff0219169083151502179055506001808190555060008311620000c3576040517f08c379a0000000000000000000000000000000000000000000000000000000008152600401620000ba906200046d565b60405180910390fd5b6003811062000109576040517f08c379a000000000000000000000000000000000000000000000000000000000815260040162000100906200044b565b60405180910390fd5b600073ffffffffffffffffffffffffffffffffffffffff168473ffffffffffffffffffffffffffffffffffffffff1614156200017c576040517f08c379a0000000000000000000000000000000000000000000000000000000008152600401620001739062000429565b60405180910390fd5b828211620001c1576040517f08c379a0000000000000000000000000000000000000000000000000000000008152600401620001b8906200048f565b60405180910390fd5b83600260006101000a81548173ffffffffffffffffffffffffffffffffffffffff021916908373ffffffffffffffffffffffffffffffffffffffff1602179055508260048190555081600581905550806003819055505050505062000603565b600033905090565b60008060009054906101000a900473ffffffffffffffffffffffffffffffffffffffff169050816000806101000a81548173ffffffffffffffffffffffffffffffffffffffff021916908373ffffffffffffffffffffffffffffffffffffffff1602179055508173ffffffffffffffffffffffffffffffffffffffff168173ffffffffffffffffffffffffffffffffffffffff167f8be0079c531659141344cd1fd0a4f28419497f9722a3daafe3b4186f6b6457e060405160405180910390a35050565b600081519050620002fe81620005cf565b92915050565b6000815190506200031581620005e9565b92915050565b6000806000806080858703121562000338576200033762000500565b5b60006200034887828801620002ed565b94505060206200035b8782880162000304565b93505060406200036e8782880162000304565b9250506060620003818782880162000304565b91505092959194509250565b60006200039c601583620004b1565b9150620003a98262000505565b602082019050919050565b6000620003c3601883620004b1565b9150620003d0826200052e565b602082019050919050565b6000620003ea601683620004b1565b9150620003f78262000557565b602082019050919050565b600062000411602383620004b1565b91506200041e8262000580565b604082019050919050565b6000602082019050818103600083015262000444816200038d565b9050919050565b600060208201905081810360008301526200046681620003b4565b9050919050565b600060208201905081810360008301526200048881620003db565b9050919050565b60006020820190508181036000830152620004aa8162000402565b9050919050565b600082825260208201905092915050565b6000620004cf82620004d6565b9050919050565b600073ffffffffffffffffffffffffffffffffffffffff82169050919050565b6000819050919050565b600080fd5b7f496e76616c69642061646d696e20616464726573730000000000000000000000600082015250565b7f54726561737572792066656520697320746f6f20686967680000000000000000600082015250565b7f496e76616c6964204d696e2062657420616d6f756e7400000000000000000000600082015250565b7f6d61782062657420616d6f756e74206c657373207468616e206d696e20616d6f60008201527f756e740000000000000000000000000000000000000000000000000000000000602082015250565b620005da81620004c2565b8114620005e657600080fd5b50565b620005f481620004f6565b81146200060057600080fd5b50565b6118af80620006136000396000f3fe6080604052600436106101015760003560e01c806377e741c711610095578063cab11d5d11610064578063cab11d5d146102df578063cc32d1761461030a578063f2b3c80914610335578063f2fde38b14610360578063fa968eea1461038957610108565b806377e741c7146102375780637cfbc7a5146102605780638da5cb5b14610289578063bddaca43146102b457610108565b80636c188593116100d15780636c188593146101a35780636e9960c3146101cc578063704b6c02146101f7578063715018a61461022057610108565b80623bdc741461010d57806319446cd414610124578063368acb091461014d5780635c975abb1461017857610108565b3661010857005b600080fd5b34801561011957600080fd5b506101226103b4565b005b34801561013057600080fd5b5061014b600480360381019061014691906110a9565b6106cb565b005b34801561015957600080fd5b506101626107e1565b60405161016f9190611495565b60405180910390f35b34801561018457600080fd5b5061018d6107e7565b60405161019a91906112fa565b60405180910390f35b3480156101af57600080fd5b506101ca60048036038101906101c591906110a9565b6107fd565b005b3480156101d857600080fd5b506101e1610959565b6040516101ee91906112df565b60405180910390f35b34801561020357600080fd5b5061021e6004803603810190610219919061107c565b610983565b005b34801561022c57600080fd5b50610235610af6565b005b34801561024357600080fd5b5061025e600480360381019061025991906110a9565b610b7e565b005b34801561026c57600080fd5b50610287600480360381019061028291906110a9565b610cd9565b005b34801561029557600080fd5b5061029e610e35565b6040516102ab91906112df565b60405180910390f35b3480156102c057600080fd5b506102c9610e5e565b6040516102d69190611495565b60405180910390f35b3480156102eb57600080fd5b506102f4610e64565b6040516103019190611495565b60405180910390f35b34801561031657600080fd5b5061031f610e6a565b60405161032c9190611495565b60405180910390f35b34801561034157600080fd5b5061034a610e70565b6040516103579190611495565b60405180910390f35b34801561036c57600080fd5b506103876004803603810190610382919061107c565b610e75565b005b34801561039557600080fd5b5061039e610f6d565b6040516103ab9190611495565b60405180910390f35b600260015414156103fa576040517f08c379a00000000000000000000000000000000000000000000000000000000081526004016103f190611455565b60405180910390fd5b6002600181905550600260009054906101000a900473ffffffffffffffffffffffffffffffffffffffff1673ffffffffffffffffffffffffffffffffffffffff163373ffffffffffffffffffffffffffffffffffffffff1614610492576040517f08c379a000000000000000000000000000000000000000000000000000000000815260040161048990611475565b60405180910390fd5b61049b33610f73565b156104db576040517f08c379a00000000000000000000000000000000000000000000000000000000081526004016104d290611375565b60405180910390fd5b3273ffffffffffffffffffffffffffffffffffffffff163373ffffffffffffffffffffffffffffffffffffffff1614610549576040517f08c379a0000000000000000000000000000000000000000000000000000000008152600401610540906113d5565b60405180910390fd5b6000606460075460065461055d91906114fd565b61056791906114cc565b9050806006600082825461057b9190611557565b925050819055506000600260009054906101000a900473ffffffffffffffffffffffffffffffffffffffff1673ffffffffffffffffffffffffffffffffffffffff16826040516105ca906112ca565b60006040518083038185875af1925050503d8060008114610607576040519150601f19603f3d011682016040523d82523d6000602084013e61060c565b606091505b5050905080610650576040517f08c379a000000000000000000000000000000000000000000000000000000000815260040161064790611315565b60405180910390fd5b600260009054906101000a900473ffffffffffffffffffffffffffffffffffffffff1673ffffffffffffffffffffffffffffffffffffffff167fecd60683965e7a828740c1cd2d719fab1ac61fd7b0e1871f1b38d9ee392ae1a7836040516106b89190611495565b60405180910390a2505060018081905550565b600260009054906101000a900473ffffffffffffffffffffffffffffffffffffffff1673ffffffffffffffffffffffffffffffffffffffff163373ffffffffffffffffffffffffffffffffffffffff161461075b576040517f08c379a000000000000000000000000000000000000000000000000000000000815260040161075290611475565b60405180910390fd5b6000811161079e576040517f08c379a000000000000000000000000000000000000000000000000000000000815260040161079590611415565b60405180910390fd5b806007819055507fb3c38e3948eab3b348ca48fc24f958ced2d2611b79865a5468551af855971b8d6007546040516107d69190611495565b60405180910390a150565b60065481565b60008060149054906101000a900460ff16905090565b6108056107e7565b610844576040517f08c379a000000000000000000000000000000000000000000000000000000000815260040161083b90611335565b60405180910390fd5b600260009054906101000a900473ffffffffffffffffffffffffffffffffffffffff1673ffffffffffffffffffffffffffffffffffffffff163373ffffffffffffffffffffffffffffffffffffffff16146108d4576040517f08c379a00000000000000000000000000000000000000000000000000000000081526004016108cb90611475565b60405180910390fd5b6000811415610918576040517f08c379a000000000000000000000000000000000000000000000000000000000815260040161090f90611435565b60405180910390fd5b806004819055507fbe054849fe210c446a3b3f68394753f210607326b38581dc64bd2e94a87f01828160405161094e9190611495565b60405180910390a150565b6000600260009054906101000a900473ffffffffffffffffffffffffffffffffffffffff16905090565b61098b610f86565b73ffffffffffffffffffffffffffffffffffffffff166109a9610e35565b73ffffffffffffffffffffffffffffffffffffffff16146109ff576040517f08c379a00000000000000000000000000000000000000000000000000000000081526004016109f6906113f5565b60405180910390fd5b600073ffffffffffffffffffffffffffffffffffffffff168173ffffffffffffffffffffffffffffffffffffffff161415610a6f576040517f08c379a0000000000000000000000000000000000000000000000000000000008152600401610a66906113b5565b60405180910390fd5b80600260006101000a81548173ffffffffffffffffffffffffffffffffffffffff021916908373ffffffffffffffffffffffffffffffffffffffff1602179055508073ffffffffffffffffffffffffffffffffffffffff167f71614071b88dee5e0b2ae578a9dd7b2ebbe9ae832ba419dc0242cd065a290b6c60405160405180910390a250565b610afe610f86565b73ffffffffffffffffffffffffffffffffffffffff16610b1c610e35565b73ffffffffffffffffffffffffffffffffffffffff1614610b72576040517f08c379a0000000000000000000000000000000000000000000000000000000008152600401610b69906113f5565b60405180910390fd5b610b7c6000610f8e565b565b610b866107e7565b610bc5576040517f08c379a0000000000000000000000000000000000000000000000000000000008152600401610bbc90611335565b60405180910390fd5b600260009054906101000a900473ffffffffffffffffffffffffffffffffffffffff1673ffffffffffffffffffffffffffffffffffffffff163373ffffffffffffffffffffffffffffffffffffffff1614610c55576040517f08c379a0000000000000000000000000000000000000000000000000000000008152600401610c4c90611475565b60405180910390fd5b60038110610c98576040517f08c379a0000000000000000000000000000000000000000000000000000000008152600401610c8f90611395565b60405180910390fd5b806003819055507f938d9272b26145999fe14f6124b73f122e1e023fc5de069c74ade1254408a97681604051610cce9190611495565b60405180910390a150565b610ce16107e7565b610d20576040517f08c379a0000000000000000000000000000000000000000000000000000000008152600401610d1790611335565b60405180910390fd5b600260009054906101000a900473ffffffffffffffffffffffffffffffffffffffff1673ffffffffffffffffffffffffffffffffffffffff163373ffffffffffffffffffffffffffffffffffffffff1614610db0576040517f08c379a0000000000000000000000000000000000000000000000000000000008152600401610da790611475565b60405180910390fd5b6004548111610df4576040517f08c379a0000000000000000000000000000000000000000000000000000000008152600401610deb90611435565b60405180910390fd5b806005819055507ffcaf5a14e40cc15968fda62f9fb1eb32c008347751c62ade935e834cba2e6b0b81604051610e2a9190611495565b60405180910390a150565b60008060009054906101000a900473ffffffffffffffffffffffffffffffffffffffff16905090565b60075481565b60055481565b60035481565b600381565b610e7d610f86565b73ffffffffffffffffffffffffffffffffffffffff16610e9b610e35565b73ffffffffffffffffffffffffffffffffffffffff1614610ef1576040517f08c379a0000000000000000000000000000000000000000000000000000000008152600401610ee8906113f5565b60405180910390fd5b600073ffffffffffffffffffffffffffffffffffffffff168173ffffffffffffffffffffffffffffffffffffffff161415610f61576040517f08c379a0000000000000000000000000000000000000000000000000000000008152600401610f5890611355565b60405180910390fd5b610f6a81610f8e565b50565b60045481565b600080823b905060008111915050919050565b600033905090565b60008060009054906101000a900473ffffffffffffffffffffffffffffffffffffffff169050816000806101000a81548173ffffffffffffffffffffffffffffffffffffffff021916908373ffffffffffffffffffffffffffffffffffffffff1602179055508173ffffffffffffffffffffffffffffffffffffffff168173ffffffffffffffffffffffffffffffffffffffff167f8be0079c531659141344cd1fd0a4f28419497f9722a3daafe3b4186f6b6457e060405160405180910390a35050565b6000813590506110618161184b565b92915050565b60008135905061107681611862565b92915050565b60006020828403121561109257611091611631565b5b60006110a084828501611052565b91505092915050565b6000602082840312156110bf576110be611631565b5b60006110cd84828501611067565b91505092915050565b6110df8161158b565b82525050565b6110ee8161159d565b82525050565b6000611101601f836114bb565b915061110c82611636565b602082019050919050565b60006111246014836114bb565b915061112f8261165f565b602082019050919050565b60006111476026836114bb565b915061115282611688565b604082019050919050565b600061116a6014836114bb565b9150611175826116d7565b602082019050919050565b600061118d6018836114bb565b915061119882611700565b602082019050919050565b60006111b06016836114bb565b91506111bb82611729565b602082019050919050565b60006111d3601a836114bb565b91506111de82611752565b602082019050919050565b60006111f66020836114bb565b91506112018261177b565b602082019050919050565b6000611219601d836114bb565b9150611224826117a4565b602082019050919050565b600061123c6015836114bb565b9150611247826117cd565b602082019050919050565b600061125f6000836114b0565b915061126a826117f6565b600082019050919050565b6000611282601f836114bb565b915061128d826117f9565b602082019050919050565b60006112a56009836114bb565b91506112b082611822565b602082019050919050565b6112c4816115c9565b82525050565b60006112d582611252565b9150819050919050565b60006020820190506112f460008301846110d6565b92915050565b600060208201905061130f60008301846110e5565b92915050565b6000602082019050818103600083015261132e816110f4565b9050919050565b6000602082019050818103600083015261134e81611117565b9050919050565b6000602082019050818103600083015261136e8161113a565b9050919050565b6000602082019050818103600083015261138e8161115d565b9050919050565b600060208201905081810360008301526113ae81611180565b9050919050565b600060208201905081810360008301526113ce816111a3565b9050919050565b600060208201905081810360008301526113ee816111c6565b9050919050565b6000602082019050818103600083015261140e816111e9565b9050919050565b6000602082019050818103600083015261142e8161120c565b9050919050565b6000602082019050818103600083015261144e8161122f565b9050919050565b6000602082019050818103600083015261146e81611275565b9050919050565b6000602082019050818103600083015261148e81611298565b9050919050565b60006020820190506114aa60008301846112bb565b92915050565b600081905092915050565b600082825260208201905092915050565b60006114d7826115c9565b91506114e2836115c9565b9250826114f2576114f1611602565b5b828204905092915050565b6000611508826115c9565b9150611513836115c9565b9250817fffffffffffffffffffffffffffffffffffffffffffffffffffffffffffffffff048311821515161561154c5761154b6115d3565b5b828202905092915050565b6000611562826115c9565b915061156d836115c9565b9250828210156115805761157f6115d3565b5b828203905092915050565b6000611596826115a9565b9050919050565b60008115159050919050565b600073ffffffffffffffffffffffffffffffffffffffff82169050919050565b6000819050919050565b7f4e487b7100000000000000000000000000000000000000000000000000000000600052601160045260246000fd5b7f4e487b7100000000000000000000000000000000000000000000000000000000600052601260045260246000fd5b600080fd5b7f5472616e7366657248656c7065723a205452414e534645525f4641494c454400600082015250565b7f5061757361626c653a206e6f7420706175736564000000000000000000000000600082015250565b7f4f776e61626c653a206e6577206f776e657220697320746865207a65726f206160008201527f6464726573730000000000000000000000000000000000000000000000000000602082015250565b7f436f6e7472616374206e6f7420616c6c6f776564000000000000000000000000600082015250565b7f54726561737572792066656520697320746f6f20686967680000000000000000600082015250565b7f43616e6e6f74206265207a65726f206164647265737300000000000000000000600082015250565b7f50726f787920636f6e7472616374206e6f7420616c6c6f776564000000000000600082015250565b7f4f776e61626c653a2063616c6c6572206973206e6f7420746865206f776e6572600082015250565b7f416d6f756e742063616e6e6f74206265207a65726f206f72206c657373000000600082015250565b7f4d757374206265207375706572696f7220746f20300000000000000000000000600082015250565b50565b7f5265656e7472616e637947756172643a207265656e7472616e742063616c6c00600082015250565b7f4e6f742061646d696e0000000000000000000000000000000000000000000000600082015250565b6118548161158b565b811461185f57600080fd5b50565b61186b816115c9565b811461187657600080fd5b5056fea26469706673582212205ca52b013619518c0c326eeb6c25cfd36bff87aa1dcd382342904be13b62ddb364736f6c63430008070033",
  "immutableReferences": {},
  "source": "// SPDX-License-Identifier: MIT\n\npragma solidity ^0.8.7;\n\nimport \"@openzeppelin/contracts/security/Pausable.sol\";\nimport \"@openzeppelin/contracts/access/Ownable.sol\";\nimport \"@openzeppelin/contracts/security/ReentrancyGuard.sol\";\n\n/**\n * @title DiceAdministrator\n */\ncontract DiceAdministrator is Ownable, Pausable, ReentrancyGuard {\n\n    address private admin;\n    uint256 public treasuryFee;\n    uint256 public constant MAX_TREASURY_FEE = 3; // 3%\n    uint256 public minBetAmount; // minimum betting amount (denominated in wei)\n    uint256 public maxBetAmount; // maximum betting amount (denominated in wei)\n    uint256 public treasuryAmount; // funds in treasury collected from fee\n    uint256 public claimableTreasuryPercent = 80; //80%\n\n    event NewMinBetAmount(uint256 minBetAmount);\n    event NewMaxBetAmount(uint256 minBetAmount);\n    event NewTreasuryFee(uint256 treasuryFee);\n    event NewAdmin(address indexed admin);\n    event NewClaimableTreasuryPercent(uint256 claimableTreasuryPercent);\n    event TreasuryClaim(address indexed admin, uint256 amount);\n\n    constructor(address _adminAddress, uint256 _minBetAmount, uint256 _maxBetAmount, uint256 _treasuryFee) {\n        require(_minBetAmount > 0, \"Invalid Min bet amount\");\n        require(_treasuryFee < MAX_TREASURY_FEE, \"Treasury fee is too high\");\n        require(_adminAddress != address(0), \"Invalid admin address\");\n        require(_maxBetAmount > _minBetAmount, \"max bet amount less than min amount\");\n        admin = _adminAddress;\n        minBetAmount = _minBetAmount;\n        maxBetAmount = _maxBetAmount;\n        treasuryFee = _treasuryFee;\n    }\n\n    modifier onlyAdmin() {\n        require(msg.sender == admin, \"Not admin\");\n        _;\n    }\n\n    modifier notContract() {\n        require(!_isContract(msg.sender), \"Contract not allowed\");\n        require(msg.sender == tx.origin, \"Proxy contract not allowed\");\n        _;\n    }\n\n    /**\n     * @notice Returns true if `account` is a contract.\n     * @param account: account address\n     */\n    function _isContract(address account) internal view returns (bool) {\n        uint256 size;\n        assembly {\n            size := extcodesize(account)\n        }\n        return size > 0;\n    }\n\n    /**\n     * @notice Set minBetAmount\n     * @dev Callable by admin\n     * @param _minBetAmount: minimum bet amount to be set\n     */\n    function setMinBetAmount(uint256 _minBetAmount) external whenPaused onlyAdmin {\n        require(_minBetAmount != 0, \"Must be superior to 0\");\n        minBetAmount = _minBetAmount;\n \n        emit NewMinBetAmount(_minBetAmount);\n    }\n\n    /**\n     * @notice Set maxBetAmount\n     * @dev Callable by admin\n     * @param _maxBetAmount: maximum bet amount to be set\n     */\n    function setMaxBetAmount(uint256 _maxBetAmount) external whenPaused onlyAdmin {\n        require(_maxBetAmount > minBetAmount, \"Must be superior to 0\");\n        maxBetAmount = _maxBetAmount;\n\n        emit NewMaxBetAmount(_maxBetAmount);\n    }\n\n    /**\n     * @notice Set Treasury Fee\n     * @dev Callable by admin\n     * @param _treasuryFee: new treasury fee\n     */\n    function setTreasuryFee(uint256 _treasuryFee) external whenPaused onlyAdmin {\n        require(_treasuryFee < MAX_TREASURY_FEE, \"Treasury fee is too high\");\n        treasuryFee = _treasuryFee;\n\n        emit NewTreasuryFee(_treasuryFee);\n    }\n\n    /**\n     * @notice Set admin\n     * @dev callable by Owner of the contract\n     * @param _admin: new admin address\n     */\n    function setAdmin(address _admin) external onlyOwner {\n        require(_admin != address(0), \"Cannot be zero address\");\n        admin = _admin;\n\n        emit NewAdmin(_admin);\n    }\n    \n    /**\n    * @notice Add funds\n    */\n    receive() external payable {\n    }\n\n    /**\n    * @notice Set Claimabble Treasury Percent\n    * @dev callable by Admin\n    * @param _claimableTreasuryPercent: claimable percent\n    */\n    function setClaimableTreasuryPercent(uint256 _claimableTreasuryPercent)  external onlyAdmin {\n        require(_claimableTreasuryPercent > 0, \"Amount cannot be zero or less\");\n        claimableTreasuryPercent = _claimableTreasuryPercent;\n\n        emit NewClaimableTreasuryPercent(claimableTreasuryPercent);\n    }\n\n    /**\n     * @notice Claim 80% of treasury fund - collected as fee\n     * @dev Callable by admin\n     */\n    function claimTreasury() external nonReentrant onlyAdmin notContract {\n        uint256 claimableTreasuryAmount = ((treasuryAmount * claimableTreasuryPercent) / 100);\n        treasuryAmount -= claimableTreasuryAmount;\n        (bool success, ) = admin.call{value: claimableTreasuryAmount}(\"\");\n        require(success, \"TransferHelper: TRANSFER_FAILED\");\n\n        emit TreasuryClaim(admin, claimableTreasuryAmount);\n    }\n\n    /**\n    * @notice get admin address\n    * @return admin address\n    */\n    function getAdmin() public view returns(address) {\n        return admin;\n    }\n}\n",
  "sourcePath": "/Users/rangs/betbee/betbee-monorepo/contracts/dice/DiceAdministrator.sol",
  "compiler": {
    "name": "solc",
    "version": "0.8.7+commit.e28d00a7.Emscripten.clang"
  },
  "schemaVersion": "3.4.3",
  "updatedAt": "2021-11-03T09:14:48.773Z",
  "devdoc": {
    "kind": "dev",
    "methods": {
      "claimTreasury()": {
        "details": "Callable by admin"
      },
      "getAdmin()": {
        "returns": {
          "_0": "admin address"
        }
      },
      "owner()": {
        "details": "Returns the address of the current owner."
      },
      "paused()": {
        "details": "Returns true if the contract is paused, and false otherwise."
      },
      "renounceOwnership()": {
        "details": "Leaves the contract without owner. It will not be possible to call `onlyOwner` functions anymore. Can only be called by the current owner. NOTE: Renouncing ownership will leave the contract without an owner, thereby removing any functionality that is only available to the owner."
      },
      "setAdmin(address)": {
        "details": "callable by Owner of the contract",
        "params": {
          "_admin": ": new admin address"
        }
      },
      "setClaimableTreasuryPercent(uint256)": {
        "details": "callable by Admin",
        "params": {
          "_claimableTreasuryPercent": ": claimable percent"
        }
      },
      "setMaxBetAmount(uint256)": {
        "details": "Callable by admin",
        "params": {
          "_maxBetAmount": ": maximum bet amount to be set"
        }
      },
      "setMinBetAmount(uint256)": {
        "details": "Callable by admin",
        "params": {
          "_minBetAmount": ": minimum bet amount to be set"
        }
      },
      "setTreasuryFee(uint256)": {
        "details": "Callable by admin",
        "params": {
          "_treasuryFee": ": new treasury fee"
        }
      },
      "transferOwnership(address)": {
        "details": "Transfers ownership of the contract to a new account (`newOwner`). Can only be called by the current owner."
      }
    },
    "title": "DiceAdministrator",
    "version": 1
  },
  "userdoc": {
    "kind": "user",
    "methods": {
      "claimTreasury()": {
        "notice": "Claim 80% of treasury fund - collected as fee"
      },
      "getAdmin()": {
        "notice": "get admin address"
      },
      "setAdmin(address)": {
        "notice": "Set admin"
      },
      "setClaimableTreasuryPercent(uint256)": {
        "notice": "Set Claimabble Treasury Percent"
      },
      "setMaxBetAmount(uint256)": {
        "notice": "Set maxBetAmount"
      },
      "setMinBetAmount(uint256)": {
        "notice": "Set minBetAmount"
      },
      "setTreasuryFee(uint256)": {
        "notice": "Set Treasury Fee"
      }
    },
    "version": 1
  }
}