{
  "contractName": "PredictionAdministrator",
  "abi": [
    {
      "inputs": [],
      "stateMutability": "nonpayable",
      "type": "constructor"
    },
    {
      "anonymous": false,
      "inputs": [
        {
          "indexed": true,
          "internalType": "address",
          "name": "admin",
          "type": "address"
        }
      ],
      "name": "NewAdmin",
      "type": "event"
    },
    {
      "anonymous": false,
      "inputs": [
        {
          "indexed": false,
          "internalType": "uint256",
          "name": "claimableTreasuryPercent",
          "type": "uint256"
        }
      ],
      "name": "NewClaimableTreasuryPercent",
      "type": "event"
    },
    {
      "anonymous": false,
      "inputs": [
        {
          "indexed": false,
          "internalType": "uint256",
          "name": "minBetAmount",
          "type": "uint256"
        }
      ],
      "name": "NewMinBetAmount",
      "type": "event"
    },
    {
      "anonymous": false,
      "inputs": [
        {
          "indexed": true,
          "internalType": "address",
          "name": "operator",
          "type": "address"
        }
      ],
      "name": "NewOperator",
      "type": "event"
    },
    {
      "anonymous": false,
      "inputs": [
        {
          "indexed": false,
          "internalType": "uint256",
          "name": "treasuryFee",
          "type": "uint256"
        }
      ],
      "name": "NewTreasuryFee",
      "type": "event"
    },
    {
      "anonymous": false,
      "inputs": [
        {
          "indexed": true,
          "internalType": "address",
          "name": "previousOwner",
          "type": "address"
        },
        {
          "indexed": true,
          "internalType": "address",
          "name": "newOwner",
          "type": "address"
        }
      ],
      "name": "OwnershipTransferred",
      "type": "event"
    },
    {
      "anonymous": false,
      "inputs": [
        {
          "indexed": false,
          "internalType": "address",
          "name": "account",
          "type": "address"
        }
      ],
      "name": "Paused",
      "type": "event"
    },
    {
      "anonymous": false,
      "inputs": [
        {
          "indexed": true,
          "internalType": "address",
          "name": "admin",
          "type": "address"
        },
        {
          "indexed": false,
          "internalType": "uint256",
          "name": "amount",
          "type": "uint256"
        }
      ],
      "name": "TreasuryClaim",
      "type": "event"
    },
    {
      "anonymous": false,
      "inputs": [
        {
          "indexed": false,
          "internalType": "address",
          "name": "account",
          "type": "address"
        }
      ],
      "name": "Unpaused",
      "type": "event"
    },
    {
      "inputs": [],
      "name": "MAX_TREASURY_FEE",
      "outputs": [
        {
          "internalType": "uint256",
          "name": "",
          "type": "uint256"
        }
      ],
      "stateMutability": "view",
      "type": "function"
    },
    {
      "inputs": [],
      "name": "admin",
      "outputs": [
        {
          "internalType": "address",
          "name": "",
          "type": "address"
        }
      ],
      "stateMutability": "view",
      "type": "function"
    },
    {
      "inputs": [],
      "name": "claimableTreasuryPercent",
      "outputs": [
        {
          "internalType": "uint256",
          "name": "",
          "type": "uint256"
        }
      ],
      "stateMutability": "view",
      "type": "function"
    },
    {
      "inputs": [],
      "name": "minBetAmount",
      "outputs": [
        {
          "internalType": "uint256",
          "name": "",
          "type": "uint256"
        }
      ],
      "stateMutability": "view",
      "type": "function"
    },
    {
      "inputs": [],
      "name": "operator",
      "outputs": [
        {
          "internalType": "address",
          "name": "",
          "type": "address"
        }
      ],
      "stateMutability": "view",
      "type": "function"
    },
    {
      "inputs": [],
      "name": "owner",
      "outputs": [
        {
          "internalType": "address",
          "name": "",
          "type": "address"
        }
      ],
      "stateMutability": "view",
      "type": "function"
    },
    {
      "inputs": [],
      "name": "paused",
      "outputs": [
        {
          "internalType": "bool",
          "name": "",
          "type": "bool"
        }
      ],
      "stateMutability": "view",
      "type": "function"
    },
    {
      "inputs": [],
      "name": "renounceOwnership",
      "outputs": [],
      "stateMutability": "nonpayable",
      "type": "function"
    },
    {
      "inputs": [
        {
          "internalType": "address",
          "name": "newOwner",
          "type": "address"
        }
      ],
      "name": "transferOwnership",
      "outputs": [],
      "stateMutability": "nonpayable",
      "type": "function"
    },
    {
      "inputs": [],
      "name": "treasuryAmount",
      "outputs": [
        {
          "internalType": "uint256",
          "name": "",
          "type": "uint256"
        }
      ],
      "stateMutability": "view",
      "type": "function"
    },
    {
      "inputs": [],
      "name": "treasuryFee",
      "outputs": [
        {
          "internalType": "uint256",
          "name": "",
          "type": "uint256"
        }
      ],
      "stateMutability": "view",
      "type": "function"
    },
    {
      "stateMutability": "payable",
      "type": "receive"
    },
    {
      "inputs": [
        {
          "internalType": "uint256",
          "name": "_minBetAmount",
          "type": "uint256"
        }
      ],
      "name": "setMinBetAmount",
      "outputs": [],
      "stateMutability": "nonpayable",
      "type": "function"
    },
    {
      "inputs": [
        {
          "internalType": "uint256",
          "name": "_treasuryFee",
          "type": "uint256"
        }
      ],
      "name": "setTreasuryFee",
      "outputs": [],
      "stateMutability": "nonpayable",
      "type": "function"
    },
    {
      "inputs": [
        {
          "internalType": "address",
          "name": "_admin",
          "type": "address"
        }
      ],
      "name": "setAdmin",
      "outputs": [],
      "stateMutability": "nonpayable",
      "type": "function"
    },
    {
      "inputs": [
        {
          "internalType": "address",
          "name": "_operator",
          "type": "address"
        }
      ],
      "name": "setOperator",
      "outputs": [],
      "stateMutability": "nonpayable",
      "type": "function"
    },
    {
      "inputs": [
        {
          "internalType": "uint256",
          "name": "_claimableTreasuryPercent",
          "type": "uint256"
        }
      ],
      "name": "setClaimableTreasuryPercent",
      "outputs": [],
      "stateMutability": "nonpayable",
      "type": "function"
    },
    {
      "inputs": [],
      "name": "claimTreasury",
      "outputs": [],
      "stateMutability": "nonpayable",
      "type": "function"
    },
    {
      "inputs": [
        {
          "internalType": "address",
          "name": "_token",
          "type": "address"
        },
        {
          "internalType": "uint256",
          "name": "_amount",
          "type": "uint256"
        }
      ],
      "name": "recoverToken",
      "outputs": [],
      "stateMutability": "nonpayable",
      "type": "function"
    }
  ],
  "bytecode": "0x60806040526003600455662386f26fc1000060055560506007553480156200002657600080fd5b50620000476200003b6200012160201b60201c565b6200012960201b60201c565b60008060146101000a81548160ff0219169083151502179055506001808190555062000078620001ed60201b60201c565b600260006101000a81548173ffffffffffffffffffffffffffffffffffffffff021916908373ffffffffffffffffffffffffffffffffffffffff160217905550600260009054906101000a900473ffffffffffffffffffffffffffffffffffffffff16600360006101000a81548173ffffffffffffffffffffffffffffffffffffffff021916908373ffffffffffffffffffffffffffffffffffffffff16021790555062000216565b600033905090565b60008060009054906101000a900473ffffffffffffffffffffffffffffffffffffffff169050816000806101000a81548173ffffffffffffffffffffffffffffffffffffffff021916908373ffffffffffffffffffffffffffffffffffffffff1602179055508173ffffffffffffffffffffffffffffffffffffffff168173ffffffffffffffffffffffffffffffffffffffff167f8be0079c531659141344cd1fd0a4f28419497f9722a3daafe3b4186f6b6457e060405160405180910390a35050565b60008060009054906101000a900473ffffffffffffffffffffffffffffffffffffffff16905090565b6120d480620002266000396000f3fe60806040526004361061010c5760003560e01c80638da5cb5b11610095578063cc32d17611610064578063cc32d17614610313578063f2b3c8091461033e578063f2fde38b14610369578063f851a44014610392578063fa968eea146103bd57610113565b80638da5cb5b1461026b578063b29a814014610296578063b3ab15fb146102bf578063bddaca43146102e857610113565b80635c975abb116100dc5780635c975abb146101ae5780636c188593146101d9578063704b6c0214610202578063715018a61461022b57806377e741c71461024257610113565b80623bdc741461011857806319446cd41461012f578063368acb0914610158578063570ca7351461018357610113565b3661011357005b600080fd5b34801561012457600080fd5b5061012d6103e8565b005b34801561013b57600080fd5b5061015660048036038101906101519190611635565b6106e4565b005b34801561016457600080fd5b5061016d6107fa565b60405161017a9190611bb6565b60405180910390f35b34801561018f57600080fd5b50610198610800565b6040516101a59190611955565b60405180910390f35b3480156101ba57600080fd5b506101c3610826565b6040516101d09190611999565b60405180910390f35b3480156101e557600080fd5b5061020060048036038101906101fb9190611635565b61083c565b005b34801561020e57600080fd5b506102296004803603810190610224919061159b565b610998565b005b34801561023757600080fd5b50610240610b0b565b005b34801561024e57600080fd5b5061026960048036038101906102649190611635565b610b93565b005b34801561027757600080fd5b50610280610cee565b60405161028d9190611955565b60405180910390f35b3480156102a257600080fd5b506102bd60048036038101906102b891906115c8565b610d17565b005b3480156102cb57600080fd5b506102e660048036038101906102e1919061159b565b610ee2565b005b3480156102f457600080fd5b506102fd611055565b60405161030a9190611bb6565b60405180910390f35b34801561031f57600080fd5b5061032861105b565b6040516103359190611bb6565b60405180910390f35b34801561034a57600080fd5b50610353611061565b6040516103609190611bb6565b60405180910390f35b34801561037557600080fd5b50610390600480360381019061038b919061159b565b611066565b005b34801561039e57600080fd5b506103a761115e565b6040516103b49190611955565b60405180910390f35b3480156103c957600080fd5b506103d2611184565b6040516103df9190611bb6565b60405180910390f35b6002600154141561042e576040517f08c379a000000000000000000000000000000000000000000000000000000000815260040161042590611b76565b60405180910390fd5b6002600181905550600260009054906101000a900473ffffffffffffffffffffffffffffffffffffffff1673ffffffffffffffffffffffffffffffffffffffff163373ffffffffffffffffffffffffffffffffffffffff16146104c6576040517f08c379a00000000000000000000000000000000000000000000000000000000081526004016104bd90611b96565b60405180910390fd5b6104cf3361118a565b1561050f576040517f08c379a000000000000000000000000000000000000000000000000000000000815260040161050690611a36565b60405180910390fd5b3273ffffffffffffffffffffffffffffffffffffffff163373ffffffffffffffffffffffffffffffffffffffff161461057d576040517f08c379a000000000000000000000000000000000000000000000000000000000815260040161057490611ab6565b60405180910390fd5b600060646007544761058f9190611c34565b6105999190611c03565b90506000600260009054906101000a900473ffffffffffffffffffffffffffffffffffffffff1673ffffffffffffffffffffffffffffffffffffffff16826040516105e390611940565b60006040518083038185875af1925050503d8060008114610620576040519150601f19603f3d011682016040523d82523d6000602084013e610625565b606091505b5050905080610669576040517f08c379a0000000000000000000000000000000000000000000000000000000008152600401610660906119d6565b60405180910390fd5b600260009054906101000a900473ffffffffffffffffffffffffffffffffffffffff1673ffffffffffffffffffffffffffffffffffffffff167fecd60683965e7a828740c1cd2d719fab1ac61fd7b0e1871f1b38d9ee392ae1a7836040516106d19190611bb6565b60405180910390a2505060018081905550565b600260009054906101000a900473ffffffffffffffffffffffffffffffffffffffff1673ffffffffffffffffffffffffffffffffffffffff163373ffffffffffffffffffffffffffffffffffffffff1614610774576040517f08c379a000000000000000000000000000000000000000000000000000000000815260040161076b90611b96565b60405180910390fd5b600081116107b7576040517f08c379a00000000000000000000000000000000000000000000000000000000081526004016107ae90611af6565b60405180910390fd5b806007819055507fb3c38e3948eab3b348ca48fc24f958ced2d2611b79865a5468551af855971b8d6007546040516107ef9190611bb6565b60405180910390a150565b60065481565b600360009054906101000a900473ffffffffffffffffffffffffffffffffffffffff1681565b60008060149054906101000a900460ff16905090565b610844610826565b610883576040517f08c379a000000000000000000000000000000000000000000000000000000000815260040161087a906119f6565b60405180910390fd5b600260009054906101000a900473ffffffffffffffffffffffffffffffffffffffff1673ffffffffffffffffffffffffffffffffffffffff163373ffffffffffffffffffffffffffffffffffffffff1614610913576040517f08c379a000000000000000000000000000000000000000000000000000000000815260040161090a90611b96565b60405180910390fd5b6000811415610957576040517f08c379a000000000000000000000000000000000000000000000000000000000815260040161094e90611b16565b60405180910390fd5b806005819055507fbe054849fe210c446a3b3f68394753f210607326b38581dc64bd2e94a87f01828160405161098d9190611bb6565b60405180910390a150565b6109a061119d565b73ffffffffffffffffffffffffffffffffffffffff166109be610cee565b73ffffffffffffffffffffffffffffffffffffffff1614610a14576040517f08c379a0000000000000000000000000000000000000000000000000000000008152600401610a0b90611ad6565b60405180910390fd5b600073ffffffffffffffffffffffffffffffffffffffff168173ffffffffffffffffffffffffffffffffffffffff161415610a84576040517f08c379a0000000000000000000000000000000000000000000000000000000008152600401610a7b90611a96565b60405180910390fd5b80600260006101000a81548173ffffffffffffffffffffffffffffffffffffffff021916908373ffffffffffffffffffffffffffffffffffffffff1602179055508073ffffffffffffffffffffffffffffffffffffffff167f71614071b88dee5e0b2ae578a9dd7b2ebbe9ae832ba419dc0242cd065a290b6c60405160405180910390a250565b610b1361119d565b73ffffffffffffffffffffffffffffffffffffffff16610b31610cee565b73ffffffffffffffffffffffffffffffffffffffff1614610b87576040517f08c379a0000000000000000000000000000000000000000000000000000000008152600401610b7e90611ad6565b60405180910390fd5b610b9160006111a5565b565b610b9b610826565b610bda576040517f08c379a0000000000000000000000000000000000000000000000000000000008152600401610bd1906119f6565b60405180910390fd5b600260009054906101000a900473ffffffffffffffffffffffffffffffffffffffff1673ffffffffffffffffffffffffffffffffffffffff163373ffffffffffffffffffffffffffffffffffffffff1614610c6a576040517f08c379a0000000000000000000000000000000000000000000000000000000008152600401610c6190611b96565b60405180910390fd5b60058110610cad576040517f08c379a0000000000000000000000000000000000000000000000000000000008152600401610ca490611a56565b60405180910390fd5b806004819055507f938d9272b26145999fe14f6124b73f122e1e023fc5de069c74ade1254408a97681604051610ce39190611bb6565b60405180910390a150565b60008060009054906101000a900473ffffffffffffffffffffffffffffffffffffffff16905090565b60026001541415610d5d576040517f08c379a0000000000000000000000000000000000000000000000000000000008152600401610d5490611b76565b60405180910390fd5b6002600181905550600260009054906101000a900473ffffffffffffffffffffffffffffffffffffffff1673ffffffffffffffffffffffffffffffffffffffff163373ffffffffffffffffffffffffffffffffffffffff1614610df5576040517f08c379a0000000000000000000000000000000000000000000000000000000008152600401610dec90611b96565b60405180910390fd5b610dfe3361118a565b15610e3e576040517f08c379a0000000000000000000000000000000000000000000000000000000008152600401610e3590611a36565b60405180910390fd5b3273ffffffffffffffffffffffffffffffffffffffff163373ffffffffffffffffffffffffffffffffffffffff1614610eac576040517f08c379a0000000000000000000000000000000000000000000000000000000008152600401610ea390611ab6565b60405180910390fd5b610ed733828473ffffffffffffffffffffffffffffffffffffffff166112699092919063ffffffff16565b600180819055505050565b610eea61119d565b73ffffffffffffffffffffffffffffffffffffffff16610f08610cee565b73ffffffffffffffffffffffffffffffffffffffff1614610f5e576040517f08c379a0000000000000000000000000000000000000000000000000000000008152600401610f5590611ad6565b60405180910390fd5b600073ffffffffffffffffffffffffffffffffffffffff168173ffffffffffffffffffffffffffffffffffffffff161415610fce576040517f08c379a0000000000000000000000000000000000000000000000000000000008152600401610fc590611a96565b60405180910390fd5b80600360006101000a81548173ffffffffffffffffffffffffffffffffffffffff021916908373ffffffffffffffffffffffffffffffffffffffff1602179055508073ffffffffffffffffffffffffffffffffffffffff167fda12ee837e6978172aaf54b16145ffe08414fd8710092ef033c71b8eb6ec189a60405160405180910390a250565b60075481565b60045481565b600581565b61106e61119d565b73ffffffffffffffffffffffffffffffffffffffff1661108c610cee565b73ffffffffffffffffffffffffffffffffffffffff16146110e2576040517f08c379a00000000000000000000000000000000000000000000000000000000081526004016110d990611ad6565b60405180910390fd5b600073ffffffffffffffffffffffffffffffffffffffff168173ffffffffffffffffffffffffffffffffffffffff161415611152576040517f08c379a000000000000000000000000000000000000000000000000000000000815260040161114990611a16565b60405180910390fd5b61115b816111a5565b50565b600260009054906101000a900473ffffffffffffffffffffffffffffffffffffffff1681565b60055481565b600080823b905060008111915050919050565b600033905090565b60008060009054906101000a900473ffffffffffffffffffffffffffffffffffffffff169050816000806101000a81548173ffffffffffffffffffffffffffffffffffffffff021916908373ffffffffffffffffffffffffffffffffffffffff1602179055508173ffffffffffffffffffffffffffffffffffffffff168173ffffffffffffffffffffffffffffffffffffffff167f8be0079c531659141344cd1fd0a4f28419497f9722a3daafe3b4186f6b6457e060405160405180910390a35050565b6112ea8363a9059cbb60e01b8484604051602401611288929190611970565b604051602081830303815290604052907bffffffffffffffffffffffffffffffffffffffffffffffffffffffff19166020820180517bffffffffffffffffffffffffffffffffffffffffffffffffffffffff83818316178352505050506112ef565b505050565b6000611351826040518060400160405280602081526020017f5361666545524332303a206c6f772d6c6576656c2063616c6c206661696c65648152508573ffffffffffffffffffffffffffffffffffffffff166113b69092919063ffffffff16565b90506000815111156113b157808060200190518101906113719190611608565b6113b0576040517f08c379a00000000000000000000000000000000000000000000000000000000081526004016113a790611b56565b60405180910390fd5b5b505050565b60606113c584846000856113ce565b90509392505050565b606082471015611413576040517f08c379a000000000000000000000000000000000000000000000000000000000815260040161140a90611a76565b60405180910390fd5b61141c856114e2565b61145b576040517f08c379a000000000000000000000000000000000000000000000000000000000815260040161145290611b36565b60405180910390fd5b6000808673ffffffffffffffffffffffffffffffffffffffff1685876040516114849190611929565b60006040518083038185875af1925050503d80600081146114c1576040519150601f19603f3d011682016040523d82523d6000602084013e6114c6565b606091505b50915091506114d68282866114f5565b92505050949350505050565b600080823b905060008111915050919050565b6060831561150557829050611555565b6000835111156115185782518084602001fd5b816040517f08c379a000000000000000000000000000000000000000000000000000000000815260040161154c91906119b4565b60405180910390fd5b9392505050565b60008135905061156b81612059565b92915050565b60008151905061158081612070565b92915050565b60008135905061159581612087565b92915050565b6000602082840312156115b1576115b0611d67565b5b60006115bf8482850161155c565b91505092915050565b600080604083850312156115df576115de611d67565b5b60006115ed8582860161155c565b92505060206115fe85828601611586565b9150509250929050565b60006020828403121561161e5761161d611d67565b5b600061162c84828501611571565b91505092915050565b60006020828403121561164b5761164a611d67565b5b600061165984828501611586565b91505092915050565b61166b81611c8e565b82525050565b61167a81611ca0565b82525050565b600061168b82611bd1565b6116958185611be7565b93506116a5818560208601611cd6565b80840191505092915050565b60006116bc82611bdc565b6116c68185611bf2565b93506116d6818560208601611cd6565b6116df81611d6c565b840191505092915050565b60006116f7601f83611bf2565b915061170282611d7d565b602082019050919050565b600061171a601483611bf2565b915061172582611da6565b602082019050919050565b600061173d602683611bf2565b915061174882611dcf565b604082019050919050565b6000611760601483611bf2565b915061176b82611e1e565b602082019050919050565b6000611783601883611bf2565b915061178e82611e47565b602082019050919050565b60006117a6602683611bf2565b91506117b182611e70565b604082019050919050565b60006117c9601683611bf2565b91506117d482611ebf565b602082019050919050565b60006117ec601a83611bf2565b91506117f782611ee8565b602082019050919050565b600061180f602083611bf2565b915061181a82611f11565b602082019050919050565b6000611832601d83611bf2565b915061183d82611f3a565b602082019050919050565b6000611855601583611bf2565b915061186082611f63565b602082019050919050565b6000611878600083611be7565b915061188382611f8c565b600082019050919050565b600061189b601d83611bf2565b91506118a682611f8f565b602082019050919050565b60006118be602a83611bf2565b91506118c982611fb8565b604082019050919050565b60006118e1601f83611bf2565b91506118ec82612007565b602082019050919050565b6000611904600983611bf2565b915061190f82612030565b602082019050919050565b61192381611ccc565b82525050565b60006119358284611680565b915081905092915050565b600061194b8261186b565b9150819050919050565b600060208201905061196a6000830184611662565b92915050565b60006040820190506119856000830185611662565b611992602083018461191a565b9392505050565b60006020820190506119ae6000830184611671565b92915050565b600060208201905081810360008301526119ce81846116b1565b905092915050565b600060208201905081810360008301526119ef816116ea565b9050919050565b60006020820190508181036000830152611a0f8161170d565b9050919050565b60006020820190508181036000830152611a2f81611730565b9050919050565b60006020820190508181036000830152611a4f81611753565b9050919050565b60006020820190508181036000830152611a6f81611776565b9050919050565b60006020820190508181036000830152611a8f81611799565b9050919050565b60006020820190508181036000830152611aaf816117bc565b9050919050565b60006020820190508181036000830152611acf816117df565b9050919050565b60006020820190508181036000830152611aef81611802565b9050919050565b60006020820190508181036000830152611b0f81611825565b9050919050565b60006020820190508181036000830152611b2f81611848565b9050919050565b60006020820190508181036000830152611b4f8161188e565b9050919050565b60006020820190508181036000830152611b6f816118b1565b9050919050565b60006020820190508181036000830152611b8f816118d4565b9050919050565b60006020820190508181036000830152611baf816118f7565b9050919050565b6000602082019050611bcb600083018461191a565b92915050565b600081519050919050565b600081519050919050565b600081905092915050565b600082825260208201905092915050565b6000611c0e82611ccc565b9150611c1983611ccc565b925082611c2957611c28611d38565b5b828204905092915050565b6000611c3f82611ccc565b9150611c4a83611ccc565b9250817fffffffffffffffffffffffffffffffffffffffffffffffffffffffffffffffff0483118215151615611c8357611c82611d09565b5b828202905092915050565b6000611c9982611cac565b9050919050565b60008115159050919050565b600073ffffffffffffffffffffffffffffffffffffffff82169050919050565b6000819050919050565b60005b83811015611cf4578082015181840152602081019050611cd9565b83811115611d03576000848401525b50505050565b7f4e487b7100000000000000000000000000000000000000000000000000000000600052601160045260246000fd5b7f4e487b7100000000000000000000000000000000000000000000000000000000600052601260045260246000fd5b600080fd5b6000601f19601f8301169050919050565b7f5472616e7366657248656c7065723a205452414e534645525f4641494c454400600082015250565b7f5061757361626c653a206e6f7420706175736564000000000000000000000000600082015250565b7f4f776e61626c653a206e6577206f776e657220697320746865207a65726f206160008201527f6464726573730000000000000000000000000000000000000000000000000000602082015250565b7f436f6e7472616374206e6f7420616c6c6f776564000000000000000000000000600082015250565b7f54726561737572792066656520697320746f6f20686967680000000000000000600082015250565b7f416464726573733a20696e73756666696369656e742062616c616e636520666f60008201527f722063616c6c0000000000000000000000000000000000000000000000000000602082015250565b7f43616e6e6f74206265207a65726f206164647265737300000000000000000000600082015250565b7f50726f787920636f6e7472616374206e6f7420616c6c6f776564000000000000600082015250565b7f4f776e61626c653a2063616c6c6572206973206e6f7420746865206f776e6572600082015250565b7f416d6f756e742063616e6e6f74206265207a65726f206f72206c657373000000600082015250565b7f4d757374206265207375706572696f7220746f20300000000000000000000000600082015250565b50565b7f416464726573733a2063616c6c20746f206e6f6e2d636f6e7472616374000000600082015250565b7f5361666545524332303a204552433230206f7065726174696f6e20646964206e60008201527f6f74207375636365656400000000000000000000000000000000000000000000602082015250565b7f5265656e7472616e637947756172643a207265656e7472616e742063616c6c00600082015250565b7f4e6f742061646d696e0000000000000000000000000000000000000000000000600082015250565b61206281611c8e565b811461206d57600080fd5b50565b61207981611ca0565b811461208457600080fd5b50565b61209081611ccc565b811461209b57600080fd5b5056fea2646970667358221220781c42f859bc9bc4967fd35b777809df239ebc6cd46519ed4042524e08e34a0564736f6c63430008070033",
  "immutableReferences": {},
  "source": "// SPDX-License-Identifier: MIT\n\npragma solidity ^0.8.7;\n\nimport \"@openzeppelin/contracts/security/Pausable.sol\";\nimport \"@openzeppelin/contracts/access/Ownable.sol\";\nimport \"@openzeppelin/contracts/security/ReentrancyGuard.sol\";\nimport \"@openzeppelin/contracts/token/ERC20/utils/SafeERC20.sol\";\n\n/**\n * @title PredictionAdministrator\n */\ncontract PredictionAdministrator is Ownable, Pausable, ReentrancyGuard {\n\n    using SafeERC20 for IERC20;\n\n    address public admin;\n    address public operator;\n    uint256 public treasuryFee = 3; //default 3%\n    uint256 public constant MAX_TREASURY_FEE = 5; // 5%\n    uint256 public minBetAmount = 10000000000000000; // minimum betting default amount 0.01\n    uint256 public treasuryAmount; // funds in treasury collected from fee\n    uint256 public claimableTreasuryPercent = 80; //80%\n\n    event NewMinBetAmount(uint256 minBetAmount);\n    event NewTreasuryFee(uint256 treasuryFee);\n    event NewAdmin(address indexed admin);\n    event NewOperator(address indexed operator);\n    event NewClaimableTreasuryPercent(uint256 claimableTreasuryPercent);\n    event TreasuryClaim(address indexed admin, uint256 amount);\n\n    constructor() {\n        admin = owner();\n        operator = admin;\n    }\n\n    modifier onlyAdmin() {\n        require(msg.sender == admin, \"Not admin\");\n        _;\n    }\n\n    modifier onlyOperator() {\n        require(msg.sender == operator, \"Not operator\");\n        _;\n    }\n\n    modifier notContract() {\n        require(!_isContract(msg.sender), \"Contract not allowed\");\n        require(msg.sender == tx.origin, \"Proxy contract not allowed\");\n        _;\n    }\n\n    /**\n     * @notice Returns true if `account` is a contract.\n     * @param account: account address\n     */\n    function _isContract(address account) internal view returns (bool) {\n        uint256 size;\n        assembly {\n            size := extcodesize(account)\n        }\n        return size > 0;\n    }\n\n    /**\n     * @notice Set minBetAmount\n     * @dev Callable by admin\n     * @param _minBetAmount: minimum bet amount to be set\n     */\n    function setMinBetAmount(uint256 _minBetAmount) external whenPaused onlyAdmin {\n        require(_minBetAmount != 0, \"Must be superior to 0\");\n        minBetAmount = _minBetAmount;\n\n        emit NewMinBetAmount(_minBetAmount);\n    }\n\n    /**\n     * @notice Set Treasury Fee\n     * @dev Callable by admin\n     * @param _treasuryFee: new treasury fee\n     */\n    function setTreasuryFee(uint256 _treasuryFee) external whenPaused onlyAdmin {\n        require(_treasuryFee < MAX_TREASURY_FEE, \"Treasury fee is too high\");\n        treasuryFee = _treasuryFee;\n\n        emit NewTreasuryFee(_treasuryFee);\n    }\n\n    /**\n     * @notice Set admin\n     * @dev callable by Owner of the contract\n     * @param _admin: new admin address\n     */\n    function setAdmin(address _admin) external onlyOwner {\n        require(_admin != address(0), \"Cannot be zero address\");\n        admin = _admin;\n\n        emit NewAdmin(_admin);\n    }\n\n    /**\n     * @notice Set operator\n     * @dev callable by Owner of the contract\n     * @param _operator: new operator address\n     */\n    function setOperator(address _operator) external onlyOwner {\n        require(_operator != address(0), \"Cannot be zero address\");\n        operator = _operator;\n\n        emit NewOperator(_operator);\n    }\n    \n    /**\n    * @notice Add funds\n    */\n    receive() external payable {\n    }\n\n    /**\n    * @notice Set Claimabble Treasury Percent\n    * @dev callable by Admin\n    * @param _claimableTreasuryPercent: claimable percent\n    */\n    function setClaimableTreasuryPercent(uint256 _claimableTreasuryPercent)  external onlyAdmin {\n        require(_claimableTreasuryPercent > 0, \"Amount cannot be zero or less\");\n        claimableTreasuryPercent = _claimableTreasuryPercent;\n\n        emit NewClaimableTreasuryPercent(claimableTreasuryPercent);\n    }\n\n    /**\n     * @notice Claim 80% of treasury fund - collected as fee\n     * @dev Callable by admin\n     */\n    function claimTreasury() external nonReentrant onlyAdmin notContract {\n        uint256 claimableTreasuryAmount = ((address(this).balance * claimableTreasuryPercent) / 100);\n        (bool success, ) = admin.call{value: claimableTreasuryAmount}(\"\");\n        require(success, \"TransferHelper: TRANSFER_FAILED\");\n\n        emit TreasuryClaim(admin, claimableTreasuryAmount);\n    }\n\n    /**\n     * @notice Recover tokens sent by mistake\n     * @param _token: token address\n     * @param _amount: token amount\n     * @dev Callable by owner\n     */\n    function recoverToken(address _token, uint256 _amount) external nonReentrant onlyAdmin notContract {\n        IERC20(_token).safeTransfer(address(msg.sender), _amount);\n    }\n\n}\n",
  "sourcePath": "/Users/rangs/betbee/betbee-monorepo/contracts/prediction/PredictionAdministrator.sol",
  "compiler": {
    "name": "solc",
    "version": "0.8.7+commit.e28d00a7.Emscripten.clang"
  },
  "schemaVersion": "3.4.3",
  "updatedAt": "2022-01-31T18:15:42.606Z",
  "devdoc": {
    "kind": "dev",
    "methods": {
      "claimTreasury()": {
        "details": "Callable by admin"
      },
      "owner()": {
        "details": "Returns the address of the current owner."
      },
      "paused()": {
        "details": "Returns true if the contract is paused, and false otherwise."
      },
      "recoverToken(address,uint256)": {
        "details": "Callable by owner",
        "params": {
          "_amount": ": token amount",
          "_token": ": token address"
        }
      },
      "renounceOwnership()": {
        "details": "Leaves the contract without owner. It will not be possible to call `onlyOwner` functions anymore. Can only be called by the current owner. NOTE: Renouncing ownership will leave the contract without an owner, thereby removing any functionality that is only available to the owner."
      },
      "setAdmin(address)": {
        "details": "callable by Owner of the contract",
        "params": {
          "_admin": ": new admin address"
        }
      },
      "setClaimableTreasuryPercent(uint256)": {
        "details": "callable by Admin",
        "params": {
          "_claimableTreasuryPercent": ": claimable percent"
        }
      },
      "setMinBetAmount(uint256)": {
        "details": "Callable by admin",
        "params": {
          "_minBetAmount": ": minimum bet amount to be set"
        }
      },
      "setOperator(address)": {
        "details": "callable by Owner of the contract",
        "params": {
          "_operator": ": new operator address"
        }
      },
      "setTreasuryFee(uint256)": {
        "details": "Callable by admin",
        "params": {
          "_treasuryFee": ": new treasury fee"
        }
      },
      "transferOwnership(address)": {
        "details": "Transfers ownership of the contract to a new account (`newOwner`). Can only be called by the current owner."
      }
    },
    "title": "PredictionAdministrator",
    "version": 1
  },
  "userdoc": {
    "kind": "user",
    "methods": {
      "claimTreasury()": {
        "notice": "Claim 80% of treasury fund - collected as fee"
      },
      "recoverToken(address,uint256)": {
        "notice": "Recover tokens sent by mistake"
      },
      "setAdmin(address)": {
        "notice": "Set admin"
      },
      "setClaimableTreasuryPercent(uint256)": {
        "notice": "Set Claimabble Treasury Percent"
      },
      "setMinBetAmount(uint256)": {
        "notice": "Set minBetAmount"
      },
      "setOperator(address)": {
        "notice": "Set operator"
      },
      "setTreasuryFee(uint256)": {
        "notice": "Set Treasury Fee"
      }
    },
    "version": 1
  }
}