{
  "contractName": "PredictionAdministrator",
  "abi": [
    {
      "inputs": [
        {
          "internalType": "address",
          "name": "_adminAddress",
          "type": "address"
        },
        {
          "internalType": "uint256",
          "name": "_minBetAmount",
          "type": "uint256"
        },
        {
          "internalType": "uint256",
          "name": "_treasuryFee",
          "type": "uint256"
        }
      ],
      "stateMutability": "nonpayable",
      "type": "constructor"
    },
    {
      "anonymous": false,
      "inputs": [
        {
          "indexed": true,
          "internalType": "address",
          "name": "admin",
          "type": "address"
        }
      ],
      "name": "NewAdmin",
      "type": "event"
    },
    {
      "anonymous": false,
      "inputs": [
        {
          "indexed": false,
          "internalType": "uint256",
          "name": "claimableTreasuryPercent",
          "type": "uint256"
        }
      ],
      "name": "NewClaimableTreasuryPercent",
      "type": "event"
    },
    {
      "anonymous": false,
      "inputs": [
        {
          "indexed": false,
          "internalType": "uint256",
          "name": "minBetAmount",
          "type": "uint256"
        }
      ],
      "name": "NewMinBetAmount",
      "type": "event"
    },
    {
      "anonymous": false,
      "inputs": [
        {
          "indexed": true,
          "internalType": "address",
          "name": "operator",
          "type": "address"
        }
      ],
      "name": "NewOperator",
      "type": "event"
    },
    {
      "anonymous": false,
      "inputs": [
        {
          "indexed": false,
          "internalType": "uint256",
          "name": "treasuryFee",
          "type": "uint256"
        }
      ],
      "name": "NewTreasuryFee",
      "type": "event"
    },
    {
      "anonymous": false,
      "inputs": [
        {
          "indexed": true,
          "internalType": "address",
          "name": "previousOwner",
          "type": "address"
        },
        {
          "indexed": true,
          "internalType": "address",
          "name": "newOwner",
          "type": "address"
        }
      ],
      "name": "OwnershipTransferred",
      "type": "event"
    },
    {
      "anonymous": false,
      "inputs": [
        {
          "indexed": false,
          "internalType": "address",
          "name": "account",
          "type": "address"
        }
      ],
      "name": "Paused",
      "type": "event"
    },
    {
      "anonymous": false,
      "inputs": [
        {
          "indexed": true,
          "internalType": "address",
          "name": "admin",
          "type": "address"
        },
        {
          "indexed": false,
          "internalType": "uint256",
          "name": "amount",
          "type": "uint256"
        }
      ],
      "name": "TreasuryClaim",
      "type": "event"
    },
    {
      "anonymous": false,
      "inputs": [
        {
          "indexed": false,
          "internalType": "address",
          "name": "account",
          "type": "address"
        }
      ],
      "name": "Unpaused",
      "type": "event"
    },
    {
      "inputs": [],
      "name": "MAX_TREASURY_FEE",
      "outputs": [
        {
          "internalType": "uint256",
          "name": "",
          "type": "uint256"
        }
      ],
      "stateMutability": "view",
      "type": "function"
    },
    {
      "inputs": [],
      "name": "claimableTreasuryPercent",
      "outputs": [
        {
          "internalType": "uint256",
          "name": "",
          "type": "uint256"
        }
      ],
      "stateMutability": "view",
      "type": "function"
    },
    {
      "inputs": [],
      "name": "minBetAmount",
      "outputs": [
        {
          "internalType": "uint256",
          "name": "",
          "type": "uint256"
        }
      ],
      "stateMutability": "view",
      "type": "function"
    },
    {
      "inputs": [],
      "name": "operator",
      "outputs": [
        {
          "internalType": "address",
          "name": "",
          "type": "address"
        }
      ],
      "stateMutability": "view",
      "type": "function"
    },
    {
      "inputs": [],
      "name": "owner",
      "outputs": [
        {
          "internalType": "address",
          "name": "",
          "type": "address"
        }
      ],
      "stateMutability": "view",
      "type": "function"
    },
    {
      "inputs": [],
      "name": "paused",
      "outputs": [
        {
          "internalType": "bool",
          "name": "",
          "type": "bool"
        }
      ],
      "stateMutability": "view",
      "type": "function"
    },
    {
      "inputs": [],
      "name": "renounceOwnership",
      "outputs": [],
      "stateMutability": "nonpayable",
      "type": "function"
    },
    {
      "inputs": [
        {
          "internalType": "address",
          "name": "newOwner",
          "type": "address"
        }
      ],
      "name": "transferOwnership",
      "outputs": [],
      "stateMutability": "nonpayable",
      "type": "function"
    },
    {
      "inputs": [],
      "name": "treasuryAmount",
      "outputs": [
        {
          "internalType": "uint256",
          "name": "",
          "type": "uint256"
        }
      ],
      "stateMutability": "view",
      "type": "function"
    },
    {
      "inputs": [],
      "name": "treasuryFee",
      "outputs": [
        {
          "internalType": "uint256",
          "name": "",
          "type": "uint256"
        }
      ],
      "stateMutability": "view",
      "type": "function"
    },
    {
      "stateMutability": "payable",
      "type": "receive"
    },
    {
      "inputs": [
        {
          "internalType": "uint256",
          "name": "_minBetAmount",
          "type": "uint256"
        }
      ],
      "name": "setMinBetAmount",
      "outputs": [],
      "stateMutability": "nonpayable",
      "type": "function"
    },
    {
      "inputs": [
        {
          "internalType": "uint256",
          "name": "_treasuryFee",
          "type": "uint256"
        }
      ],
      "name": "setTreasuryFee",
      "outputs": [],
      "stateMutability": "nonpayable",
      "type": "function"
    },
    {
      "inputs": [
        {
          "internalType": "address",
          "name": "_admin",
          "type": "address"
        }
      ],
      "name": "setAdmin",
      "outputs": [],
      "stateMutability": "nonpayable",
      "type": "function"
    },
    {
      "inputs": [
        {
          "internalType": "address",
          "name": "_operator",
          "type": "address"
        }
      ],
      "name": "setOperator",
      "outputs": [],
      "stateMutability": "nonpayable",
      "type": "function"
    },
    {
      "inputs": [
        {
          "internalType": "uint256",
          "name": "_claimableTreasuryPercent",
          "type": "uint256"
        }
      ],
      "name": "setClaimableTreasuryPercent",
      "outputs": [],
      "stateMutability": "nonpayable",
      "type": "function"
    },
    {
      "inputs": [],
      "name": "claimTreasury",
      "outputs": [],
      "stateMutability": "nonpayable",
      "type": "function"
    },
    {
      "inputs": [],
      "name": "getAdmin",
      "outputs": [
        {
          "internalType": "address",
          "name": "",
          "type": "address"
        }
      ],
      "stateMutability": "view",
      "type": "function"
    }
  ],
  "bytecode": "0x608060405260506007553480156200001657600080fd5b5060405162001e4038038062001e4083398181016040528101906200003c919062000310565b6200005c620000506200021660201b60201c565b6200021e60201b60201c565b60008060146101000a81548160ff0219169083151502179055506001808190555060008211620000c3576040517f08c379a0000000000000000000000000000000000000000000000000000000008152600401620000ba9062000425565b60405180910390fd5b60058111156200010a576040517f08c379a0000000000000000000000000000000000000000000000000000000008152600401620001019062000403565b60405180910390fd5b600073ffffffffffffffffffffffffffffffffffffffff168373ffffffffffffffffffffffffffffffffffffffff1614156200017d576040517f08c379a00000000000000000000000000000000000000000000000000000000081526004016200017490620003e1565b60405180910390fd5b82600260006101000a81548173ffffffffffffffffffffffffffffffffffffffff021916908373ffffffffffffffffffffffffffffffffffffffff16021790555082600360006101000a81548173ffffffffffffffffffffffffffffffffffffffff021916908373ffffffffffffffffffffffffffffffffffffffff16021790555081600581905550806004819055505050506200054a565b600033905090565b60008060009054906101000a900473ffffffffffffffffffffffffffffffffffffffff169050816000806101000a81548173ffffffffffffffffffffffffffffffffffffffff021916908373ffffffffffffffffffffffffffffffffffffffff1602179055508173ffffffffffffffffffffffffffffffffffffffff168173ffffffffffffffffffffffffffffffffffffffff167f8be0079c531659141344cd1fd0a4f28419497f9722a3daafe3b4186f6b6457e060405160405180910390a35050565b600081519050620002f38162000516565b92915050565b6000815190506200030a8162000530565b92915050565b6000806000606084860312156200032c576200032b62000496565b5b60006200033c86828701620002e2565b93505060206200034f86828701620002f9565b92505060406200036286828701620002f9565b9150509250925092565b60006200037b60158362000447565b915062000388826200049b565b602082019050919050565b6000620003a260188362000447565b9150620003af82620004c4565b602082019050919050565b6000620003c960168362000447565b9150620003d682620004ed565b602082019050919050565b60006020820190508181036000830152620003fc816200036c565b9050919050565b600060208201905081810360008301526200041e8162000393565b9050919050565b600060208201905081810360008301526200044081620003ba565b9050919050565b600082825260208201905092915050565b600062000465826200046c565b9050919050565b600073ffffffffffffffffffffffffffffffffffffffff82169050919050565b6000819050919050565b600080fd5b7f496e76616c69642061646d696e20616464726573730000000000000000000000600082015250565b7f54726561737572792066656520697320746f6f20686967680000000000000000600082015250565b7f496e76616c6964204d696e2062657420616d6f756e7400000000000000000000600082015250565b620005218162000458565b81146200052d57600080fd5b50565b6200053b816200048c565b81146200054757600080fd5b50565b6118e6806200055a6000396000f3fe6080604052600436106101015760003560e01c8063715018a611610095578063bddaca4311610064578063bddaca43146102df578063cc32d1761461030a578063f2b3c80914610335578063f2fde38b14610360578063fa968eea1461038957610108565b8063715018a61461024b57806377e741c7146102625780638da5cb5b1461028b578063b3ab15fb146102b657610108565b80635c975abb116100d15780635c975abb146101a35780636c188593146101ce5780636e9960c3146101f7578063704b6c021461022257610108565b80623bdc741461010d57806319446cd414610124578063368acb091461014d578063570ca7351461017857610108565b3661010857005b600080fd5b34801561011957600080fd5b506101226103b4565b005b34801561013057600080fd5b5061014b600480360381019061014691906110e0565b6106cb565b005b34801561015957600080fd5b506101626107e1565b60405161016f91906114cc565b60405180910390f35b34801561018457600080fd5b5061018d6107e7565b60405161019a9190611316565b60405180910390f35b3480156101af57600080fd5b506101b861080d565b6040516101c59190611331565b60405180910390f35b3480156101da57600080fd5b506101f560048036038101906101f091906110e0565b610823565b005b34801561020357600080fd5b5061020c61097f565b6040516102199190611316565b60405180910390f35b34801561022e57600080fd5b50610249600480360381019061024491906110b3565b6109a9565b005b34801561025757600080fd5b50610260610b1c565b005b34801561026e57600080fd5b50610289600480360381019061028491906110e0565b610ba4565b005b34801561029757600080fd5b506102a0610cff565b6040516102ad9190611316565b60405180910390f35b3480156102c257600080fd5b506102dd60048036038101906102d891906110b3565b610d28565b005b3480156102eb57600080fd5b506102f4610e9b565b60405161030191906114cc565b60405180910390f35b34801561031657600080fd5b5061031f610ea1565b60405161032c91906114cc565b60405180910390f35b34801561034157600080fd5b5061034a610ea7565b60405161035791906114cc565b60405180910390f35b34801561036c57600080fd5b50610387600480360381019061038291906110b3565b610eac565b005b34801561039557600080fd5b5061039e610fa4565b6040516103ab91906114cc565b60405180910390f35b600260015414156103fa576040517f08c379a00000000000000000000000000000000000000000000000000000000081526004016103f19061148c565b60405180910390fd5b6002600181905550600260009054906101000a900473ffffffffffffffffffffffffffffffffffffffff1673ffffffffffffffffffffffffffffffffffffffff163373ffffffffffffffffffffffffffffffffffffffff1614610492576040517f08c379a0000000000000000000000000000000000000000000000000000000008152600401610489906114ac565b60405180910390fd5b61049b33610faa565b156104db576040517f08c379a00000000000000000000000000000000000000000000000000000000081526004016104d2906113ac565b60405180910390fd5b3273ffffffffffffffffffffffffffffffffffffffff163373ffffffffffffffffffffffffffffffffffffffff1614610549576040517f08c379a00000000000000000000000000000000000000000000000000000000081526004016105409061140c565b60405180910390fd5b6000606460075460065461055d9190611534565b6105679190611503565b9050806006600082825461057b919061158e565b925050819055506000600260009054906101000a900473ffffffffffffffffffffffffffffffffffffffff1673ffffffffffffffffffffffffffffffffffffffff16826040516105ca90611301565b60006040518083038185875af1925050503d8060008114610607576040519150601f19603f3d011682016040523d82523d6000602084013e61060c565b606091505b5050905080610650576040517f08c379a00000000000000000000000000000000000000000000000000000000081526004016106479061134c565b60405180910390fd5b600260009054906101000a900473ffffffffffffffffffffffffffffffffffffffff1673ffffffffffffffffffffffffffffffffffffffff167fecd60683965e7a828740c1cd2d719fab1ac61fd7b0e1871f1b38d9ee392ae1a7836040516106b891906114cc565b60405180910390a2505060018081905550565b600260009054906101000a900473ffffffffffffffffffffffffffffffffffffffff1673ffffffffffffffffffffffffffffffffffffffff163373ffffffffffffffffffffffffffffffffffffffff161461075b576040517f08c379a0000000000000000000000000000000000000000000000000000000008152600401610752906114ac565b60405180910390fd5b6000811161079e576040517f08c379a00000000000000000000000000000000000000000000000000000000081526004016107959061144c565b60405180910390fd5b806007819055507fb3c38e3948eab3b348ca48fc24f958ced2d2611b79865a5468551af855971b8d6007546040516107d691906114cc565b60405180910390a150565b60065481565b600360009054906101000a900473ffffffffffffffffffffffffffffffffffffffff1681565b60008060149054906101000a900460ff16905090565b61082b61080d565b61086a576040517f08c379a00000000000000000000000000000000000000000000000000000000081526004016108619061136c565b60405180910390fd5b600260009054906101000a900473ffffffffffffffffffffffffffffffffffffffff1673ffffffffffffffffffffffffffffffffffffffff163373ffffffffffffffffffffffffffffffffffffffff16146108fa576040517f08c379a00000000000000000000000000000000000000000000000000000000081526004016108f1906114ac565b60405180910390fd5b600081141561093e576040517f08c379a00000000000000000000000000000000000000000000000000000000081526004016109359061146c565b60405180910390fd5b806005819055507fbe054849fe210c446a3b3f68394753f210607326b38581dc64bd2e94a87f01828160405161097491906114cc565b60405180910390a150565b6000600260009054906101000a900473ffffffffffffffffffffffffffffffffffffffff16905090565b6109b1610fbd565b73ffffffffffffffffffffffffffffffffffffffff166109cf610cff565b73ffffffffffffffffffffffffffffffffffffffff1614610a25576040517f08c379a0000000000000000000000000000000000000000000000000000000008152600401610a1c9061142c565b60405180910390fd5b600073ffffffffffffffffffffffffffffffffffffffff168173ffffffffffffffffffffffffffffffffffffffff161415610a95576040517f08c379a0000000000000000000000000000000000000000000000000000000008152600401610a8c906113ec565b60405180910390fd5b80600260006101000a81548173ffffffffffffffffffffffffffffffffffffffff021916908373ffffffffffffffffffffffffffffffffffffffff1602179055508073ffffffffffffffffffffffffffffffffffffffff167f71614071b88dee5e0b2ae578a9dd7b2ebbe9ae832ba419dc0242cd065a290b6c60405160405180910390a250565b610b24610fbd565b73ffffffffffffffffffffffffffffffffffffffff16610b42610cff565b73ffffffffffffffffffffffffffffffffffffffff1614610b98576040517f08c379a0000000000000000000000000000000000000000000000000000000008152600401610b8f9061142c565b60405180910390fd5b610ba26000610fc5565b565b610bac61080d565b610beb576040517f08c379a0000000000000000000000000000000000000000000000000000000008152600401610be29061136c565b60405180910390fd5b600260009054906101000a900473ffffffffffffffffffffffffffffffffffffffff1673ffffffffffffffffffffffffffffffffffffffff163373ffffffffffffffffffffffffffffffffffffffff1614610c7b576040517f08c379a0000000000000000000000000000000000000000000000000000000008152600401610c72906114ac565b60405180910390fd5b60058110610cbe576040517f08c379a0000000000000000000000000000000000000000000000000000000008152600401610cb5906113cc565b60405180910390fd5b806004819055507f938d9272b26145999fe14f6124b73f122e1e023fc5de069c74ade1254408a97681604051610cf491906114cc565b60405180910390a150565b60008060009054906101000a900473ffffffffffffffffffffffffffffffffffffffff16905090565b610d30610fbd565b73ffffffffffffffffffffffffffffffffffffffff16610d4e610cff565b73ffffffffffffffffffffffffffffffffffffffff1614610da4576040517f08c379a0000000000000000000000000000000000000000000000000000000008152600401610d9b9061142c565b60405180910390fd5b600073ffffffffffffffffffffffffffffffffffffffff168173ffffffffffffffffffffffffffffffffffffffff161415610e14576040517f08c379a0000000000000000000000000000000000000000000000000000000008152600401610e0b906113ec565b60405180910390fd5b80600360006101000a81548173ffffffffffffffffffffffffffffffffffffffff021916908373ffffffffffffffffffffffffffffffffffffffff1602179055508073ffffffffffffffffffffffffffffffffffffffff167fda12ee837e6978172aaf54b16145ffe08414fd8710092ef033c71b8eb6ec189a60405160405180910390a250565b60075481565b60045481565b600581565b610eb4610fbd565b73ffffffffffffffffffffffffffffffffffffffff16610ed2610cff565b73ffffffffffffffffffffffffffffffffffffffff1614610f28576040517f08c379a0000000000000000000000000000000000000000000000000000000008152600401610f1f9061142c565b60405180910390fd5b600073ffffffffffffffffffffffffffffffffffffffff168173ffffffffffffffffffffffffffffffffffffffff161415610f98576040517f08c379a0000000000000000000000000000000000000000000000000000000008152600401610f8f9061138c565b60405180910390fd5b610fa181610fc5565b50565b60055481565b600080823b905060008111915050919050565b600033905090565b60008060009054906101000a900473ffffffffffffffffffffffffffffffffffffffff169050816000806101000a81548173ffffffffffffffffffffffffffffffffffffffff021916908373ffffffffffffffffffffffffffffffffffffffff1602179055508173ffffffffffffffffffffffffffffffffffffffff168173ffffffffffffffffffffffffffffffffffffffff167f8be0079c531659141344cd1fd0a4f28419497f9722a3daafe3b4186f6b6457e060405160405180910390a35050565b60008135905061109881611882565b92915050565b6000813590506110ad81611899565b92915050565b6000602082840312156110c9576110c8611668565b5b60006110d784828501611089565b91505092915050565b6000602082840312156110f6576110f5611668565b5b60006111048482850161109e565b91505092915050565b611116816115c2565b82525050565b611125816115d4565b82525050565b6000611138601f836114f2565b91506111438261166d565b602082019050919050565b600061115b6014836114f2565b915061116682611696565b602082019050919050565b600061117e6026836114f2565b9150611189826116bf565b604082019050919050565b60006111a16014836114f2565b91506111ac8261170e565b602082019050919050565b60006111c46018836114f2565b91506111cf82611737565b602082019050919050565b60006111e76016836114f2565b91506111f282611760565b602082019050919050565b600061120a601a836114f2565b915061121582611789565b602082019050919050565b600061122d6020836114f2565b9150611238826117b2565b602082019050919050565b6000611250601d836114f2565b915061125b826117db565b602082019050919050565b60006112736015836114f2565b915061127e82611804565b602082019050919050565b60006112966000836114e7565b91506112a18261182d565b600082019050919050565b60006112b9601f836114f2565b91506112c482611830565b602082019050919050565b60006112dc6009836114f2565b91506112e782611859565b602082019050919050565b6112fb81611600565b82525050565b600061130c82611289565b9150819050919050565b600060208201905061132b600083018461110d565b92915050565b6000602082019050611346600083018461111c565b92915050565b600060208201905081810360008301526113658161112b565b9050919050565b600060208201905081810360008301526113858161114e565b9050919050565b600060208201905081810360008301526113a581611171565b9050919050565b600060208201905081810360008301526113c581611194565b9050919050565b600060208201905081810360008301526113e5816111b7565b9050919050565b60006020820190508181036000830152611405816111da565b9050919050565b60006020820190508181036000830152611425816111fd565b9050919050565b6000602082019050818103600083015261144581611220565b9050919050565b6000602082019050818103600083015261146581611243565b9050919050565b6000602082019050818103600083015261148581611266565b9050919050565b600060208201905081810360008301526114a5816112ac565b9050919050565b600060208201905081810360008301526114c5816112cf565b9050919050565b60006020820190506114e160008301846112f2565b92915050565b600081905092915050565b600082825260208201905092915050565b600061150e82611600565b915061151983611600565b92508261152957611528611639565b5b828204905092915050565b600061153f82611600565b915061154a83611600565b9250817fffffffffffffffffffffffffffffffffffffffffffffffffffffffffffffffff04831182151516156115835761158261160a565b5b828202905092915050565b600061159982611600565b91506115a483611600565b9250828210156115b7576115b661160a565b5b828203905092915050565b60006115cd826115e0565b9050919050565b60008115159050919050565b600073ffffffffffffffffffffffffffffffffffffffff82169050919050565b6000819050919050565b7f4e487b7100000000000000000000000000000000000000000000000000000000600052601160045260246000fd5b7f4e487b7100000000000000000000000000000000000000000000000000000000600052601260045260246000fd5b600080fd5b7f5472616e7366657248656c7065723a205452414e534645525f4641494c454400600082015250565b7f5061757361626c653a206e6f7420706175736564000000000000000000000000600082015250565b7f4f776e61626c653a206e6577206f776e657220697320746865207a65726f206160008201527f6464726573730000000000000000000000000000000000000000000000000000602082015250565b7f436f6e7472616374206e6f7420616c6c6f776564000000000000000000000000600082015250565b7f54726561737572792066656520697320746f6f20686967680000000000000000600082015250565b7f43616e6e6f74206265207a65726f206164647265737300000000000000000000600082015250565b7f50726f787920636f6e7472616374206e6f7420616c6c6f776564000000000000600082015250565b7f4f776e61626c653a2063616c6c6572206973206e6f7420746865206f776e6572600082015250565b7f416d6f756e742063616e6e6f74206265207a65726f206f72206c657373000000600082015250565b7f4d757374206265207375706572696f7220746f20300000000000000000000000600082015250565b50565b7f5265656e7472616e637947756172643a207265656e7472616e742063616c6c00600082015250565b7f4e6f742061646d696e0000000000000000000000000000000000000000000000600082015250565b61188b816115c2565b811461189657600080fd5b50565b6118a281611600565b81146118ad57600080fd5b5056fea2646970667358221220e57f753b84ee157c527da56d1c41a2fd4b9d28bbb3944056181676a3cc22e82864736f6c63430008070033",
  "immutableReferences": {},
  "source": "// SPDX-License-Identifier: MIT\n\npragma solidity ^0.8.7;\n\nimport \"@openzeppelin/contracts/security/Pausable.sol\";\nimport \"@openzeppelin/contracts/access/Ownable.sol\";\nimport \"@openzeppelin/contracts/security/ReentrancyGuard.sol\";\n\n/**\n * @title PredictionAdministrator\n */\ncontract PredictionAdministrator is Ownable, Pausable, ReentrancyGuard {\n\n    address private admin;\n    address public operator;\n    uint256 public treasuryFee;\n    uint256 public constant MAX_TREASURY_FEE = 5; // 5%\n    uint256 public minBetAmount; // minimum betting amount (denominated in wei)\n    uint256 public treasuryAmount; // funds in treasury collected from fee\n    uint256 public claimableTreasuryPercent = 80; //80%\n\n    event NewMinBetAmount(uint256 minBetAmount);\n    event NewTreasuryFee(uint256 treasuryFee);\n    event NewAdmin(address indexed admin);\n    event NewOperator(address indexed operator);\n    event NewClaimableTreasuryPercent(uint256 claimableTreasuryPercent);\n    event TreasuryClaim(address indexed admin, uint256 amount);\n\n    constructor(address _adminAddress, uint256 _minBetAmount, uint256 _treasuryFee) {\n        require(_minBetAmount > 0, \"Invalid Min bet amount\");\n        require(_treasuryFee <= MAX_TREASURY_FEE, \"Treasury fee is too high\");\n        require(_adminAddress != address(0), \"Invalid admin address\");\n        admin = _adminAddress;\n        operator = _adminAddress;\n        minBetAmount = _minBetAmount;\n        treasuryFee = _treasuryFee;\n    }\n\n    modifier onlyAdmin() {\n        require(msg.sender == admin, \"Not admin\");\n        _;\n    }\n\n    modifier onlyOperator() {\n        require(msg.sender == operator, \"Not operator\");\n        _;\n    }\n\n    modifier notContract() {\n        require(!_isContract(msg.sender), \"Contract not allowed\");\n        require(msg.sender == tx.origin, \"Proxy contract not allowed\");\n        _;\n    }\n\n    /**\n     * @notice Returns true if `account` is a contract.\n     * @param account: account address\n     */\n    function _isContract(address account) internal view returns (bool) {\n        uint256 size;\n        assembly {\n            size := extcodesize(account)\n        }\n        return size > 0;\n    }\n\n    /**\n     * @notice Set minBetAmount\n     * @dev Callable by admin\n     * @param _minBetAmount: minimum bet amount to be set\n     */\n    function setMinBetAmount(uint256 _minBetAmount) external whenPaused onlyAdmin {\n        require(_minBetAmount != 0, \"Must be superior to 0\");\n        minBetAmount = _minBetAmount;\n\n        emit NewMinBetAmount(_minBetAmount);\n    }\n\n    /**\n     * @notice Set Treasury Fee\n     * @dev Callable by admin\n     * @param _treasuryFee: new treasury fee\n     */\n    function setTreasuryFee(uint256 _treasuryFee) external whenPaused onlyAdmin {\n        require(_treasuryFee < MAX_TREASURY_FEE, \"Treasury fee is too high\");\n        treasuryFee = _treasuryFee;\n\n        emit NewTreasuryFee(_treasuryFee);\n    }\n\n    /**\n     * @notice Set admin\n     * @dev callable by Owner of the contract\n     * @param _admin: new admin address\n     */\n    function setAdmin(address _admin) external onlyOwner {\n        require(_admin != address(0), \"Cannot be zero address\");\n        admin = _admin;\n\n        emit NewAdmin(_admin);\n    }\n\n    /**\n     * @notice Set operator\n     * @dev callable by Owner of the contract\n     * @param _operator: new operator address\n     */\n    function setOperator(address _operator) external onlyOwner {\n        require(_operator != address(0), \"Cannot be zero address\");\n        operator = _operator;\n\n        emit NewOperator(_operator);\n    }\n    \n    /**\n    * @notice Add funds\n    */\n    receive() external payable {\n    }\n\n    /**\n    * @notice Set Claimabble Treasury Percent\n    * @dev callable by Admin\n    * @param _claimableTreasuryPercent: claimable percent\n    */\n    function setClaimableTreasuryPercent(uint256 _claimableTreasuryPercent)  external onlyAdmin {\n        require(_claimableTreasuryPercent > 0, \"Amount cannot be zero or less\");\n        claimableTreasuryPercent = _claimableTreasuryPercent;\n\n        emit NewClaimableTreasuryPercent(claimableTreasuryPercent);\n    }\n\n    /**\n     * @notice Claim 80% of treasury fund - collected as fee\n     * @dev Callable by admin\n     */\n    function claimTreasury() external nonReentrant onlyAdmin notContract {\n        uint256 claimableTreasuryAmount = ((treasuryAmount * claimableTreasuryPercent) / 100);\n        treasuryAmount -= claimableTreasuryAmount;\n        (bool success, ) = admin.call{value: claimableTreasuryAmount}(\"\");\n        require(success, \"TransferHelper: TRANSFER_FAILED\");\n\n        emit TreasuryClaim(admin, claimableTreasuryAmount);\n    }\n\n    /**\n    * @notice get admin address\n    * @return admin address\n    */\n    function getAdmin() public view returns(address) {\n        return admin;\n    }\n}\n",
  "sourcePath": "/Users/rangs/betbee/betbee-monorepo/contracts/prediction/PredictionAdministrator.sol",
  "compiler": {
    "name": "solc",
    "version": "0.8.7+commit.e28d00a7.Emscripten.clang"
  },
  "schemaVersion": "3.4.3",
  "updatedAt": "2021-11-03T09:14:48.799Z",
  "devdoc": {
    "kind": "dev",
    "methods": {
      "claimTreasury()": {
        "details": "Callable by admin"
      },
      "getAdmin()": {
        "returns": {
          "_0": "admin address"
        }
      },
      "owner()": {
        "details": "Returns the address of the current owner."
      },
      "paused()": {
        "details": "Returns true if the contract is paused, and false otherwise."
      },
      "renounceOwnership()": {
        "details": "Leaves the contract without owner. It will not be possible to call `onlyOwner` functions anymore. Can only be called by the current owner. NOTE: Renouncing ownership will leave the contract without an owner, thereby removing any functionality that is only available to the owner."
      },
      "setAdmin(address)": {
        "details": "callable by Owner of the contract",
        "params": {
          "_admin": ": new admin address"
        }
      },
      "setClaimableTreasuryPercent(uint256)": {
        "details": "callable by Admin",
        "params": {
          "_claimableTreasuryPercent": ": claimable percent"
        }
      },
      "setMinBetAmount(uint256)": {
        "details": "Callable by admin",
        "params": {
          "_minBetAmount": ": minimum bet amount to be set"
        }
      },
      "setOperator(address)": {
        "details": "callable by Owner of the contract",
        "params": {
          "_operator": ": new operator address"
        }
      },
      "setTreasuryFee(uint256)": {
        "details": "Callable by admin",
        "params": {
          "_treasuryFee": ": new treasury fee"
        }
      },
      "transferOwnership(address)": {
        "details": "Transfers ownership of the contract to a new account (`newOwner`). Can only be called by the current owner."
      }
    },
    "title": "PredictionAdministrator",
    "version": 1
  },
  "userdoc": {
    "kind": "user",
    "methods": {
      "claimTreasury()": {
        "notice": "Claim 80% of treasury fund - collected as fee"
      },
      "getAdmin()": {
        "notice": "get admin address"
      },
      "setAdmin(address)": {
        "notice": "Set admin"
      },
      "setClaimableTreasuryPercent(uint256)": {
        "notice": "Set Claimabble Treasury Percent"
      },
      "setMinBetAmount(uint256)": {
        "notice": "Set minBetAmount"
      },
      "setOperator(address)": {
        "notice": "Set operator"
      },
      "setTreasuryFee(uint256)": {
        "notice": "Set Treasury Fee"
      }
    },
    "version": 1
  }
}