{
  "contractName": "PriceManager",
  "abi": [
    {
      "inputs": [
        {
          "internalType": "address",
          "name": "_oracleAddress",
          "type": "address"
        },
        {
          "internalType": "string",
          "name": "_assetPair",
          "type": "string"
        }
      ],
      "stateMutability": "nonpayable",
      "type": "constructor"
    },
    {
      "inputs": [],
      "name": "assetPair",
      "outputs": [
        {
          "internalType": "string",
          "name": "",
          "type": "string"
        }
      ],
      "stateMutability": "view",
      "type": "function"
    },
    {
      "inputs": [],
      "name": "oracle",
      "outputs": [
        {
          "internalType": "contract AggregatorV3Interface",
          "name": "",
          "type": "address"
        }
      ],
      "stateMutability": "view",
      "type": "function"
    },
    {
      "inputs": [],
      "name": "oracleLatestRoundId",
      "outputs": [
        {
          "internalType": "uint256",
          "name": "",
          "type": "uint256"
        }
      ],
      "stateMutability": "view",
      "type": "function"
    }
  ],
  "bytecode": "0x608060405261012c60015534801561001657600080fd5b506040516200082f3803806200082f833981810160405281019061003a9190610230565b600073ffffffffffffffffffffffffffffffffffffffff168273ffffffffffffffffffffffffffffffffffffffff1614156100aa576040517f08c379a00000000000000000000000000000000000000000000000000000000081526004016100a1906102af565b60405180910390fd5b816000806101000a81548173ffffffffffffffffffffffffffffffffffffffff021916908373ffffffffffffffffffffffffffffffffffffffff1602179055508060029080519060200190610100929190610108565b5050506104c1565b8280546101149061039b565b90600052602060002090601f016020900481019282610136576000855561017d565b82601f1061014f57805160ff191683800117855561017d565b8280016001018555821561017d579182015b8281111561017c578251825591602001919060010190610161565b5b50905061018a919061018e565b5090565b5b808211156101a757600081600090555060010161018f565b5090565b60006101be6101b9846102f4565b6102cf565b9050828152602081018484840111156101da576101d9610461565b5b6101e5848285610368565b509392505050565b6000815190506101fc816104aa565b92915050565b600082601f8301126102175761021661045c565b5b81516102278482602086016101ab565b91505092915050565b600080604083850312156102475761024661046b565b5b6000610255858286016101ed565b925050602083015167ffffffffffffffff81111561027657610275610466565b5b61028285828601610202565b9150509250929050565b6000610299601683610325565b91506102a482610481565b602082019050919050565b600060208201905081810360008301526102c88161028c565b9050919050565b60006102d96102ea565b90506102e582826103cd565b919050565b6000604051905090565b600067ffffffffffffffff82111561030f5761030e61042d565b5b61031882610470565b9050602081019050919050565b600082825260208201905092915050565b600061034182610348565b9050919050565b600073ffffffffffffffffffffffffffffffffffffffff82169050919050565b60005b8381101561038657808201518184015260208101905061036b565b83811115610395576000848401525b50505050565b600060028204905060018216806103b357607f821691505b602082108114156103c7576103c66103fe565b5b50919050565b6103d682610470565b810181811067ffffffffffffffff821117156103f5576103f461042d565b5b80604052505050565b7f4e487b7100000000000000000000000000000000000000000000000000000000600052602260045260246000fd5b7f4e487b7100000000000000000000000000000000000000000000000000000000600052604160045260246000fd5b600080fd5b600080fd5b600080fd5b600080fd5b6000601f19601f8301169050919050565b7f496e76616c6964206f7261636c65206164647265737300000000000000000000600082015250565b6104b381610336565b81146104be57600080fd5b50565b61035e80620004d16000396000f3fe608060405234801561001057600080fd5b50600436106100415760003560e01c806310082c75146100465780637dc0d1d014610064578063ec32470314610082575b600080fd5b61004e6100a0565b60405161005b91906101ca565b60405180910390f35b61006c61012e565b60405161007991906101af565b60405180910390f35b61008a610152565b60405161009791906101ec565b60405180910390f35b600280546100ad906102b6565b80601f01602080910402602001604051908101604052809291908181526020018280546100d9906102b6565b80156101265780601f106100fb57610100808354040283529160200191610126565b820191906000526020600020905b81548152906001019060200180831161010957829003601f168201915b505050505081565b60008054906101000a900473ffffffffffffffffffffffffffffffffffffffff1681565b60035481565b6101618161024d565b82525050565b600061017282610207565b61017c8185610212565b935061018c818560208601610283565b61019581610317565b840191505092915050565b6101a981610243565b82525050565b60006020820190506101c46000830184610158565b92915050565b600060208201905081810360008301526101e48184610167565b905092915050565b600060208201905061020160008301846101a0565b92915050565b600081519050919050565b600082825260208201905092915050565b600073ffffffffffffffffffffffffffffffffffffffff82169050919050565b6000819050919050565b60006102588261025f565b9050919050565b600061026a82610271565b9050919050565b600061027c82610223565b9050919050565b60005b838110156102a1578082015181840152602081019050610286565b838111156102b0576000848401525b50505050565b600060028204905060018216806102ce57607f821691505b602082108114156102e2576102e16102e8565b5b50919050565b7f4e487b7100000000000000000000000000000000000000000000000000000000600052602260045260246000fd5b6000601f19601f830116905091905056fea26469706673582212200b4300d7f0189cf556b63b01add78375945b1b190188f95bd001e33e0be0ecf364736f6c63430008070033",
  "immutableReferences": {},
  "source": "// SPDX-License-Identifier: MIT\n\npragma solidity ^0.8.7;\n\nimport \"@chainlink/contracts/src/v0.8/interfaces/AggregatorV3Interface.sol\";\n\ncontract PriceManager {\n\n    AggregatorV3Interface public oracle;\n    uint256 oracleUpdateAllowance = 300;\n    string public assetPair; // BTCUSDT or ETHUSDT or BNBUSDT\n    uint256 public oracleLatestRoundId;\n\n    constructor(address _oracleAddress, string memory _assetPair) {\n        require(_oracleAddress != address(0), \"Invalid oracle address\");\n        oracle = AggregatorV3Interface(_oracleAddress);\n        assetPair = _assetPair;\n    }\n\n    function _getLatestPrice() internal view returns(uint256, int256) { \n        uint256 leastAllowedTimestamp = block.timestamp + oracleUpdateAllowance;\n        (uint80 roundId, int256 price, , uint256 timestamp, ) = oracle.latestRoundData();\n        require(timestamp <= leastAllowedTimestamp, \"Oracle update exceeded max timestamp allowance\");\n        require(uint256(roundId) > oracleLatestRoundId, \"Oracle roundId must be larger than oracleLatestRoundId\");\n        return (roundId, price);\n    }\n}\n",
  "sourcePath": "/Users/rangs/betbee/betbee-monorepo/contracts/prediction/PriceManager.sol",
  "compiler": {
    "name": "solc",
    "version": "0.8.7+commit.e28d00a7.Emscripten.clang"
  },
  "schemaVersion": "3.4.3",
  "updatedAt": "2021-11-03T09:14:48.821Z",
  "devdoc": {
    "kind": "dev",
    "methods": {},
    "version": 1
  },
  "userdoc": {
    "kind": "user",
    "methods": {},
    "version": 1
  }
}